{
  "contractName": "BoolBitStorage",
  "abi": [
    {
      "inputs": [
        {
          "internalType": "uint256",
          "name": "_packedBools",
          "type": "uint256"
        },
        {
          "internalType": "uint256",
          "name": "_boolNumber",
          "type": "uint256"
        }
      ],
      "name": "_getBoolean",
      "outputs": [
        {
          "internalType": "bool",
          "name": "",
          "type": "bool"
        }
      ],
      "stateMutability": "pure",
      "type": "function",
      "constant": true
    },
    {
      "inputs": [
        {
          "internalType": "uint256",
          "name": "_packedBools",
          "type": "uint256"
        },
        {
          "internalType": "uint256",
          "name": "_boolNumber",
          "type": "uint256"
        },
        {
          "internalType": "bool",
          "name": "_value",
          "type": "bool"
        }
      ],
      "name": "_setBoolean",
      "outputs": [
        {
          "internalType": "uint256",
          "name": "",
          "type": "uint256"
        }
      ],
      "stateMutability": "pure",
      "type": "function",
      "constant": true
    },
    {
      "inputs": [
        {
          "internalType": "uint256",
          "name": "tokenId",
          "type": "uint256"
        }
      ],
      "name": "_tokenIdToBoolBit",
      "outputs": [
        {
          "internalType": "uint256",
          "name": "",
          "type": "uint256"
        },
        {
          "internalType": "uint256",
          "name": "",
          "type": "uint256"
        }
      ],
      "stateMutability": "pure",
      "type": "function",
      "constant": true
    }
  ],
  "bytecode": "0x610472610053600b82828239805160001a607314610046577f4e487b7100000000000000000000000000000000000000000000000000000000600052600060045260246000fd5b30600052607381538281f3fe730000000000000000000000000000000000000000301460806040526004361061004b5760003560e01c806333720693146100505780633ea5d11e14610080578063f7d1c1dd146100b0575b600080fd5b61006a600480360381019061006591906101e2565b6100e1565b6040516100779190610244565b60405180910390f35b61009a6004803603810190610095919061025f565b610109565b6040516100a791906102ae565b60405180910390f35b6100ca60048036038101906100c591906102c9565b610130565b6040516100d89291906102f6565b60405180910390f35b600081156100f757826001901b84179050610102565b826001901b19841690505b9392505050565b60008060018385901c16905060018114610124576000610127565b60015b91505092915050565b600080600061010084610143919061037d565b905060008161010061015591906103ae565b856101609190610408565b90508181935093505050915091565b600080fd5b6000819050919050565b61018781610174565b811461019257600080fd5b50565b6000813590506101a48161017e565b92915050565b60008115159050919050565b6101bf816101aa565b81146101ca57600080fd5b50565b6000813590506101dc816101b6565b92915050565b6000806000606084860312156101fb576101fa61016f565b5b600061020986828701610195565b935050602061021a86828701610195565b925050604061022b868287016101cd565b9150509250925092565b61023e81610174565b82525050565b60006020820190506102596000830184610235565b92915050565b600080604083850312156102765761027561016f565b5b600061028485828601610195565b925050602061029585828601610195565b9150509250929050565b6102a8816101aa565b82525050565b60006020820190506102c3600083018461029f565b92915050565b6000602082840312156102df576102de61016f565b5b60006102ed84828501610195565b91505092915050565b600060408201905061030b6000830185610235565b6103186020830184610235565b9392505050565b7f4e487b7100000000000000000000000000000000000000000000000000000000600052601260045260246000fd5b7f4e487b7100000000000000000000000000000000000000000000000000000000600052601160045260246000fd5b600061038882610174565b915061039383610174565b9250826103a3576103a261031f565b5b828204905092915050565b60006103b982610174565b91506103c483610174565b9250817fffffffffffffffffffffffffffffffffffffffffffffffffffffffffffffffff04831182151516156103fd576103fc61034e565b5b828202905092915050565b600061041382610174565b915061041e83610174565b9250828210156104315761043061034e565b5b82820390509291505056fea264697066735822122041e76fc5b1f6c2aa3868229e034f12bc39aa962f519ee08f366501e0ea4e96e164736f6c63430008090033",
  "immutableReferences": {},
  "source": "// SPDX-License-Identifier: MIT\r\npragma solidity >=0.6.0 <0.9.0;\r\n\r\nlibrary BoolBitStorage {\r\n    function _getBoolean(uint256 _packedBools, uint256 _boolNumber)\r\n        public\r\n        pure\r\n        returns (bool)\r\n    {\r\n        uint256 flag = (_packedBools >> _boolNumber) & uint256(1);\r\n        return (flag == 1 ? true : false);\r\n    }\r\n\r\n    function _setBoolean(\r\n        uint256 _packedBools,\r\n        uint256 _boolNumber,\r\n        bool _value\r\n    ) public pure returns (uint256) {\r\n        if (_value) return _packedBools | (uint256(1) << _boolNumber);\r\n        else return _packedBools & ~(uint256(1) << _boolNumber);\r\n    }\r\n\r\n    function _tokenIdToBoolBit(uint256 tokenId)\r\n        public\r\n        pure\r\n        returns (uint256, uint256)\r\n    {\r\n        uint256 multiplier = tokenId / 256;\r\n        uint256 position = tokenId - (256 * multiplier);\r\n        return (multiplier, position);\r\n    }\r\n}\r\n",
  "sourcePath": "C:\\sgs020\\contracts\\BoolBitStorage.sol",
  "compiler": {
    "name": "solc",
    "version": "0.8.9+commit.e5eed63a.Emscripten.clang"
  },
  "schemaVersion": "3.4.3",
  "updatedAt": "2022-03-01T15:51:00.373Z",
  "networkType": "ethereum",
  "devdoc": {
    "kind": "dev",
    "methods": {},
    "version": 1
  },
  "userdoc": {
    "kind": "user",
    "methods": {},
    "version": 1
  }
}