{
  "contractName": "Gateway",
  "abi": [
    {
      "inputs": [
        {
          "internalType": "address",
          "name": "addr",
          "type": "address"
        }
      ],
      "stateMutability": "nonpayable",
      "type": "constructor"
    },
    {
      "anonymous": false,
      "inputs": [
        {
          "indexed": true,
          "internalType": "uint256",
          "name": "tokenId",
          "type": "uint256"
        }
      ],
      "name": "NewPrice",
      "type": "event"
    },
    {
      "anonymous": false,
      "inputs": [
        {
          "indexed": true,
          "internalType": "uint256",
          "name": "tokenId",
          "type": "uint256"
        }
      ],
      "name": "NewTopBidder",
      "type": "event"
    },
    {
      "anonymous": false,
      "inputs": [
        {
          "indexed": true,
          "internalType": "uint256",
          "name": "tokenId",
          "type": "uint256"
        },
        {
          "indexed": false,
          "internalType": "bool",
          "name": "status",
          "type": "bool"
        }
      ],
      "name": "SaleStatus",
      "type": "event"
    },
    {
      "stateMutability": "payable",
      "type": "receive",
      "payable": true
    },
    {
      "inputs": [
        {
          "internalType": "uint256",
          "name": "tokenId",
          "type": "uint256"
        }
      ],
      "name": "refreshOne",
      "outputs": [
        {
          "components": [
            {
              "internalType": "uint256[]",
              "name": "ids",
              "type": "uint256[]"
            },
            {
              "internalType": "string[]",
              "name": "uris",
              "type": "string[]"
            },
            {
              "internalType": "address[]",
              "name": "owners",
              "type": "address[]"
            },
            {
              "internalType": "address[]",
              "name": "garages",
              "type": "address[]"
            },
            {
              "internalType": "bool[]",
              "name": "sales",
              "type": "bool[]"
            },
            {
              "internalType": "uint256[]",
              "name": "prices",
              "type": "uint256[]"
            },
            {
              "internalType": "bool[]",
              "name": "auctions",
              "type": "bool[]"
            },
            {
              "internalType": "address[]",
              "name": "bidders",
              "type": "address[]"
            }
          ],
          "internalType": "struct Gateway.getObject",
          "name": "",
          "type": "tuple"
        }
      ],
      "stateMutability": "view",
      "type": "function",
      "constant": true
    },
    {
      "inputs": [],
      "name": "getEverything",
      "outputs": [
        {
          "components": [
            {
              "internalType": "uint256[]",
              "name": "ids",
              "type": "uint256[]"
            },
            {
              "internalType": "string[]",
              "name": "uris",
              "type": "string[]"
            },
            {
              "internalType": "address[]",
              "name": "owners",
              "type": "address[]"
            },
            {
              "internalType": "address[]",
              "name": "garages",
              "type": "address[]"
            },
            {
              "internalType": "bool[]",
              "name": "sales",
              "type": "bool[]"
            },
            {
              "internalType": "uint256[]",
              "name": "prices",
              "type": "uint256[]"
            },
            {
              "internalType": "bool[]",
              "name": "auctions",
              "type": "bool[]"
            },
            {
              "internalType": "address[]",
              "name": "bidders",
              "type": "address[]"
            }
          ],
          "internalType": "struct Gateway.getObject",
          "name": "",
          "type": "tuple"
        }
      ],
      "stateMutability": "view",
      "type": "function",
      "constant": true
    },
    {
      "inputs": [],
      "name": "getMarketVehicles",
      "outputs": [
        {
          "components": [
            {
              "internalType": "uint256[]",
              "name": "ids",
              "type": "uint256[]"
            },
            {
              "internalType": "string[]",
              "name": "uris",
              "type": "string[]"
            },
            {
              "internalType": "address[]",
              "name": "owners",
              "type": "address[]"
            },
            {
              "internalType": "address[]",
              "name": "garages",
              "type": "address[]"
            },
            {
              "internalType": "bool[]",
              "name": "sales",
              "type": "bool[]"
            },
            {
              "internalType": "uint256[]",
              "name": "prices",
              "type": "uint256[]"
            },
            {
              "internalType": "bool[]",
              "name": "auctions",
              "type": "bool[]"
            },
            {
              "internalType": "address[]",
              "name": "bidders",
              "type": "address[]"
            }
          ],
          "internalType": "struct Gateway.getObject",
          "name": "",
          "type": "tuple"
        }
      ],
      "stateMutability": "view",
      "type": "function",
      "constant": true
    },
    {
      "inputs": [],
      "name": "balanceOfSC",
      "outputs": [
        {
          "internalType": "uint256",
          "name": "",
          "type": "uint256"
        }
      ],
      "stateMutability": "view",
      "type": "function",
      "constant": true
    },
    {
      "inputs": [
        {
          "internalType": "uint256",
          "name": "tokenId",
          "type": "uint256"
        }
      ],
      "name": "getVehiclePrice",
      "outputs": [
        {
          "internalType": "uint256",
          "name": "",
          "type": "uint256"
        }
      ],
      "stateMutability": "view",
      "type": "function",
      "constant": true
    },
    {
      "inputs": [
        {
          "internalType": "uint256",
          "name": "tokenId",
          "type": "uint256"
        }
      ],
      "name": "getTopBidder",
      "outputs": [
        {
          "internalType": "address",
          "name": "",
          "type": "address"
        }
      ],
      "stateMutability": "view",
      "type": "function",
      "constant": true
    },
    {
      "inputs": [
        {
          "internalType": "uint256",
          "name": "tokenId",
          "type": "uint256"
        }
      ],
      "name": "isAuction",
      "outputs": [
        {
          "internalType": "bool",
          "name": "",
          "type": "bool"
        }
      ],
      "stateMutability": "view",
      "type": "function",
      "constant": true
    },
    {
      "inputs": [
        {
          "internalType": "uint256",
          "name": "tokenId",
          "type": "uint256"
        }
      ],
      "name": "isForSale",
      "outputs": [
        {
          "internalType": "bool",
          "name": "",
          "type": "bool"
        }
      ],
      "stateMutability": "view",
      "type": "function",
      "constant": true
    },
    {
      "inputs": [
        {
          "internalType": "uint256",
          "name": "tokenId",
          "type": "uint256"
        },
        {
          "internalType": "uint256",
          "name": "price",
          "type": "uint256"
        }
      ],
      "name": "listAuction",
      "outputs": [],
      "stateMutability": "nonpayable",
      "type": "function"
    },
    {
      "inputs": [
        {
          "internalType": "uint256",
          "name": "tokenId",
          "type": "uint256"
        },
        {
          "internalType": "uint256",
          "name": "price",
          "type": "uint256"
        }
      ],
      "name": "listInstant",
      "outputs": [],
      "stateMutability": "nonpayable",
      "type": "function"
    },
    {
      "inputs": [
        {
          "internalType": "uint256",
          "name": "tokenId",
          "type": "uint256"
        }
      ],
      "name": "delistAuction",
      "outputs": [],
      "stateMutability": "nonpayable",
      "type": "function"
    },
    {
      "inputs": [
        {
          "internalType": "uint256",
          "name": "tokenId",
          "type": "uint256"
        }
      ],
      "name": "delistInstant",
      "outputs": [],
      "stateMutability": "nonpayable",
      "type": "function"
    },
    {
      "inputs": [
        {
          "internalType": "uint256",
          "name": "tokenId",
          "type": "uint256"
        },
        {
          "internalType": "uint256",
          "name": "_price",
          "type": "uint256"
        }
      ],
      "name": "setVehiclePrice",
      "outputs": [],
      "stateMutability": "nonpayable",
      "type": "function"
    },
    {
      "inputs": [
        {
          "internalType": "uint256",
          "name": "tokenId",
          "type": "uint256"
        }
      ],
      "name": "buy",
      "outputs": [],
      "stateMutability": "payable",
      "type": "function",
      "payable": true
    },
    {
      "inputs": [
        {
          "internalType": "uint256",
          "name": "tokenId",
          "type": "uint256"
        }
      ],
      "name": "bid",
      "outputs": [],
      "stateMutability": "payable",
      "type": "function",
      "payable": true
    },
    {
      "inputs": [
        {
          "internalType": "uint256",
          "name": "tokenId",
          "type": "uint256"
        }
      ],
      "name": "concludeAuction",
      "outputs": [],
      "stateMutability": "nonpayable",
      "type": "function"
    }
  ],
  "bytecode": "0x6080604052655af3107a40006004553480156200001b57600080fd5b5060405162004eaf38038062004eaf8339818101604052810190620000419190620000f3565b80600560006101000a81548173ffffffffffffffffffffffffffffffffffffffff021916908373ffffffffffffffffffffffffffffffffffffffff1602179055505062000125565b600080fd5b600073ffffffffffffffffffffffffffffffffffffffff82169050919050565b6000620000bb826200008e565b9050919050565b620000cd81620000ae565b8114620000d957600080fd5b50565b600081519050620000ed81620000c2565b92915050565b6000602082840312156200010c576200010b62000089565b5b60006200011c84828501620000dc565b91505092915050565b614d7a80620001356000396000f3fe6080604052600436106100f75760003560e01c80638704f2a31161008a578063e19297e011610059578063e19297e01461033b578063e2abc7cc14610364578063ebae357a1461038d578063fc98ae11146103b8576100fe565b80638704f2a31461027c5780638b79aa20146102b9578063b8761301146102f6578063d96a094a1461031f576100fe565b80634c5210f6116100c65780634c5210f6146101b057806352885b3b146101d95780635825be9a146102165780638546d0021461023f576100fe565b806304744d0814610103578063251781e71461014057806325605c6a14610169578063454a2ab314610194576100fe565b366100fe57005b600080fd5b34801561010f57600080fd5b5061012a60048036038101906101259190613e3a565b6103e3565b6040516101379190613ea8565b60405180910390f35b34801561014c57600080fd5b5061016760048036038101906101629190613ec3565b61053f565b005b34801561017557600080fd5b5061017e61082a565b60405161018b9190613f12565b60405180910390f35b6101ae60048036038101906101a99190613e3a565b610832565b005b3480156101bc57600080fd5b506101d760048036038101906101d29190613ec3565b610b19565b005b3480156101e557600080fd5b5061020060048036038101906101fb9190613e3a565b610e11565b60405161020d91906143af565b60405180910390f35b34801561022257600080fd5b5061023d60048036038101906102389190613e3a565b6114c9565b005b34801561024b57600080fd5b5061026660048036038101906102619190613e3a565b611731565b60405161027391906143e0565b60405180910390f35b34801561028857600080fd5b506102a3600480360381019061029e9190613e3a565b6117f9565b6040516102b091906143e0565b60405180910390f35b3480156102c557600080fd5b506102e060048036038101906102db9190613e3a565b6118c1565b6040516102ed9190613f12565b60405180910390f35b34801561030257600080fd5b5061031d60048036038101906103189190613e3a565b6119d3565b005b61033960048036038101906103349190613e3a565b611fac565b005b34801561034757600080fd5b50610362600480360381019061035d9190613ec3565b61249a565b005b34801561037057600080fd5b5061038b60048036038101906103869190613e3a565b612747565b005b34801561039957600080fd5b506103a26129f1565b6040516103af91906143af565b60405180910390f35b3480156103c457600080fd5b506103cd612dd8565b6040516103da91906143af565b60405180910390f35b600081600560009054906101000a900473ffffffffffffffffffffffffffffffffffffffff1673ffffffffffffffffffffffffffffffffffffffff16634f558e79826040518263ffffffff1660e01b81526004016104419190613f12565b60206040518083038186803b15801561045957600080fd5b505afa15801561046d573d6000803e3d6000fd5b505050506040513d601f19601f820116820180604052508101906104919190614427565b61049a57600080fd5b826104a4816135fe565b6104e3576040517f08c379a00000000000000000000000000000000000000000000000000000000081526004016104da906144b1565b60405180910390fd5b836104ed81613735565b61052c576040517f08c379a00000000000000000000000000000000000000000000000000000000081526004016105239061451d565b60405180910390fd5b6105358561386d565b9350505050919050565b81600560009054906101000a900473ffffffffffffffffffffffffffffffffffffffff1673ffffffffffffffffffffffffffffffffffffffff16634f558e79826040518263ffffffff1660e01b815260040161059b9190613f12565b60206040518083038186803b1580156105b357600080fd5b505afa1580156105c7573d6000803e3d6000fd5b505050506040513d601f19601f820116820180604052508101906105eb9190614427565b6105f457600080fd5b823373ffffffffffffffffffffffffffffffffffffffff16600560009054906101000a900473ffffffffffffffffffffffffffffffffffffffff1673ffffffffffffffffffffffffffffffffffffffff16636352211e836040518263ffffffff1660e01b81526004016106679190613f12565b60206040518083038186803b15801561067f57600080fd5b505afa158015610693573d6000803e3d6000fd5b505050506040513d601f19601f820116820180604052508101906106b79190614569565b73ffffffffffffffffffffffffffffffffffffffff161461070d576040517f08c379a0000000000000000000000000000000000000000000000000000000008152600401610704906145e2565b60405180910390fd5b83610717816135fe565b610756576040517f08c379a000000000000000000000000000000000000000000000000000000000815260040161074d906144b1565b60405180910390fd5b8461076081613735565b156107a0576040517f08c379a00000000000000000000000000000000000000000000000000000000081526004016107979061464e565b60405180910390fd5b8466038d7ea4c6800081116107ea576040517f08c379a00000000000000000000000000000000000000000000000000000000081526004016107e1906146ba565b60405180910390fd5b6107f487876138aa565b867f270b316b51ab2cf3a3bb8ca4d22e76a327d05e762fcaa8bd6afaf8cfde9270b760405160405180910390a250505050505050565b600047905090565b80600560009054906101000a900473ffffffffffffffffffffffffffffffffffffffff1673ffffffffffffffffffffffffffffffffffffffff16634f558e79826040518263ffffffff1660e01b815260040161088e9190613f12565b60206040518083038186803b1580156108a657600080fd5b505afa1580156108ba573d6000803e3d6000fd5b505050506040513d601f19601f820116820180604052508101906108de9190614427565b6108e757600080fd5b816108f181613735565b610930576040517f08c379a00000000000000000000000000000000000000000000000000000000081526004016109279061451d565b60405180910390fd5b610939836138c6565b341161097a576040517f08c379a000000000000000000000000000000000000000000000000000000000815260040161097190614726565b60405180910390fd5b600560009054906101000a900473ffffffffffffffffffffffffffffffffffffffff1673ffffffffffffffffffffffffffffffffffffffff16636352211e846040518263ffffffff1660e01b81526004016109d59190613f12565b60206040518083038186803b1580156109ed57600080fd5b505afa158015610a01573d6000803e3d6000fd5b505050506040513d601f19601f82011682018060405250810190610a259190614569565b73ffffffffffffffffffffffffffffffffffffffff163373ffffffffffffffffffffffffffffffffffffffff161415610a93576040517f08c379a0000000000000000000000000000000000000000000000000000000008152600401610a8a90614792565b60405180910390fd5b610a9c836138e3565b610aa63034613950565b610ab083346138aa565b610aba8333613a04565b827f270b316b51ab2cf3a3bb8ca4d22e76a327d05e762fcaa8bd6afaf8cfde9270b760405160405180910390a2827fc95960509dc0aa4c1e2234f4c1313b2a1466421ea6d179fb0714306305b9c1e560405160405180910390a2505050565b81600560009054906101000a900473ffffffffffffffffffffffffffffffffffffffff1673ffffffffffffffffffffffffffffffffffffffff16634f558e79826040518263ffffffff1660e01b8152600401610b759190613f12565b60206040518083038186803b158015610b8d57600080fd5b505afa158015610ba1573d6000803e3d6000fd5b505050506040513d601f19601f82011682018060405250810190610bc59190614427565b610bce57600080fd5b823373ffffffffffffffffffffffffffffffffffffffff16600560009054906101000a900473ffffffffffffffffffffffffffffffffffffffff1673ffffffffffffffffffffffffffffffffffffffff16636352211e836040518263ffffffff1660e01b8152600401610c419190613f12565b60206040518083038186803b158015610c5957600080fd5b505afa158015610c6d573d6000803e3d6000fd5b505050506040513d601f19601f82011682018060405250810190610c919190614569565b73ffffffffffffffffffffffffffffffffffffffff1614610ce7576040517f08c379a0000000000000000000000000000000000000000000000000000000008152600401610cde906145e2565b60405180910390fd5b83610cf1816135fe565b15610d31576040517f08c379a0000000000000000000000000000000000000000000000000000000008152600401610d28906147fe565b60405180910390fd5b84610d3b81613735565b15610d7b576040517f08c379a0000000000000000000000000000000000000000000000000000000008152600401610d729061464e565b60405180910390fd5b8466038d7ea4c680008111610dc5576040517f08c379a0000000000000000000000000000000000000000000000000000000008152600401610dbc906146ba565b60405180910390fd5b610dcf8787613a5a565b867fff097af85fdb3be6e4d1932c7fd248c57a2b3e746f8db46648b18eb6244ddff36001604051610e0091906143e0565b60405180910390a250505050505050565b610e19613dab565b610e21613dab565b6000600167ffffffffffffffff811115610e3e57610e3d61481e565b5b604051908082528060200260200182016040528015610e6c5781602001602082028036833780820191505090505b5090506000600167ffffffffffffffff811115610e8c57610e8b61481e565b5b604051908082528060200260200182016040528015610ebf57816020015b6060815260200190600190039081610eaa5790505b5090506000600167ffffffffffffffff811115610edf57610ede61481e565b5b604051908082528060200260200182016040528015610f0d5781602001602082028036833780820191505090505b5090506000600167ffffffffffffffff811115610f2d57610f2c61481e565b5b604051908082528060200260200182016040528015610f5b5781602001602082028036833780820191505090505b5090506000600167ffffffffffffffff811115610f7b57610f7a61481e565b5b604051908082528060200260200182016040528015610fa95781602001602082028036833780820191505090505b5090506000600167ffffffffffffffff811115610fc957610fc861481e565b5b604051908082528060200260200182016040528015610ff75781602001602082028036833780820191505090505b5090506000600167ffffffffffffffff8111156110175761101661481e565b5b6040519080825280602002602001820160405280156110455781602001602082028036833780820191505090505b5090506000600167ffffffffffffffff8111156110655761106461481e565b5b6040519080825280602002602001820160405280156110935781602001602082028036833780820191505090505b5090508a886000815181106110ab576110aa61484d565b5b602002602001018181525050600560009054906101000a900473ffffffffffffffffffffffffffffffffffffffff1673ffffffffffffffffffffffffffffffffffffffff1663c87b56dd8c6040518263ffffffff1660e01b81526004016111129190613f12565b60006040518083038186803b15801561112a57600080fd5b505afa15801561113e573d6000803e3d6000fd5b505050506040513d6000823e3d601f19601f820116820180604052508101906111679190614973565b8760008151811061117b5761117a61484d565b5b6020026020010181905250600560009054906101000a900473ffffffffffffffffffffffffffffffffffffffff1673ffffffffffffffffffffffffffffffffffffffff16636352211e8c6040518263ffffffff1660e01b81526004016111e19190613f12565b60206040518083038186803b1580156111f957600080fd5b505afa15801561120d573d6000803e3d6000fd5b505050506040513d601f19601f820116820180604052508101906112319190614569565b866000815181106112455761124461484d565b5b602002602001019073ffffffffffffffffffffffffffffffffffffffff16908173ffffffffffffffffffffffffffffffffffffffff1681525050600560009054906101000a900473ffffffffffffffffffffffffffffffffffffffff1673ffffffffffffffffffffffffffffffffffffffff166385fd3cb88c6040518263ffffffff1660e01b81526004016112da9190613f12565b60206040518083038186803b1580156112f257600080fd5b505afa158015611306573d6000803e3d6000fd5b505050506040513d601f19601f8201168201806040525081019061132a9190614569565b8560008151811061133e5761133d61484d565b5b602002602001019073ffffffffffffffffffffffffffffffffffffffff16908173ffffffffffffffffffffffffffffffffffffffff168152505060006113838c6135fe565b9050808560008151811061139a5761139961484d565b5b602002602001019015159081151581525050801561146f576113bb8c6138c6565b846000815181106113cf576113ce61484d565b5b60200260200101818152505060006113e68d613735565b905080846000815181106113fd576113fc61484d565b5b602002602001019015159081151581525050801561146d5761141e8d61386d565b836000815181106114325761143161484d565b5b602002602001019073ffffffffffffffffffffffffffffffffffffffff16908173ffffffffffffffffffffffffffffffffffffffff16815250505b505b888a60000181905250878a60200181905250868a60400181905250858a60600181905250848a60800181905250838a60a00181905250828a60c00181905250818a60e00181905250899a5050505050505050505050919050565b80600560009054906101000a900473ffffffffffffffffffffffffffffffffffffffff1673ffffffffffffffffffffffffffffffffffffffff16634f558e79826040518263ffffffff1660e01b81526004016115259190613f12565b60206040518083038186803b15801561153d57600080fd5b505afa158015611551573d6000803e3d6000fd5b505050506040513d601f19601f820116820180604052508101906115759190614427565b61157e57600080fd5b813373ffffffffffffffffffffffffffffffffffffffff16600560009054906101000a900473ffffffffffffffffffffffffffffffffffffffff1673ffffffffffffffffffffffffffffffffffffffff16636352211e836040518263ffffffff1660e01b81526004016115f19190613f12565b60206040518083038186803b15801561160957600080fd5b505afa15801561161d573d6000803e3d6000fd5b505050506040513d601f19601f820116820180604052508101906116419190614569565b73ffffffffffffffffffffffffffffffffffffffff1614611697576040517f08c379a000000000000000000000000000000000000000000000000000000000815260040161168e906145e2565b60405180910390fd5b826116a181613735565b6116e0576040517f08c379a00000000000000000000000000000000000000000000000000000000081526004016116d79061451d565b60405180910390fd5b6116e9846138e3565b6116f284613a73565b837fff097af85fdb3be6e4d1932c7fd248c57a2b3e746f8db46648b18eb6244ddff3600060405161172391906143e0565b60405180910390a250505050565b600081600560009054906101000a900473ffffffffffffffffffffffffffffffffffffffff1673ffffffffffffffffffffffffffffffffffffffff16634f558e79826040518263ffffffff1660e01b815260040161178f9190613f12565b60206040518083038186803b1580156117a757600080fd5b505afa1580156117bb573d6000803e3d6000fd5b505050506040513d601f19601f820116820180604052508101906117df9190614427565b6117e857600080fd5b6117f1836135fe565b915050919050565b600081600560009054906101000a900473ffffffffffffffffffffffffffffffffffffffff1673ffffffffffffffffffffffffffffffffffffffff16634f558e79826040518263ffffffff1660e01b81526004016118579190613f12565b60206040518083038186803b15801561186f57600080fd5b505afa158015611883573d6000803e3d6000fd5b505050506040513d601f19601f820116820180604052508101906118a79190614427565b6118b057600080fd5b6118b983613735565b915050919050565b600081600560009054906101000a900473ffffffffffffffffffffffffffffffffffffffff1673ffffffffffffffffffffffffffffffffffffffff16634f558e79826040518263ffffffff1660e01b815260040161191f9190613f12565b60206040518083038186803b15801561193757600080fd5b505afa15801561194b573d6000803e3d6000fd5b505050506040513d601f19601f8201168201806040525081019061196f9190614427565b61197857600080fd5b82611982816135fe565b6119c1576040517f08c379a00000000000000000000000000000000000000000000000000000000081526004016119b8906144b1565b60405180910390fd5b6119ca846138c6565b92505050919050565b80600560009054906101000a900473ffffffffffffffffffffffffffffffffffffffff1673ffffffffffffffffffffffffffffffffffffffff16634f558e79826040518263ffffffff1660e01b8152600401611a2f9190613f12565b60206040518083038186803b158015611a4757600080fd5b505afa158015611a5b573d6000803e3d6000fd5b505050506040513d601f19601f82011682018060405250810190611a7f9190614427565b611a8857600080fd5b813373ffffffffffffffffffffffffffffffffffffffff16600560009054906101000a900473ffffffffffffffffffffffffffffffffffffffff1673ffffffffffffffffffffffffffffffffffffffff16636352211e836040518263ffffffff1660e01b8152600401611afb9190613f12565b60206040518083038186803b158015611b1357600080fd5b505afa158015611b27573d6000803e3d6000fd5b505050506040513d601f19601f82011682018060405250810190611b4b9190614569565b73ffffffffffffffffffffffffffffffffffffffff1614611ba1576040517f08c379a0000000000000000000000000000000000000000000000000000000008152600401611b98906145e2565b60405180910390fd5b82611bab81613735565b611bea576040517f08c379a0000000000000000000000000000000000000000000000000000000008152600401611be19061451d565b60405180910390fd5b6000611bf58561386d565b9050600073ffffffffffffffffffffffffffffffffffffffff168173ffffffffffffffffffffffffffffffffffffffff161415611c3157600080fd5b611cfa600560009054906101000a900473ffffffffffffffffffffffffffffffffffffffff1673ffffffffffffffffffffffffffffffffffffffff16636352211e876040518263ffffffff1660e01b8152600401611c8f9190613f12565b60206040518083038186803b158015611ca757600080fd5b505afa158015611cbb573d6000803e3d6000fd5b505050506040513d601f19601f82011682018060405250810190611cdf9190614569565b600454611ceb886138c6565b611cf591906149eb565b613950565b600560009054906101000a900473ffffffffffffffffffffffffffffffffffffffff1673ffffffffffffffffffffffffffffffffffffffff166323b872dd600560009054906101000a900473ffffffffffffffffffffffffffffffffffffffff1673ffffffffffffffffffffffffffffffffffffffff16636352211e886040518263ffffffff1660e01b8152600401611d939190613f12565b60206040518083038186803b158015611dab57600080fd5b505afa158015611dbf573d6000803e3d6000fd5b505050506040513d601f19601f82011682018060405250810190611de39190614569565b83886040518463ffffffff1660e01b8152600401611e0393929190614a1f565b600060405180830381600087803b158015611e1d57600080fd5b505af1158015611e31573d6000803e3d6000fd5b505050508073ffffffffffffffffffffffffffffffffffffffff16600560009054906101000a900473ffffffffffffffffffffffffffffffffffffffff1673ffffffffffffffffffffffffffffffffffffffff16636352211e876040518263ffffffff1660e01b8152600401611ea79190613f12565b60206040518083038186803b158015611ebf57600080fd5b505afa158015611ed3573d6000803e3d6000fd5b505050506040513d601f19601f82011682018060405250810190611ef79190614569565b73ffffffffffffffffffffffffffffffffffffffff1614611f4d576040517f08c379a0000000000000000000000000000000000000000000000000000000008152600401611f4490614aa2565b60405180910390fd5b611f58856000613ad2565b611f63856000613a04565b611f6c85613c1e565b847fff097af85fdb3be6e4d1932c7fd248c57a2b3e746f8db46648b18eb6244ddff36000604051611f9d91906143e0565b60405180910390a25050505050565b80600560009054906101000a900473ffffffffffffffffffffffffffffffffffffffff1673ffffffffffffffffffffffffffffffffffffffff16634f558e79826040518263ffffffff1660e01b81526004016120089190613f12565b60206040518083038186803b15801561202057600080fd5b505afa158015612034573d6000803e3d6000fd5b505050506040513d601f19601f820116820180604052508101906120589190614427565b61206157600080fd5b8161206b816135fe565b6120aa576040517f08c379a00000000000000000000000000000000000000000000000000000000081526004016120a1906144b1565b60405180910390fd5b826120b481613735565b156120f4576040517f08c379a00000000000000000000000000000000000000000000000000000000081526004016120eb9061464e565b60405180910390fd5b6120fd846138c6565b341461213e576040517f08c379a000000000000000000000000000000000000000000000000000000000815260040161213590614b0e565b60405180910390fd5b6121ff600560009054906101000a900473ffffffffffffffffffffffffffffffffffffffff1673ffffffffffffffffffffffffffffffffffffffff16636352211e866040518263ffffffff1660e01b815260040161219c9190613f12565b60206040518083038186803b1580156121b457600080fd5b505afa1580156121c8573d6000803e3d6000fd5b505050506040513d601f19601f820116820180604052508101906121ec9190614569565b600454346121fa91906149eb565b613950565b600560009054906101000a900473ffffffffffffffffffffffffffffffffffffffff1673ffffffffffffffffffffffffffffffffffffffff166323b872dd600560009054906101000a900473ffffffffffffffffffffffffffffffffffffffff1673ffffffffffffffffffffffffffffffffffffffff16636352211e876040518263ffffffff1660e01b81526004016122989190613f12565b60206040518083038186803b1580156122b057600080fd5b505afa1580156122c4573d6000803e3d6000fd5b505050506040513d601f19601f820116820180604052508101906122e89190614569565b33876040518463ffffffff1660e01b815260040161230893929190614a1f565b600060405180830381600087803b15801561232257600080fd5b505af1158015612336573d6000803e3d6000fd5b505050503373ffffffffffffffffffffffffffffffffffffffff16600560009054906101000a900473ffffffffffffffffffffffffffffffffffffffff1673ffffffffffffffffffffffffffffffffffffffff16636352211e866040518263ffffffff1660e01b81526004016123ac9190613f12565b60206040518083038186803b1580156123c457600080fd5b505afa1580156123d8573d6000803e3d6000fd5b505050506040513d601f19601f820116820180604052508101906123fc9190614569565b73ffffffffffffffffffffffffffffffffffffffff1614612452576040517f08c379a000000000000000000000000000000000000000000000000000000000815260040161244990614aa2565b60405180910390fd5b61245b84613c1e565b837fff097af85fdb3be6e4d1932c7fd248c57a2b3e746f8db46648b18eb6244ddff3600060405161248c91906143e0565b60405180910390a250505050565b81600560009054906101000a900473ffffffffffffffffffffffffffffffffffffffff1673ffffffffffffffffffffffffffffffffffffffff16634f558e79826040518263ffffffff1660e01b81526004016124f69190613f12565b60206040518083038186803b15801561250e57600080fd5b505afa158015612522573d6000803e3d6000fd5b505050506040513d601f19601f820116820180604052508101906125469190614427565b61254f57600080fd5b823373ffffffffffffffffffffffffffffffffffffffff16600560009054906101000a900473ffffffffffffffffffffffffffffffffffffffff1673ffffffffffffffffffffffffffffffffffffffff16636352211e836040518263ffffffff1660e01b81526004016125c29190613f12565b60206040518083038186803b1580156125da57600080fd5b505afa1580156125ee573d6000803e3d6000fd5b505050506040513d601f19601f820116820180604052508101906126129190614569565b73ffffffffffffffffffffffffffffffffffffffff1614612668576040517f08c379a000000000000000000000000000000000000000000000000000000000815260040161265f906145e2565b60405180910390fd5b83612672816135fe565b156126b2576040517f08c379a00000000000000000000000000000000000000000000000000000000081526004016126a9906147fe565b60405180910390fd5b8366038d7ea4c6800081116126fc576040517f08c379a00000000000000000000000000000000000000000000000000000000081526004016126f3906146ba565b60405180910390fd5b6127068686613c48565b857fff097af85fdb3be6e4d1932c7fd248c57a2b3e746f8db46648b18eb6244ddff3600160405161273791906143e0565b60405180910390a2505050505050565b80600560009054906101000a900473ffffffffffffffffffffffffffffffffffffffff1673ffffffffffffffffffffffffffffffffffffffff16634f558e79826040518263ffffffff1660e01b81526004016127a39190613f12565b60206040518083038186803b1580156127bb57600080fd5b505afa1580156127cf573d6000803e3d6000fd5b505050506040513d601f19601f820116820180604052508101906127f39190614427565b6127fc57600080fd5b813373ffffffffffffffffffffffffffffffffffffffff16600560009054906101000a900473ffffffffffffffffffffffffffffffffffffffff1673ffffffffffffffffffffffffffffffffffffffff16636352211e836040518263ffffffff1660e01b815260040161286f9190613f12565b60206040518083038186803b15801561288757600080fd5b505afa15801561289b573d6000803e3d6000fd5b505050506040513d601f19601f820116820180604052508101906128bf9190614569565b73ffffffffffffffffffffffffffffffffffffffff1614612915576040517f08c379a000000000000000000000000000000000000000000000000000000000815260040161290c906145e2565b60405180910390fd5b8261291f816135fe565b61295e576040517f08c379a0000000000000000000000000000000000000000000000000000000008152600401612955906144b1565b60405180910390fd5b8361296881613735565b156129a8576040517f08c379a000000000000000000000000000000000000000000000000000000000815260040161299f9061464e565b60405180910390fd5b6129b185613c1e565b847fff097af85fdb3be6e4d1932c7fd248c57a2b3e746f8db46648b18eb6244ddff360006040516129e291906143e0565b60405180910390a25050505050565b6129f9613dab565b612a01613dab565b6000600560009054906101000a900473ffffffffffffffffffffffffffffffffffffffff1673ffffffffffffffffffffffffffffffffffffffff166318160ddd6040518163ffffffff1660e01b815260040160206040518083038186803b158015612a6b57600080fd5b505afa158015612a7f573d6000803e3d6000fd5b505050506040513d601f19601f82011682018060405250810190612aa39190614b43565b905060008167ffffffffffffffff811115612ac157612ac061481e565b5b604051908082528060200260200182016040528015612aef5781602001602082028036833780820191505090505b50905060008267ffffffffffffffff811115612b0e57612b0d61481e565b5b604051908082528060200260200182016040528015612b3c5781602001602082028036833780820191505090505b50905060008367ffffffffffffffff811115612b5b57612b5a61481e565b5b604051908082528060200260200182016040528015612b895781602001602082028036833780820191505090505b50905060008467ffffffffffffffff811115612ba857612ba761481e565b5b604051908082528060200260200182016040528015612bd65781602001602082028036833780820191505090505b50905060005b85811015612da7576000600560009054906101000a900473ffffffffffffffffffffffffffffffffffffffff1673ffffffffffffffffffffffffffffffffffffffff16634f6ccce7836040518263ffffffff1660e01b8152600401612c419190613f12565b60206040518083038186803b158015612c5957600080fd5b505afa158015612c6d573d6000803e3d6000fd5b505050506040513d601f19601f82011682018060405250810190612c919190614b43565b90506000612c9e826135fe565b905080878481518110612cb457612cb361484d565b5b6020026020010190151590811515815250508015612d92576000612cd7836138c6565b905080878581518110612ced57612cec61484d565b5b6020026020010181815250506000612d0484613735565b905080878681518110612d1a57612d1961484d565b5b6020026020010190151590811515815250508015612d8f576000612d3d8561386d565b905080878781518110612d5357612d5261484d565b5b602002602001019073ffffffffffffffffffffffffffffffffffffffff16908173ffffffffffffffffffffffffffffffffffffffff1681525050505b50505b50508080612d9f90614b70565b915050612bdc565b50838660800181905250828660a00181905250818660c00181905250808660e0018190525085965050505050505090565b612de0613dab565b612de8613dab565b6000600560009054906101000a900473ffffffffffffffffffffffffffffffffffffffff1673ffffffffffffffffffffffffffffffffffffffff166318160ddd6040518163ffffffff1660e01b815260040160206040518083038186803b158015612e5257600080fd5b505afa158015612e66573d6000803e3d6000fd5b505050506040513d601f19601f82011682018060405250810190612e8a9190614b43565b905060008167ffffffffffffffff811115612ea857612ea761481e565b5b604051908082528060200260200182016040528015612ed65781602001602082028036833780820191505090505b50905060008267ffffffffffffffff811115612ef557612ef461481e565b5b604051908082528060200260200182016040528015612f2857816020015b6060815260200190600190039081612f135790505b50905060008367ffffffffffffffff811115612f4757612f4661481e565b5b604051908082528060200260200182016040528015612f755781602001602082028036833780820191505090505b50905060008467ffffffffffffffff811115612f9457612f9361481e565b5b604051908082528060200260200182016040528015612fc25781602001602082028036833780820191505090505b50905060008567ffffffffffffffff811115612fe157612fe061481e565b5b60405190808252806020026020018201604052801561300f5781602001602082028036833780820191505090505b50905060008667ffffffffffffffff81111561302e5761302d61481e565b5b60405190808252806020026020018201604052801561305c5781602001602082028036833780820191505090505b50905060008767ffffffffffffffff81111561307b5761307a61481e565b5b6040519080825280602002602001820160405280156130a95781602001602082028036833780820191505090505b50905060008867ffffffffffffffff8111156130c8576130c761481e565b5b6040519080825280602002602001820160405280156130f65781602001602082028036833780820191505090505b50905060005b898110156135a5576000600560009054906101000a900473ffffffffffffffffffffffffffffffffffffffff1673ffffffffffffffffffffffffffffffffffffffff16634f6ccce7836040518263ffffffff1660e01b81526004016131619190613f12565b60206040518083038186803b15801561317957600080fd5b505afa15801561318d573d6000803e3d6000fd5b505050506040513d601f19601f820116820180604052508101906131b19190614b43565b9050808a83815181106131c7576131c661484d565b5b602002602001018181525050600560009054906101000a900473ffffffffffffffffffffffffffffffffffffffff1673ffffffffffffffffffffffffffffffffffffffff1663c87b56dd826040518263ffffffff1660e01b815260040161322e9190613f12565b60006040518083038186803b15801561324657600080fd5b505afa15801561325a573d6000803e3d6000fd5b505050506040513d6000823e3d601f19601f820116820180604052508101906132839190614973565b8983815181106132965761329561484d565b5b6020026020010181905250600560009054906101000a900473ffffffffffffffffffffffffffffffffffffffff1673ffffffffffffffffffffffffffffffffffffffff16636352211e826040518263ffffffff1660e01b81526004016132fc9190613f12565b60206040518083038186803b15801561331457600080fd5b505afa158015613328573d6000803e3d6000fd5b505050506040513d601f19601f8201168201806040525081019061334c9190614569565b88838151811061335f5761335e61484d565b5b602002602001019073ffffffffffffffffffffffffffffffffffffffff16908173ffffffffffffffffffffffffffffffffffffffff1681525050600560009054906101000a900473ffffffffffffffffffffffffffffffffffffffff1673ffffffffffffffffffffffffffffffffffffffff166385fd3cb8826040518263ffffffff1660e01b81526004016133f49190613f12565b60206040518083038186803b15801561340c57600080fd5b505afa158015613420573d6000803e3d6000fd5b505050506040513d601f19601f820116820180604052508101906134449190614569565b8783815181106134575761345661484d565b5b602002602001019073ffffffffffffffffffffffffffffffffffffffff16908173ffffffffffffffffffffffffffffffffffffffff1681525050600061349c826135fe565b9050808784815181106134b2576134b161484d565b5b60200260200101901515908115158152505080156135905760006134d5836138c6565b9050808785815181106134eb576134ea61484d565b5b602002602001018181525050600061350284613735565b9050808786815181106135185761351761484d565b5b602002602001019015159081151581525050801561358d57600061353b8561386d565b9050808787815181106135515761355061484d565b5b602002602001019073ffffffffffffffffffffffffffffffffffffffff16908173ffffffffffffffffffffffffffffffffffffffff1681525050505b50505b5050808061359d90614b70565b9150506130fc565b50878a60000181905250868a60200181905250858a60400181905250848a60600181905250838a60800181905250828a60a00181905250818a60c00181905250808a60e00181905250899a505050505050505050505090565b600080600073__BoolBitStorage________________________63f7d1c1dd856040518263ffffffff1660e01b815260040161363a9190614bc8565b604080518083038186803b15801561365157600080fd5b505af4158015613665573d6000803e3d6000fd5b505050506040513d601f19601f820116820180604052508101906136899190614be3565b809250819350505073__BoolBitStorage________________________633ea5d11e60008085815260200190815260200160002054836040518363ffffffff1660e01b81526004016136dc929190614c23565b60206040518083038186803b1580156136f457600080fd5b505af4158015613708573d6000803e3d6000fd5b505050506040513d601f19601f8201168201806040525081019061372c9190614427565b92505050919050565b600080600073__BoolBitStorage________________________63f7d1c1dd856040518263ffffffff1660e01b81526004016137719190614bc8565b604080518083038186803b15801561378857600080fd5b505af415801561379c573d6000803e3d6000fd5b505050506040513d601f19601f820116820180604052508101906137c09190614be3565b809250819350505073__BoolBitStorage________________________633ea5d11e6001600085815260200190815260200160002054836040518363ffffffff1660e01b8152600401613814929190614c23565b60206040518083038186803b15801561382c57600080fd5b505af4158015613840573d6000803e3d6000fd5b505050506040513d601f19601f820116820180604052508101906138649190614427565b92505050919050565b60006003600083815260200190815260200160002060009054906101000a900473ffffffffffffffffffffffffffffffffffffffff169050919050565b8060026000848152602001908152602001600020819055505050565b600060026000838152602001908152602001600020549050919050565b60006138ee8261386d565b905060006138fb836138c6565b90506000811415801561393b5750600073ffffffffffffffffffffffffffffffffffffffff168273ffffffffffffffffffffffffffffffffffffffff1614155b1561394b5761394a8282613950565b5b505050565b6000808373ffffffffffffffffffffffffffffffffffffffff168360405161397790614c7d565b60006040518083038185875af1925050503d80600081146139b4576040519150601f19603f3d011682016040523d82523d6000602084013e6139b9565b606091505b5091509150816139fe576040517f08c379a00000000000000000000000000000000000000000000000000000000081526004016139f590614cde565b60405180910390fd5b50505050565b806003600084815260200190815260200160002060006101000a81548173ffffffffffffffffffffffffffffffffffffffff021916908373ffffffffffffffffffffffffffffffffffffffff1602179055505050565b613a648282613c48565b613a6f826001613ad2565b5050565b613a7e816000613ad2565b600073ffffffffffffffffffffffffffffffffffffffff16613a9f8261386d565b73ffffffffffffffffffffffffffffffffffffffff1614613ac657613ac5816000613a04565b5b613acf81613c1e565b50565b60008073__BoolBitStorage________________________63f7d1c1dd856040518263ffffffff1660e01b8152600401613b0c9190614bc8565b604080518083038186803b158015613b2357600080fd5b505af4158015613b37573d6000803e3d6000fd5b505050506040513d601f19601f82011682018060405250810190613b5b9190614be3565b809250819350505073__BoolBitStorage________________________6333720693600160008581526020019081526020016000205483866040518463ffffffff1660e01b8152600401613bb193929190614d0d565b60206040518083038186803b158015613bc957600080fd5b505af4158015613bdd573d6000803e3d6000fd5b505050506040513d601f19601f82011682018060405250810190613c019190614b43565b600160008481526020019081526020016000208190555050505050565b613c29816000613c61565b6000613c34826138c6565b14613c4557613c448160006138aa565b5b50565b613c53826001613c61565b613c5d82826138aa565b5050565b60008073__BoolBitStorage________________________63f7d1c1dd856040518263ffffffff1660e01b8152600401613c9b9190614bc8565b604080518083038186803b158015613cb257600080fd5b505af4158015613cc6573d6000803e3d6000fd5b505050506040513d601f19601f82011682018060405250810190613cea9190614be3565b809250819350505073__BoolBitStorage________________________63337206936000808581526020019081526020016000205483866040518463ffffffff1660e01b8152600401613d3f93929190614d0d565b60206040518083038186803b158015613d5757600080fd5b505af4158015613d6b573d6000803e3d6000fd5b505050506040513d601f19601f82011682018060405250810190613d8f9190614b43565b6000808481526020019081526020016000208190555050505050565b60405180610100016040528060608152602001606081526020016060815260200160608152602001606081526020016060815260200160608152602001606081525090565b6000604051905090565b600080fd5b600080fd5b6000819050919050565b613e1781613e04565b8114613e2257600080fd5b50565b600081359050613e3481613e0e565b92915050565b600060208284031215613e5057613e4f613dfa565b5b6000613e5e84828501613e25565b91505092915050565b600073ffffffffffffffffffffffffffffffffffffffff82169050919050565b6000613e9282613e67565b9050919050565b613ea281613e87565b82525050565b6000602082019050613ebd6000830184613e99565b92915050565b60008060408385031215613eda57613ed9613dfa565b5b6000613ee885828601613e25565b9250506020613ef985828601613e25565b9150509250929050565b613f0c81613e04565b82525050565b6000602082019050613f276000830184613f03565b92915050565b600081519050919050565b600082825260208201905092915050565b6000819050602082019050919050565b613f6281613e04565b82525050565b6000613f748383613f59565b60208301905092915050565b6000602082019050919050565b6000613f9882613f2d565b613fa28185613f38565b9350613fad83613f49565b8060005b83811015613fde578151613fc58882613f68565b9750613fd083613f80565b925050600181019050613fb1565b5085935050505092915050565b600081519050919050565b600082825260208201905092915050565b6000819050602082019050919050565b600081519050919050565b600082825260208201905092915050565b60005b83811015614051578082015181840152602081019050614036565b83811115614060576000848401525b50505050565b6000601f19601f8301169050919050565b600061408282614017565b61408c8185614022565b935061409c818560208601614033565b6140a581614066565b840191505092915050565b60006140bc8383614077565b905092915050565b6000602082019050919050565b60006140dc82613feb565b6140e68185613ff6565b9350836020820285016140f885614007565b8060005b85811015614134578484038952815161411585826140b0565b9450614120836140c4565b925060208a019950506001810190506140fc565b50829750879550505050505092915050565b600081519050919050565b600082825260208201905092915050565b6000819050602082019050919050565b61417b81613e87565b82525050565b600061418d8383614172565b60208301905092915050565b6000602082019050919050565b60006141b182614146565b6141bb8185614151565b93506141c683614162565b8060005b838110156141f75781516141de8882614181565b97506141e983614199565b9250506001810190506141ca565b5085935050505092915050565b600081519050919050565b600082825260208201905092915050565b6000819050602082019050919050565b60008115159050919050565b61424581614230565b82525050565b6000614257838361423c565b60208301905092915050565b6000602082019050919050565b600061427b82614204565b614285818561420f565b935061429083614220565b8060005b838110156142c15781516142a8888261424b565b97506142b383614263565b925050600181019050614294565b5085935050505092915050565b60006101008301600083015184820360008601526142ec8282613f8d565b9150506020830151848203602086015261430682826140d1565b9150506040830151848203604086015261432082826141a6565b9150506060830151848203606086015261433a82826141a6565b915050608083015184820360808601526143548282614270565b91505060a083015184820360a086015261436e8282613f8d565b91505060c083015184820360c08601526143888282614270565b91505060e083015184820360e08601526143a282826141a6565b9150508091505092915050565b600060208201905081810360008301526143c981846142ce565b905092915050565b6143da81614230565b82525050565b60006020820190506143f560008301846143d1565b92915050565b61440481614230565b811461440f57600080fd5b50565b600081519050614421816143fb565b92915050565b60006020828403121561443d5761443c613dfa565b5b600061444b84828501614412565b91505092915050565b600082825260208201905092915050565b7f4534000000000000000000000000000000000000000000000000000000000000600082015250565b600061449b600283614454565b91506144a682614465565b602082019050919050565b600060208201905081810360008301526144ca8161448e565b9050919050565b7f4536000000000000000000000000000000000000000000000000000000000000600082015250565b6000614507600283614454565b9150614512826144d1565b602082019050919050565b60006020820190508181036000830152614536816144fa565b9050919050565b61454681613e87565b811461455157600080fd5b50565b6000815190506145638161453d565b92915050565b60006020828403121561457f5761457e613dfa565b5b600061458d84828501614554565b91505092915050565b7f4532000000000000000000000000000000000000000000000000000000000000600082015250565b60006145cc600283614454565b91506145d782614596565b602082019050919050565b600060208201905081810360008301526145fb816145bf565b9050919050565b7f4537000000000000000000000000000000000000000000000000000000000000600082015250565b6000614638600283614454565b915061464382614602565b602082019050919050565b600060208201905081810360008301526146678161462b565b9050919050565b7f4538000000000000000000000000000000000000000000000000000000000000600082015250565b60006146a4600283614454565b91506146af8261466e565b602082019050919050565b600060208201905081810360008301526146d381614697565b9050919050565b7f4531300000000000000000000000000000000000000000000000000000000000600082015250565b6000614710600383614454565b915061471b826146da565b602082019050919050565b6000602082019050818103600083015261473f81614703565b9050919050565b7f4531310000000000000000000000000000000000000000000000000000000000600082015250565b600061477c600383614454565b915061478782614746565b602082019050919050565b600060208201905081810360008301526147ab8161476f565b9050919050565b7f4535000000000000000000000000000000000000000000000000000000000000600082015250565b60006147e8600283614454565b91506147f3826147b2565b602082019050919050565b60006020820190508181036000830152614817816147db565b9050919050565b7f4e487b7100000000000000000000000000000000000000000000000000000000600052604160045260246000fd5b7f4e487b7100000000000000000000000000000000000000000000000000000000600052603260045260246000fd5b600080fd5b600080fd5b61488f82614066565b810181811067ffffffffffffffff821117156148ae576148ad61481e565b5b80604052505050565b60006148c1613df0565b90506148cd8282614886565b919050565b600067ffffffffffffffff8211156148ed576148ec61481e565b5b6148f682614066565b9050602081019050919050565b6000614916614911846148d2565b6148b7565b90508281526020810184848401111561493257614931614881565b5b61493d848285614033565b509392505050565b600082601f83011261495a5761495961487c565b5b815161496a848260208601614903565b91505092915050565b60006020828403121561498957614988613dfa565b5b600082015167ffffffffffffffff8111156149a7576149a6613dff565b5b6149b384828501614945565b91505092915050565b7f4e487b7100000000000000000000000000000000000000000000000000000000600052601160045260246000fd5b60006149f682613e04565b9150614a0183613e04565b925082821015614a1457614a136149bc565b5b828203905092915050565b6000606082019050614a346000830186613e99565b614a416020830185613e99565b614a4e6040830184613f03565b949350505050565b7f4531330000000000000000000000000000000000000000000000000000000000600082015250565b6000614a8c600383614454565b9150614a9782614a56565b602082019050919050565b60006020820190508181036000830152614abb81614a7f565b9050919050565b7f4539000000000000000000000000000000000000000000000000000000000000600082015250565b6000614af8600283614454565b9150614b0382614ac2565b602082019050919050565b60006020820190508181036000830152614b2781614aeb565b9050919050565b600081519050614b3d81613e0e565b92915050565b600060208284031215614b5957614b58613dfa565b5b6000614b6784828501614b2e565b91505092915050565b6000614b7b82613e04565b91507fffffffffffffffffffffffffffffffffffffffffffffffffffffffffffffffff821415614bae57614bad6149bc565b5b600182019050919050565b614bc281613e04565b82525050565b6000602082019050614bdd6000830184614bb9565b92915050565b60008060408385031215614bfa57614bf9613dfa565b5b6000614c0885828601614b2e565b9250506020614c1985828601614b2e565b9150509250929050565b6000604082019050614c386000830185614bb9565b614c456020830184614bb9565b9392505050565b600081905092915050565b50565b6000614c67600083614c4c565b9150614c7282614c57565b600082019050919050565b6000614c8882614c5a565b9150819050919050565b7f4531320000000000000000000000000000000000000000000000000000000000600082015250565b6000614cc8600383614454565b9150614cd382614c92565b602082019050919050565b60006020820190508181036000830152614cf781614cbb565b9050919050565b614d0781614230565b82525050565b6000606082019050614d226000830186614bb9565b614d2f6020830185614bb9565b614d3c6040830184614cfe565b94935050505056fea2646970667358221220d2d9b98344544aaef796ad1e1dc74bf5e32020ba427add7dd4d7eaeb3b21738864736f6c63430008090033",
  "immutableReferences": {},
  "source": "// SPDX-License-Identifier: MIT\r\npragma solidity >=0.6.0 <0.9.0;\r\n\r\nimport \"./Marketplace.sol\";\r\nimport \"./Vehicle.sol\";\r\n\r\ncontract Gateway is Marketplace {\r\n    event NewPrice(uint256 indexed tokenId);\r\n    event NewTopBidder(uint256 indexed tokenId);\r\n    event SaleStatus(uint256 indexed tokenId, bool status);\r\n    uint256 tax = 100000000000000 wei;\r\n    Vehicle vhc;\r\n\r\n    receive() external payable {}\r\n\r\n    struct getObject {\r\n        uint256[] ids;\r\n        string[] uris;\r\n        address[] owners;\r\n        address[] garages;\r\n        bool[] sales;\r\n        uint256[] prices;\r\n        bool[] auctions;\r\n        address[] bidders;\r\n    }\r\n\r\n    function refreshOne(uint256 tokenId)\r\n        public\r\n        view\r\n        returns (getObject memory)\r\n    {\r\n        getObject memory getObject1;\r\n\r\n        uint256[] memory ids = new uint256[](1);\r\n        string[] memory uris = new string[](1);\r\n        address[] memory owners = new address[](1);\r\n        address[] memory garages = new address[](1);\r\n        bool[] memory sales = new bool[](1);\r\n        uint256[] memory prices = new uint256[](1);\r\n        bool[] memory auctions = new bool[](1);\r\n        address[] memory bidders = new address[](1);\r\n\r\n        ids[0] = tokenId;\r\n        uris[0] = vhc.tokenURI(tokenId);\r\n        owners[0] = vhc.ownerOf(tokenId);\r\n        garages[0] = vhc.getApprovedGarage(tokenId);\r\n\r\n        bool isForSale = _isForSale(tokenId);\r\n        sales[0] = isForSale;\r\n\r\n\r\n        if (isForSale) {\r\n            prices[0] = _getVehiclePrice(tokenId);\r\n            bool isAuction = _isAuction(tokenId);\r\n            \r\n            auctions[0] = isAuction;\r\n\r\n            if (isAuction) {\r\n                bidders[0] = _getTopBidder(tokenId);\r\n            }\r\n        }\r\n        \r\n        getObject1.ids = ids;\r\n        getObject1.uris = uris;\r\n        getObject1.owners = owners;\r\n        getObject1.garages = garages;\r\n        getObject1.sales = sales;\r\n        getObject1.prices = prices;\r\n        getObject1.auctions = auctions;\r\n        getObject1.bidders = bidders;\r\n\r\n        return getObject1;\r\n    }\r\n\r\n    function getEverything() public view returns (getObject memory) {\r\n\r\n        getObject memory getObject1;\r\n\r\n        uint256 totalSupply = vhc.totalSupply();\r\n\r\n        uint256[] memory ids = new uint256[](totalSupply);\r\n        string[] memory uris = new string[](totalSupply);\r\n        address[] memory owners = new address[](totalSupply);\r\n        address[] memory garages = new address[](totalSupply);\r\n        bool[] memory sales = new bool[](totalSupply);\r\n        uint256[] memory prices = new uint256[](totalSupply);\r\n        bool[] memory auctions = new bool[](totalSupply);\r\n        address[] memory bidders = new address[](totalSupply);\r\n\r\n        for (uint256 i = 0; i < totalSupply; i++) {\r\n            uint256 index = vhc.tokenByIndex(i);\r\n\r\n            ids[i] = index;\r\n            uris[i] = vhc.tokenURI(index);\r\n            owners[i] = vhc.ownerOf(index);\r\n            garages[i] = vhc.getApprovedGarage(index);\r\n\r\n            bool isForSale = _isForSale(index);\r\n            sales[i] = isForSale;\r\n\r\n            if (isForSale) {\r\n                uint256 price = _getVehiclePrice(index);\r\n                prices[i] = price;\r\n\r\n                bool isAuction = _isAuction(index);\r\n                auctions[i] = isAuction;\r\n\r\n                if (isAuction) {\r\n                    address topBidder = _getTopBidder(index);\r\n                    bidders[i] = topBidder;\r\n                }\r\n            }\r\n        }\r\n\r\n        getObject1.ids = ids;\r\n        getObject1.uris = uris;\r\n        getObject1.owners = owners;\r\n        getObject1.garages = garages;\r\n        getObject1.sales = sales;\r\n        getObject1.prices = prices;\r\n        getObject1.auctions = auctions;\r\n        getObject1.bidders = bidders;\r\n\r\n        return getObject1;\r\n    }\r\n\r\n    function getMarketVehicles() public view returns (getObject memory) {\r\n        getObject memory getObject1;\r\n\r\n        uint256 totalSupply = vhc.totalSupply();\r\n\r\n        bool[] memory sales = new bool[](totalSupply);\r\n        uint256[] memory prices = new uint256[](totalSupply);\r\n        bool[] memory auctions = new bool[](totalSupply);\r\n        address[] memory bidders = new address[](totalSupply);\r\n\r\n        for (uint256 i = 0; i < totalSupply; i++) {\r\n            uint256 index = vhc.tokenByIndex(i);\r\n\r\n            bool isForSale = _isForSale(index);\r\n            sales[i] = isForSale;\r\n\r\n            if (isForSale) {\r\n                uint256 price = _getVehiclePrice(index);\r\n                prices[i] = price;\r\n\r\n                bool isAuction = _isAuction(index);\r\n                auctions[i] = isAuction;\r\n\r\n                if (isAuction) {\r\n                    address topBidder = _getTopBidder(index);\r\n                    bidders[i] = topBidder;\r\n                }\r\n            }\r\n        }\r\n\r\n        getObject1.sales = sales;\r\n        getObject1.prices = prices;\r\n        getObject1.auctions = auctions;\r\n        getObject1.bidders = bidders;\r\n\r\n        return getObject1;\r\n    }\r\n\r\n    constructor(address addr) {\r\n        vhc = Vehicle(addr);\r\n    }\r\n\r\n    function balanceOfSC() public view returns (uint256) {\r\n        return address(this).balance;\r\n    }\r\n\r\n    //MODIFIERS\r\n\r\n    modifier onlyIfExists(uint256 tokenId) {\r\n        require(vhc.exists(tokenId));\r\n        _;\r\n    }\r\n\r\n    modifier onlyOwnerOf(uint256 tokenId) {\r\n        require(vhc.ownerOf(tokenId) == msg.sender, \"E2\");\r\n        _;\r\n    }\r\n\r\n    modifier onlyIfForSale(uint256 tokenId) {\r\n        require(_isForSale(tokenId), \"E4\");\r\n        _;\r\n    }\r\n\r\n    modifier onlyIfNotForSale(uint256 tokenId) {\r\n        require(!_isForSale(tokenId), \"E5\");\r\n        _;\r\n    }\r\n\r\n    modifier onlyIfAuction(uint256 tokenId) {\r\n        require(_isAuction(tokenId), \"E6\");\r\n        _;\r\n    }\r\n\r\n    modifier onlyIfNotAuction(uint256 tokenId) {\r\n        require(!_isAuction(tokenId), \"E7\");\r\n        _;\r\n    }\r\n\r\n    modifier onlyIfPriceNonNull(uint256 price) {\r\n        require(price > 1000000000000000, \"E8\");\r\n        _;\r\n    }\r\n\r\n    // GETTERS\r\n\r\n    function getVehiclePrice(uint256 tokenId)\r\n        external\r\n        view\r\n        onlyIfExists(tokenId)\r\n        onlyIfForSale(tokenId)\r\n        returns (uint256)\r\n    {\r\n        return _getVehiclePrice(tokenId);\r\n    }\r\n\r\n    function getTopBidder(uint256 tokenId)\r\n        external\r\n        view\r\n        onlyIfExists(tokenId)\r\n        onlyIfForSale(tokenId)\r\n        onlyIfAuction(tokenId)\r\n        returns (address)\r\n    {\r\n        return _getTopBidder(tokenId);\r\n    }\r\n\r\n    function isAuction(uint256 tokenId)\r\n        external\r\n        view\r\n        onlyIfExists(tokenId)\r\n        returns (bool)\r\n    {\r\n        return _isAuction(tokenId);\r\n    }\r\n\r\n    function isForSale(uint256 tokenId)\r\n        external\r\n        view\r\n        onlyIfExists(tokenId)\r\n        returns (bool)\r\n    {\r\n        return _isForSale(tokenId);\r\n    }\r\n\r\n    // LISTING/DELISTING\r\n\r\n    function listAuction(uint256 tokenId, uint256 price)\r\n        external\r\n        onlyIfExists(tokenId)\r\n        onlyOwnerOf(tokenId)\r\n        onlyIfNotForSale(tokenId)\r\n        onlyIfNotAuction(tokenId)\r\n        onlyIfPriceNonNull(price)\r\n    {\r\n        _listAuction(tokenId, price);\r\n        emit SaleStatus(tokenId, true);\r\n    }\r\n\r\n    function listInstant(uint256 tokenId, uint256 price)\r\n        external\r\n        onlyIfExists(tokenId)\r\n        onlyOwnerOf(tokenId)\r\n        onlyIfNotForSale(tokenId)\r\n        onlyIfPriceNonNull(price)\r\n    {\r\n        _listInstant(tokenId, price);\r\n        emit SaleStatus(tokenId, true);\r\n    }\r\n\r\n    function delistAuction(uint256 tokenId)\r\n        external\r\n        onlyIfExists(tokenId)\r\n        onlyOwnerOf(tokenId)\r\n        onlyIfAuction(tokenId)\r\n    {\r\n        _refundCurentTopBidder(tokenId);\r\n        _delistAuction(tokenId);\r\n        emit SaleStatus(tokenId, false);\r\n    }\r\n\r\n    function delistInstant(uint256 tokenId)\r\n        external\r\n        onlyIfExists(tokenId)\r\n        onlyOwnerOf(tokenId)\r\n        onlyIfForSale(tokenId)\r\n        onlyIfNotAuction(tokenId)\r\n    {\r\n        _delistInstant(tokenId);\r\n        emit SaleStatus(tokenId, false);\r\n    }\r\n\r\n    // SETTERS\r\n\r\n    function setVehiclePrice(uint256 tokenId, uint256 _price)\r\n        external\r\n        onlyIfExists(tokenId)\r\n        onlyOwnerOf(tokenId)\r\n        onlyIfForSale(tokenId)\r\n        onlyIfNotAuction(tokenId)\r\n        onlyIfPriceNonNull(_price)\r\n    {\r\n        _setVehiclePrice(tokenId, _price);\r\n        emit NewPrice(tokenId);\r\n    }\r\n\r\n    //// MONEY TX\r\n\r\n    function buy(uint256 tokenId)\r\n        external\r\n        payable\r\n        onlyIfExists(tokenId)\r\n        onlyIfForSale(tokenId)\r\n        onlyIfNotAuction(tokenId)\r\n    {\r\n        require(msg.value == _getVehiclePrice(tokenId), \"E9\");\r\n\r\n        _secureMoneyTransfer(vhc.ownerOf(tokenId), msg.value - tax);\r\n\r\n        vhc.transferFrom(vhc.ownerOf(tokenId), msg.sender, tokenId);\r\n        require(vhc.ownerOf(tokenId) == msg.sender, \"E13\");\r\n        _delistInstant(tokenId);\r\n\r\n        emit SaleStatus(tokenId, false);\r\n    }\r\n\r\n    function bid(uint256 tokenId)\r\n        external\r\n        payable\r\n        onlyIfExists(tokenId)\r\n        onlyIfAuction(tokenId)\r\n    {\r\n        require(msg.value > _getVehiclePrice(tokenId), \"E10\");\r\n        require(msg.sender != vhc.ownerOf(tokenId), \"E11\");\r\n\r\n        _refundCurentTopBidder(tokenId);\r\n        _secureMoneyTransfer(address(this), msg.value);\r\n\r\n        _setVehiclePrice(tokenId, msg.value);\r\n        _setTopBidder(tokenId, msg.sender);\r\n\r\n        emit NewPrice(tokenId);\r\n        emit NewTopBidder(tokenId);\r\n    }\r\n\r\n    function concludeAuction(uint256 tokenId)\r\n        external\r\n        onlyIfExists(tokenId)\r\n        onlyOwnerOf(tokenId)\r\n        onlyIfAuction(tokenId)\r\n    {\r\n        address topBidder = _getTopBidder(tokenId);\r\n        require(topBidder != address(0));\r\n\r\n        _secureMoneyTransfer(\r\n            vhc.ownerOf(tokenId),\r\n            _getVehiclePrice(tokenId) - tax\r\n        );\r\n\r\n        vhc.transferFrom(vhc.ownerOf(tokenId), topBidder, tokenId);\r\n        require(vhc.ownerOf(tokenId) == topBidder, \"E13\");\r\n\r\n        _setIsAuction(tokenId, false);\r\n        _setTopBidder(tokenId, address(0));\r\n        _delistInstant(tokenId);\r\n\r\n        emit SaleStatus(tokenId, false);\r\n    }\r\n\r\n    // MONEY HANDLING\r\n\r\n    function _secureMoneyTransfer(address beneficiary, uint256 money) internal {\r\n        (bool sent, bytes memory data) = payable(beneficiary).call{\r\n            value: money\r\n        }(\"\");\r\n        require(sent, \"E12\");\r\n    }\r\n\r\n    function _refundCurentTopBidder(uint256 tokenId) internal {\r\n        address currentTopBidder = _getTopBidder(tokenId);\r\n        uint256 currentTopBid = _getVehiclePrice(tokenId);\r\n        if (currentTopBid != 0 && currentTopBidder != address(0))\r\n            _secureMoneyTransfer(currentTopBidder, currentTopBid);\r\n    }\r\n}\r\n",
  "sourcePath": "C:\\sgs020\\contracts\\Gateway.sol",
  "compiler": {
    "name": "solc",
    "version": "0.8.9+commit.e5eed63a.Emscripten.clang"
  },
  "schemaVersion": "3.4.3",
  "updatedAt": "2022-03-20T14:30:10.872Z",
  "networkType": "ethereum",
  "devdoc": {
    "kind": "dev",
    "methods": {},
    "version": 1
  },
  "userdoc": {
    "kind": "user",
    "methods": {},
    "version": 1
  }
}