{
  "contractName": "Gateway",
  "abi": [
    {
      "inputs": [
        {
          "internalType": "address",
          "name": "addr",
          "type": "address"
        }
      ],
      "stateMutability": "nonpayable",
      "type": "constructor"
    },
    {
      "anonymous": false,
      "inputs": [
        {
          "indexed": true,
          "internalType": "uint256",
          "name": "tokenId",
          "type": "uint256"
        }
      ],
      "name": "NewPrice",
      "type": "event"
    },
    {
      "anonymous": false,
      "inputs": [
        {
          "indexed": true,
          "internalType": "uint256",
          "name": "tokenId",
          "type": "uint256"
        }
      ],
      "name": "NewTopBidder",
      "type": "event"
    },
    {
      "anonymous": false,
      "inputs": [
        {
          "indexed": true,
          "internalType": "uint256",
          "name": "tokenId",
          "type": "uint256"
        },
        {
          "indexed": false,
          "internalType": "bool",
          "name": "status",
          "type": "bool"
        }
      ],
      "name": "SaleStatus",
      "type": "event"
    },
    {
      "stateMutability": "payable",
      "type": "receive",
      "payable": true
    },
    {
      "inputs": [
        {
          "internalType": "uint256",
          "name": "tokenId",
          "type": "uint256"
        }
      ],
      "name": "refreshOne",
      "outputs": [
        {
          "components": [
            {
              "internalType": "uint256",
              "name": "id",
              "type": "uint256"
            },
            {
              "internalType": "string",
              "name": "uri",
              "type": "string"
            },
            {
              "internalType": "address",
              "name": "owner",
              "type": "address"
            },
            {
              "internalType": "address",
              "name": "garage",
              "type": "address"
            },
            {
              "internalType": "bool",
              "name": "sale",
              "type": "bool"
            },
            {
              "internalType": "uint256",
              "name": "price",
              "type": "uint256"
            },
            {
              "internalType": "bool",
              "name": "auction",
              "type": "bool"
            },
            {
              "internalType": "address",
              "name": "bidder",
              "type": "address"
            }
          ],
          "internalType": "struct Gateway.getObjectOne",
          "name": "",
          "type": "tuple"
        }
      ],
      "stateMutability": "view",
      "type": "function",
      "constant": true
    },
    {
      "inputs": [],
      "name": "getEverything",
      "outputs": [
        {
          "components": [
            {
              "internalType": "uint256[]",
              "name": "ids",
              "type": "uint256[]"
            },
            {
              "internalType": "string[]",
              "name": "uris",
              "type": "string[]"
            },
            {
              "internalType": "address[]",
              "name": "owners",
              "type": "address[]"
            },
            {
              "internalType": "address[]",
              "name": "garages",
              "type": "address[]"
            },
            {
              "internalType": "bool[]",
              "name": "sales",
              "type": "bool[]"
            },
            {
              "internalType": "uint256[]",
              "name": "prices",
              "type": "uint256[]"
            },
            {
              "internalType": "bool[]",
              "name": "auctions",
              "type": "bool[]"
            },
            {
              "internalType": "address[]",
              "name": "bidders",
              "type": "address[]"
            }
          ],
          "internalType": "struct Gateway.getObject",
          "name": "",
          "type": "tuple"
        }
      ],
      "stateMutability": "view",
      "type": "function",
      "constant": true
    },
    {
      "inputs": [],
      "name": "getMarketVehicles",
      "outputs": [
        {
          "components": [
            {
              "internalType": "uint256[]",
              "name": "ids",
              "type": "uint256[]"
            },
            {
              "internalType": "string[]",
              "name": "uris",
              "type": "string[]"
            },
            {
              "internalType": "address[]",
              "name": "owners",
              "type": "address[]"
            },
            {
              "internalType": "address[]",
              "name": "garages",
              "type": "address[]"
            },
            {
              "internalType": "bool[]",
              "name": "sales",
              "type": "bool[]"
            },
            {
              "internalType": "uint256[]",
              "name": "prices",
              "type": "uint256[]"
            },
            {
              "internalType": "bool[]",
              "name": "auctions",
              "type": "bool[]"
            },
            {
              "internalType": "address[]",
              "name": "bidders",
              "type": "address[]"
            }
          ],
          "internalType": "struct Gateway.getObject",
          "name": "",
          "type": "tuple"
        }
      ],
      "stateMutability": "view",
      "type": "function",
      "constant": true
    },
    {
      "inputs": [],
      "name": "balanceOfSC",
      "outputs": [
        {
          "internalType": "uint256",
          "name": "",
          "type": "uint256"
        }
      ],
      "stateMutability": "view",
      "type": "function",
      "constant": true
    },
    {
      "inputs": [
        {
          "internalType": "uint256",
          "name": "tokenId",
          "type": "uint256"
        }
      ],
      "name": "getVehiclePrice",
      "outputs": [
        {
          "internalType": "uint256",
          "name": "",
          "type": "uint256"
        }
      ],
      "stateMutability": "view",
      "type": "function",
      "constant": true
    },
    {
      "inputs": [
        {
          "internalType": "uint256",
          "name": "tokenId",
          "type": "uint256"
        }
      ],
      "name": "getTopBidder",
      "outputs": [
        {
          "internalType": "address",
          "name": "",
          "type": "address"
        }
      ],
      "stateMutability": "view",
      "type": "function",
      "constant": true
    },
    {
      "inputs": [
        {
          "internalType": "uint256",
          "name": "tokenId",
          "type": "uint256"
        }
      ],
      "name": "isAuction",
      "outputs": [
        {
          "internalType": "bool",
          "name": "",
          "type": "bool"
        }
      ],
      "stateMutability": "view",
      "type": "function",
      "constant": true
    },
    {
      "inputs": [
        {
          "internalType": "uint256",
          "name": "tokenId",
          "type": "uint256"
        }
      ],
      "name": "isForSale",
      "outputs": [
        {
          "internalType": "bool",
          "name": "",
          "type": "bool"
        }
      ],
      "stateMutability": "view",
      "type": "function",
      "constant": true
    },
    {
      "inputs": [
        {
          "internalType": "uint256",
          "name": "tokenId",
          "type": "uint256"
        },
        {
          "internalType": "uint256",
          "name": "price",
          "type": "uint256"
        }
      ],
      "name": "listAuction",
      "outputs": [],
      "stateMutability": "nonpayable",
      "type": "function"
    },
    {
      "inputs": [
        {
          "internalType": "uint256",
          "name": "tokenId",
          "type": "uint256"
        },
        {
          "internalType": "uint256",
          "name": "price",
          "type": "uint256"
        }
      ],
      "name": "listInstant",
      "outputs": [],
      "stateMutability": "nonpayable",
      "type": "function"
    },
    {
      "inputs": [
        {
          "internalType": "uint256",
          "name": "tokenId",
          "type": "uint256"
        }
      ],
      "name": "delistAuction",
      "outputs": [],
      "stateMutability": "nonpayable",
      "type": "function"
    },
    {
      "inputs": [
        {
          "internalType": "uint256",
          "name": "tokenId",
          "type": "uint256"
        }
      ],
      "name": "delistInstant",
      "outputs": [],
      "stateMutability": "nonpayable",
      "type": "function"
    },
    {
      "inputs": [
        {
          "internalType": "uint256",
          "name": "tokenId",
          "type": "uint256"
        },
        {
          "internalType": "uint256",
          "name": "_price",
          "type": "uint256"
        }
      ],
      "name": "setVehiclePrice",
      "outputs": [],
      "stateMutability": "nonpayable",
      "type": "function"
    },
    {
      "inputs": [
        {
          "internalType": "uint256",
          "name": "tokenId",
          "type": "uint256"
        }
      ],
      "name": "buy",
      "outputs": [],
      "stateMutability": "payable",
      "type": "function",
      "payable": true
    },
    {
      "inputs": [
        {
          "internalType": "uint256",
          "name": "tokenId",
          "type": "uint256"
        }
      ],
      "name": "bid",
      "outputs": [],
      "stateMutability": "payable",
      "type": "function",
      "payable": true
    },
    {
      "inputs": [
        {
          "internalType": "uint256",
          "name": "tokenId",
          "type": "uint256"
        }
      ],
      "name": "concludeAuction",
      "outputs": [],
      "stateMutability": "nonpayable",
      "type": "function"
    }
  ],
  "bytecode": "0x6080604052655af3107a40006004553480156200001b57600080fd5b5060405162004c8f38038062004c8f8339818101604052810190620000419190620000f3565b80600560006101000a81548173ffffffffffffffffffffffffffffffffffffffff021916908373ffffffffffffffffffffffffffffffffffffffff1602179055505062000125565b600080fd5b600073ffffffffffffffffffffffffffffffffffffffff82169050919050565b6000620000bb826200008e565b9050919050565b620000cd81620000ae565b8114620000d957600080fd5b50565b600081519050620000ed81620000c2565b92915050565b6000602082840312156200010c576200010b62000089565b5b60006200011c84828501620000dc565b91505092915050565b614b5a80620001356000396000f3fe6080604052600436106100f75760003560e01c80638704f2a31161008a578063e19297e011610059578063e19297e01461033b578063e2abc7cc14610364578063ebae357a1461038d578063fc98ae11146103b8576100fe565b80638704f2a31461027c5780638b79aa20146102b9578063b8761301146102f6578063d96a094a1461031f576100fe565b80634c5210f6116100c65780634c5210f6146101b057806352885b3b146101d95780635825be9a146102165780638546d0021461023f576100fe565b806304744d0814610103578063251781e71461014057806325605c6a14610169578063454a2ab314610194576100fe565b366100fe57005b600080fd5b34801561010f57600080fd5b5061012a60048036038101906101259190613b48565b6103e3565b6040516101379190613bb6565b60405180910390f35b34801561014c57600080fd5b5061016760048036038101906101629190613bd1565b61053f565b005b34801561017557600080fd5b5061017e61082a565b60405161018b9190613c20565b60405180910390f35b6101ae60048036038101906101a99190613b48565b610832565b005b3480156101bc57600080fd5b506101d760048036038101906101d29190613bd1565b610b19565b005b3480156101e557600080fd5b5061020060048036038101906101fb9190613b48565b610e11565b60405161020d9190613dbd565b60405180910390f35b34801561022257600080fd5b5061023d60048036038101906102389190613b48565b61114c565b005b34801561024b57600080fd5b5061026660048036038101906102619190613b48565b6113b4565b6040516102739190613dee565b60405180910390f35b34801561028857600080fd5b506102a3600480360381019061029e9190613b48565b61147c565b6040516102b09190613dee565b60405180910390f35b3480156102c557600080fd5b506102e060048036038101906102db9190613b48565b611544565b6040516102ed9190613c20565b60405180910390f35b34801561030257600080fd5b5061031d60048036038101906103189190613b48565b611656565b005b61033960048036038101906103349190613b48565b611c2f565b005b34801561034757600080fd5b50610362600480360381019061035d9190613bd1565b61211d565b005b34801561037057600080fd5b5061038b60048036038101906103869190613b48565b6123ca565b005b34801561039957600080fd5b506103a2612674565b6040516103af91906141b9565b60405180910390f35b3480156103c457600080fd5b506103cd612a5b565b6040516103da91906141b9565b60405180910390f35b600081600560009054906101000a900473ffffffffffffffffffffffffffffffffffffffff1673ffffffffffffffffffffffffffffffffffffffff16634f558e79826040518263ffffffff1660e01b81526004016104419190613c20565b60206040518083038186803b15801561045957600080fd5b505afa15801561046d573d6000803e3d6000fd5b505050506040513d601f19601f820116820180604052508101906104919190614207565b61049a57600080fd5b826104a481613281565b6104e3576040517f08c379a00000000000000000000000000000000000000000000000000000000081526004016104da90614291565b60405180910390fd5b836104ed816133b8565b61052c576040517f08c379a0000000000000000000000000000000000000000000000000000000008152600401610523906142fd565b60405180910390fd5b610535856134f0565b9350505050919050565b81600560009054906101000a900473ffffffffffffffffffffffffffffffffffffffff1673ffffffffffffffffffffffffffffffffffffffff16634f558e79826040518263ffffffff1660e01b815260040161059b9190613c20565b60206040518083038186803b1580156105b357600080fd5b505afa1580156105c7573d6000803e3d6000fd5b505050506040513d601f19601f820116820180604052508101906105eb9190614207565b6105f457600080fd5b823373ffffffffffffffffffffffffffffffffffffffff16600560009054906101000a900473ffffffffffffffffffffffffffffffffffffffff1673ffffffffffffffffffffffffffffffffffffffff16636352211e836040518263ffffffff1660e01b81526004016106679190613c20565b60206040518083038186803b15801561067f57600080fd5b505afa158015610693573d6000803e3d6000fd5b505050506040513d601f19601f820116820180604052508101906106b79190614349565b73ffffffffffffffffffffffffffffffffffffffff161461070d576040517f08c379a0000000000000000000000000000000000000000000000000000000008152600401610704906143c2565b60405180910390fd5b8361071781613281565b610756576040517f08c379a000000000000000000000000000000000000000000000000000000000815260040161074d90614291565b60405180910390fd5b84610760816133b8565b156107a0576040517f08c379a00000000000000000000000000000000000000000000000000000000081526004016107979061442e565b60405180910390fd5b8466038d7ea4c6800081116107ea576040517f08c379a00000000000000000000000000000000000000000000000000000000081526004016107e19061449a565b60405180910390fd5b6107f4878761352d565b867f270b316b51ab2cf3a3bb8ca4d22e76a327d05e762fcaa8bd6afaf8cfde9270b760405160405180910390a250505050505050565b600047905090565b80600560009054906101000a900473ffffffffffffffffffffffffffffffffffffffff1673ffffffffffffffffffffffffffffffffffffffff16634f558e79826040518263ffffffff1660e01b815260040161088e9190613c20565b60206040518083038186803b1580156108a657600080fd5b505afa1580156108ba573d6000803e3d6000fd5b505050506040513d601f19601f820116820180604052508101906108de9190614207565b6108e757600080fd5b816108f1816133b8565b610930576040517f08c379a0000000000000000000000000000000000000000000000000000000008152600401610927906142fd565b60405180910390fd5b61093983613549565b341161097a576040517f08c379a000000000000000000000000000000000000000000000000000000000815260040161097190614506565b60405180910390fd5b600560009054906101000a900473ffffffffffffffffffffffffffffffffffffffff1673ffffffffffffffffffffffffffffffffffffffff16636352211e846040518263ffffffff1660e01b81526004016109d59190613c20565b60206040518083038186803b1580156109ed57600080fd5b505afa158015610a01573d6000803e3d6000fd5b505050506040513d601f19601f82011682018060405250810190610a259190614349565b73ffffffffffffffffffffffffffffffffffffffff163373ffffffffffffffffffffffffffffffffffffffff161415610a93576040517f08c379a0000000000000000000000000000000000000000000000000000000008152600401610a8a90614572565b60405180910390fd5b610a9c83613566565b610aa630346135d3565b610ab0833461352d565b610aba8333613687565b827f270b316b51ab2cf3a3bb8ca4d22e76a327d05e762fcaa8bd6afaf8cfde9270b760405160405180910390a2827fc95960509dc0aa4c1e2234f4c1313b2a1466421ea6d179fb0714306305b9c1e560405160405180910390a2505050565b81600560009054906101000a900473ffffffffffffffffffffffffffffffffffffffff1673ffffffffffffffffffffffffffffffffffffffff16634f558e79826040518263ffffffff1660e01b8152600401610b759190613c20565b60206040518083038186803b158015610b8d57600080fd5b505afa158015610ba1573d6000803e3d6000fd5b505050506040513d601f19601f82011682018060405250810190610bc59190614207565b610bce57600080fd5b823373ffffffffffffffffffffffffffffffffffffffff16600560009054906101000a900473ffffffffffffffffffffffffffffffffffffffff1673ffffffffffffffffffffffffffffffffffffffff16636352211e836040518263ffffffff1660e01b8152600401610c419190613c20565b60206040518083038186803b158015610c5957600080fd5b505afa158015610c6d573d6000803e3d6000fd5b505050506040513d601f19601f82011682018060405250810190610c919190614349565b73ffffffffffffffffffffffffffffffffffffffff1614610ce7576040517f08c379a0000000000000000000000000000000000000000000000000000000008152600401610cde906143c2565b60405180910390fd5b83610cf181613281565b15610d31576040517f08c379a0000000000000000000000000000000000000000000000000000000008152600401610d28906145de565b60405180910390fd5b84610d3b816133b8565b15610d7b576040517f08c379a0000000000000000000000000000000000000000000000000000000008152600401610d729061442e565b60405180910390fd5b8466038d7ea4c680008111610dc5576040517f08c379a0000000000000000000000000000000000000000000000000000000008152600401610dbc9061449a565b60405180910390fd5b610dcf87876136dd565b867fff097af85fdb3be6e4d1932c7fd248c57a2b3e746f8db46648b18eb6244ddff36001604051610e009190613dee565b60405180910390a250505050505050565b610e19613a2e565b610e21613a2e565b82816000018181525050600560009054906101000a900473ffffffffffffffffffffffffffffffffffffffff1673ffffffffffffffffffffffffffffffffffffffff1663c87b56dd846040518263ffffffff1660e01b8152600401610e869190613c20565b60006040518083038186803b158015610e9e57600080fd5b505afa158015610eb2573d6000803e3d6000fd5b505050506040513d6000823e3d601f19601f82011682018060405250810190610edb9190614724565b8160200181905250600560009054906101000a900473ffffffffffffffffffffffffffffffffffffffff1673ffffffffffffffffffffffffffffffffffffffff16636352211e846040518263ffffffff1660e01b8152600401610f3e9190613c20565b60206040518083038186803b158015610f5657600080fd5b505afa158015610f6a573d6000803e3d6000fd5b505050506040513d601f19601f82011682018060405250810190610f8e9190614349565b816040019073ffffffffffffffffffffffffffffffffffffffff16908173ffffffffffffffffffffffffffffffffffffffff1681525050600560009054906101000a900473ffffffffffffffffffffffffffffffffffffffff1673ffffffffffffffffffffffffffffffffffffffff166385fd3cb8846040518263ffffffff1660e01b81526004016110209190613c20565b60206040518083038186803b15801561103857600080fd5b505afa15801561104c573d6000803e3d6000fd5b505050506040513d601f19601f820116820180604052508101906110709190614349565b816060019073ffffffffffffffffffffffffffffffffffffffff16908173ffffffffffffffffffffffffffffffffffffffff168152505060006110b284613281565b9050808260800190151590811515815250508015611142576110d384613549565b8260a001818152505060006110e7856133b8565b9050808360c0019015159081151581525050801561114057611108856134f0565b8360e0019073ffffffffffffffffffffffffffffffffffffffff16908173ffffffffffffffffffffffffffffffffffffffff16815250505b505b8192505050919050565b80600560009054906101000a900473ffffffffffffffffffffffffffffffffffffffff1673ffffffffffffffffffffffffffffffffffffffff16634f558e79826040518263ffffffff1660e01b81526004016111a89190613c20565b60206040518083038186803b1580156111c057600080fd5b505afa1580156111d4573d6000803e3d6000fd5b505050506040513d601f19601f820116820180604052508101906111f89190614207565b61120157600080fd5b813373ffffffffffffffffffffffffffffffffffffffff16600560009054906101000a900473ffffffffffffffffffffffffffffffffffffffff1673ffffffffffffffffffffffffffffffffffffffff16636352211e836040518263ffffffff1660e01b81526004016112749190613c20565b60206040518083038186803b15801561128c57600080fd5b505afa1580156112a0573d6000803e3d6000fd5b505050506040513d601f19601f820116820180604052508101906112c49190614349565b73ffffffffffffffffffffffffffffffffffffffff161461131a576040517f08c379a0000000000000000000000000000000000000000000000000000000008152600401611311906143c2565b60405180910390fd5b82611324816133b8565b611363576040517f08c379a000000000000000000000000000000000000000000000000000000000815260040161135a906142fd565b60405180910390fd5b61136c84613566565b611375846136f6565b837fff097af85fdb3be6e4d1932c7fd248c57a2b3e746f8db46648b18eb6244ddff360006040516113a69190613dee565b60405180910390a250505050565b600081600560009054906101000a900473ffffffffffffffffffffffffffffffffffffffff1673ffffffffffffffffffffffffffffffffffffffff16634f558e79826040518263ffffffff1660e01b81526004016114129190613c20565b60206040518083038186803b15801561142a57600080fd5b505afa15801561143e573d6000803e3d6000fd5b505050506040513d601f19601f820116820180604052508101906114629190614207565b61146b57600080fd5b61147483613281565b915050919050565b600081600560009054906101000a900473ffffffffffffffffffffffffffffffffffffffff1673ffffffffffffffffffffffffffffffffffffffff16634f558e79826040518263ffffffff1660e01b81526004016114da9190613c20565b60206040518083038186803b1580156114f257600080fd5b505afa158015611506573d6000803e3d6000fd5b505050506040513d601f19601f8201168201806040525081019061152a9190614207565b61153357600080fd5b61153c836133b8565b915050919050565b600081600560009054906101000a900473ffffffffffffffffffffffffffffffffffffffff1673ffffffffffffffffffffffffffffffffffffffff16634f558e79826040518263ffffffff1660e01b81526004016115a29190613c20565b60206040518083038186803b1580156115ba57600080fd5b505afa1580156115ce573d6000803e3d6000fd5b505050506040513d601f19601f820116820180604052508101906115f29190614207565b6115fb57600080fd5b8261160581613281565b611644576040517f08c379a000000000000000000000000000000000000000000000000000000000815260040161163b90614291565b60405180910390fd5b61164d84613549565b92505050919050565b80600560009054906101000a900473ffffffffffffffffffffffffffffffffffffffff1673ffffffffffffffffffffffffffffffffffffffff16634f558e79826040518263ffffffff1660e01b81526004016116b29190613c20565b60206040518083038186803b1580156116ca57600080fd5b505afa1580156116de573d6000803e3d6000fd5b505050506040513d601f19601f820116820180604052508101906117029190614207565b61170b57600080fd5b813373ffffffffffffffffffffffffffffffffffffffff16600560009054906101000a900473ffffffffffffffffffffffffffffffffffffffff1673ffffffffffffffffffffffffffffffffffffffff16636352211e836040518263ffffffff1660e01b815260040161177e9190613c20565b60206040518083038186803b15801561179657600080fd5b505afa1580156117aa573d6000803e3d6000fd5b505050506040513d601f19601f820116820180604052508101906117ce9190614349565b73ffffffffffffffffffffffffffffffffffffffff1614611824576040517f08c379a000000000000000000000000000000000000000000000000000000000815260040161181b906143c2565b60405180910390fd5b8261182e816133b8565b61186d576040517f08c379a0000000000000000000000000000000000000000000000000000000008152600401611864906142fd565b60405180910390fd5b6000611878856134f0565b9050600073ffffffffffffffffffffffffffffffffffffffff168173ffffffffffffffffffffffffffffffffffffffff1614156118b457600080fd5b61197d600560009054906101000a900473ffffffffffffffffffffffffffffffffffffffff1673ffffffffffffffffffffffffffffffffffffffff16636352211e876040518263ffffffff1660e01b81526004016119129190613c20565b60206040518083038186803b15801561192a57600080fd5b505afa15801561193e573d6000803e3d6000fd5b505050506040513d601f19601f820116820180604052508101906119629190614349565b60045461196e88613549565b611978919061479c565b6135d3565b600560009054906101000a900473ffffffffffffffffffffffffffffffffffffffff1673ffffffffffffffffffffffffffffffffffffffff166323b872dd600560009054906101000a900473ffffffffffffffffffffffffffffffffffffffff1673ffffffffffffffffffffffffffffffffffffffff16636352211e886040518263ffffffff1660e01b8152600401611a169190613c20565b60206040518083038186803b158015611a2e57600080fd5b505afa158015611a42573d6000803e3d6000fd5b505050506040513d601f19601f82011682018060405250810190611a669190614349565b83886040518463ffffffff1660e01b8152600401611a86939291906147d0565b600060405180830381600087803b158015611aa057600080fd5b505af1158015611ab4573d6000803e3d6000fd5b505050508073ffffffffffffffffffffffffffffffffffffffff16600560009054906101000a900473ffffffffffffffffffffffffffffffffffffffff1673ffffffffffffffffffffffffffffffffffffffff16636352211e876040518263ffffffff1660e01b8152600401611b2a9190613c20565b60206040518083038186803b158015611b4257600080fd5b505afa158015611b56573d6000803e3d6000fd5b505050506040513d601f19601f82011682018060405250810190611b7a9190614349565b73ffffffffffffffffffffffffffffffffffffffff1614611bd0576040517f08c379a0000000000000000000000000000000000000000000000000000000008152600401611bc790614853565b60405180910390fd5b611bdb856000613755565b611be6856000613687565b611bef856138a1565b847fff097af85fdb3be6e4d1932c7fd248c57a2b3e746f8db46648b18eb6244ddff36000604051611c209190613dee565b60405180910390a25050505050565b80600560009054906101000a900473ffffffffffffffffffffffffffffffffffffffff1673ffffffffffffffffffffffffffffffffffffffff16634f558e79826040518263ffffffff1660e01b8152600401611c8b9190613c20565b60206040518083038186803b158015611ca357600080fd5b505afa158015611cb7573d6000803e3d6000fd5b505050506040513d601f19601f82011682018060405250810190611cdb9190614207565b611ce457600080fd5b81611cee81613281565b611d2d576040517f08c379a0000000000000000000000000000000000000000000000000000000008152600401611d2490614291565b60405180910390fd5b82611d37816133b8565b15611d77576040517f08c379a0000000000000000000000000000000000000000000000000000000008152600401611d6e9061442e565b60405180910390fd5b611d8084613549565b3414611dc1576040517f08c379a0000000000000000000000000000000000000000000000000000000008152600401611db8906148bf565b60405180910390fd5b611e82600560009054906101000a900473ffffffffffffffffffffffffffffffffffffffff1673ffffffffffffffffffffffffffffffffffffffff16636352211e866040518263ffffffff1660e01b8152600401611e1f9190613c20565b60206040518083038186803b158015611e3757600080fd5b505afa158015611e4b573d6000803e3d6000fd5b505050506040513d601f19601f82011682018060405250810190611e6f9190614349565b60045434611e7d919061479c565b6135d3565b600560009054906101000a900473ffffffffffffffffffffffffffffffffffffffff1673ffffffffffffffffffffffffffffffffffffffff166323b872dd600560009054906101000a900473ffffffffffffffffffffffffffffffffffffffff1673ffffffffffffffffffffffffffffffffffffffff16636352211e876040518263ffffffff1660e01b8152600401611f1b9190613c20565b60206040518083038186803b158015611f3357600080fd5b505afa158015611f47573d6000803e3d6000fd5b505050506040513d601f19601f82011682018060405250810190611f6b9190614349565b33876040518463ffffffff1660e01b8152600401611f8b939291906147d0565b600060405180830381600087803b158015611fa557600080fd5b505af1158015611fb9573d6000803e3d6000fd5b505050503373ffffffffffffffffffffffffffffffffffffffff16600560009054906101000a900473ffffffffffffffffffffffffffffffffffffffff1673ffffffffffffffffffffffffffffffffffffffff16636352211e866040518263ffffffff1660e01b815260040161202f9190613c20565b60206040518083038186803b15801561204757600080fd5b505afa15801561205b573d6000803e3d6000fd5b505050506040513d601f19601f8201168201806040525081019061207f9190614349565b73ffffffffffffffffffffffffffffffffffffffff16146120d5576040517f08c379a00000000000000000000000000000000000000000000000000000000081526004016120cc90614853565b60405180910390fd5b6120de846138a1565b837fff097af85fdb3be6e4d1932c7fd248c57a2b3e746f8db46648b18eb6244ddff3600060405161210f9190613dee565b60405180910390a250505050565b81600560009054906101000a900473ffffffffffffffffffffffffffffffffffffffff1673ffffffffffffffffffffffffffffffffffffffff16634f558e79826040518263ffffffff1660e01b81526004016121799190613c20565b60206040518083038186803b15801561219157600080fd5b505afa1580156121a5573d6000803e3d6000fd5b505050506040513d601f19601f820116820180604052508101906121c99190614207565b6121d257600080fd5b823373ffffffffffffffffffffffffffffffffffffffff16600560009054906101000a900473ffffffffffffffffffffffffffffffffffffffff1673ffffffffffffffffffffffffffffffffffffffff16636352211e836040518263ffffffff1660e01b81526004016122459190613c20565b60206040518083038186803b15801561225d57600080fd5b505afa158015612271573d6000803e3d6000fd5b505050506040513d601f19601f820116820180604052508101906122959190614349565b73ffffffffffffffffffffffffffffffffffffffff16146122eb576040517f08c379a00000000000000000000000000000000000000000000000000000000081526004016122e2906143c2565b60405180910390fd5b836122f581613281565b15612335576040517f08c379a000000000000000000000000000000000000000000000000000000000815260040161232c906145de565b60405180910390fd5b8366038d7ea4c68000811161237f576040517f08c379a00000000000000000000000000000000000000000000000000000000081526004016123769061449a565b60405180910390fd5b61238986866138cb565b857fff097af85fdb3be6e4d1932c7fd248c57a2b3e746f8db46648b18eb6244ddff360016040516123ba9190613dee565b60405180910390a2505050505050565b80600560009054906101000a900473ffffffffffffffffffffffffffffffffffffffff1673ffffffffffffffffffffffffffffffffffffffff16634f558e79826040518263ffffffff1660e01b81526004016124269190613c20565b60206040518083038186803b15801561243e57600080fd5b505afa158015612452573d6000803e3d6000fd5b505050506040513d601f19601f820116820180604052508101906124769190614207565b61247f57600080fd5b813373ffffffffffffffffffffffffffffffffffffffff16600560009054906101000a900473ffffffffffffffffffffffffffffffffffffffff1673ffffffffffffffffffffffffffffffffffffffff16636352211e836040518263ffffffff1660e01b81526004016124f29190613c20565b60206040518083038186803b15801561250a57600080fd5b505afa15801561251e573d6000803e3d6000fd5b505050506040513d601f19601f820116820180604052508101906125429190614349565b73ffffffffffffffffffffffffffffffffffffffff1614612598576040517f08c379a000000000000000000000000000000000000000000000000000000000815260040161258f906143c2565b60405180910390fd5b826125a281613281565b6125e1576040517f08c379a00000000000000000000000000000000000000000000000000000000081526004016125d890614291565b60405180910390fd5b836125eb816133b8565b1561262b576040517f08c379a00000000000000000000000000000000000000000000000000000000081526004016126229061442e565b60405180910390fd5b612634856138a1565b847fff097af85fdb3be6e4d1932c7fd248c57a2b3e746f8db46648b18eb6244ddff360006040516126659190613dee565b60405180910390a25050505050565b61267c613ab9565b612684613ab9565b6000600560009054906101000a900473ffffffffffffffffffffffffffffffffffffffff1673ffffffffffffffffffffffffffffffffffffffff166318160ddd6040518163ffffffff1660e01b815260040160206040518083038186803b1580156126ee57600080fd5b505afa158015612702573d6000803e3d6000fd5b505050506040513d601f19601f8201168201806040525081019061272691906148f4565b905060008167ffffffffffffffff81111561274457612743614608565b5b6040519080825280602002602001820160405280156127725781602001602082028036833780820191505090505b50905060008267ffffffffffffffff81111561279157612790614608565b5b6040519080825280602002602001820160405280156127bf5781602001602082028036833780820191505090505b50905060008367ffffffffffffffff8111156127de576127dd614608565b5b60405190808252806020026020018201604052801561280c5781602001602082028036833780820191505090505b50905060008467ffffffffffffffff81111561282b5761282a614608565b5b6040519080825280602002602001820160405280156128595781602001602082028036833780820191505090505b50905060005b85811015612a2a576000600560009054906101000a900473ffffffffffffffffffffffffffffffffffffffff1673ffffffffffffffffffffffffffffffffffffffff16634f6ccce7836040518263ffffffff1660e01b81526004016128c49190613c20565b60206040518083038186803b1580156128dc57600080fd5b505afa1580156128f0573d6000803e3d6000fd5b505050506040513d601f19601f8201168201806040525081019061291491906148f4565b9050600061292182613281565b90508087848151811061293757612936614921565b5b6020026020010190151590811515815250508015612a1557600061295a83613549565b9050808785815181106129705761296f614921565b5b6020026020010181815250506000612987846133b8565b90508087868151811061299d5761299c614921565b5b6020026020010190151590811515815250508015612a125760006129c0856134f0565b9050808787815181106129d6576129d5614921565b5b602002602001019073ffffffffffffffffffffffffffffffffffffffff16908173ffffffffffffffffffffffffffffffffffffffff1681525050505b50505b50508080612a2290614950565b91505061285f565b50838660800181905250828660a00181905250818660c00181905250808660e0018190525085965050505050505090565b612a63613ab9565b612a6b613ab9565b6000600560009054906101000a900473ffffffffffffffffffffffffffffffffffffffff1673ffffffffffffffffffffffffffffffffffffffff166318160ddd6040518163ffffffff1660e01b815260040160206040518083038186803b158015612ad557600080fd5b505afa158015612ae9573d6000803e3d6000fd5b505050506040513d601f19601f82011682018060405250810190612b0d91906148f4565b905060008167ffffffffffffffff811115612b2b57612b2a614608565b5b604051908082528060200260200182016040528015612b595781602001602082028036833780820191505090505b50905060008267ffffffffffffffff811115612b7857612b77614608565b5b604051908082528060200260200182016040528015612bab57816020015b6060815260200190600190039081612b965790505b50905060008367ffffffffffffffff811115612bca57612bc9614608565b5b604051908082528060200260200182016040528015612bf85781602001602082028036833780820191505090505b50905060008467ffffffffffffffff811115612c1757612c16614608565b5b604051908082528060200260200182016040528015612c455781602001602082028036833780820191505090505b50905060008567ffffffffffffffff811115612c6457612c63614608565b5b604051908082528060200260200182016040528015612c925781602001602082028036833780820191505090505b50905060008667ffffffffffffffff811115612cb157612cb0614608565b5b604051908082528060200260200182016040528015612cdf5781602001602082028036833780820191505090505b50905060008767ffffffffffffffff811115612cfe57612cfd614608565b5b604051908082528060200260200182016040528015612d2c5781602001602082028036833780820191505090505b50905060008867ffffffffffffffff811115612d4b57612d4a614608565b5b604051908082528060200260200182016040528015612d795781602001602082028036833780820191505090505b50905060005b89811015613228576000600560009054906101000a900473ffffffffffffffffffffffffffffffffffffffff1673ffffffffffffffffffffffffffffffffffffffff16634f6ccce7836040518263ffffffff1660e01b8152600401612de49190613c20565b60206040518083038186803b158015612dfc57600080fd5b505afa158015612e10573d6000803e3d6000fd5b505050506040513d601f19601f82011682018060405250810190612e3491906148f4565b9050808a8381518110612e4a57612e49614921565b5b602002602001018181525050600560009054906101000a900473ffffffffffffffffffffffffffffffffffffffff1673ffffffffffffffffffffffffffffffffffffffff1663c87b56dd826040518263ffffffff1660e01b8152600401612eb19190613c20565b60006040518083038186803b158015612ec957600080fd5b505afa158015612edd573d6000803e3d6000fd5b505050506040513d6000823e3d601f19601f82011682018060405250810190612f069190614724565b898381518110612f1957612f18614921565b5b6020026020010181905250600560009054906101000a900473ffffffffffffffffffffffffffffffffffffffff1673ffffffffffffffffffffffffffffffffffffffff16636352211e826040518263ffffffff1660e01b8152600401612f7f9190613c20565b60206040518083038186803b158015612f9757600080fd5b505afa158015612fab573d6000803e3d6000fd5b505050506040513d601f19601f82011682018060405250810190612fcf9190614349565b888381518110612fe257612fe1614921565b5b602002602001019073ffffffffffffffffffffffffffffffffffffffff16908173ffffffffffffffffffffffffffffffffffffffff1681525050600560009054906101000a900473ffffffffffffffffffffffffffffffffffffffff1673ffffffffffffffffffffffffffffffffffffffff166385fd3cb8826040518263ffffffff1660e01b81526004016130779190613c20565b60206040518083038186803b15801561308f57600080fd5b505afa1580156130a3573d6000803e3d6000fd5b505050506040513d601f19601f820116820180604052508101906130c79190614349565b8783815181106130da576130d9614921565b5b602002602001019073ffffffffffffffffffffffffffffffffffffffff16908173ffffffffffffffffffffffffffffffffffffffff1681525050600061311f82613281565b90508087848151811061313557613134614921565b5b602002602001019015159081151581525050801561321357600061315883613549565b90508087858151811061316e5761316d614921565b5b6020026020010181815250506000613185846133b8565b90508087868151811061319b5761319a614921565b5b60200260200101901515908115158152505080156132105760006131be856134f0565b9050808787815181106131d4576131d3614921565b5b602002602001019073ffffffffffffffffffffffffffffffffffffffff16908173ffffffffffffffffffffffffffffffffffffffff1681525050505b50505b5050808061322090614950565b915050612d7f565b50878a60000181905250868a60200181905250858a60400181905250848a60600181905250838a60800181905250828a60a00181905250818a60c00181905250808a60e00181905250899a505050505050505050505090565b600080600073__BoolBitStorage________________________63f7d1c1dd856040518263ffffffff1660e01b81526004016132bd91906149a8565b604080518083038186803b1580156132d457600080fd5b505af41580156132e8573d6000803e3d6000fd5b505050506040513d601f19601f8201168201806040525081019061330c91906149c3565b809250819350505073__BoolBitStorage________________________633ea5d11e60008085815260200190815260200160002054836040518363ffffffff1660e01b815260040161335f929190614a03565b60206040518083038186803b15801561337757600080fd5b505af415801561338b573d6000803e3d6000fd5b505050506040513d601f19601f820116820180604052508101906133af9190614207565b92505050919050565b600080600073__BoolBitStorage________________________63f7d1c1dd856040518263ffffffff1660e01b81526004016133f491906149a8565b604080518083038186803b15801561340b57600080fd5b505af415801561341f573d6000803e3d6000fd5b505050506040513d601f19601f8201168201806040525081019061344391906149c3565b809250819350505073__BoolBitStorage________________________633ea5d11e6001600085815260200190815260200160002054836040518363ffffffff1660e01b8152600401613497929190614a03565b60206040518083038186803b1580156134af57600080fd5b505af41580156134c3573d6000803e3d6000fd5b505050506040513d601f19601f820116820180604052508101906134e79190614207565b92505050919050565b60006003600083815260200190815260200160002060009054906101000a900473ffffffffffffffffffffffffffffffffffffffff169050919050565b8060026000848152602001908152602001600020819055505050565b600060026000838152602001908152602001600020549050919050565b6000613571826134f0565b9050600061357e83613549565b9050600081141580156135be5750600073ffffffffffffffffffffffffffffffffffffffff168273ffffffffffffffffffffffffffffffffffffffff1614155b156135ce576135cd82826135d3565b5b505050565b6000808373ffffffffffffffffffffffffffffffffffffffff16836040516135fa90614a5d565b60006040518083038185875af1925050503d8060008114613637576040519150601f19603f3d011682016040523d82523d6000602084013e61363c565b606091505b509150915081613681576040517f08c379a000000000000000000000000000000000000000000000000000000000815260040161367890614abe565b60405180910390fd5b50505050565b806003600084815260200190815260200160002060006101000a81548173ffffffffffffffffffffffffffffffffffffffff021916908373ffffffffffffffffffffffffffffffffffffffff1602179055505050565b6136e782826138cb565b6136f2826001613755565b5050565b613701816000613755565b600073ffffffffffffffffffffffffffffffffffffffff16613722826134f0565b73ffffffffffffffffffffffffffffffffffffffff161461374957613748816000613687565b5b613752816138a1565b50565b60008073__BoolBitStorage________________________63f7d1c1dd856040518263ffffffff1660e01b815260040161378f91906149a8565b604080518083038186803b1580156137a657600080fd5b505af41580156137ba573d6000803e3d6000fd5b505050506040513d601f19601f820116820180604052508101906137de91906149c3565b809250819350505073__BoolBitStorage________________________6333720693600160008581526020019081526020016000205483866040518463ffffffff1660e01b815260040161383493929190614aed565b60206040518083038186803b15801561384c57600080fd5b505af4158015613860573d6000803e3d6000fd5b505050506040513d601f19601f8201168201806040525081019061388491906148f4565b600160008481526020019081526020016000208190555050505050565b6138ac8160006138e4565b60006138b782613549565b146138c8576138c781600061352d565b5b50565b6138d68260016138e4565b6138e0828261352d565b5050565b60008073__BoolBitStorage________________________63f7d1c1dd856040518263ffffffff1660e01b815260040161391e91906149a8565b604080518083038186803b15801561393557600080fd5b505af4158015613949573d6000803e3d6000fd5b505050506040513d601f19601f8201168201806040525081019061396d91906149c3565b809250819350505073__BoolBitStorage________________________63337206936000808581526020019081526020016000205483866040518463ffffffff1660e01b81526004016139c293929190614aed565b60206040518083038186803b1580156139da57600080fd5b505af41580156139ee573d6000803e3d6000fd5b505050506040513d601f19601f82011682018060405250810190613a1291906148f4565b6000808481526020019081526020016000208190555050505050565b6040518061010001604052806000815260200160608152602001600073ffffffffffffffffffffffffffffffffffffffff168152602001600073ffffffffffffffffffffffffffffffffffffffff16815260200160001515815260200160008152602001600015158152602001600073ffffffffffffffffffffffffffffffffffffffff1681525090565b60405180610100016040528060608152602001606081526020016060815260200160608152602001606081526020016060815260200160608152602001606081525090565b6000604051905090565b600080fd5b600080fd5b6000819050919050565b613b2581613b12565b8114613b3057600080fd5b50565b600081359050613b4281613b1c565b92915050565b600060208284031215613b5e57613b5d613b08565b5b6000613b6c84828501613b33565b91505092915050565b600073ffffffffffffffffffffffffffffffffffffffff82169050919050565b6000613ba082613b75565b9050919050565b613bb081613b95565b82525050565b6000602082019050613bcb6000830184613ba7565b92915050565b60008060408385031215613be857613be7613b08565b5b6000613bf685828601613b33565b9250506020613c0785828601613b33565b9150509250929050565b613c1a81613b12565b82525050565b6000602082019050613c356000830184613c11565b92915050565b613c4481613b12565b82525050565b600081519050919050565b600082825260208201905092915050565b60005b83811015613c84578082015181840152602081019050613c69565b83811115613c93576000848401525b50505050565b6000601f19601f8301169050919050565b6000613cb582613c4a565b613cbf8185613c55565b9350613ccf818560208601613c66565b613cd881613c99565b840191505092915050565b613cec81613b95565b82525050565b60008115159050919050565b613d0781613cf2565b82525050565b600061010083016000830151613d266000860182613c3b565b5060208301518482036020860152613d3e8282613caa565b9150506040830151613d536040860182613ce3565b506060830151613d666060860182613ce3565b506080830151613d796080860182613cfe565b5060a0830151613d8c60a0860182613c3b565b5060c0830151613d9f60c0860182613cfe565b5060e0830151613db260e0860182613ce3565b508091505092915050565b60006020820190508181036000830152613dd78184613d0d565b905092915050565b613de881613cf2565b82525050565b6000602082019050613e036000830184613ddf565b92915050565b600081519050919050565b600082825260208201905092915050565b6000819050602082019050919050565b6000613e418383613c3b565b60208301905092915050565b6000602082019050919050565b6000613e6582613e09565b613e6f8185613e14565b9350613e7a83613e25565b8060005b83811015613eab578151613e928882613e35565b9750613e9d83613e4d565b925050600181019050613e7e565b5085935050505092915050565b600081519050919050565b600082825260208201905092915050565b6000819050602082019050919050565b6000613ef08383613caa565b905092915050565b6000602082019050919050565b6000613f1082613eb8565b613f1a8185613ec3565b935083602082028501613f2c85613ed4565b8060005b85811015613f685784840389528151613f498582613ee4565b9450613f5483613ef8565b925060208a01995050600181019050613f30565b50829750879550505050505092915050565b600081519050919050565b600082825260208201905092915050565b6000819050602082019050919050565b6000613fb28383613ce3565b60208301905092915050565b6000602082019050919050565b6000613fd682613f7a565b613fe08185613f85565b9350613feb83613f96565b8060005b8381101561401c5781516140038882613fa6565b975061400e83613fbe565b925050600181019050613fef565b5085935050505092915050565b600081519050919050565b600082825260208201905092915050565b6000819050602082019050919050565b60006140618383613cfe565b60208301905092915050565b6000602082019050919050565b600061408582614029565b61408f8185614034565b935061409a83614045565b8060005b838110156140cb5781516140b28882614055565b97506140bd8361406d565b92505060018101905061409e565b5085935050505092915050565b60006101008301600083015184820360008601526140f68282613e5a565b915050602083015184820360208601526141108282613f05565b9150506040830151848203604086015261412a8282613fcb565b915050606083015184820360608601526141448282613fcb565b9150506080830151848203608086015261415e828261407a565b91505060a083015184820360a08601526141788282613e5a565b91505060c083015184820360c0860152614192828261407a565b91505060e083015184820360e08601526141ac8282613fcb565b9150508091505092915050565b600060208201905081810360008301526141d381846140d8565b905092915050565b6141e481613cf2565b81146141ef57600080fd5b50565b600081519050614201816141db565b92915050565b60006020828403121561421d5761421c613b08565b5b600061422b848285016141f2565b91505092915050565b600082825260208201905092915050565b7f4534000000000000000000000000000000000000000000000000000000000000600082015250565b600061427b600283614234565b915061428682614245565b602082019050919050565b600060208201905081810360008301526142aa8161426e565b9050919050565b7f4536000000000000000000000000000000000000000000000000000000000000600082015250565b60006142e7600283614234565b91506142f2826142b1565b602082019050919050565b60006020820190508181036000830152614316816142da565b9050919050565b61432681613b95565b811461433157600080fd5b50565b6000815190506143438161431d565b92915050565b60006020828403121561435f5761435e613b08565b5b600061436d84828501614334565b91505092915050565b7f4532000000000000000000000000000000000000000000000000000000000000600082015250565b60006143ac600283614234565b91506143b782614376565b602082019050919050565b600060208201905081810360008301526143db8161439f565b9050919050565b7f4537000000000000000000000000000000000000000000000000000000000000600082015250565b6000614418600283614234565b9150614423826143e2565b602082019050919050565b600060208201905081810360008301526144478161440b565b9050919050565b7f4538000000000000000000000000000000000000000000000000000000000000600082015250565b6000614484600283614234565b915061448f8261444e565b602082019050919050565b600060208201905081810360008301526144b381614477565b9050919050565b7f4531300000000000000000000000000000000000000000000000000000000000600082015250565b60006144f0600383614234565b91506144fb826144ba565b602082019050919050565b6000602082019050818103600083015261451f816144e3565b9050919050565b7f4531310000000000000000000000000000000000000000000000000000000000600082015250565b600061455c600383614234565b915061456782614526565b602082019050919050565b6000602082019050818103600083015261458b8161454f565b9050919050565b7f4535000000000000000000000000000000000000000000000000000000000000600082015250565b60006145c8600283614234565b91506145d382614592565b602082019050919050565b600060208201905081810360008301526145f7816145bb565b9050919050565b600080fd5b600080fd5b7f4e487b7100000000000000000000000000000000000000000000000000000000600052604160045260246000fd5b61464082613c99565b810181811067ffffffffffffffff8211171561465f5761465e614608565b5b80604052505050565b6000614672613afe565b905061467e8282614637565b919050565b600067ffffffffffffffff82111561469e5761469d614608565b5b6146a782613c99565b9050602081019050919050565b60006146c76146c284614683565b614668565b9050828152602081018484840111156146e3576146e2614603565b5b6146ee848285613c66565b509392505050565b600082601f83011261470b5761470a6145fe565b5b815161471b8482602086016146b4565b91505092915050565b60006020828403121561473a57614739613b08565b5b600082015167ffffffffffffffff81111561475857614757613b0d565b5b614764848285016146f6565b91505092915050565b7f4e487b7100000000000000000000000000000000000000000000000000000000600052601160045260246000fd5b60006147a782613b12565b91506147b283613b12565b9250828210156147c5576147c461476d565b5b828203905092915050565b60006060820190506147e56000830186613ba7565b6147f26020830185613ba7565b6147ff6040830184613c11565b949350505050565b7f4531330000000000000000000000000000000000000000000000000000000000600082015250565b600061483d600383614234565b915061484882614807565b602082019050919050565b6000602082019050818103600083015261486c81614830565b9050919050565b7f4539000000000000000000000000000000000000000000000000000000000000600082015250565b60006148a9600283614234565b91506148b482614873565b602082019050919050565b600060208201905081810360008301526148d88161489c565b9050919050565b6000815190506148ee81613b1c565b92915050565b60006020828403121561490a57614909613b08565b5b6000614918848285016148df565b91505092915050565b7f4e487b7100000000000000000000000000000000000000000000000000000000600052603260045260246000fd5b600061495b82613b12565b91507fffffffffffffffffffffffffffffffffffffffffffffffffffffffffffffffff82141561498e5761498d61476d565b5b600182019050919050565b6149a281613b12565b82525050565b60006020820190506149bd6000830184614999565b92915050565b600080604083850312156149da576149d9613b08565b5b60006149e8858286016148df565b92505060206149f9858286016148df565b9150509250929050565b6000604082019050614a186000830185614999565b614a256020830184614999565b9392505050565b600081905092915050565b50565b6000614a47600083614a2c565b9150614a5282614a37565b600082019050919050565b6000614a6882614a3a565b9150819050919050565b7f4531320000000000000000000000000000000000000000000000000000000000600082015250565b6000614aa8600383614234565b9150614ab382614a72565b602082019050919050565b60006020820190508181036000830152614ad781614a9b565b9050919050565b614ae781613cf2565b82525050565b6000606082019050614b026000830186614999565b614b0f6020830185614999565b614b1c6040830184614ade565b94935050505056fea26469706673582212202e4fb4c1a4e0dcdf6cf1a21fb6c45cda9681b7b0b0c41648a373ca372c19d44b64736f6c63430008090033",
  "immutableReferences": {},
  "source": "// SPDX-License-Identifier: MIT\r\npragma solidity >=0.6.0 <0.9.0;\r\n\r\nimport \"./Marketplace.sol\";\r\nimport \"./Vehicle.sol\";\r\n\r\ncontract Gateway is Marketplace {\r\n    event NewPrice(uint256 indexed tokenId);\r\n    event NewTopBidder(uint256 indexed tokenId);\r\n    event SaleStatus(uint256 indexed tokenId, bool status);\r\n    uint256 tax = 100000000000000 wei;\r\n    Vehicle vhc;\r\n\r\n    receive() external payable {}\r\n\r\n    struct getObjectOne {\r\n        uint256 id;\r\n        string uri;\r\n        address owner;\r\n        address garage;\r\n        bool sale;\r\n        uint256 price;\r\n        bool auction;\r\n        address bidder;\r\n    }\r\n\r\n    struct getObject {\r\n        uint256[] ids;\r\n        string[] uris;\r\n        address[] owners;\r\n        address[] garages;\r\n        bool[] sales;\r\n        uint256[] prices;\r\n        bool[] auctions;\r\n        address[] bidders;\r\n    }\r\n\r\n    function refreshOne(uint256 tokenId)\r\n        public\r\n        view\r\n        returns (getObjectOne memory)\r\n    {\r\n        getObjectOne memory getObject1;\r\n\r\n        getObject1.id = tokenId;\r\n        getObject1.uri = vhc.tokenURI(tokenId);\r\n        getObject1.owner = vhc.ownerOf(tokenId);\r\n        getObject1.garage = vhc.getApprovedGarage(tokenId);\r\n\r\n        bool isForSale = _isForSale(tokenId);\r\n        getObject1.sale = isForSale;\r\n\r\n\r\n        if (isForSale) {\r\n            getObject1.price = _getVehiclePrice(tokenId);\r\n            bool isAuction = _isAuction(tokenId);\r\n            \r\n            getObject1.auction = isAuction;\r\n\r\n            if (isAuction) {\r\n                getObject1.bidder = _getTopBidder(tokenId);\r\n            }\r\n        }\r\n\r\n        return getObject1;\r\n    }\r\n\r\n    function getEverything() public view returns (getObject memory) {\r\n        getObject memory getObject1;\r\n\r\n        uint256 totalSupply = vhc.totalSupply();\r\n\r\n        uint256[] memory ids = new uint256[](totalSupply);\r\n        string[] memory uris = new string[](totalSupply);\r\n        address[] memory owners = new address[](totalSupply);\r\n        address[] memory garages = new address[](totalSupply);\r\n        bool[] memory sales = new bool[](totalSupply);\r\n        uint256[] memory prices = new uint256[](totalSupply);\r\n        bool[] memory auctions = new bool[](totalSupply);\r\n        address[] memory bidders = new address[](totalSupply);\r\n\r\n        for (uint256 i = 0; i < totalSupply; i++) {\r\n            uint256 index = vhc.tokenByIndex(i);\r\n\r\n            ids[i] = index;\r\n            uris[i] = vhc.tokenURI(index);\r\n            owners[i] = vhc.ownerOf(index);\r\n            garages[i] = vhc.getApprovedGarage(index);\r\n\r\n            bool isForSale = _isForSale(index);\r\n            sales[i] = isForSale;\r\n\r\n            if (isForSale) {\r\n                uint256 price = _getVehiclePrice(index);\r\n                prices[i] = price;\r\n\r\n                bool isAuction = _isAuction(index);\r\n                auctions[i] = isAuction;\r\n\r\n                if (isAuction) {\r\n                    address topBidder = _getTopBidder(index);\r\n                    bidders[i] = topBidder;\r\n                }\r\n            }\r\n        }\r\n\r\n        getObject1.ids = ids;\r\n        getObject1.uris = uris;\r\n        getObject1.owners = owners;\r\n        getObject1.garages = garages;\r\n        getObject1.sales = sales;\r\n        getObject1.prices = prices;\r\n        getObject1.auctions = auctions;\r\n        getObject1.bidders = bidders;\r\n\r\n        return getObject1;\r\n    }\r\n\r\n    function getMarketVehicles() public view returns (getObject memory) {\r\n        getObject memory getObject1;\r\n\r\n        uint256 totalSupply = vhc.totalSupply();\r\n\r\n        bool[] memory sales = new bool[](totalSupply);\r\n        uint256[] memory prices = new uint256[](totalSupply);\r\n        bool[] memory auctions = new bool[](totalSupply);\r\n        address[] memory bidders = new address[](totalSupply);\r\n\r\n        for (uint256 i = 0; i < totalSupply; i++) {\r\n            uint256 index = vhc.tokenByIndex(i);\r\n\r\n            bool isForSale = _isForSale(index);\r\n            sales[i] = isForSale;\r\n\r\n            if (isForSale) {\r\n                uint256 price = _getVehiclePrice(index);\r\n                prices[i] = price;\r\n\r\n                bool isAuction = _isAuction(index);\r\n                auctions[i] = isAuction;\r\n\r\n                if (isAuction) {\r\n                    address topBidder = _getTopBidder(index);\r\n                    bidders[i] = topBidder;\r\n                }\r\n            }\r\n        }\r\n\r\n        getObject1.sales = sales;\r\n        getObject1.prices = prices;\r\n        getObject1.auctions = auctions;\r\n        getObject1.bidders = bidders;\r\n\r\n        return getObject1;\r\n    }\r\n\r\n    constructor(address addr) {\r\n        vhc = Vehicle(addr);\r\n    }\r\n\r\n    function balanceOfSC() public view returns (uint256) {\r\n        return address(this).balance;\r\n    }\r\n\r\n    //MODIFIERS\r\n\r\n    modifier onlyIfExists(uint256 tokenId) {\r\n        require(vhc.exists(tokenId));\r\n        _;\r\n    }\r\n\r\n    modifier onlyOwnerOf(uint256 tokenId) {\r\n        require(vhc.ownerOf(tokenId) == msg.sender, \"E2\");\r\n        _;\r\n    }\r\n\r\n    modifier onlyIfForSale(uint256 tokenId) {\r\n        require(_isForSale(tokenId), \"E4\");\r\n        _;\r\n    }\r\n\r\n    modifier onlyIfNotForSale(uint256 tokenId) {\r\n        require(!_isForSale(tokenId), \"E5\");\r\n        _;\r\n    }\r\n\r\n    modifier onlyIfAuction(uint256 tokenId) {\r\n        require(_isAuction(tokenId), \"E6\");\r\n        _;\r\n    }\r\n\r\n    modifier onlyIfNotAuction(uint256 tokenId) {\r\n        require(!_isAuction(tokenId), \"E7\");\r\n        _;\r\n    }\r\n\r\n    modifier onlyIfPriceNonNull(uint256 price) {\r\n        require(price > 1000000000000000, \"E8\");\r\n        _;\r\n    }\r\n\r\n    // GETTERS\r\n\r\n    function getVehiclePrice(uint256 tokenId)\r\n        external\r\n        view\r\n        onlyIfExists(tokenId)\r\n        onlyIfForSale(tokenId)\r\n        returns (uint256)\r\n    {\r\n        return _getVehiclePrice(tokenId);\r\n    }\r\n\r\n    function getTopBidder(uint256 tokenId)\r\n        external\r\n        view\r\n        onlyIfExists(tokenId)\r\n        onlyIfForSale(tokenId)\r\n        onlyIfAuction(tokenId)\r\n        returns (address)\r\n    {\r\n        return _getTopBidder(tokenId);\r\n    }\r\n\r\n    function isAuction(uint256 tokenId)\r\n        external\r\n        view\r\n        onlyIfExists(tokenId)\r\n        returns (bool)\r\n    {\r\n        return _isAuction(tokenId);\r\n    }\r\n\r\n    function isForSale(uint256 tokenId)\r\n        external\r\n        view\r\n        onlyIfExists(tokenId)\r\n        returns (bool)\r\n    {\r\n        return _isForSale(tokenId);\r\n    }\r\n\r\n    // LISTING/DELISTING\r\n\r\n    function listAuction(uint256 tokenId, uint256 price)\r\n        external\r\n        onlyIfExists(tokenId)\r\n        onlyOwnerOf(tokenId)\r\n        onlyIfNotForSale(tokenId)\r\n        onlyIfNotAuction(tokenId)\r\n        onlyIfPriceNonNull(price)\r\n    {\r\n        _listAuction(tokenId, price);\r\n        emit SaleStatus(tokenId, true);\r\n    }\r\n\r\n    function listInstant(uint256 tokenId, uint256 price)\r\n        external\r\n        onlyIfExists(tokenId)\r\n        onlyOwnerOf(tokenId)\r\n        onlyIfNotForSale(tokenId)\r\n        onlyIfPriceNonNull(price)\r\n    {\r\n        _listInstant(tokenId, price);\r\n        emit SaleStatus(tokenId, true);\r\n    }\r\n\r\n    function delistAuction(uint256 tokenId)\r\n        external\r\n        onlyIfExists(tokenId)\r\n        onlyOwnerOf(tokenId)\r\n        onlyIfAuction(tokenId)\r\n    {\r\n        _refundCurentTopBidder(tokenId);\r\n        _delistAuction(tokenId);\r\n        emit SaleStatus(tokenId, false);\r\n    }\r\n\r\n    function delistInstant(uint256 tokenId)\r\n        external\r\n        onlyIfExists(tokenId)\r\n        onlyOwnerOf(tokenId)\r\n        onlyIfForSale(tokenId)\r\n        onlyIfNotAuction(tokenId)\r\n    {\r\n        _delistInstant(tokenId);\r\n        emit SaleStatus(tokenId, false);\r\n    }\r\n\r\n    // SETTERS\r\n\r\n    function setVehiclePrice(uint256 tokenId, uint256 _price)\r\n        external\r\n        onlyIfExists(tokenId)\r\n        onlyOwnerOf(tokenId)\r\n        onlyIfForSale(tokenId)\r\n        onlyIfNotAuction(tokenId)\r\n        onlyIfPriceNonNull(_price)\r\n    {\r\n        _setVehiclePrice(tokenId, _price);\r\n        emit NewPrice(tokenId);\r\n    }\r\n\r\n    //// MONEY TX\r\n\r\n    function buy(uint256 tokenId)\r\n        external\r\n        payable\r\n        onlyIfExists(tokenId)\r\n        onlyIfForSale(tokenId)\r\n        onlyIfNotAuction(tokenId)\r\n    {\r\n        require(msg.value == _getVehiclePrice(tokenId), \"E9\");\r\n\r\n        _secureMoneyTransfer(vhc.ownerOf(tokenId), msg.value - tax);\r\n\r\n        vhc.transferFrom(vhc.ownerOf(tokenId), msg.sender, tokenId);\r\n        require(vhc.ownerOf(tokenId) == msg.sender, \"E13\");\r\n        _delistInstant(tokenId);\r\n\r\n        emit SaleStatus(tokenId, false);\r\n    }\r\n\r\n    function bid(uint256 tokenId)\r\n        external\r\n        payable\r\n        onlyIfExists(tokenId)\r\n        onlyIfAuction(tokenId)\r\n    {\r\n        require(msg.value > _getVehiclePrice(tokenId), \"E10\");\r\n        require(msg.sender != vhc.ownerOf(tokenId), \"E11\");\r\n\r\n        _refundCurentTopBidder(tokenId);\r\n        _secureMoneyTransfer(address(this), msg.value);\r\n\r\n        _setVehiclePrice(tokenId, msg.value);\r\n        _setTopBidder(tokenId, msg.sender);\r\n\r\n        emit NewPrice(tokenId);\r\n        emit NewTopBidder(tokenId);\r\n    }\r\n\r\n    function concludeAuction(uint256 tokenId)\r\n        external\r\n        onlyIfExists(tokenId)\r\n        onlyOwnerOf(tokenId)\r\n        onlyIfAuction(tokenId)\r\n    {\r\n        address topBidder = _getTopBidder(tokenId);\r\n        require(topBidder != address(0));\r\n\r\n        _secureMoneyTransfer(\r\n            vhc.ownerOf(tokenId),\r\n            _getVehiclePrice(tokenId) - tax\r\n        );\r\n\r\n        vhc.transferFrom(vhc.ownerOf(tokenId), topBidder, tokenId);\r\n        require(vhc.ownerOf(tokenId) == topBidder, \"E13\");\r\n\r\n        _setIsAuction(tokenId, false);\r\n        _setTopBidder(tokenId, address(0));\r\n        _delistInstant(tokenId);\r\n\r\n        emit SaleStatus(tokenId, false);\r\n    }\r\n\r\n    // MONEY HANDLING\r\n\r\n    function _secureMoneyTransfer(address beneficiary, uint256 money) internal {\r\n        (bool sent, bytes memory data) = payable(beneficiary).call{\r\n            value: money\r\n        }(\"\");\r\n        require(sent, \"E12\");\r\n    }\r\n\r\n    function _refundCurentTopBidder(uint256 tokenId) internal {\r\n        address currentTopBidder = _getTopBidder(tokenId);\r\n        uint256 currentTopBid = _getVehiclePrice(tokenId);\r\n        if (currentTopBid != 0 && currentTopBidder != address(0))\r\n            _secureMoneyTransfer(currentTopBidder, currentTopBid);\r\n    }\r\n}\r\n",
  "sourcePath": "C:\\mssz\\contracts\\Gateway.sol",
  "compiler": {
    "name": "solc",
    "version": "0.8.9+commit.e5eed63a.Emscripten.clang"
  },
  "schemaVersion": "3.4.3",
  "updatedAt": "2022-03-16T13:28:08.176Z",
  "networkType": "ethereum",
  "devdoc": {
    "kind": "dev",
    "methods": {},
    "version": 1
  },
  "userdoc": {
    "kind": "user",
    "methods": {},
    "version": 1
  }
}