{
  "contractName": "Management",
  "abi": [
    {
      "inputs": [
        {
          "internalType": "address",
          "name": "addr",
          "type": "address"
        }
      ],
      "stateMutability": "nonpayable",
      "type": "constructor"
    },
    {
      "inputs": [],
      "name": "getRefreshCache",
      "outputs": [
        {
          "internalType": "bool",
          "name": "",
          "type": "bool"
        }
      ],
      "stateMutability": "view",
      "type": "function",
      "constant": true
    },
    {
      "inputs": [],
      "name": "getRestart",
      "outputs": [
        {
          "internalType": "bool",
          "name": "",
          "type": "bool"
        }
      ],
      "stateMutability": "view",
      "type": "function",
      "constant": true
    },
    {
      "inputs": [],
      "name": "getApiAddress",
      "outputs": [
        {
          "internalType": "string",
          "name": "",
          "type": "string"
        }
      ],
      "stateMutability": "view",
      "type": "function",
      "constant": true
    },
    {
      "inputs": [
        {
          "internalType": "bool",
          "name": "value",
          "type": "bool"
        }
      ],
      "name": "setRefreshCache",
      "outputs": [],
      "stateMutability": "nonpayable",
      "type": "function"
    },
    {
      "inputs": [
        {
          "internalType": "bool",
          "name": "value",
          "type": "bool"
        }
      ],
      "name": "setRestart",
      "outputs": [],
      "stateMutability": "nonpayable",
      "type": "function"
    },
    {
      "inputs": [
        {
          "internalType": "string",
          "name": "value",
          "type": "string"
        }
      ],
      "name": "setApiAddress",
      "outputs": [],
      "stateMutability": "nonpayable",
      "type": "function"
    }
  ],
  "bytecode": "0x608060405260008060006101000a81548160ff02191690831515021790555060008060016101000a81548160ff0219169083151502179055506040518060400160405280600e81526020017f6c6f63616c686f73743a38343433000000000000000000000000000000000000815250600190805190602001906200008592919062000101565b503480156200009357600080fd5b5060405162000e1b38038062000e1b8339818101604052810190620000b991906200021b565b80600260006101000a81548173ffffffffffffffffffffffffffffffffffffffff021916908373ffffffffffffffffffffffffffffffffffffffff16021790555050620002b2565b8280546200010f906200027c565b90600052602060002090601f0160209004810192826200013357600085556200017f565b82601f106200014e57805160ff19168380011785556200017f565b828001600101855582156200017f579182015b828111156200017e57825182559160200191906001019062000161565b5b5090506200018e919062000192565b5090565b5b80821115620001ad57600081600090555060010162000193565b5090565b600080fd5b600073ffffffffffffffffffffffffffffffffffffffff82169050919050565b6000620001e382620001b6565b9050919050565b620001f581620001d6565b81146200020157600080fd5b50565b6000815190506200021581620001ea565b92915050565b600060208284031215620002345762000233620001b1565b5b6000620002448482850162000204565b91505092915050565b7f4e487b7100000000000000000000000000000000000000000000000000000000600052602260045260246000fd5b600060028204905060018216806200029557607f821691505b60208210811415620002ac57620002ab6200024d565b5b50919050565b610b5980620002c26000396000f3fe608060405234801561001057600080fd5b50600436106100625760003560e01c80631d4a958e1461006757806348e3aa61146100855780635396b489146100a15780635b607caf146100bf578063736cf3a7146100dd57806379995d8a146100f9575b600080fd5b61006f610115565b60405161007c9190610761565b60405180910390f35b61009f600480360381019061009a91906107cf565b6101a7565b005b6100a9610319565b6040516100b6919061080b565b60405180910390f35b6100c761032f565b6040516100d4919061080b565b60405180910390f35b6100f760048036038101906100f2919061095b565b610345565b005b610113600480360381019061010e91906107cf565b6104b4565b005b606060018054610124906109d3565b80601f0160208091040260200160405190810160405280929190818152602001828054610150906109d3565b801561019d5780601f106101725761010080835404028352916020019161019d565b820191906000526020600020905b81548152906001019060200180831161018057829003601f168201915b5050505050905090565b600260009054906101000a900473ffffffffffffffffffffffffffffffffffffffff1673ffffffffffffffffffffffffffffffffffffffff166391d14854600260009054906101000a900473ffffffffffffffffffffffffffffffffffffffff1673ffffffffffffffffffffffffffffffffffffffff1663a217fddf6040518163ffffffff1660e01b815260040160206040518083038186803b15801561024d57600080fd5b505afa158015610261573d6000803e3d6000fd5b505050506040513d601f19601f820116820180604052508101906102859190610a3b565b336040518363ffffffff1660e01b81526004016102a3929190610ab8565b60206040518083038186803b1580156102bb57600080fd5b505afa1580156102cf573d6000803e3d6000fd5b505050506040513d601f19601f820116820180604052508101906102f39190610af6565b6102fc57600080fd5b80600060016101000a81548160ff02191690831515021790555050565b60008060009054906101000a900460ff16905090565b60008060019054906101000a900460ff16905090565b600260009054906101000a900473ffffffffffffffffffffffffffffffffffffffff1673ffffffffffffffffffffffffffffffffffffffff166391d14854600260009054906101000a900473ffffffffffffffffffffffffffffffffffffffff1673ffffffffffffffffffffffffffffffffffffffff1663a217fddf6040518163ffffffff1660e01b815260040160206040518083038186803b1580156103eb57600080fd5b505afa1580156103ff573d6000803e3d6000fd5b505050506040513d601f19601f820116820180604052508101906104239190610a3b565b336040518363ffffffff1660e01b8152600401610441929190610ab8565b60206040518083038186803b15801561045957600080fd5b505afa15801561046d573d6000803e3d6000fd5b505050506040513d601f19601f820116820180604052508101906104919190610af6565b61049a57600080fd5b80600190805190602001906104b0929190610625565b5050565b600260009054906101000a900473ffffffffffffffffffffffffffffffffffffffff1673ffffffffffffffffffffffffffffffffffffffff166391d14854600260009054906101000a900473ffffffffffffffffffffffffffffffffffffffff1673ffffffffffffffffffffffffffffffffffffffff1663a217fddf6040518163ffffffff1660e01b815260040160206040518083038186803b15801561055a57600080fd5b505afa15801561056e573d6000803e3d6000fd5b505050506040513d601f19601f820116820180604052508101906105929190610a3b565b336040518363ffffffff1660e01b81526004016105b0929190610ab8565b60206040518083038186803b1580156105c857600080fd5b505afa1580156105dc573d6000803e3d6000fd5b505050506040513d601f19601f820116820180604052508101906106009190610af6565b61060957600080fd5b806000806101000a81548160ff02191690831515021790555050565b828054610631906109d3565b90600052602060002090601f016020900481019282610653576000855561069a565b82601f1061066c57805160ff191683800117855561069a565b8280016001018555821561069a579182015b8281111561069957825182559160200191906001019061067e565b5b5090506106a791906106ab565b5090565b5b808211156106c45760008160009055506001016106ac565b5090565b600081519050919050565b600082825260208201905092915050565b60005b838110156107025780820151818401526020810190506106e7565b83811115610711576000848401525b50505050565b6000601f19601f8301169050919050565b6000610733826106c8565b61073d81856106d3565b935061074d8185602086016106e4565b61075681610717565b840191505092915050565b6000602082019050818103600083015261077b8184610728565b905092915050565b6000604051905090565b600080fd5b600080fd5b60008115159050919050565b6107ac81610797565b81146107b757600080fd5b50565b6000813590506107c9816107a3565b92915050565b6000602082840312156107e5576107e461078d565b5b60006107f3848285016107ba565b91505092915050565b61080581610797565b82525050565b600060208201905061082060008301846107fc565b92915050565b600080fd5b600080fd5b7f4e487b7100000000000000000000000000000000000000000000000000000000600052604160045260246000fd5b61086882610717565b810181811067ffffffffffffffff8211171561088757610886610830565b5b80604052505050565b600061089a610783565b90506108a6828261085f565b919050565b600067ffffffffffffffff8211156108c6576108c5610830565b5b6108cf82610717565b9050602081019050919050565b82818337600083830152505050565b60006108fe6108f9846108ab565b610890565b90508281526020810184848401111561091a5761091961082b565b5b6109258482856108dc565b509392505050565b600082601f83011261094257610941610826565b5b81356109528482602086016108eb565b91505092915050565b6000602082840312156109715761097061078d565b5b600082013567ffffffffffffffff81111561098f5761098e610792565b5b61099b8482850161092d565b91505092915050565b7f4e487b7100000000000000000000000000000000000000000000000000000000600052602260045260246000fd5b600060028204905060018216806109eb57607f821691505b602082108114156109ff576109fe6109a4565b5b50919050565b6000819050919050565b610a1881610a05565b8114610a2357600080fd5b50565b600081519050610a3581610a0f565b92915050565b600060208284031215610a5157610a5061078d565b5b6000610a5f84828501610a26565b91505092915050565b610a7181610a05565b82525050565b600073ffffffffffffffffffffffffffffffffffffffff82169050919050565b6000610aa282610a77565b9050919050565b610ab281610a97565b82525050565b6000604082019050610acd6000830185610a68565b610ada6020830184610aa9565b9392505050565b600081519050610af0816107a3565b92915050565b600060208284031215610b0c57610b0b61078d565b5b6000610b1a84828501610ae1565b9150509291505056fea264697066735822122064b26e046baab9706a5ba731704b10861fdaddbdad56b3839437fdb70a4c297664736f6c63430008090033",
  "immutableReferences": {},
  "source": "// SPDX-License-Identifier: MIT\r\npragma solidity >=0.6.0 <0.9.0;\r\n\r\nimport \"./Roles.sol\";\r\n\r\ncontract Management {\r\n  \r\n    bool private refreshCache = false;\r\n    bool private restart = false;\r\n    string private apiAddress = \"localhost:8443\";\r\n\r\n    Roles r;\r\n\r\n    constructor (address addr) {\r\n        r = Roles(addr);\r\n    }\r\n\r\n    modifier onlyAuthorized() {\r\n        require(r.hasRole(r.DEFAULT_ADMIN_ROLE(), msg.sender));\r\n        _;\r\n    }\r\n\r\n    function getRefreshCache() external view returns (bool) {\r\n        return refreshCache;\r\n    }\r\n\r\n    function getRestart() external view returns (bool) {\r\n        return restart;\r\n    }\r\n\r\n    function getApiAddress() external view returns (string memory)  {\r\n        return apiAddress;\r\n    }\r\n\r\n    function setRefreshCache(bool value) external onlyAuthorized() {\r\n        refreshCache = value;\r\n    }\r\n\r\n    function setRestart(bool value) external onlyAuthorized() {\r\n        restart = value;\r\n    }\r\n\r\n    function setApiAddress(string memory value) external onlyAuthorized() {\r\n        apiAddress = value;\r\n    }\r\n    \r\n}\r\n",
  "sourcePath": "C:\\sgs020\\contracts\\Management.sol",
  "compiler": {
    "name": "solc",
    "version": "0.8.9+commit.e5eed63a.Emscripten.clang"
  },
  "schemaVersion": "3.4.3",
  "updatedAt": "2022-03-02T16:28:16.898Z",
  "networkType": "ethereum",
  "devdoc": {
    "kind": "dev",
    "methods": {},
    "version": 1
  },
  "userdoc": {
    "kind": "user",
    "methods": {},
    "version": 1
  }
}