{
  "contractName": "Odometer",
  "abi": [
    {
      "inputs": [
        {
          "internalType": "address",
          "name": "addr",
          "type": "address"
        }
      ],
      "stateMutability": "nonpayable",
      "type": "constructor"
    },
    {
      "inputs": [
        {
          "internalType": "uint256",
          "name": "tokenId",
          "type": "uint256"
        }
      ],
      "name": "getOdometerValue",
      "outputs": [
        {
          "internalType": "uint256",
          "name": "",
          "type": "uint256"
        }
      ],
      "stateMutability": "view",
      "type": "function",
      "constant": true
    },
    {
      "inputs": [
        {
          "internalType": "uint256",
          "name": "tokenId",
          "type": "uint256"
        },
        {
          "internalType": "uint256",
          "name": "value",
          "type": "uint256"
        }
      ],
      "name": "increaseOdometer",
      "outputs": [],
      "stateMutability": "nonpayable",
      "type": "function"
    },
    {
      "inputs": [
        {
          "internalType": "uint256",
          "name": "tokenId",
          "type": "uint256"
        },
        {
          "internalType": "address",
          "name": "odometer",
          "type": "address"
        }
      ],
      "name": "setOdometerAddress",
      "outputs": [],
      "stateMutability": "nonpayable",
      "type": "function"
    }
  ],
  "bytecode": "0x608060405234801561001057600080fd5b506040516108c03803806108c0833981810160405281019061003291906100dc565b80600260006101000a81548173ffffffffffffffffffffffffffffffffffffffff021916908373ffffffffffffffffffffffffffffffffffffffff16021790555050610109565b600080fd5b600073ffffffffffffffffffffffffffffffffffffffff82169050919050565b60006100a98261007e565b9050919050565b6100b98161009e565b81146100c457600080fd5b50565b6000815190506100d6816100b0565b92915050565b6000602082840312156100f2576100f1610079565b5b6000610100848285016100c7565b91505092915050565b6107a8806101186000396000f3fe608060405234801561001057600080fd5b50600436106100415760003560e01c8063facbbf2014610046578063fcc51fa114610076578063fec81ee914610092575b600080fd5b610060600480360381019061005b91906104a9565b6100ae565b60405161006d91906104e5565b60405180910390f35b610090600480360381019061008b9190610500565b6100cb565b005b6100ac60048036038101906100a7919061059e565b6102c4565b005b600060016000838152602001908152602001600020549050919050565b600260009054906101000a900473ffffffffffffffffffffffffffffffffffffffff1673ffffffffffffffffffffffffffffffffffffffff166391d14854600260009054906101000a900473ffffffffffffffffffffffffffffffffffffffff1673ffffffffffffffffffffffffffffffffffffffff166382df8cd86040518163ffffffff1660e01b815260040160206040518083038186803b15801561017157600080fd5b505afa158015610185573d6000803e3d6000fd5b505050506040513d601f19601f820116820180604052508101906101a99190610614565b336040518363ffffffff1660e01b81526004016101c792919061065f565b60206040518083038186803b1580156101df57600080fd5b505afa1580156101f3573d6000803e3d6000fd5b505050506040513d601f19601f8201168201806040525081019061021791906106c0565b61022057600080fd5b60008083815260200190815260200160002060009054906101000a900473ffffffffffffffffffffffffffffffffffffffff1673ffffffffffffffffffffffffffffffffffffffff163373ffffffffffffffffffffffffffffffffffffffff161461028a57600080fd5b8060016000848152602001908152602001600020546102a9919061071c565b60016000848152602001908152602001600020819055505050565b600260009054906101000a900473ffffffffffffffffffffffffffffffffffffffff1673ffffffffffffffffffffffffffffffffffffffff166391d14854600260009054906101000a900473ffffffffffffffffffffffffffffffffffffffff1673ffffffffffffffffffffffffffffffffffffffff16635d70301d6040518163ffffffff1660e01b815260040160206040518083038186803b15801561036a57600080fd5b505afa15801561037e573d6000803e3d6000fd5b505050506040513d601f19601f820116820180604052508101906103a29190610614565b336040518363ffffffff1660e01b81526004016103c092919061065f565b60206040518083038186803b1580156103d857600080fd5b505afa1580156103ec573d6000803e3d6000fd5b505050506040513d601f19601f8201168201806040525081019061041091906106c0565b61041957600080fd5b8060008084815260200190815260200160002060006101000a81548173ffffffffffffffffffffffffffffffffffffffff021916908373ffffffffffffffffffffffffffffffffffffffff1602179055505050565b600080fd5b6000819050919050565b61048681610473565b811461049157600080fd5b50565b6000813590506104a38161047d565b92915050565b6000602082840312156104bf576104be61046e565b5b60006104cd84828501610494565b91505092915050565b6104df81610473565b82525050565b60006020820190506104fa60008301846104d6565b92915050565b600080604083850312156105175761051661046e565b5b600061052585828601610494565b925050602061053685828601610494565b9150509250929050565b600073ffffffffffffffffffffffffffffffffffffffff82169050919050565b600061056b82610540565b9050919050565b61057b81610560565b811461058657600080fd5b50565b60008135905061059881610572565b92915050565b600080604083850312156105b5576105b461046e565b5b60006105c385828601610494565b92505060206105d485828601610589565b9150509250929050565b6000819050919050565b6105f1816105de565b81146105fc57600080fd5b50565b60008151905061060e816105e8565b92915050565b60006020828403121561062a5761062961046e565b5b6000610638848285016105ff565b91505092915050565b61064a816105de565b82525050565b61065981610560565b82525050565b60006040820190506106746000830185610641565b6106816020830184610650565b9392505050565b60008115159050919050565b61069d81610688565b81146106a857600080fd5b50565b6000815190506106ba81610694565b92915050565b6000602082840312156106d6576106d561046e565b5b60006106e4848285016106ab565b91505092915050565b7f4e487b7100000000000000000000000000000000000000000000000000000000600052601160045260246000fd5b600061072782610473565b915061073283610473565b9250827fffffffffffffffffffffffffffffffffffffffffffffffffffffffffffffffff03821115610767576107666106ed565b5b82820190509291505056fea2646970667358221220a0301c09a912d32812a58221315b17afd3ce7020f9ec5fa6680c3f97a14ec27d64736f6c63430008090033",
  "immutableReferences": {},
  "source": "// SPDX-License-Identifier: MIT\r\npragma solidity >=0.6.0 <0.9.0;\r\n\r\nimport \"./Roles.sol\";\r\n\r\ncontract Odometer {\r\n    \r\n    mapping(uint256 => address) internal _odometerAddress;\r\n    mapping(uint256 => uint256) internal _odometerValue;\r\n    \r\n    Roles r;\r\n\r\n    constructor (address addr) {\r\n        r = Roles(addr);\r\n    }\r\n \r\n    function getOdometerValue(uint256 tokenId) external view returns (uint256) {\r\n        return _odometerValue[tokenId];\r\n    }\r\n\r\n    function increaseOdometer(uint256 tokenId, uint256 value)\r\n        external\r\n    {\r\n        require (r.hasRole(r.ODOMETER_ROLE(), msg.sender));\r\n        require(msg.sender == _odometerAddress[tokenId]);\r\n        _odometerValue[tokenId] = _odometerValue[tokenId] + value;\r\n    }\r\n\r\n    function setOdometerAddress(uint256 tokenId, address odometer)\r\n        external\r\n    {   \r\n        require (r.hasRole(r.AUTHORITY_ROLE_ADMIN(), msg.sender));\r\n        _odometerAddress[tokenId] = odometer;\r\n    }\r\n\r\n}\r\n",
  "sourcePath": "C:\\sgs020\\contracts\\Odometer.sol",
  "compiler": {
    "name": "solc",
    "version": "0.8.9+commit.e5eed63a.Emscripten.clang"
  },
  "schemaVersion": "3.4.3",
  "updatedAt": "2022-03-02T09:05:24.361Z",
  "networkType": "ethereum",
  "devdoc": {
    "kind": "dev",
    "methods": {},
    "version": 1
  },
  "userdoc": {
    "kind": "user",
    "methods": {},
    "version": 1
  }
}