{
  "contractName": "Roles",
  "abi": [
    {
      "inputs": [],
      "stateMutability": "nonpayable",
      "type": "constructor"
    },
    {
      "anonymous": false,
      "inputs": [
        {
          "indexed": true,
          "internalType": "bytes32",
          "name": "role",
          "type": "bytes32"
        },
        {
          "indexed": true,
          "internalType": "bytes32",
          "name": "previousAdminRole",
          "type": "bytes32"
        },
        {
          "indexed": true,
          "internalType": "bytes32",
          "name": "newAdminRole",
          "type": "bytes32"
        }
      ],
      "name": "RoleAdminChanged",
      "type": "event"
    },
    {
      "anonymous": false,
      "inputs": [
        {
          "indexed": true,
          "internalType": "bytes32",
          "name": "role",
          "type": "bytes32"
        },
        {
          "indexed": true,
          "internalType": "address",
          "name": "account",
          "type": "address"
        },
        {
          "indexed": true,
          "internalType": "address",
          "name": "sender",
          "type": "address"
        }
      ],
      "name": "RoleGranted",
      "type": "event"
    },
    {
      "anonymous": false,
      "inputs": [
        {
          "indexed": true,
          "internalType": "bytes32",
          "name": "role",
          "type": "bytes32"
        },
        {
          "indexed": true,
          "internalType": "address",
          "name": "account",
          "type": "address"
        },
        {
          "indexed": true,
          "internalType": "address",
          "name": "sender",
          "type": "address"
        }
      ],
      "name": "RoleRevoked",
      "type": "event"
    },
    {
      "inputs": [],
      "name": "AUTHORITY_ROLE",
      "outputs": [
        {
          "internalType": "bytes32",
          "name": "",
          "type": "bytes32"
        }
      ],
      "stateMutability": "view",
      "type": "function",
      "constant": true
    },
    {
      "inputs": [],
      "name": "AUTHORITY_ROLE_ADMIN",
      "outputs": [
        {
          "internalType": "bytes32",
          "name": "",
          "type": "bytes32"
        }
      ],
      "stateMutability": "view",
      "type": "function",
      "constant": true
    },
    {
      "inputs": [],
      "name": "DEFAULT_ADMIN_ROLE",
      "outputs": [
        {
          "internalType": "bytes32",
          "name": "",
          "type": "bytes32"
        }
      ],
      "stateMutability": "view",
      "type": "function",
      "constant": true
    },
    {
      "inputs": [],
      "name": "GARAGE_ROLE",
      "outputs": [
        {
          "internalType": "bytes32",
          "name": "",
          "type": "bytes32"
        }
      ],
      "stateMutability": "view",
      "type": "function",
      "constant": true
    },
    {
      "inputs": [],
      "name": "MINTER_ROLE",
      "outputs": [
        {
          "internalType": "bytes32",
          "name": "",
          "type": "bytes32"
        }
      ],
      "stateMutability": "view",
      "type": "function",
      "constant": true
    },
    {
      "inputs": [],
      "name": "MINTER_ROLE_ADMIN",
      "outputs": [
        {
          "internalType": "bytes32",
          "name": "",
          "type": "bytes32"
        }
      ],
      "stateMutability": "view",
      "type": "function",
      "constant": true
    },
    {
      "inputs": [],
      "name": "ODOMETER_ROLE",
      "outputs": [
        {
          "internalType": "bytes32",
          "name": "",
          "type": "bytes32"
        }
      ],
      "stateMutability": "view",
      "type": "function",
      "constant": true
    },
    {
      "inputs": [
        {
          "internalType": "bytes32",
          "name": "role",
          "type": "bytes32"
        }
      ],
      "name": "getRoleAdmin",
      "outputs": [
        {
          "internalType": "bytes32",
          "name": "",
          "type": "bytes32"
        }
      ],
      "stateMutability": "view",
      "type": "function",
      "constant": true
    },
    {
      "inputs": [
        {
          "internalType": "bytes32",
          "name": "role",
          "type": "bytes32"
        },
        {
          "internalType": "address",
          "name": "account",
          "type": "address"
        }
      ],
      "name": "grantRole",
      "outputs": [],
      "stateMutability": "nonpayable",
      "type": "function"
    },
    {
      "inputs": [
        {
          "internalType": "bytes32",
          "name": "role",
          "type": "bytes32"
        },
        {
          "internalType": "address",
          "name": "account",
          "type": "address"
        }
      ],
      "name": "hasRole",
      "outputs": [
        {
          "internalType": "bool",
          "name": "",
          "type": "bool"
        }
      ],
      "stateMutability": "view",
      "type": "function",
      "constant": true
    },
    {
      "inputs": [
        {
          "internalType": "bytes32",
          "name": "role",
          "type": "bytes32"
        },
        {
          "internalType": "address",
          "name": "account",
          "type": "address"
        }
      ],
      "name": "renounceRole",
      "outputs": [],
      "stateMutability": "nonpayable",
      "type": "function"
    },
    {
      "inputs": [
        {
          "internalType": "bytes32",
          "name": "role",
          "type": "bytes32"
        },
        {
          "internalType": "address",
          "name": "account",
          "type": "address"
        }
      ],
      "name": "revokeRole",
      "outputs": [],
      "stateMutability": "nonpayable",
      "type": "function"
    },
    {
      "inputs": [
        {
          "internalType": "bytes4",
          "name": "interfaceId",
          "type": "bytes4"
        }
      ],
      "name": "supportsInterface",
      "outputs": [
        {
          "internalType": "bool",
          "name": "",
          "type": "bool"
        }
      ],
      "stateMutability": "view",
      "type": "function",
      "constant": true
    },
    {
      "inputs": [
        {
          "internalType": "address",
          "name": "addr",
          "type": "address"
        }
      ],
      "name": "isMinterClass",
      "outputs": [
        {
          "internalType": "bool",
          "name": "",
          "type": "bool"
        }
      ],
      "stateMutability": "view",
      "type": "function",
      "constant": true
    },
    {
      "inputs": [
        {
          "internalType": "address",
          "name": "addr",
          "type": "address"
        }
      ],
      "name": "isAuthorityClass",
      "outputs": [
        {
          "internalType": "bool",
          "name": "",
          "type": "bool"
        }
      ],
      "stateMutability": "view",
      "type": "function",
      "constant": true
    }
  ],
  "bytecode": "0x60806040523480156200001157600080fd5b50620000276000801b336200027560201b60201c565b620000597f11c2020b6b4f4e00c2410234e0c72636b4739cf7cda4d8e24ef6b881350e6704336200027560201b60201c565b6200008b7f9f2df0fed2c77648de5860a4cc508cd0818c85b8b8a1ab4ceeef8d981c8956a6336200027560201b60201c565b620000bd7f6f75c7e45b923a976102cf1173921af9cd14f3a7474f743b14e64b348aa2520d336200027560201b60201c565b620000f27f11c2020b6b4f4e00c2410234e0c72636b4739cf7cda4d8e24ef6b881350e67046000801b6200028b60201b60201c565b620001277f6f75c7e45b923a976102cf1173921af9cd14f3a7474f743b14e64b348aa2520d6000801b6200028b60201b60201c565b620001797f9f2df0fed2c77648de5860a4cc508cd0818c85b8b8a1ab4ceeef8d981c8956a67f11c2020b6b4f4e00c2410234e0c72636b4739cf7cda4d8e24ef6b881350e67046200028b60201b60201c565b620001cb7fd565e3fc066df348a5cbc05a8d6323e00552838041cea2d84cc59876ba37735d7f6f75c7e45b923a976102cf1173921af9cd14f3a7474f743b14e64b348aa2520d6200028b60201b60201c565b6200021d7f530aa2e706d666af1b04435a2cdfb362347f53ff7899306c42824dce7c19b0f77f6f75c7e45b923a976102cf1173921af9cd14f3a7474f743b14e64b348aa2520d6200028b60201b60201c565b6200026f7ff9d6c25e75c69e9d55faaaafdda02ff242e444fc05c67ba39c9e7e9f21bfacbb7f11c2020b6b4f4e00c2410234e0c72636b4739cf7cda4d8e24ef6b881350e67046200028b60201b60201c565b62000470565b620002878282620002ee60201b60201c565b5050565b60006200029e83620003df60201b60201c565b905081600080858152602001908152602001600020600101819055508181847fbd79b86ffe0ab8e8776151514217cd7cacd52c909f66475c3af44e129f0b00ff60405160405180910390a4505050565b620003008282620003fe60201b60201c565b620003db57600160008084815260200190815260200160002060000160008373ffffffffffffffffffffffffffffffffffffffff1673ffffffffffffffffffffffffffffffffffffffff16815260200190815260200160002060006101000a81548160ff021916908315150217905550620003806200046860201b60201c565b73ffffffffffffffffffffffffffffffffffffffff168173ffffffffffffffffffffffffffffffffffffffff16837f2f8788117e7eff1d82e926ec794901d17c78024a50270940304540a733656f0d60405160405180910390a45b5050565b6000806000838152602001908152602001600020600101549050919050565b600080600084815260200190815260200160002060000160008373ffffffffffffffffffffffffffffffffffffffff1673ffffffffffffffffffffffffffffffffffffffff16815260200190815260200160002060009054906101000a900460ff16905092915050565b600033905090565b61124380620004806000396000f3fe608060405234801561001057600080fd5b50600436106100f55760003560e01c80635d70301d11610097578063a217fddf11610066578063a217fddf14610288578063d5391393146102a6578063d547741f146102c4578063f77732fb146102e0576100f5565b80635d70301d146101fe5780636fd1c4741461021c57806382df8cd81461023a57806391d1485414610258576100f5565b80632d662a00116100d35780632d662a00146101785780632f2ff15d146101a857806336568abe146101c45780634a3fba0e146101e0576100f5565b806301ffc9a7146100fa57806311d15e7a1461012a578063248a9ca314610148575b600080fd5b610114600480360381019061010f9190610c1a565b610310565b6040516101219190610c62565b60405180910390f35b61013261038a565b60405161013f9190610c96565b60405180910390f35b610162600480360381019061015d9190610cdd565b6103ae565b60405161016f9190610c96565b60405180910390f35b610192600480360381019061018d9190610d68565b6103cd565b60405161019f9190610c62565b60405180910390f35b6101c260048036038101906101bd9190610d95565b610442565b005b6101de60048036038101906101d99190610d95565b61046b565b005b6101e86104ee565b6040516101f59190610c96565b60405180910390f35b610206610512565b6040516102139190610c96565b60405180910390f35b610224610536565b6040516102319190610c96565b60405180910390f35b61024261055a565b60405161024f9190610c96565b60405180910390f35b610272600480360381019061026d9190610d95565b61057e565b60405161027f9190610c62565b60405180910390f35b6102906105e8565b60405161029d9190610c96565b60405180910390f35b6102ae6105ef565b6040516102bb9190610c96565b60405180910390f35b6102de60048036038101906102d99190610d95565b610613565b005b6102fa60048036038101906102f59190610d68565b61063c565b6040516103079190610c62565b60405180910390f35b60007f7965db0b000000000000000000000000000000000000000000000000000000007bffffffffffffffffffffffffffffffffffffffffffffffffffffffff1916827bffffffffffffffffffffffffffffffffffffffffffffffffffffffff191614806103835750610382826106b1565b5b9050919050565b7f11c2020b6b4f4e00c2410234e0c72636b4739cf7cda4d8e24ef6b881350e670481565b6000806000838152602001908152602001600020600101549050919050565b60006103f97fd565e3fc066df348a5cbc05a8d6323e00552838041cea2d84cc59876ba37735d8361057e565b8061042a57506104297f6f75c7e45b923a976102cf1173921af9cd14f3a7474f743b14e64b348aa2520d8361057e565b5b15610438576001905061043d565b600090505b919050565b61044b826103ae565b61045c8161045761071b565b610723565b61046683836107c0565b505050565b61047361071b565b73ffffffffffffffffffffffffffffffffffffffff168173ffffffffffffffffffffffffffffffffffffffff16146104e0576040517f08c379a00000000000000000000000000000000000000000000000000000000081526004016104d790610e58565b60405180910390fd5b6104ea82826108a0565b5050565b7fd565e3fc066df348a5cbc05a8d6323e00552838041cea2d84cc59876ba37735d81565b7f6f75c7e45b923a976102cf1173921af9cd14f3a7474f743b14e64b348aa2520d81565b7ff9d6c25e75c69e9d55faaaafdda02ff242e444fc05c67ba39c9e7e9f21bfacbb81565b7f530aa2e706d666af1b04435a2cdfb362347f53ff7899306c42824dce7c19b0f781565b600080600084815260200190815260200160002060000160008373ffffffffffffffffffffffffffffffffffffffff1673ffffffffffffffffffffffffffffffffffffffff16815260200190815260200160002060009054906101000a900460ff16905092915050565b6000801b81565b7f9f2df0fed2c77648de5860a4cc508cd0818c85b8b8a1ab4ceeef8d981c8956a681565b61061c826103ae565b61062d8161062861071b565b610723565b61063783836108a0565b505050565b60006106687f9f2df0fed2c77648de5860a4cc508cd0818c85b8b8a1ab4ceeef8d981c8956a68361057e565b8061069957506106987f11c2020b6b4f4e00c2410234e0c72636b4739cf7cda4d8e24ef6b881350e67048361057e565b5b156106a757600190506106ac565b600090505b919050565b60007f01ffc9a7000000000000000000000000000000000000000000000000000000007bffffffffffffffffffffffffffffffffffffffffffffffffffffffff1916827bffffffffffffffffffffffffffffffffffffffffffffffffffffffff1916149050919050565b600033905090565b61072d828261057e565b6107bc576107528173ffffffffffffffffffffffffffffffffffffffff166014610981565b6107608360001c6020610981565b604051602001610771929190610f8a565b6040516020818303038152906040526040517f08c379a00000000000000000000000000000000000000000000000000000000081526004016107b3919061100e565b60405180910390fd5b5050565b6107ca828261057e565b61089c57600160008084815260200190815260200160002060000160008373ffffffffffffffffffffffffffffffffffffffff1673ffffffffffffffffffffffffffffffffffffffff16815260200190815260200160002060006101000a81548160ff02191690831515021790555061084161071b565b73ffffffffffffffffffffffffffffffffffffffff168173ffffffffffffffffffffffffffffffffffffffff16837f2f8788117e7eff1d82e926ec794901d17c78024a50270940304540a733656f0d60405160405180910390a45b5050565b6108aa828261057e565b1561097d57600080600084815260200190815260200160002060000160008373ffffffffffffffffffffffffffffffffffffffff1673ffffffffffffffffffffffffffffffffffffffff16815260200190815260200160002060006101000a81548160ff02191690831515021790555061092261071b565b73ffffffffffffffffffffffffffffffffffffffff168173ffffffffffffffffffffffffffffffffffffffff16837ff6391f5c32d9c69d2a47ea670b442974b53935d1edc7fd64eb21e047a839171b60405160405180910390a45b5050565b6060600060028360026109949190611069565b61099e91906110c3565b67ffffffffffffffff8111156109b7576109b6611119565b5b6040519080825280601f01601f1916602001820160405280156109e95781602001600182028036833780820191505090505b5090507f300000000000000000000000000000000000000000000000000000000000000081600081518110610a2157610a20611148565b5b60200101907effffffffffffffffffffffffffffffffffffffffffffffffffffffffffffff1916908160001a9053507f780000000000000000000000000000000000000000000000000000000000000081600181518110610a8557610a84611148565b5b60200101907effffffffffffffffffffffffffffffffffffffffffffffffffffffffffffff1916908160001a90535060006001846002610ac59190611069565b610acf91906110c3565b90505b6001811115610b6f577f3031323334353637383961626364656600000000000000000000000000000000600f861660108110610b1157610b10611148565b5b1a60f81b828281518110610b2857610b27611148565b5b60200101907effffffffffffffffffffffffffffffffffffffffffffffffffffffffffffff1916908160001a905350600485901c945080610b6890611177565b9050610ad2565b5060008414610bb3576040517f08c379a0000000000000000000000000000000000000000000000000000000008152600401610baa906111ed565b60405180910390fd5b8091505092915050565b600080fd5b60007fffffffff0000000000000000000000000000000000000000000000000000000082169050919050565b610bf781610bc2565b8114610c0257600080fd5b50565b600081359050610c1481610bee565b92915050565b600060208284031215610c3057610c2f610bbd565b5b6000610c3e84828501610c05565b91505092915050565b60008115159050919050565b610c5c81610c47565b82525050565b6000602082019050610c776000830184610c53565b92915050565b6000819050919050565b610c9081610c7d565b82525050565b6000602082019050610cab6000830184610c87565b92915050565b610cba81610c7d565b8114610cc557600080fd5b50565b600081359050610cd781610cb1565b92915050565b600060208284031215610cf357610cf2610bbd565b5b6000610d0184828501610cc8565b91505092915050565b600073ffffffffffffffffffffffffffffffffffffffff82169050919050565b6000610d3582610d0a565b9050919050565b610d4581610d2a565b8114610d5057600080fd5b50565b600081359050610d6281610d3c565b92915050565b600060208284031215610d7e57610d7d610bbd565b5b6000610d8c84828501610d53565b91505092915050565b60008060408385031215610dac57610dab610bbd565b5b6000610dba85828601610cc8565b9250506020610dcb85828601610d53565b9150509250929050565b600082825260208201905092915050565b7f416363657373436f6e74726f6c3a2063616e206f6e6c792072656e6f756e636560008201527f20726f6c657320666f722073656c660000000000000000000000000000000000602082015250565b6000610e42602f83610dd5565b9150610e4d82610de6565b604082019050919050565b60006020820190508181036000830152610e7181610e35565b9050919050565b600081905092915050565b7f416363657373436f6e74726f6c3a206163636f756e7420000000000000000000600082015250565b6000610eb9601783610e78565b9150610ec482610e83565b601782019050919050565b600081519050919050565b60005b83811015610ef8578082015181840152602081019050610edd565b83811115610f07576000848401525b50505050565b6000610f1882610ecf565b610f228185610e78565b9350610f32818560208601610eda565b80840191505092915050565b7f206973206d697373696e6720726f6c6520000000000000000000000000000000600082015250565b6000610f74601183610e78565b9150610f7f82610f3e565b601182019050919050565b6000610f9582610eac565b9150610fa18285610f0d565b9150610fac82610f67565b9150610fb88284610f0d565b91508190509392505050565b6000601f19601f8301169050919050565b6000610fe082610ecf565b610fea8185610dd5565b9350610ffa818560208601610eda565b61100381610fc4565b840191505092915050565b600060208201905081810360008301526110288184610fd5565b905092915050565b6000819050919050565b7f4e487b7100000000000000000000000000000000000000000000000000000000600052601160045260246000fd5b600061107482611030565b915061107f83611030565b9250817fffffffffffffffffffffffffffffffffffffffffffffffffffffffffffffffff04831182151516156110b8576110b761103a565b5b828202905092915050565b60006110ce82611030565b91506110d983611030565b9250827fffffffffffffffffffffffffffffffffffffffffffffffffffffffffffffffff0382111561110e5761110d61103a565b5b828201905092915050565b7f4e487b7100000000000000000000000000000000000000000000000000000000600052604160045260246000fd5b7f4e487b7100000000000000000000000000000000000000000000000000000000600052603260045260246000fd5b600061118282611030565b915060008214156111965761119561103a565b5b600182039050919050565b7f537472696e67733a20686578206c656e67746820696e73756666696369656e74600082015250565b60006111d7602083610dd5565b91506111e2826111a1565b602082019050919050565b60006020820190508181036000830152611206816111ca565b905091905056fea2646970667358221220dd166806b88d32a3de756a92d3574a178004a8e977be31f8c0f533757e0b0b7864736f6c63430008090033",
  "immutableReferences": {},
  "source": "// SPDX-License-Identifier: MIT\r\npragma solidity >=0.6.0 <0.9.0;\r\n\r\nimport \"@openzeppelin/contracts/access/AccessControl.sol\";\r\n\r\ncontract Roles is AccessControl {\r\n   \r\n    bytes32 public constant MINTER_ROLE = keccak256(\"MINTER_ROLE\");\r\n    bytes32 public constant MINTER_ROLE_ADMIN =\r\n        keccak256(\"MINTER_ROLE_ADMIN\");\r\n    bytes32 public constant AUTHORITY_ROLE = keccak256(\"AUTHORITY_ROLE\");\r\n    bytes32 public constant AUTHORITY_ROLE_ADMIN =\r\n        keccak256(\"AUTHORITY_ROLE_ADMIN\");\r\n    bytes32 public constant ODOMETER_ROLE = keccak256(\"ODOMETER_ROLE\");\r\n    bytes32 public constant GARAGE_ROLE = keccak256(\"GARAGE_ROLE\");\r\n\r\n    constructor() {\r\n        _setupRole(DEFAULT_ADMIN_ROLE, msg.sender);\r\n        _setupRole(MINTER_ROLE_ADMIN, msg.sender);\r\n        _setupRole(MINTER_ROLE, msg.sender);\r\n        _setupRole(AUTHORITY_ROLE_ADMIN, msg.sender);\r\n        _setRoleAdmin(MINTER_ROLE_ADMIN, DEFAULT_ADMIN_ROLE);\r\n        _setRoleAdmin(AUTHORITY_ROLE_ADMIN, DEFAULT_ADMIN_ROLE);\r\n        _setRoleAdmin(MINTER_ROLE, MINTER_ROLE_ADMIN);\r\n        _setRoleAdmin(AUTHORITY_ROLE, AUTHORITY_ROLE_ADMIN);\r\n        _setRoleAdmin(ODOMETER_ROLE, AUTHORITY_ROLE_ADMIN);\r\n        _setRoleAdmin(GARAGE_ROLE, MINTER_ROLE_ADMIN);\r\n    }\r\n\r\n    function isMinterClass(address addr) external view returns (bool) {\r\n        if (hasRole(MINTER_ROLE, addr) ||\r\n                hasRole(MINTER_ROLE_ADMIN, addr))\r\n            return true;\r\n        \r\n        return false;\r\n    }\r\n\r\n    function isAuthorityClass(address addr) external view returns (bool) {\r\n        if (hasRole(AUTHORITY_ROLE, addr) ||\r\n                hasRole(AUTHORITY_ROLE_ADMIN, addr))\r\n            return true;\r\n        \r\n        return false;\r\n    }\r\n}\r\n",
  "sourcePath": "C:\\sgs020\\contracts\\Roles.sol",
  "compiler": {
    "name": "solc",
    "version": "0.8.9+commit.e5eed63a.Emscripten.clang"
  },
  "schemaVersion": "3.4.3",
  "updatedAt": "2022-03-17T15:39:56.051Z",
  "networkType": "ethereum",
  "devdoc": {
    "kind": "dev",
    "methods": {
      "getRoleAdmin(bytes32)": {
        "details": "Returns the admin role that controls `role`. See {grantRole} and {revokeRole}. To change a role's admin, use {_setRoleAdmin}."
      },
      "grantRole(bytes32,address)": {
        "details": "Grants `role` to `account`. If `account` had not been already granted `role`, emits a {RoleGranted} event. Requirements: - the caller must have ``role``'s admin role."
      },
      "hasRole(bytes32,address)": {
        "details": "Returns `true` if `account` has been granted `role`."
      },
      "renounceRole(bytes32,address)": {
        "details": "Revokes `role` from the calling account. Roles are often managed via {grantRole} and {revokeRole}: this function's purpose is to provide a mechanism for accounts to lose their privileges if they are compromised (such as when a trusted device is misplaced). If the calling account had been granted `role`, emits a {RoleRevoked} event. Requirements: - the caller must be `account`."
      },
      "revokeRole(bytes32,address)": {
        "details": "Revokes `role` from `account`. If `account` had been granted `role`, emits a {RoleRevoked} event. Requirements: - the caller must have ``role``'s admin role."
      },
      "supportsInterface(bytes4)": {
        "details": "See {IERC165-supportsInterface}."
      }
    },
    "version": 1
  },
  "userdoc": {
    "kind": "user",
    "methods": {},
    "version": 1
  }
}