{
  "contractName": "Vehicle",
  "abi": [
    {
      "inputs": [
        {
          "internalType": "address",
          "name": "addr",
          "type": "address"
        }
      ],
      "stateMutability": "nonpayable",
      "type": "constructor"
    },
    {
      "anonymous": false,
      "inputs": [
        {
          "indexed": true,
          "internalType": "address",
          "name": "owner",
          "type": "address"
        },
        {
          "indexed": true,
          "internalType": "address",
          "name": "approved",
          "type": "address"
        },
        {
          "indexed": true,
          "internalType": "uint256",
          "name": "tokenId",
          "type": "uint256"
        }
      ],
      "name": "Approval",
      "type": "event"
    },
    {
      "anonymous": false,
      "inputs": [
        {
          "indexed": true,
          "internalType": "address",
          "name": "owner",
          "type": "address"
        },
        {
          "indexed": true,
          "internalType": "address",
          "name": "operator",
          "type": "address"
        },
        {
          "indexed": false,
          "internalType": "bool",
          "name": "approved",
          "type": "bool"
        }
      ],
      "name": "ApprovalForAll",
      "type": "event"
    },
    {
      "anonymous": false,
      "inputs": [
        {
          "indexed": true,
          "internalType": "address",
          "name": "from",
          "type": "address"
        },
        {
          "indexed": true,
          "internalType": "address",
          "name": "to",
          "type": "address"
        },
        {
          "indexed": true,
          "internalType": "uint256",
          "name": "tokenId",
          "type": "uint256"
        }
      ],
      "name": "Transfer",
      "type": "event"
    },
    {
      "inputs": [
        {
          "internalType": "address",
          "name": "to",
          "type": "address"
        },
        {
          "internalType": "uint256",
          "name": "tokenId",
          "type": "uint256"
        }
      ],
      "name": "approve",
      "outputs": [],
      "stateMutability": "nonpayable",
      "type": "function"
    },
    {
      "inputs": [
        {
          "internalType": "address",
          "name": "owner",
          "type": "address"
        }
      ],
      "name": "balanceOf",
      "outputs": [
        {
          "internalType": "uint256",
          "name": "",
          "type": "uint256"
        }
      ],
      "stateMutability": "view",
      "type": "function",
      "constant": true
    },
    {
      "inputs": [
        {
          "internalType": "uint256",
          "name": "tokenId",
          "type": "uint256"
        }
      ],
      "name": "getApproved",
      "outputs": [
        {
          "internalType": "address",
          "name": "",
          "type": "address"
        }
      ],
      "stateMutability": "view",
      "type": "function",
      "constant": true
    },
    {
      "inputs": [
        {
          "internalType": "address",
          "name": "owner",
          "type": "address"
        },
        {
          "internalType": "address",
          "name": "operator",
          "type": "address"
        }
      ],
      "name": "isApprovedForAll",
      "outputs": [
        {
          "internalType": "bool",
          "name": "",
          "type": "bool"
        }
      ],
      "stateMutability": "view",
      "type": "function",
      "constant": true
    },
    {
      "inputs": [],
      "name": "name",
      "outputs": [
        {
          "internalType": "string",
          "name": "",
          "type": "string"
        }
      ],
      "stateMutability": "view",
      "type": "function",
      "constant": true
    },
    {
      "inputs": [
        {
          "internalType": "uint256",
          "name": "tokenId",
          "type": "uint256"
        }
      ],
      "name": "ownerOf",
      "outputs": [
        {
          "internalType": "address",
          "name": "",
          "type": "address"
        }
      ],
      "stateMutability": "view",
      "type": "function",
      "constant": true
    },
    {
      "inputs": [
        {
          "internalType": "address",
          "name": "from",
          "type": "address"
        },
        {
          "internalType": "address",
          "name": "to",
          "type": "address"
        },
        {
          "internalType": "uint256",
          "name": "tokenId",
          "type": "uint256"
        }
      ],
      "name": "safeTransferFrom",
      "outputs": [],
      "stateMutability": "nonpayable",
      "type": "function"
    },
    {
      "inputs": [
        {
          "internalType": "address",
          "name": "from",
          "type": "address"
        },
        {
          "internalType": "address",
          "name": "to",
          "type": "address"
        },
        {
          "internalType": "uint256",
          "name": "tokenId",
          "type": "uint256"
        },
        {
          "internalType": "bytes",
          "name": "_data",
          "type": "bytes"
        }
      ],
      "name": "safeTransferFrom",
      "outputs": [],
      "stateMutability": "nonpayable",
      "type": "function"
    },
    {
      "inputs": [
        {
          "internalType": "address",
          "name": "operator",
          "type": "address"
        },
        {
          "internalType": "bool",
          "name": "approved",
          "type": "bool"
        }
      ],
      "name": "setApprovalForAll",
      "outputs": [],
      "stateMutability": "nonpayable",
      "type": "function"
    },
    {
      "inputs": [
        {
          "internalType": "bytes4",
          "name": "interfaceId",
          "type": "bytes4"
        }
      ],
      "name": "supportsInterface",
      "outputs": [
        {
          "internalType": "bool",
          "name": "",
          "type": "bool"
        }
      ],
      "stateMutability": "view",
      "type": "function",
      "constant": true
    },
    {
      "inputs": [],
      "name": "symbol",
      "outputs": [
        {
          "internalType": "string",
          "name": "",
          "type": "string"
        }
      ],
      "stateMutability": "view",
      "type": "function",
      "constant": true
    },
    {
      "inputs": [
        {
          "internalType": "uint256",
          "name": "index",
          "type": "uint256"
        }
      ],
      "name": "tokenByIndex",
      "outputs": [
        {
          "internalType": "uint256",
          "name": "",
          "type": "uint256"
        }
      ],
      "stateMutability": "view",
      "type": "function",
      "constant": true
    },
    {
      "inputs": [
        {
          "internalType": "address",
          "name": "owner",
          "type": "address"
        },
        {
          "internalType": "uint256",
          "name": "index",
          "type": "uint256"
        }
      ],
      "name": "tokenOfOwnerByIndex",
      "outputs": [
        {
          "internalType": "uint256",
          "name": "",
          "type": "uint256"
        }
      ],
      "stateMutability": "view",
      "type": "function",
      "constant": true
    },
    {
      "inputs": [],
      "name": "totalSupply",
      "outputs": [
        {
          "internalType": "uint256",
          "name": "",
          "type": "uint256"
        }
      ],
      "stateMutability": "view",
      "type": "function",
      "constant": true
    },
    {
      "inputs": [
        {
          "internalType": "address",
          "name": "from",
          "type": "address"
        },
        {
          "internalType": "address",
          "name": "to",
          "type": "address"
        },
        {
          "internalType": "uint256",
          "name": "tokenId",
          "type": "uint256"
        }
      ],
      "name": "transferFrom",
      "outputs": [],
      "stateMutability": "nonpayable",
      "type": "function"
    },
    {
      "inputs": [
        {
          "internalType": "uint256",
          "name": "tokenId",
          "type": "uint256"
        }
      ],
      "name": "tokenURI",
      "outputs": [
        {
          "internalType": "string",
          "name": "",
          "type": "string"
        }
      ],
      "stateMutability": "view",
      "type": "function",
      "constant": true
    },
    {
      "inputs": [
        {
          "internalType": "uint256",
          "name": "tokenId",
          "type": "uint256"
        }
      ],
      "name": "exists",
      "outputs": [
        {
          "internalType": "bool",
          "name": "",
          "type": "bool"
        }
      ],
      "stateMutability": "view",
      "type": "function",
      "constant": true
    },
    {
      "inputs": [
        {
          "internalType": "uint256",
          "name": "tokenId",
          "type": "uint256"
        }
      ],
      "name": "getApprovedGarage",
      "outputs": [
        {
          "internalType": "address",
          "name": "",
          "type": "address"
        }
      ],
      "stateMutability": "view",
      "type": "function",
      "constant": true
    },
    {
      "inputs": [
        {
          "internalType": "uint256",
          "name": "tokenId",
          "type": "uint256"
        },
        {
          "internalType": "address",
          "name": "addr",
          "type": "address"
        }
      ],
      "name": "setApprovedGarage",
      "outputs": [],
      "stateMutability": "nonpayable",
      "type": "function"
    },
    {
      "inputs": [
        {
          "internalType": "uint256",
          "name": "tokenId",
          "type": "uint256"
        },
        {
          "internalType": "string",
          "name": "_tokenURI",
          "type": "string"
        }
      ],
      "name": "setTokenURI",
      "outputs": [],
      "stateMutability": "nonpayable",
      "type": "function"
    },
    {
      "inputs": [
        {
          "internalType": "string",
          "name": "uri",
          "type": "string"
        }
      ],
      "name": "mint",
      "outputs": [],
      "stateMutability": "nonpayable",
      "type": "function"
    },
    {
      "inputs": [
        {
          "internalType": "uint256",
          "name": "_tokenId",
          "type": "uint256"
        }
      ],
      "name": "burn",
      "outputs": [],
      "stateMutability": "nonpayable",
      "type": "function"
    }
  ],
  "bytecode": "0x60806040523480156200001157600080fd5b506040516200396438038062003964833981810160405281019062000037919062000239565b6040518060400160405280600781526020017f56656869636c65000000000000000000000000000000000000000000000000008152506040518060400160405280600381526020017f56484300000000000000000000000000000000000000000000000000000000008152508160009080519060200190620000bb9291906200011f565b508060019080519060200190620000d49291906200011f565b50505080600b60006101000a81548173ffffffffffffffffffffffffffffffffffffffff021916908373ffffffffffffffffffffffffffffffffffffffff16021790555050620002d0565b8280546200012d906200029a565b90600052602060002090601f0160209004810192826200015157600085556200019d565b82601f106200016c57805160ff19168380011785556200019d565b828001600101855582156200019d579182015b828111156200019c5782518255916020019190600101906200017f565b5b509050620001ac9190620001b0565b5090565b5b80821115620001cb576000816000905550600101620001b1565b5090565b600080fd5b600073ffffffffffffffffffffffffffffffffffffffff82169050919050565b60006200020182620001d4565b9050919050565b6200021381620001f4565b81146200021f57600080fd5b50565b600081519050620002338162000208565b92915050565b600060208284031215620002525762000251620001cf565b5b6000620002628482850162000222565b91505092915050565b7f4e487b7100000000000000000000000000000000000000000000000000000000600052602260045260246000fd5b60006002820490506001821680620002b357607f821691505b60208210811415620002ca57620002c96200026b565b5b50919050565b61368480620002e06000396000f3fe608060405234801561001057600080fd5b50600436106101425760003560e01c80634f6ccce7116100b8578063a22cb4651161007c578063a22cb465146103ad578063b88d4fde146103c9578063c87b56dd146103e5578063d85d3d2714610415578063e985e9c514610431578063ff8cf7de1461046157610142565b80634f6ccce7146102cf5780636352211e146102ff57806370a082311461032f57806385fd3cb81461035f57806395d89b411461038f57610142565b806318160ddd1161010a57806318160ddd146101fd57806323b872dd1461021b5780632f745c591461023757806342842e0e1461026757806342966c68146102835780634f558e791461029f57610142565b806301ffc9a71461014757806306fdde0314610177578063081812fc14610195578063095ea7b3146101c5578063162094c4146101e1575b600080fd5b610161600480360381019061015c919061235e565b61047d565b60405161016e91906123a6565b60405180910390f35b61017f6104f7565b60405161018c919061245a565b60405180910390f35b6101af60048036038101906101aa91906124b2565b610589565b6040516101bc9190612520565b60405180910390f35b6101df60048036038101906101da9190612567565b61060e565b005b6101fb60048036038101906101f691906126dc565b610726565b005b61020561091c565b6040516102129190612747565b60405180910390f35b61023560048036038101906102309190612762565b610929565b005b610251600480360381019061024c9190612567565b610989565b60405161025e9190612747565b60405180910390f35b610281600480360381019061027c9190612762565b610a2e565b005b61029d600480360381019061029891906124b2565b610a4e565b005b6102b960048036038101906102b491906124b2565b610b4d565b6040516102c691906123a6565b60405180910390f35b6102e960048036038101906102e491906124b2565b610b5f565b6040516102f69190612747565b60405180910390f35b610319600480360381019061031491906124b2565b610bd0565b6040516103269190612520565b60405180910390f35b610349600480360381019061034491906127b5565b610c82565b6040516103569190612747565b60405180910390f35b610379600480360381019061037491906124b2565b610d3a565b6040516103869190612520565b60405180910390f35b610397610d77565b6040516103a4919061245a565b60405180910390f35b6103c760048036038101906103c2919061280e565b610e09565b005b6103e360048036038101906103de91906128ef565b610f8a565b005b6103ff60048036038101906103fa91906124b2565b610fec565b60405161040c919061245a565b60405180910390f35b61042f600480360381019061042a9190612972565b611091565b005b61044b600480360381019061044691906129bb565b61121e565b60405161045891906123a6565b60405180910390f35b61047b600480360381019061047691906129fb565b6112b2565b005b60007f780e9d63000000000000000000000000000000000000000000000000000000007bffffffffffffffffffffffffffffffffffffffffffffffffffffffff1916827bffffffffffffffffffffffffffffffffffffffffffffffffffffffff191614806104f057506104ef82611348565b5b9050919050565b60606000805461050690612a6a565b80601f016020809104026020016040519081016040528092919081815260200182805461053290612a6a565b801561057f5780601f106105545761010080835404028352916020019161057f565b820191906000526020600020905b81548152906001019060200180831161056257829003601f168201915b5050505050905090565b60006105948261142a565b6105d3576040517f08c379a00000000000000000000000000000000000000000000000000000000081526004016105ca90612b0e565b60405180910390fd5b6004600083815260200190815260200160002060009054906101000a900473ffffffffffffffffffffffffffffffffffffffff169050919050565b600061061982610bd0565b90508073ffffffffffffffffffffffffffffffffffffffff168373ffffffffffffffffffffffffffffffffffffffff16141561068a576040517f08c379a000000000000000000000000000000000000000000000000000000000815260040161068190612ba0565b60405180910390fd5b8073ffffffffffffffffffffffffffffffffffffffff166106a9611496565b73ffffffffffffffffffffffffffffffffffffffff1614806106d857506106d7816106d2611496565b61121e565b5b610717576040517f08c379a000000000000000000000000000000000000000000000000000000000815260040161070e90612c32565b60405180910390fd5b610721838361149e565b505050565b3373ffffffffffffffffffffffffffffffffffffffff1661074683610d3a565b73ffffffffffffffffffffffffffffffffffffffff161461076657600080fd5b600b60009054906101000a900473ffffffffffffffffffffffffffffffffffffffff1673ffffffffffffffffffffffffffffffffffffffff166391d14854600b60009054906101000a900473ffffffffffffffffffffffffffffffffffffffff1673ffffffffffffffffffffffffffffffffffffffff16636fd1c4746040518163ffffffff1660e01b815260040160206040518083038186803b15801561080c57600080fd5b505afa158015610820573d6000803e3d6000fd5b505050506040513d601f19601f820116820180604052508101906108449190612c88565b336040518363ffffffff1660e01b8152600401610862929190612cc4565b60206040518083038186803b15801561087a57600080fd5b505afa15801561088e573d6000803e3d6000fd5b505050506040513d601f19601f820116820180604052508101906108b29190612d02565b6108bb57600080fd5b6108c58282611557565b6000600e600084815260200190815260200160002060006101000a81548173ffffffffffffffffffffffffffffffffffffffff021916908373ffffffffffffffffffffffffffffffffffffffff1602179055505050565b6000600880549050905090565b61093a610934611496565b82611583565b610979576040517f08c379a000000000000000000000000000000000000000000000000000000000815260040161097090612da1565b60405180910390fd5b610984838383611661565b505050565b600061099483610c82565b82106109d5576040517f08c379a00000000000000000000000000000000000000000000000000000000081526004016109cc90612e33565b60405180910390fd5b600660008473ffffffffffffffffffffffffffffffffffffffff1673ffffffffffffffffffffffffffffffffffffffff168152602001908152602001600020600083815260200190815260200160002054905092915050565b610a4983838360405180602001604052806000815250610f8a565b505050565b600b60009054906101000a900473ffffffffffffffffffffffffffffffffffffffff1673ffffffffffffffffffffffffffffffffffffffff16632d662a00336040518263ffffffff1660e01b8152600401610aa99190612520565b60206040518083038186803b158015610ac157600080fd5b505afa158015610ad5573d6000803e3d6000fd5b505050506040513d601f19601f82011682018060405250810190610af99190612d02565b610b0257600080fd5b610b0b816118bd565b610b4a816040518060400160405280600381526020017f4e2f410000000000000000000000000000000000000000000000000000000000815250611557565b50565b6000610b588261142a565b9050919050565b6000610b6961091c565b8210610baa576040517f08c379a0000000000000000000000000000000000000000000000000000000008152600401610ba190612ec5565b60405180910390fd5b60088281548110610bbe57610bbd612ee5565b5b90600052602060002001549050919050565b6000806002600084815260200190815260200160002060009054906101000a900473ffffffffffffffffffffffffffffffffffffffff169050600073ffffffffffffffffffffffffffffffffffffffff168173ffffffffffffffffffffffffffffffffffffffff161415610c79576040517f08c379a0000000000000000000000000000000000000000000000000000000008152600401610c7090612f86565b60405180910390fd5b80915050919050565b60008073ffffffffffffffffffffffffffffffffffffffff168273ffffffffffffffffffffffffffffffffffffffff161415610cf3576040517f08c379a0000000000000000000000000000000000000000000000000000000008152600401610cea90613018565b60405180910390fd5b600360008373ffffffffffffffffffffffffffffffffffffffff1673ffffffffffffffffffffffffffffffffffffffff168152602001908152602001600020549050919050565b6000600e600083815260200190815260200160002060009054906101000a900473ffffffffffffffffffffffffffffffffffffffff169050919050565b606060018054610d8690612a6a565b80601f0160208091040260200160405190810160405280929190818152602001828054610db290612a6a565b8015610dff5780601f10610dd457610100808354040283529160200191610dff565b820191906000526020600020905b815481529060010190602001808311610de257829003601f168201915b5050505050905090565b610e11611496565b73ffffffffffffffffffffffffffffffffffffffff168273ffffffffffffffffffffffffffffffffffffffff161415610e7f576040517f08c379a0000000000000000000000000000000000000000000000000000000008152600401610e7690613084565b60405180910390fd5b8060056000610e8c611496565b73ffffffffffffffffffffffffffffffffffffffff1673ffffffffffffffffffffffffffffffffffffffff16815260200190815260200160002060008473ffffffffffffffffffffffffffffffffffffffff1673ffffffffffffffffffffffffffffffffffffffff16815260200190815260200160002060006101000a81548160ff0219169083151502179055508173ffffffffffffffffffffffffffffffffffffffff16610f39611496565b73ffffffffffffffffffffffffffffffffffffffff167f17307eab39ab6107e8899845ad3d59bd9653f200f220920489ca2b5937696c3183604051610f7e91906123a6565b60405180910390a35050565b610f9b610f95611496565b83611583565b610fda576040517f08c379a0000000000000000000000000000000000000000000000000000000008152600401610fd190612da1565b60405180910390fd5b610fe6848484846119ce565b50505050565b6060600c6000838152602001908152602001600020805461100c90612a6a565b80601f016020809104026020016040519081016040528092919081815260200182805461103890612a6a565b80156110855780601f1061105a57610100808354040283529160200191611085565b820191906000526020600020905b81548152906001019060200180831161106857829003601f168201915b50505050509050919050565b600b60009054906101000a900473ffffffffffffffffffffffffffffffffffffffff1673ffffffffffffffffffffffffffffffffffffffff1663f77732fb336040518263ffffffff1660e01b81526004016110ec9190612520565b60206040518083038186803b15801561110457600080fd5b505afa158015611118573d6000803e3d6000fd5b505050506040513d601f19601f8201168201806040525081019061113c9190612d02565b61114557600080fd5b60001515600d8260405161115991906130e0565b908152602001604051809103902060009054906101000a900460ff161515146111b7576040517f08c379a00000000000000000000000000000000000000000000000000000000081526004016111ae90613143565b60405180910390fd5b60006111c3600a611a2a565b90506111cf3382611a38565b6111d98183611557565b6001600d836040516111eb91906130e0565b908152602001604051809103902060006101000a81548160ff02191690831515021790555061121a600a611c06565b5050565b6000600560008473ffffffffffffffffffffffffffffffffffffffff1673ffffffffffffffffffffffffffffffffffffffff16815260200190815260200160002060008373ffffffffffffffffffffffffffffffffffffffff1673ffffffffffffffffffffffffffffffffffffffff16815260200190815260200160002060009054906101000a900460ff16905092915050565b6112bb82610bd0565b73ffffffffffffffffffffffffffffffffffffffff163373ffffffffffffffffffffffffffffffffffffffff16146112f257600080fd5b80600e600084815260200190815260200160002060006101000a81548173ffffffffffffffffffffffffffffffffffffffff021916908373ffffffffffffffffffffffffffffffffffffffff1602179055505050565b60007f80ac58cd000000000000000000000000000000000000000000000000000000007bffffffffffffffffffffffffffffffffffffffffffffffffffffffff1916827bffffffffffffffffffffffffffffffffffffffffffffffffffffffff1916148061141357507f5b5e139f000000000000000000000000000000000000000000000000000000007bffffffffffffffffffffffffffffffffffffffffffffffffffffffff1916827bffffffffffffffffffffffffffffffffffffffffffffffffffffffff1916145b80611423575061142282611c1c565b5b9050919050565b60008073ffffffffffffffffffffffffffffffffffffffff166002600084815260200190815260200160002060009054906101000a900473ffffffffffffffffffffffffffffffffffffffff1673ffffffffffffffffffffffffffffffffffffffff1614159050919050565b600033905090565b816004600083815260200190815260200160002060006101000a81548173ffffffffffffffffffffffffffffffffffffffff021916908373ffffffffffffffffffffffffffffffffffffffff160217905550808273ffffffffffffffffffffffffffffffffffffffff1661151183610bd0565b73ffffffffffffffffffffffffffffffffffffffff167f8c5be1e5ebec7d5bd14f71427d1e84f3dd0314c0f7b2291e5b200ac8c7c3b92560405160405180910390a45050565b80600c6000848152602001908152602001600020908051906020019061157e92919061224f565b505050565b600061158e8261142a565b6115cd576040517f08c379a00000000000000000000000000000000000000000000000000000000081526004016115c4906131d5565b60405180910390fd5b60006115d883610bd0565b90508073ffffffffffffffffffffffffffffffffffffffff168473ffffffffffffffffffffffffffffffffffffffff16148061164757508373ffffffffffffffffffffffffffffffffffffffff1661162f84610589565b73ffffffffffffffffffffffffffffffffffffffff16145b806116585750611657818561121e565b5b91505092915050565b8273ffffffffffffffffffffffffffffffffffffffff1661168182610bd0565b73ffffffffffffffffffffffffffffffffffffffff16146116d7576040517f08c379a00000000000000000000000000000000000000000000000000000000081526004016116ce90613267565b60405180910390fd5b600073ffffffffffffffffffffffffffffffffffffffff168273ffffffffffffffffffffffffffffffffffffffff161415611747576040517f08c379a000000000000000000000000000000000000000000000000000000000815260040161173e906132f9565b60405180910390fd5b611752838383611c86565b61175d60008261149e565b6001600360008573ffffffffffffffffffffffffffffffffffffffff1673ffffffffffffffffffffffffffffffffffffffff16815260200190815260200160002060008282546117ad9190613348565b925050819055506001600360008473ffffffffffffffffffffffffffffffffffffffff1673ffffffffffffffffffffffffffffffffffffffff1681526020019081526020016000206000828254611804919061337c565b92505081905550816002600083815260200190815260200160002060006101000a81548173ffffffffffffffffffffffffffffffffffffffff021916908373ffffffffffffffffffffffffffffffffffffffff160217905550808273ffffffffffffffffffffffffffffffffffffffff168473ffffffffffffffffffffffffffffffffffffffff167fddf252ad1be2c89b69c2b068fc378daa952ba7f163c4a11628f55a4df523b3ef60405160405180910390a4505050565b60006118c882610bd0565b90506118d681600084611c86565b6118e160008361149e565b6001600360008373ffffffffffffffffffffffffffffffffffffffff1673ffffffffffffffffffffffffffffffffffffffff16815260200190815260200160002060008282546119319190613348565b925050819055506002600083815260200190815260200160002060006101000a81549073ffffffffffffffffffffffffffffffffffffffff021916905581600073ffffffffffffffffffffffffffffffffffffffff168273ffffffffffffffffffffffffffffffffffffffff167fddf252ad1be2c89b69c2b068fc378daa952ba7f163c4a11628f55a4df523b3ef60405160405180910390a45050565b6119d9848484611661565b6119e584848484611d9a565b611a24576040517f08c379a0000000000000000000000000000000000000000000000000000000008152600401611a1b90613444565b60405180910390fd5b50505050565b600081600001549050919050565b600073ffffffffffffffffffffffffffffffffffffffff168273ffffffffffffffffffffffffffffffffffffffff161415611aa8576040517f08c379a0000000000000000000000000000000000000000000000000000000008152600401611a9f906134b0565b60405180910390fd5b611ab18161142a565b15611af1576040517f08c379a0000000000000000000000000000000000000000000000000000000008152600401611ae89061351c565b60405180910390fd5b611afd60008383611c86565b6001600360008473ffffffffffffffffffffffffffffffffffffffff1673ffffffffffffffffffffffffffffffffffffffff1681526020019081526020016000206000828254611b4d919061337c565b92505081905550816002600083815260200190815260200160002060006101000a81548173ffffffffffffffffffffffffffffffffffffffff021916908373ffffffffffffffffffffffffffffffffffffffff160217905550808273ffffffffffffffffffffffffffffffffffffffff16600073ffffffffffffffffffffffffffffffffffffffff167fddf252ad1be2c89b69c2b068fc378daa952ba7f163c4a11628f55a4df523b3ef60405160405180910390a45050565b6001816000016000828254019250508190555050565b60007f01ffc9a7000000000000000000000000000000000000000000000000000000007bffffffffffffffffffffffffffffffffffffffffffffffffffffffff1916827bffffffffffffffffffffffffffffffffffffffffffffffffffffffff1916149050919050565b611c91838383611f31565b600073ffffffffffffffffffffffffffffffffffffffff168373ffffffffffffffffffffffffffffffffffffffff161415611cd457611ccf81611f36565b611d13565b8173ffffffffffffffffffffffffffffffffffffffff168373ffffffffffffffffffffffffffffffffffffffff1614611d1257611d118382611f7f565b5b5b600073ffffffffffffffffffffffffffffffffffffffff168273ffffffffffffffffffffffffffffffffffffffff161415611d5657611d51816120ec565b611d95565b8273ffffffffffffffffffffffffffffffffffffffff168273ffffffffffffffffffffffffffffffffffffffff1614611d9457611d9382826121bd565b5b5b505050565b6000611dbb8473ffffffffffffffffffffffffffffffffffffffff1661223c565b15611f24578373ffffffffffffffffffffffffffffffffffffffff1663150b7a02611de4611496565b8786866040518563ffffffff1660e01b8152600401611e069493929190613591565b602060405180830381600087803b158015611e2057600080fd5b505af1925050508015611e5157506040513d601f19601f82011682018060405250810190611e4e91906135f2565b60015b611ed4573d8060008114611e81576040519150601f19603f3d011682016040523d82523d6000602084013e611e86565b606091505b50600081511415611ecc576040517f08c379a0000000000000000000000000000000000000000000000000000000008152600401611ec390613444565b60405180910390fd5b805181602001fd5b63150b7a0260e01b7bffffffffffffffffffffffffffffffffffffffffffffffffffffffff1916817bffffffffffffffffffffffffffffffffffffffffffffffffffffffff191614915050611f29565b600190505b949350505050565b505050565b6008805490506009600083815260200190815260200160002081905550600881908060018154018082558091505060019003906000526020600020016000909190919091505550565b60006001611f8c84610c82565b611f969190613348565b905060006007600084815260200190815260200160002054905081811461207b576000600660008673ffffffffffffffffffffffffffffffffffffffff1673ffffffffffffffffffffffffffffffffffffffff168152602001908152602001600020600084815260200190815260200160002054905080600660008773ffffffffffffffffffffffffffffffffffffffff1673ffffffffffffffffffffffffffffffffffffffff168152602001908152602001600020600084815260200190815260200160002081905550816007600083815260200190815260200160002081905550505b6007600084815260200190815260200160002060009055600660008573ffffffffffffffffffffffffffffffffffffffff1673ffffffffffffffffffffffffffffffffffffffff16815260200190815260200160002060008381526020019081526020016000206000905550505050565b600060016008805490506121009190613348565b90506000600960008481526020019081526020016000205490506000600883815481106121305761212f612ee5565b5b90600052602060002001549050806008838154811061215257612151612ee5565b5b9060005260206000200181905550816009600083815260200190815260200160002081905550600960008581526020019081526020016000206000905560088054806121a1576121a061361f565b5b6001900381819060005260206000200160009055905550505050565b60006121c883610c82565b905081600660008573ffffffffffffffffffffffffffffffffffffffff1673ffffffffffffffffffffffffffffffffffffffff168152602001908152602001600020600083815260200190815260200160002081905550806007600084815260200190815260200160002081905550505050565b600080823b905060008111915050919050565b82805461225b90612a6a565b90600052602060002090601f01602090048101928261227d57600085556122c4565b82601f1061229657805160ff19168380011785556122c4565b828001600101855582156122c4579182015b828111156122c35782518255916020019190600101906122a8565b5b5090506122d191906122d5565b5090565b5b808211156122ee5760008160009055506001016122d6565b5090565b6000604051905090565b600080fd5b600080fd5b60007fffffffff0000000000000000000000000000000000000000000000000000000082169050919050565b61233b81612306565b811461234657600080fd5b50565b60008135905061235881612332565b92915050565b600060208284031215612374576123736122fc565b5b600061238284828501612349565b91505092915050565b60008115159050919050565b6123a08161238b565b82525050565b60006020820190506123bb6000830184612397565b92915050565b600081519050919050565b600082825260208201905092915050565b60005b838110156123fb5780820151818401526020810190506123e0565b8381111561240a576000848401525b50505050565b6000601f19601f8301169050919050565b600061242c826123c1565b61243681856123cc565b93506124468185602086016123dd565b61244f81612410565b840191505092915050565b600060208201905081810360008301526124748184612421565b905092915050565b6000819050919050565b61248f8161247c565b811461249a57600080fd5b50565b6000813590506124ac81612486565b92915050565b6000602082840312156124c8576124c76122fc565b5b60006124d68482850161249d565b91505092915050565b600073ffffffffffffffffffffffffffffffffffffffff82169050919050565b600061250a826124df565b9050919050565b61251a816124ff565b82525050565b60006020820190506125356000830184612511565b92915050565b612544816124ff565b811461254f57600080fd5b50565b6000813590506125618161253b565b92915050565b6000806040838503121561257e5761257d6122fc565b5b600061258c85828601612552565b925050602061259d8582860161249d565b9150509250929050565b600080fd5b600080fd5b7f4e487b7100000000000000000000000000000000000000000000000000000000600052604160045260246000fd5b6125e982612410565b810181811067ffffffffffffffff82111715612608576126076125b1565b5b80604052505050565b600061261b6122f2565b905061262782826125e0565b919050565b600067ffffffffffffffff821115612647576126466125b1565b5b61265082612410565b9050602081019050919050565b82818337600083830152505050565b600061267f61267a8461262c565b612611565b90508281526020810184848401111561269b5761269a6125ac565b5b6126a684828561265d565b509392505050565b600082601f8301126126c3576126c26125a7565b5b81356126d384826020860161266c565b91505092915050565b600080604083850312156126f3576126f26122fc565b5b60006127018582860161249d565b925050602083013567ffffffffffffffff81111561272257612721612301565b5b61272e858286016126ae565b9150509250929050565b6127418161247c565b82525050565b600060208201905061275c6000830184612738565b92915050565b60008060006060848603121561277b5761277a6122fc565b5b600061278986828701612552565b935050602061279a86828701612552565b92505060406127ab8682870161249d565b9150509250925092565b6000602082840312156127cb576127ca6122fc565b5b60006127d984828501612552565b91505092915050565b6127eb8161238b565b81146127f657600080fd5b50565b600081359050612808816127e2565b92915050565b60008060408385031215612825576128246122fc565b5b600061283385828601612552565b9250506020612844858286016127f9565b9150509250929050565b600067ffffffffffffffff821115612869576128686125b1565b5b61287282612410565b9050602081019050919050565b600061289261288d8461284e565b612611565b9050828152602081018484840111156128ae576128ad6125ac565b5b6128b984828561265d565b509392505050565b600082601f8301126128d6576128d56125a7565b5b81356128e684826020860161287f565b91505092915050565b60008060008060808587031215612909576129086122fc565b5b600061291787828801612552565b945050602061292887828801612552565b93505060406129398782880161249d565b925050606085013567ffffffffffffffff81111561295a57612959612301565b5b612966878288016128c1565b91505092959194509250565b600060208284031215612988576129876122fc565b5b600082013567ffffffffffffffff8111156129a6576129a5612301565b5b6129b2848285016126ae565b91505092915050565b600080604083850312156129d2576129d16122fc565b5b60006129e085828601612552565b92505060206129f185828601612552565b9150509250929050565b60008060408385031215612a1257612a116122fc565b5b6000612a208582860161249d565b9250506020612a3185828601612552565b9150509250929050565b7f4e487b7100000000000000000000000000000000000000000000000000000000600052602260045260246000fd5b60006002820490506001821680612a8257607f821691505b60208210811415612a9657612a95612a3b565b5b50919050565b7f4552433732313a20617070726f76656420717565727920666f72206e6f6e657860008201527f697374656e7420746f6b656e0000000000000000000000000000000000000000602082015250565b6000612af8602c836123cc565b9150612b0382612a9c565b604082019050919050565b60006020820190508181036000830152612b2781612aeb565b9050919050565b7f4552433732313a20617070726f76616c20746f2063757272656e74206f776e6560008201527f7200000000000000000000000000000000000000000000000000000000000000602082015250565b6000612b8a6021836123cc565b9150612b9582612b2e565b604082019050919050565b60006020820190508181036000830152612bb981612b7d565b9050919050565b7f4552433732313a20617070726f76652063616c6c6572206973206e6f74206f7760008201527f6e6572206e6f7220617070726f76656420666f7220616c6c0000000000000000602082015250565b6000612c1c6038836123cc565b9150612c2782612bc0565b604082019050919050565b60006020820190508181036000830152612c4b81612c0f565b9050919050565b6000819050919050565b612c6581612c52565b8114612c7057600080fd5b50565b600081519050612c8281612c5c565b92915050565b600060208284031215612c9e57612c9d6122fc565b5b6000612cac84828501612c73565b91505092915050565b612cbe81612c52565b82525050565b6000604082019050612cd96000830185612cb5565b612ce66020830184612511565b9392505050565b600081519050612cfc816127e2565b92915050565b600060208284031215612d1857612d176122fc565b5b6000612d2684828501612ced565b91505092915050565b7f4552433732313a207472616e736665722063616c6c6572206973206e6f74206f60008201527f776e6572206e6f7220617070726f766564000000000000000000000000000000602082015250565b6000612d8b6031836123cc565b9150612d9682612d2f565b604082019050919050565b60006020820190508181036000830152612dba81612d7e565b9050919050565b7f455243373231456e756d657261626c653a206f776e657220696e646578206f7560008201527f74206f6620626f756e6473000000000000000000000000000000000000000000602082015250565b6000612e1d602b836123cc565b9150612e2882612dc1565b604082019050919050565b60006020820190508181036000830152612e4c81612e10565b9050919050565b7f455243373231456e756d657261626c653a20676c6f62616c20696e646578206f60008201527f7574206f6620626f756e64730000000000000000000000000000000000000000602082015250565b6000612eaf602c836123cc565b9150612eba82612e53565b604082019050919050565b60006020820190508181036000830152612ede81612ea2565b9050919050565b7f4e487b7100000000000000000000000000000000000000000000000000000000600052603260045260246000fd5b7f4552433732313a206f776e657220717565727920666f72206e6f6e657869737460008201527f656e7420746f6b656e0000000000000000000000000000000000000000000000602082015250565b6000612f706029836123cc565b9150612f7b82612f14565b604082019050919050565b60006020820190508181036000830152612f9f81612f63565b9050919050565b7f4552433732313a2062616c616e636520717565727920666f7220746865207a6560008201527f726f206164647265737300000000000000000000000000000000000000000000602082015250565b6000613002602a836123cc565b915061300d82612fa6565b604082019050919050565b6000602082019050818103600083015261303181612ff5565b9050919050565b7f4552433732313a20617070726f766520746f2063616c6c657200000000000000600082015250565b600061306e6019836123cc565b915061307982613038565b602082019050919050565b6000602082019050818103600083015261309d81613061565b9050919050565b600081905092915050565b60006130ba826123c1565b6130c481856130a4565b93506130d48185602086016123dd565b80840191505092915050565b60006130ec82846130af565b915081905092915050565b7f4533000000000000000000000000000000000000000000000000000000000000600082015250565b600061312d6002836123cc565b9150613138826130f7565b602082019050919050565b6000602082019050818103600083015261315c81613120565b9050919050565b7f4552433732313a206f70657261746f7220717565727920666f72206e6f6e657860008201527f697374656e7420746f6b656e0000000000000000000000000000000000000000602082015250565b60006131bf602c836123cc565b91506131ca82613163565b604082019050919050565b600060208201905081810360008301526131ee816131b2565b9050919050565b7f4552433732313a207472616e73666572206f6620746f6b656e2074686174206960008201527f73206e6f74206f776e0000000000000000000000000000000000000000000000602082015250565b60006132516029836123cc565b915061325c826131f5565b604082019050919050565b6000602082019050818103600083015261328081613244565b9050919050565b7f4552433732313a207472616e7366657220746f20746865207a65726f2061646460008201527f7265737300000000000000000000000000000000000000000000000000000000602082015250565b60006132e36024836123cc565b91506132ee82613287565b604082019050919050565b60006020820190508181036000830152613312816132d6565b9050919050565b7f4e487b7100000000000000000000000000000000000000000000000000000000600052601160045260246000fd5b60006133538261247c565b915061335e8361247c565b92508282101561337157613370613319565b5b828203905092915050565b60006133878261247c565b91506133928361247c565b9250827fffffffffffffffffffffffffffffffffffffffffffffffffffffffffffffffff038211156133c7576133c6613319565b5b828201905092915050565b7f4552433732313a207472616e7366657220746f206e6f6e20455243373231526560008201527f63656976657220696d706c656d656e7465720000000000000000000000000000602082015250565b600061342e6032836123cc565b9150613439826133d2565b604082019050919050565b6000602082019050818103600083015261345d81613421565b9050919050565b7f4552433732313a206d696e7420746f20746865207a65726f2061646472657373600082015250565b600061349a6020836123cc565b91506134a582613464565b602082019050919050565b600060208201905081810360008301526134c98161348d565b9050919050565b7f4552433732313a20746f6b656e20616c7265616479206d696e74656400000000600082015250565b6000613506601c836123cc565b9150613511826134d0565b602082019050919050565b60006020820190508181036000830152613535816134f9565b9050919050565b600081519050919050565b600082825260208201905092915050565b60006135638261353c565b61356d8185613547565b935061357d8185602086016123dd565b61358681612410565b840191505092915050565b60006080820190506135a66000830187612511565b6135b36020830186612511565b6135c06040830185612738565b81810360608301526135d28184613558565b905095945050505050565b6000815190506135ec81612332565b92915050565b600060208284031215613608576136076122fc565b5b6000613616848285016135dd565b91505092915050565b7f4e487b7100000000000000000000000000000000000000000000000000000000600052603160045260246000fdfea264697066735822122032077df2c0efc33fc69f0f1493a5a646f551233e4a858bd16251cd6fda9f2fbb64736f6c63430008090033",
  "immutableReferences": {},
  "source": "// SPDX-License-Identifier: MIT\r\npragma solidity >=0.6.0 <0.9.0;\r\n\r\nimport \"@openzeppelin/contracts/token/ERC721/extensions/ERC721Enumerable.sol\";\r\nimport \"@openzeppelin/contracts/utils/Counters.sol\";\r\n\r\nimport \"./Roles.sol\";\r\n\r\ncontract Vehicle is ERC721Enumerable {\r\n\r\n    using Counters for Counters.Counter;\r\n    Counters.Counter _tokenIds;\r\n\r\n    Roles roles;\r\n\r\n    mapping(uint256 => string) internal _tokenURIs;\r\n    mapping(string => bool) private _uriRegistered;\r\n    mapping(uint256 => address) private _approvedGarage;\r\n\r\n    constructor(address addr) ERC721(\"Vehicle\", \"VHC\") {\r\n        roles = Roles(addr);\r\n    }\r\n  \r\n    function tokenURI(uint256 tokenId)\r\n        public\r\n        view\r\n        virtual\r\n        override\r\n        returns (string memory)\r\n    {\r\n        return _tokenURIs[tokenId];\r\n    }\r\n\r\n    function exists(uint256 tokenId) external view returns (bool) {\r\n        return _exists(tokenId);\r\n    }\r\n\r\n    function getApprovedGarage (uint256 tokenId) public view returns (address) {\r\n        return _approvedGarage[tokenId];\r\n    }\r\n\r\n    function setApprovedGarage (uint256 tokenId, address addr) external {\r\n        require(msg.sender == ownerOf(tokenId));\r\n        _approvedGarage[tokenId] = addr;\r\n    }\r\n\r\n    function setTokenURI(uint256 tokenId, string memory _tokenURI) external {\r\n        require (getApprovedGarage(tokenId) == msg.sender);\r\n        require (roles.hasRole(roles.GARAGE_ROLE(), msg.sender));\r\n        _setTokenURI(tokenId, _tokenURI);\r\n        _approvedGarage[tokenId] = 0x0000000000000000000000000000000000000000;\r\n    }\r\n\r\n    function _setTokenURI(uint256 tokenId, string memory _tokenURI) internal {\r\n        _tokenURIs[tokenId] = _tokenURI;\r\n    }\r\n\r\n    function mint(string memory uri) external {\r\n        require(\r\n            roles.isMinterClass(msg.sender)\r\n        );\r\n        require(_uriRegistered[uri] == false, \"E3\");\r\n        uint256 _tokenId = _tokenIds.current();\r\n        _mint(msg.sender, _tokenId);\r\n        _setTokenURI(_tokenId, uri);\r\n        _uriRegistered[uri] = true;\r\n        _tokenIds.increment();\r\n    }\r\n\r\n    function burn(uint256 _tokenId) external {\r\n        require(\r\n            roles.isAuthorityClass(msg.sender)\r\n        );\r\n        _burn(_tokenId);\r\n        _setTokenURI(_tokenId, \"N/A\");\r\n    }\r\n}\r\n",
  "sourcePath": "C:\\sgs020\\contracts\\Vehicle.sol",
  "compiler": {
    "name": "solc",
    "version": "0.8.9+commit.e5eed63a.Emscripten.clang"
  },
  "schemaVersion": "3.4.3",
  "updatedAt": "2022-03-02T09:05:24.337Z",
  "networkType": "ethereum",
  "devdoc": {
    "kind": "dev",
    "methods": {
      "approve(address,uint256)": {
        "details": "See {IERC721-approve}."
      },
      "balanceOf(address)": {
        "details": "See {IERC721-balanceOf}."
      },
      "getApproved(uint256)": {
        "details": "See {IERC721-getApproved}."
      },
      "isApprovedForAll(address,address)": {
        "details": "See {IERC721-isApprovedForAll}."
      },
      "name()": {
        "details": "See {IERC721Metadata-name}."
      },
      "ownerOf(uint256)": {
        "details": "See {IERC721-ownerOf}."
      },
      "safeTransferFrom(address,address,uint256)": {
        "details": "See {IERC721-safeTransferFrom}."
      },
      "safeTransferFrom(address,address,uint256,bytes)": {
        "details": "See {IERC721-safeTransferFrom}."
      },
      "setApprovalForAll(address,bool)": {
        "details": "See {IERC721-setApprovalForAll}."
      },
      "supportsInterface(bytes4)": {
        "details": "See {IERC165-supportsInterface}."
      },
      "symbol()": {
        "details": "See {IERC721Metadata-symbol}."
      },
      "tokenByIndex(uint256)": {
        "details": "See {IERC721Enumerable-tokenByIndex}."
      },
      "tokenOfOwnerByIndex(address,uint256)": {
        "details": "See {IERC721Enumerable-tokenOfOwnerByIndex}."
      },
      "tokenURI(uint256)": {
        "details": "See {IERC721Metadata-tokenURI}."
      },
      "totalSupply()": {
        "details": "See {IERC721Enumerable-totalSupply}."
      },
      "transferFrom(address,address,uint256)": {
        "details": "See {IERC721-transferFrom}."
      }
    },
    "version": 1
  },
  "userdoc": {
    "kind": "user",
    "methods": {},
    "version": 1
  }
}