{
  "contractName": "Vehicle",
  "abi": [
    {
      "inputs": [
        {
          "internalType": "address",
          "name": "addr",
          "type": "address"
        }
      ],
      "stateMutability": "nonpayable",
      "type": "constructor"
    },
    {
      "anonymous": false,
      "inputs": [
        {
          "indexed": true,
          "internalType": "address",
          "name": "owner",
          "type": "address"
        },
        {
          "indexed": true,
          "internalType": "address",
          "name": "approved",
          "type": "address"
        },
        {
          "indexed": true,
          "internalType": "uint256",
          "name": "tokenId",
          "type": "uint256"
        }
      ],
      "name": "Approval",
      "type": "event"
    },
    {
      "anonymous": false,
      "inputs": [
        {
          "indexed": true,
          "internalType": "address",
          "name": "owner",
          "type": "address"
        },
        {
          "indexed": true,
          "internalType": "address",
          "name": "operator",
          "type": "address"
        },
        {
          "indexed": false,
          "internalType": "bool",
          "name": "approved",
          "type": "bool"
        }
      ],
      "name": "ApprovalForAll",
      "type": "event"
    },
    {
      "anonymous": false,
      "inputs": [
        {
          "indexed": true,
          "internalType": "uint256",
          "name": "tokenId",
          "type": "uint256"
        }
      ],
      "name": "NewGarageApproval",
      "type": "event"
    },
    {
      "anonymous": false,
      "inputs": [
        {
          "indexed": true,
          "internalType": "address",
          "name": "from",
          "type": "address"
        },
        {
          "indexed": true,
          "internalType": "address",
          "name": "to",
          "type": "address"
        },
        {
          "indexed": true,
          "internalType": "uint256",
          "name": "tokenId",
          "type": "uint256"
        }
      ],
      "name": "Transfer",
      "type": "event"
    },
    {
      "inputs": [
        {
          "internalType": "address",
          "name": "to",
          "type": "address"
        },
        {
          "internalType": "uint256",
          "name": "tokenId",
          "type": "uint256"
        }
      ],
      "name": "approve",
      "outputs": [],
      "stateMutability": "nonpayable",
      "type": "function"
    },
    {
      "inputs": [
        {
          "internalType": "address",
          "name": "owner",
          "type": "address"
        }
      ],
      "name": "balanceOf",
      "outputs": [
        {
          "internalType": "uint256",
          "name": "",
          "type": "uint256"
        }
      ],
      "stateMutability": "view",
      "type": "function",
      "constant": true
    },
    {
      "inputs": [
        {
          "internalType": "uint256",
          "name": "tokenId",
          "type": "uint256"
        }
      ],
      "name": "getApproved",
      "outputs": [
        {
          "internalType": "address",
          "name": "",
          "type": "address"
        }
      ],
      "stateMutability": "view",
      "type": "function",
      "constant": true
    },
    {
      "inputs": [
        {
          "internalType": "address",
          "name": "owner",
          "type": "address"
        },
        {
          "internalType": "address",
          "name": "operator",
          "type": "address"
        }
      ],
      "name": "isApprovedForAll",
      "outputs": [
        {
          "internalType": "bool",
          "name": "",
          "type": "bool"
        }
      ],
      "stateMutability": "view",
      "type": "function",
      "constant": true
    },
    {
      "inputs": [],
      "name": "name",
      "outputs": [
        {
          "internalType": "string",
          "name": "",
          "type": "string"
        }
      ],
      "stateMutability": "view",
      "type": "function",
      "constant": true
    },
    {
      "inputs": [
        {
          "internalType": "uint256",
          "name": "tokenId",
          "type": "uint256"
        }
      ],
      "name": "ownerOf",
      "outputs": [
        {
          "internalType": "address",
          "name": "",
          "type": "address"
        }
      ],
      "stateMutability": "view",
      "type": "function",
      "constant": true
    },
    {
      "inputs": [
        {
          "internalType": "address",
          "name": "from",
          "type": "address"
        },
        {
          "internalType": "address",
          "name": "to",
          "type": "address"
        },
        {
          "internalType": "uint256",
          "name": "tokenId",
          "type": "uint256"
        }
      ],
      "name": "safeTransferFrom",
      "outputs": [],
      "stateMutability": "nonpayable",
      "type": "function"
    },
    {
      "inputs": [
        {
          "internalType": "address",
          "name": "from",
          "type": "address"
        },
        {
          "internalType": "address",
          "name": "to",
          "type": "address"
        },
        {
          "internalType": "uint256",
          "name": "tokenId",
          "type": "uint256"
        },
        {
          "internalType": "bytes",
          "name": "_data",
          "type": "bytes"
        }
      ],
      "name": "safeTransferFrom",
      "outputs": [],
      "stateMutability": "nonpayable",
      "type": "function"
    },
    {
      "inputs": [
        {
          "internalType": "address",
          "name": "operator",
          "type": "address"
        },
        {
          "internalType": "bool",
          "name": "approved",
          "type": "bool"
        }
      ],
      "name": "setApprovalForAll",
      "outputs": [],
      "stateMutability": "nonpayable",
      "type": "function"
    },
    {
      "inputs": [
        {
          "internalType": "bytes4",
          "name": "interfaceId",
          "type": "bytes4"
        }
      ],
      "name": "supportsInterface",
      "outputs": [
        {
          "internalType": "bool",
          "name": "",
          "type": "bool"
        }
      ],
      "stateMutability": "view",
      "type": "function",
      "constant": true
    },
    {
      "inputs": [],
      "name": "symbol",
      "outputs": [
        {
          "internalType": "string",
          "name": "",
          "type": "string"
        }
      ],
      "stateMutability": "view",
      "type": "function",
      "constant": true
    },
    {
      "inputs": [
        {
          "internalType": "uint256",
          "name": "index",
          "type": "uint256"
        }
      ],
      "name": "tokenByIndex",
      "outputs": [
        {
          "internalType": "uint256",
          "name": "",
          "type": "uint256"
        }
      ],
      "stateMutability": "view",
      "type": "function",
      "constant": true
    },
    {
      "inputs": [
        {
          "internalType": "address",
          "name": "owner",
          "type": "address"
        },
        {
          "internalType": "uint256",
          "name": "index",
          "type": "uint256"
        }
      ],
      "name": "tokenOfOwnerByIndex",
      "outputs": [
        {
          "internalType": "uint256",
          "name": "",
          "type": "uint256"
        }
      ],
      "stateMutability": "view",
      "type": "function",
      "constant": true
    },
    {
      "inputs": [],
      "name": "totalSupply",
      "outputs": [
        {
          "internalType": "uint256",
          "name": "",
          "type": "uint256"
        }
      ],
      "stateMutability": "view",
      "type": "function",
      "constant": true
    },
    {
      "inputs": [
        {
          "internalType": "address",
          "name": "from",
          "type": "address"
        },
        {
          "internalType": "address",
          "name": "to",
          "type": "address"
        },
        {
          "internalType": "uint256",
          "name": "tokenId",
          "type": "uint256"
        }
      ],
      "name": "transferFrom",
      "outputs": [],
      "stateMutability": "nonpayable",
      "type": "function"
    },
    {
      "inputs": [],
      "name": "getAllVehicles",
      "outputs": [
        {
          "components": [
            {
              "internalType": "uint256[]",
              "name": "ids",
              "type": "uint256[]"
            },
            {
              "internalType": "string[]",
              "name": "uris",
              "type": "string[]"
            },
            {
              "internalType": "address[]",
              "name": "owners",
              "type": "address[]"
            },
            {
              "internalType": "address[]",
              "name": "garages",
              "type": "address[]"
            }
          ],
          "internalType": "struct Vehicle.getObject",
          "name": "",
          "type": "tuple"
        }
      ],
      "stateMutability": "view",
      "type": "function",
      "constant": true
    },
    {
      "inputs": [
        {
          "internalType": "uint256",
          "name": "tokenId",
          "type": "uint256"
        }
      ],
      "name": "tokenURI",
      "outputs": [
        {
          "internalType": "string",
          "name": "",
          "type": "string"
        }
      ],
      "stateMutability": "view",
      "type": "function",
      "constant": true
    },
    {
      "inputs": [
        {
          "internalType": "uint256",
          "name": "tokenId",
          "type": "uint256"
        }
      ],
      "name": "exists",
      "outputs": [
        {
          "internalType": "bool",
          "name": "",
          "type": "bool"
        }
      ],
      "stateMutability": "view",
      "type": "function",
      "constant": true
    },
    {
      "inputs": [
        {
          "internalType": "uint256",
          "name": "tokenId",
          "type": "uint256"
        }
      ],
      "name": "getApprovedGarage",
      "outputs": [
        {
          "internalType": "address",
          "name": "",
          "type": "address"
        }
      ],
      "stateMutability": "view",
      "type": "function",
      "constant": true
    },
    {
      "inputs": [
        {
          "internalType": "uint256",
          "name": "tokenId",
          "type": "uint256"
        },
        {
          "internalType": "address",
          "name": "addr",
          "type": "address"
        }
      ],
      "name": "setApprovedGarage",
      "outputs": [],
      "stateMutability": "nonpayable",
      "type": "function"
    },
    {
      "inputs": [
        {
          "internalType": "uint256",
          "name": "tokenId",
          "type": "uint256"
        },
        {
          "internalType": "string",
          "name": "_tokenURI",
          "type": "string"
        }
      ],
      "name": "setTokenURI",
      "outputs": [],
      "stateMutability": "nonpayable",
      "type": "function"
    },
    {
      "inputs": [
        {
          "internalType": "string",
          "name": "uri",
          "type": "string"
        }
      ],
      "name": "mint",
      "outputs": [],
      "stateMutability": "nonpayable",
      "type": "function"
    },
    {
      "inputs": [
        {
          "internalType": "uint256",
          "name": "_tokenId",
          "type": "uint256"
        }
      ],
      "name": "burn",
      "outputs": [],
      "stateMutability": "nonpayable",
      "type": "function"
    }
  ],
  "bytecode": "0x60806040523480156200001157600080fd5b506040516200404a3803806200404a833981810160405281019062000037919062000239565b6040518060400160405280600781526020017f56656869636c65000000000000000000000000000000000000000000000000008152506040518060400160405280600381526020017f56484300000000000000000000000000000000000000000000000000000000008152508160009080519060200190620000bb9291906200011f565b508060019080519060200190620000d49291906200011f565b50505080600b60006101000a81548173ffffffffffffffffffffffffffffffffffffffff021916908373ffffffffffffffffffffffffffffffffffffffff16021790555050620002d0565b8280546200012d906200029a565b90600052602060002090601f0160209004810192826200015157600085556200019d565b82601f106200016c57805160ff19168380011785556200019d565b828001600101855582156200019d579182015b828111156200019c5782518255916020019190600101906200017f565b5b509050620001ac9190620001b0565b5090565b5b80821115620001cb576000816000905550600101620001b1565b5090565b600080fd5b600073ffffffffffffffffffffffffffffffffffffffff82169050919050565b60006200020182620001d4565b9050919050565b6200021381620001f4565b81146200021f57600080fd5b50565b600081519050620002338162000208565b92915050565b600060208284031215620002525762000251620001cf565b5b6000620002628482850162000222565b91505092915050565b7f4e487b7100000000000000000000000000000000000000000000000000000000600052602260045260246000fd5b60006002820490506001821680620002b357607f821691505b60208210811415620002ca57620002c96200026b565b5b50919050565b613d6a80620002e06000396000f3fe608060405234801561001057600080fd5b506004361061014d5760003560e01c80634f6ccce7116100c3578063b88d4fde1161007c578063b88d4fde146103d4578063c87b56dd146103f0578063cb9d90d314610420578063d85d3d271461043e578063e985e9c51461045a578063ff8cf7de1461048a5761014d565b80634f6ccce7146102da5780636352211e1461030a57806370a082311461033a57806385fd3cb81461036a57806395d89b411461039a578063a22cb465146103b85761014d565b806318160ddd1161011557806318160ddd1461020857806323b872dd146102265780632f745c591461024257806342842e0e1461027257806342966c681461028e5780634f558e79146102aa5761014d565b806301ffc9a71461015257806306fdde0314610182578063081812fc146101a0578063095ea7b3146101d0578063162094c4146101ec575b600080fd5b61016c600480360381019061016791906126d9565b6104a6565b6040516101799190612721565b60405180910390f35b61018a610520565b60405161019791906127d5565b60405180910390f35b6101ba60048036038101906101b5919061282d565b6105b2565b6040516101c7919061289b565b60405180910390f35b6101ea60048036038101906101e591906128e2565b610637565b005b61020660048036038101906102019190612a57565b61074f565b005b610210610972565b60405161021d9190612ac2565b60405180910390f35b610240600480360381019061023b9190612add565b61097f565b005b61025c600480360381019061025791906128e2565b6109df565b6040516102699190612ac2565b60405180910390f35b61028c60048036038101906102879190612add565b610a84565b005b6102a860048036038101906102a3919061282d565b610aa4565b005b6102c460048036038101906102bf919061282d565b610ba3565b6040516102d19190612721565b60405180910390f35b6102f460048036038101906102ef919061282d565b610bb5565b6040516103019190612ac2565b60405180910390f35b610324600480360381019061031f919061282d565b610c26565b604051610331919061289b565b60405180910390f35b610354600480360381019061034f9190612b30565b610cd8565b6040516103619190612ac2565b60405180910390f35b610384600480360381019061037f919061282d565b610d90565b604051610391919061289b565b60405180910390f35b6103a2610dcd565b6040516103af91906127d5565b60405180910390f35b6103d260048036038101906103cd9190612b89565b610e5f565b005b6103ee60048036038101906103e99190612c6a565b610fe0565b005b61040a6004803603810190610405919061282d565b611042565b60405161041791906127d5565b60405180910390f35b6104286110e7565b6040516104359190612fed565b60405180910390f35b6104586004803603810190610453919061300f565b6113b7565b005b610474600480360381019061046f9190613058565b611544565b6040516104819190612721565b60405180910390f35b6104a4600480360381019061049f9190613098565b6115d8565b005b60007f780e9d63000000000000000000000000000000000000000000000000000000007bffffffffffffffffffffffffffffffffffffffffffffffffffffffff1916827bffffffffffffffffffffffffffffffffffffffffffffffffffffffff1916148061051957506105188261169b565b5b9050919050565b60606000805461052f90613107565b80601f016020809104026020016040519081016040528092919081815260200182805461055b90613107565b80156105a85780601f1061057d576101008083540402835291602001916105a8565b820191906000526020600020905b81548152906001019060200180831161058b57829003601f168201915b5050505050905090565b60006105bd8261177d565b6105fc576040517f08c379a00000000000000000000000000000000000000000000000000000000081526004016105f3906131ab565b60405180910390fd5b6004600083815260200190815260200160002060009054906101000a900473ffffffffffffffffffffffffffffffffffffffff169050919050565b600061064282610c26565b90508073ffffffffffffffffffffffffffffffffffffffff168373ffffffffffffffffffffffffffffffffffffffff1614156106b3576040517f08c379a00000000000000000000000000000000000000000000000000000000081526004016106aa9061323d565b60405180910390fd5b8073ffffffffffffffffffffffffffffffffffffffff166106d26117e9565b73ffffffffffffffffffffffffffffffffffffffff1614806107015750610700816106fb6117e9565b611544565b5b610740576040517f08c379a0000000000000000000000000000000000000000000000000000000008152600401610737906132cf565b60405180910390fd5b61074a83836117f1565b505050565b3373ffffffffffffffffffffffffffffffffffffffff1661076f83610d90565b73ffffffffffffffffffffffffffffffffffffffff161461078f57600080fd5b600b60009054906101000a900473ffffffffffffffffffffffffffffffffffffffff1673ffffffffffffffffffffffffffffffffffffffff166391d14854600b60009054906101000a900473ffffffffffffffffffffffffffffffffffffffff1673ffffffffffffffffffffffffffffffffffffffff16636fd1c4746040518163ffffffff1660e01b815260040160206040518083038186803b15801561083557600080fd5b505afa158015610849573d6000803e3d6000fd5b505050506040513d601f19601f8201168201806040525081019061086d9190613325565b336040518363ffffffff1660e01b815260040161088b929190613361565b60206040518083038186803b1580156108a357600080fd5b505afa1580156108b7573d6000803e3d6000fd5b505050506040513d601f19601f820116820180604052508101906108db919061339f565b6108e457600080fd5b6108ee82826118aa565b6000600e600084815260200190815260200160002060006101000a81548173ffffffffffffffffffffffffffffffffffffffff021916908373ffffffffffffffffffffffffffffffffffffffff160217905550817fb65bb9ee07c81a87b8e99a1af9c9278708ec662aaec950ca0146d4ea1254698e60405160405180910390a25050565b6000600880549050905090565b61099061098a6117e9565b826118d6565b6109cf576040517f08c379a00000000000000000000000000000000000000000000000000000000081526004016109c69061343e565b60405180910390fd5b6109da8383836119b4565b505050565b60006109ea83610cd8565b8210610a2b576040517f08c379a0000000000000000000000000000000000000000000000000000000008152600401610a22906134d0565b60405180910390fd5b600660008473ffffffffffffffffffffffffffffffffffffffff1673ffffffffffffffffffffffffffffffffffffffff168152602001908152602001600020600083815260200190815260200160002054905092915050565b610a9f83838360405180602001604052806000815250610fe0565b505050565b600b60009054906101000a900473ffffffffffffffffffffffffffffffffffffffff1673ffffffffffffffffffffffffffffffffffffffff16632d662a00336040518263ffffffff1660e01b8152600401610aff919061289b565b60206040518083038186803b158015610b1757600080fd5b505afa158015610b2b573d6000803e3d6000fd5b505050506040513d601f19601f82011682018060405250810190610b4f919061339f565b610b5857600080fd5b610b6181611c10565b610ba0816040518060400160405280600381526020017f4e2f4100000000000000000000000000000000000000000000000000000000008152506118aa565b50565b6000610bae8261177d565b9050919050565b6000610bbf610972565b8210610c00576040517f08c379a0000000000000000000000000000000000000000000000000000000008152600401610bf790613562565b60405180910390fd5b60088281548110610c1457610c13613582565b5b90600052602060002001549050919050565b6000806002600084815260200190815260200160002060009054906101000a900473ffffffffffffffffffffffffffffffffffffffff169050600073ffffffffffffffffffffffffffffffffffffffff168173ffffffffffffffffffffffffffffffffffffffff161415610ccf576040517f08c379a0000000000000000000000000000000000000000000000000000000008152600401610cc690613623565b60405180910390fd5b80915050919050565b60008073ffffffffffffffffffffffffffffffffffffffff168273ffffffffffffffffffffffffffffffffffffffff161415610d49576040517f08c379a0000000000000000000000000000000000000000000000000000000008152600401610d40906136b5565b60405180910390fd5b600360008373ffffffffffffffffffffffffffffffffffffffff1673ffffffffffffffffffffffffffffffffffffffff168152602001908152602001600020549050919050565b6000600e600083815260200190815260200160002060009054906101000a900473ffffffffffffffffffffffffffffffffffffffff169050919050565b606060018054610ddc90613107565b80601f0160208091040260200160405190810160405280929190818152602001828054610e0890613107565b8015610e555780601f10610e2a57610100808354040283529160200191610e55565b820191906000526020600020905b815481529060010190602001808311610e3857829003601f168201915b5050505050905090565b610e676117e9565b73ffffffffffffffffffffffffffffffffffffffff168273ffffffffffffffffffffffffffffffffffffffff161415610ed5576040517f08c379a0000000000000000000000000000000000000000000000000000000008152600401610ecc90613721565b60405180910390fd5b8060056000610ee26117e9565b73ffffffffffffffffffffffffffffffffffffffff1673ffffffffffffffffffffffffffffffffffffffff16815260200190815260200160002060008473ffffffffffffffffffffffffffffffffffffffff1673ffffffffffffffffffffffffffffffffffffffff16815260200190815260200160002060006101000a81548160ff0219169083151502179055508173ffffffffffffffffffffffffffffffffffffffff16610f8f6117e9565b73ffffffffffffffffffffffffffffffffffffffff167f17307eab39ab6107e8899845ad3d59bd9653f200f220920489ca2b5937696c3183604051610fd49190612721565b60405180910390a35050565b610ff1610feb6117e9565b836118d6565b611030576040517f08c379a00000000000000000000000000000000000000000000000000000000081526004016110279061343e565b60405180910390fd5b61103c84848484611d21565b50505050565b6060600c6000838152602001908152602001600020805461106290613107565b80601f016020809104026020016040519081016040528092919081815260200182805461108e90613107565b80156110db5780601f106110b0576101008083540402835291602001916110db565b820191906000526020600020905b8154815290600101906020018083116110be57829003601f168201915b50505050509050919050565b6110ef6125a2565b6110f76125a2565b6000611101610972565b905060008167ffffffffffffffff81111561111f5761111e61292c565b5b60405190808252806020026020018201604052801561114d5781602001602082028036833780820191505090505b50905060008267ffffffffffffffff81111561116c5761116b61292c565b5b60405190808252806020026020018201604052801561119f57816020015b606081526020019060019003908161118a5790505b50905060008367ffffffffffffffff8111156111be576111bd61292c565b5b6040519080825280602002602001820160405280156111ec5781602001602082028036833780820191505090505b50905060008467ffffffffffffffff81111561120b5761120a61292c565b5b6040519080825280602002602001820160405280156112395781602001602082028036833780820191505090505b50905060005b8581101561138657600061125282610bb5565b90508086838151811061126857611267613582565b5b60200260200101818152505061127d81611042565b8583815181106112905761128f613582565b5b60200260200101819052506112a481610c26565b8483815181106112b7576112b6613582565b5b602002602001019073ffffffffffffffffffffffffffffffffffffffff16908173ffffffffffffffffffffffffffffffffffffffff1681525050600e600082815260200190815260200160002060009054906101000a900473ffffffffffffffffffffffffffffffffffffffff1683838151811061133857611337613582565b5b602002602001019073ffffffffffffffffffffffffffffffffffffffff16908173ffffffffffffffffffffffffffffffffffffffff168152505050808061137e90613770565b91505061123f565b5083866000018190525082866020018190525081866040018190525080866060018190525085965050505050505090565b600b60009054906101000a900473ffffffffffffffffffffffffffffffffffffffff1673ffffffffffffffffffffffffffffffffffffffff1663f77732fb336040518263ffffffff1660e01b8152600401611412919061289b565b60206040518083038186803b15801561142a57600080fd5b505afa15801561143e573d6000803e3d6000fd5b505050506040513d601f19601f82011682018060405250810190611462919061339f565b61146b57600080fd5b60001515600d8260405161147f91906137f5565b908152602001604051809103902060009054906101000a900460ff161515146114dd576040517f08c379a00000000000000000000000000000000000000000000000000000000081526004016114d490613858565b60405180910390fd5b60006114e9600a611d7d565b90506114f53382611d8b565b6114ff81836118aa565b6001600d8360405161151191906137f5565b908152602001604051809103902060006101000a81548160ff021916908315150217905550611540600a611f59565b5050565b6000600560008473ffffffffffffffffffffffffffffffffffffffff1673ffffffffffffffffffffffffffffffffffffffff16815260200190815260200160002060008373ffffffffffffffffffffffffffffffffffffffff1673ffffffffffffffffffffffffffffffffffffffff16815260200190815260200160002060009054906101000a900460ff16905092915050565b6115e182610c26565b73ffffffffffffffffffffffffffffffffffffffff163373ffffffffffffffffffffffffffffffffffffffff161461161857600080fd5b80600e600084815260200190815260200160002060006101000a81548173ffffffffffffffffffffffffffffffffffffffff021916908373ffffffffffffffffffffffffffffffffffffffff160217905550817fb65bb9ee07c81a87b8e99a1af9c9278708ec662aaec950ca0146d4ea1254698e60405160405180910390a25050565b60007f80ac58cd000000000000000000000000000000000000000000000000000000007bffffffffffffffffffffffffffffffffffffffffffffffffffffffff1916827bffffffffffffffffffffffffffffffffffffffffffffffffffffffff1916148061176657507f5b5e139f000000000000000000000000000000000000000000000000000000007bffffffffffffffffffffffffffffffffffffffffffffffffffffffff1916827bffffffffffffffffffffffffffffffffffffffffffffffffffffffff1916145b80611776575061177582611f6f565b5b9050919050565b60008073ffffffffffffffffffffffffffffffffffffffff166002600084815260200190815260200160002060009054906101000a900473ffffffffffffffffffffffffffffffffffffffff1673ffffffffffffffffffffffffffffffffffffffff1614159050919050565b600033905090565b816004600083815260200190815260200160002060006101000a81548173ffffffffffffffffffffffffffffffffffffffff021916908373ffffffffffffffffffffffffffffffffffffffff160217905550808273ffffffffffffffffffffffffffffffffffffffff1661186483610c26565b73ffffffffffffffffffffffffffffffffffffffff167f8c5be1e5ebec7d5bd14f71427d1e84f3dd0314c0f7b2291e5b200ac8c7c3b92560405160405180910390a45050565b80600c600084815260200190815260200160002090805190602001906118d19291906125ca565b505050565b60006118e18261177d565b611920576040517f08c379a0000000000000000000000000000000000000000000000000000000008152600401611917906138ea565b60405180910390fd5b600061192b83610c26565b90508073ffffffffffffffffffffffffffffffffffffffff168473ffffffffffffffffffffffffffffffffffffffff16148061199a57508373ffffffffffffffffffffffffffffffffffffffff16611982846105b2565b73ffffffffffffffffffffffffffffffffffffffff16145b806119ab57506119aa8185611544565b5b91505092915050565b8273ffffffffffffffffffffffffffffffffffffffff166119d482610c26565b73ffffffffffffffffffffffffffffffffffffffff1614611a2a576040517f08c379a0000000000000000000000000000000000000000000000000000000008152600401611a219061397c565b60405180910390fd5b600073ffffffffffffffffffffffffffffffffffffffff168273ffffffffffffffffffffffffffffffffffffffff161415611a9a576040517f08c379a0000000000000000000000000000000000000000000000000000000008152600401611a9190613a0e565b60405180910390fd5b611aa5838383611fd9565b611ab06000826117f1565b6001600360008573ffffffffffffffffffffffffffffffffffffffff1673ffffffffffffffffffffffffffffffffffffffff1681526020019081526020016000206000828254611b009190613a2e565b925050819055506001600360008473ffffffffffffffffffffffffffffffffffffffff1673ffffffffffffffffffffffffffffffffffffffff1681526020019081526020016000206000828254611b579190613a62565b92505081905550816002600083815260200190815260200160002060006101000a81548173ffffffffffffffffffffffffffffffffffffffff021916908373ffffffffffffffffffffffffffffffffffffffff160217905550808273ffffffffffffffffffffffffffffffffffffffff168473ffffffffffffffffffffffffffffffffffffffff167fddf252ad1be2c89b69c2b068fc378daa952ba7f163c4a11628f55a4df523b3ef60405160405180910390a4505050565b6000611c1b82610c26565b9050611c2981600084611fd9565b611c346000836117f1565b6001600360008373ffffffffffffffffffffffffffffffffffffffff1673ffffffffffffffffffffffffffffffffffffffff1681526020019081526020016000206000828254611c849190613a2e565b925050819055506002600083815260200190815260200160002060006101000a81549073ffffffffffffffffffffffffffffffffffffffff021916905581600073ffffffffffffffffffffffffffffffffffffffff168273ffffffffffffffffffffffffffffffffffffffff167fddf252ad1be2c89b69c2b068fc378daa952ba7f163c4a11628f55a4df523b3ef60405160405180910390a45050565b611d2c8484846119b4565b611d38848484846120ed565b611d77576040517f08c379a0000000000000000000000000000000000000000000000000000000008152600401611d6e90613b2a565b60405180910390fd5b50505050565b600081600001549050919050565b600073ffffffffffffffffffffffffffffffffffffffff168273ffffffffffffffffffffffffffffffffffffffff161415611dfb576040517f08c379a0000000000000000000000000000000000000000000000000000000008152600401611df290613b96565b60405180910390fd5b611e048161177d565b15611e44576040517f08c379a0000000000000000000000000000000000000000000000000000000008152600401611e3b90613c02565b60405180910390fd5b611e5060008383611fd9565b6001600360008473ffffffffffffffffffffffffffffffffffffffff1673ffffffffffffffffffffffffffffffffffffffff1681526020019081526020016000206000828254611ea09190613a62565b92505081905550816002600083815260200190815260200160002060006101000a81548173ffffffffffffffffffffffffffffffffffffffff021916908373ffffffffffffffffffffffffffffffffffffffff160217905550808273ffffffffffffffffffffffffffffffffffffffff16600073ffffffffffffffffffffffffffffffffffffffff167fddf252ad1be2c89b69c2b068fc378daa952ba7f163c4a11628f55a4df523b3ef60405160405180910390a45050565b6001816000016000828254019250508190555050565b60007f01ffc9a7000000000000000000000000000000000000000000000000000000007bffffffffffffffffffffffffffffffffffffffffffffffffffffffff1916827bffffffffffffffffffffffffffffffffffffffffffffffffffffffff1916149050919050565b611fe4838383612284565b600073ffffffffffffffffffffffffffffffffffffffff168373ffffffffffffffffffffffffffffffffffffffff1614156120275761202281612289565b612066565b8173ffffffffffffffffffffffffffffffffffffffff168373ffffffffffffffffffffffffffffffffffffffff16146120655761206483826122d2565b5b5b600073ffffffffffffffffffffffffffffffffffffffff168273ffffffffffffffffffffffffffffffffffffffff1614156120a9576120a48161243f565b6120e8565b8273ffffffffffffffffffffffffffffffffffffffff168273ffffffffffffffffffffffffffffffffffffffff16146120e7576120e68282612510565b5b5b505050565b600061210e8473ffffffffffffffffffffffffffffffffffffffff1661258f565b15612277578373ffffffffffffffffffffffffffffffffffffffff1663150b7a026121376117e9565b8786866040518563ffffffff1660e01b81526004016121599493929190613c77565b602060405180830381600087803b15801561217357600080fd5b505af19250505080156121a457506040513d601f19601f820116820180604052508101906121a19190613cd8565b60015b612227573d80600081146121d4576040519150601f19603f3d011682016040523d82523d6000602084013e6121d9565b606091505b5060008151141561221f576040517f08c379a000000000000000000000000000000000000000000000000000000000815260040161221690613b2a565b60405180910390fd5b805181602001fd5b63150b7a0260e01b7bffffffffffffffffffffffffffffffffffffffffffffffffffffffff1916817bffffffffffffffffffffffffffffffffffffffffffffffffffffffff19161491505061227c565b600190505b949350505050565b505050565b6008805490506009600083815260200190815260200160002081905550600881908060018154018082558091505060019003906000526020600020016000909190919091505550565b600060016122df84610cd8565b6122e99190613a2e565b90506000600760008481526020019081526020016000205490508181146123ce576000600660008673ffffffffffffffffffffffffffffffffffffffff1673ffffffffffffffffffffffffffffffffffffffff168152602001908152602001600020600084815260200190815260200160002054905080600660008773ffffffffffffffffffffffffffffffffffffffff1673ffffffffffffffffffffffffffffffffffffffff168152602001908152602001600020600084815260200190815260200160002081905550816007600083815260200190815260200160002081905550505b6007600084815260200190815260200160002060009055600660008573ffffffffffffffffffffffffffffffffffffffff1673ffffffffffffffffffffffffffffffffffffffff16815260200190815260200160002060008381526020019081526020016000206000905550505050565b600060016008805490506124539190613a2e565b905060006009600084815260200190815260200160002054905060006008838154811061248357612482613582565b5b9060005260206000200154905080600883815481106124a5576124a4613582565b5b9060005260206000200181905550816009600083815260200190815260200160002081905550600960008581526020019081526020016000206000905560088054806124f4576124f3613d05565b5b6001900381819060005260206000200160009055905550505050565b600061251b83610cd8565b905081600660008573ffffffffffffffffffffffffffffffffffffffff1673ffffffffffffffffffffffffffffffffffffffff168152602001908152602001600020600083815260200190815260200160002081905550806007600084815260200190815260200160002081905550505050565b600080823b905060008111915050919050565b6040518060800160405280606081526020016060815260200160608152602001606081525090565b8280546125d690613107565b90600052602060002090601f0160209004810192826125f8576000855561263f565b82601f1061261157805160ff191683800117855561263f565b8280016001018555821561263f579182015b8281111561263e578251825591602001919060010190612623565b5b50905061264c9190612650565b5090565b5b80821115612669576000816000905550600101612651565b5090565b6000604051905090565b600080fd5b600080fd5b60007fffffffff0000000000000000000000000000000000000000000000000000000082169050919050565b6126b681612681565b81146126c157600080fd5b50565b6000813590506126d3816126ad565b92915050565b6000602082840312156126ef576126ee612677565b5b60006126fd848285016126c4565b91505092915050565b60008115159050919050565b61271b81612706565b82525050565b60006020820190506127366000830184612712565b92915050565b600081519050919050565b600082825260208201905092915050565b60005b8381101561277657808201518184015260208101905061275b565b83811115612785576000848401525b50505050565b6000601f19601f8301169050919050565b60006127a78261273c565b6127b18185612747565b93506127c1818560208601612758565b6127ca8161278b565b840191505092915050565b600060208201905081810360008301526127ef818461279c565b905092915050565b6000819050919050565b61280a816127f7565b811461281557600080fd5b50565b60008135905061282781612801565b92915050565b60006020828403121561284357612842612677565b5b600061285184828501612818565b91505092915050565b600073ffffffffffffffffffffffffffffffffffffffff82169050919050565b60006128858261285a565b9050919050565b6128958161287a565b82525050565b60006020820190506128b0600083018461288c565b92915050565b6128bf8161287a565b81146128ca57600080fd5b50565b6000813590506128dc816128b6565b92915050565b600080604083850312156128f9576128f8612677565b5b6000612907858286016128cd565b925050602061291885828601612818565b9150509250929050565b600080fd5b600080fd5b7f4e487b7100000000000000000000000000000000000000000000000000000000600052604160045260246000fd5b6129648261278b565b810181811067ffffffffffffffff821117156129835761298261292c565b5b80604052505050565b600061299661266d565b90506129a2828261295b565b919050565b600067ffffffffffffffff8211156129c2576129c161292c565b5b6129cb8261278b565b9050602081019050919050565b82818337600083830152505050565b60006129fa6129f5846129a7565b61298c565b905082815260208101848484011115612a1657612a15612927565b5b612a218482856129d8565b509392505050565b600082601f830112612a3e57612a3d612922565b5b8135612a4e8482602086016129e7565b91505092915050565b60008060408385031215612a6e57612a6d612677565b5b6000612a7c85828601612818565b925050602083013567ffffffffffffffff811115612a9d57612a9c61267c565b5b612aa985828601612a29565b9150509250929050565b612abc816127f7565b82525050565b6000602082019050612ad76000830184612ab3565b92915050565b600080600060608486031215612af657612af5612677565b5b6000612b04868287016128cd565b9350506020612b15868287016128cd565b9250506040612b2686828701612818565b9150509250925092565b600060208284031215612b4657612b45612677565b5b6000612b54848285016128cd565b91505092915050565b612b6681612706565b8114612b7157600080fd5b50565b600081359050612b8381612b5d565b92915050565b60008060408385031215612ba057612b9f612677565b5b6000612bae858286016128cd565b9250506020612bbf85828601612b74565b9150509250929050565b600067ffffffffffffffff821115612be457612be361292c565b5b612bed8261278b565b9050602081019050919050565b6000612c0d612c0884612bc9565b61298c565b905082815260208101848484011115612c2957612c28612927565b5b612c348482856129d8565b509392505050565b600082601f830112612c5157612c50612922565b5b8135612c61848260208601612bfa565b91505092915050565b60008060008060808587031215612c8457612c83612677565b5b6000612c92878288016128cd565b9450506020612ca3878288016128cd565b9350506040612cb487828801612818565b925050606085013567ffffffffffffffff811115612cd557612cd461267c565b5b612ce187828801612c3c565b91505092959194509250565b600081519050919050565b600082825260208201905092915050565b6000819050602082019050919050565b612d22816127f7565b82525050565b6000612d348383612d19565b60208301905092915050565b6000602082019050919050565b6000612d5882612ced565b612d628185612cf8565b9350612d6d83612d09565b8060005b83811015612d9e578151612d858882612d28565b9750612d9083612d40565b925050600181019050612d71565b5085935050505092915050565b600081519050919050565b600082825260208201905092915050565b6000819050602082019050919050565b600082825260208201905092915050565b6000612df38261273c565b612dfd8185612dd7565b9350612e0d818560208601612758565b612e168161278b565b840191505092915050565b6000612e2d8383612de8565b905092915050565b6000602082019050919050565b6000612e4d82612dab565b612e578185612db6565b935083602082028501612e6985612dc7565b8060005b85811015612ea55784840389528151612e868582612e21565b9450612e9183612e35565b925060208a01995050600181019050612e6d565b50829750879550505050505092915050565b600081519050919050565b600082825260208201905092915050565b6000819050602082019050919050565b612eec8161287a565b82525050565b6000612efe8383612ee3565b60208301905092915050565b6000602082019050919050565b6000612f2282612eb7565b612f2c8185612ec2565b9350612f3783612ed3565b8060005b83811015612f68578151612f4f8882612ef2565b9750612f5a83612f0a565b925050600181019050612f3b565b5085935050505092915050565b60006080830160008301518482036000860152612f928282612d4d565b91505060208301518482036020860152612fac8282612e42565b91505060408301518482036040860152612fc68282612f17565b91505060608301518482036060860152612fe08282612f17565b9150508091505092915050565b600060208201905081810360008301526130078184612f75565b905092915050565b60006020828403121561302557613024612677565b5b600082013567ffffffffffffffff8111156130435761304261267c565b5b61304f84828501612a29565b91505092915050565b6000806040838503121561306f5761306e612677565b5b600061307d858286016128cd565b925050602061308e858286016128cd565b9150509250929050565b600080604083850312156130af576130ae612677565b5b60006130bd85828601612818565b92505060206130ce858286016128cd565b9150509250929050565b7f4e487b7100000000000000000000000000000000000000000000000000000000600052602260045260246000fd5b6000600282049050600182168061311f57607f821691505b60208210811415613133576131326130d8565b5b50919050565b7f4552433732313a20617070726f76656420717565727920666f72206e6f6e657860008201527f697374656e7420746f6b656e0000000000000000000000000000000000000000602082015250565b6000613195602c83612747565b91506131a082613139565b604082019050919050565b600060208201905081810360008301526131c481613188565b9050919050565b7f4552433732313a20617070726f76616c20746f2063757272656e74206f776e6560008201527f7200000000000000000000000000000000000000000000000000000000000000602082015250565b6000613227602183612747565b9150613232826131cb565b604082019050919050565b600060208201905081810360008301526132568161321a565b9050919050565b7f4552433732313a20617070726f76652063616c6c6572206973206e6f74206f7760008201527f6e6572206e6f7220617070726f76656420666f7220616c6c0000000000000000602082015250565b60006132b9603883612747565b91506132c48261325d565b604082019050919050565b600060208201905081810360008301526132e8816132ac565b9050919050565b6000819050919050565b613302816132ef565b811461330d57600080fd5b50565b60008151905061331f816132f9565b92915050565b60006020828403121561333b5761333a612677565b5b600061334984828501613310565b91505092915050565b61335b816132ef565b82525050565b60006040820190506133766000830185613352565b613383602083018461288c565b9392505050565b60008151905061339981612b5d565b92915050565b6000602082840312156133b5576133b4612677565b5b60006133c38482850161338a565b91505092915050565b7f4552433732313a207472616e736665722063616c6c6572206973206e6f74206f60008201527f776e6572206e6f7220617070726f766564000000000000000000000000000000602082015250565b6000613428603183612747565b9150613433826133cc565b604082019050919050565b600060208201905081810360008301526134578161341b565b9050919050565b7f455243373231456e756d657261626c653a206f776e657220696e646578206f7560008201527f74206f6620626f756e6473000000000000000000000000000000000000000000602082015250565b60006134ba602b83612747565b91506134c58261345e565b604082019050919050565b600060208201905081810360008301526134e9816134ad565b9050919050565b7f455243373231456e756d657261626c653a20676c6f62616c20696e646578206f60008201527f7574206f6620626f756e64730000000000000000000000000000000000000000602082015250565b600061354c602c83612747565b9150613557826134f0565b604082019050919050565b6000602082019050818103600083015261357b8161353f565b9050919050565b7f4e487b7100000000000000000000000000000000000000000000000000000000600052603260045260246000fd5b7f4552433732313a206f776e657220717565727920666f72206e6f6e657869737460008201527f656e7420746f6b656e0000000000000000000000000000000000000000000000602082015250565b600061360d602983612747565b9150613618826135b1565b604082019050919050565b6000602082019050818103600083015261363c81613600565b9050919050565b7f4552433732313a2062616c616e636520717565727920666f7220746865207a6560008201527f726f206164647265737300000000000000000000000000000000000000000000602082015250565b600061369f602a83612747565b91506136aa82613643565b604082019050919050565b600060208201905081810360008301526136ce81613692565b9050919050565b7f4552433732313a20617070726f766520746f2063616c6c657200000000000000600082015250565b600061370b601983612747565b9150613716826136d5565b602082019050919050565b6000602082019050818103600083015261373a816136fe565b9050919050565b7f4e487b7100000000000000000000000000000000000000000000000000000000600052601160045260246000fd5b600061377b826127f7565b91507fffffffffffffffffffffffffffffffffffffffffffffffffffffffffffffffff8214156137ae576137ad613741565b5b600182019050919050565b600081905092915050565b60006137cf8261273c565b6137d981856137b9565b93506137e9818560208601612758565b80840191505092915050565b600061380182846137c4565b915081905092915050565b7f4533000000000000000000000000000000000000000000000000000000000000600082015250565b6000613842600283612747565b915061384d8261380c565b602082019050919050565b6000602082019050818103600083015261387181613835565b9050919050565b7f4552433732313a206f70657261746f7220717565727920666f72206e6f6e657860008201527f697374656e7420746f6b656e0000000000000000000000000000000000000000602082015250565b60006138d4602c83612747565b91506138df82613878565b604082019050919050565b60006020820190508181036000830152613903816138c7565b9050919050565b7f4552433732313a207472616e73666572206f6620746f6b656e2074686174206960008201527f73206e6f74206f776e0000000000000000000000000000000000000000000000602082015250565b6000613966602983612747565b91506139718261390a565b604082019050919050565b6000602082019050818103600083015261399581613959565b9050919050565b7f4552433732313a207472616e7366657220746f20746865207a65726f2061646460008201527f7265737300000000000000000000000000000000000000000000000000000000602082015250565b60006139f8602483612747565b9150613a038261399c565b604082019050919050565b60006020820190508181036000830152613a27816139eb565b9050919050565b6000613a39826127f7565b9150613a44836127f7565b925082821015613a5757613a56613741565b5b828203905092915050565b6000613a6d826127f7565b9150613a78836127f7565b9250827fffffffffffffffffffffffffffffffffffffffffffffffffffffffffffffffff03821115613aad57613aac613741565b5b828201905092915050565b7f4552433732313a207472616e7366657220746f206e6f6e20455243373231526560008201527f63656976657220696d706c656d656e7465720000000000000000000000000000602082015250565b6000613b14603283612747565b9150613b1f82613ab8565b604082019050919050565b60006020820190508181036000830152613b4381613b07565b9050919050565b7f4552433732313a206d696e7420746f20746865207a65726f2061646472657373600082015250565b6000613b80602083612747565b9150613b8b82613b4a565b602082019050919050565b60006020820190508181036000830152613baf81613b73565b9050919050565b7f4552433732313a20746f6b656e20616c7265616479206d696e74656400000000600082015250565b6000613bec601c83612747565b9150613bf782613bb6565b602082019050919050565b60006020820190508181036000830152613c1b81613bdf565b9050919050565b600081519050919050565b600082825260208201905092915050565b6000613c4982613c22565b613c538185613c2d565b9350613c63818560208601612758565b613c6c8161278b565b840191505092915050565b6000608082019050613c8c600083018761288c565b613c99602083018661288c565b613ca66040830185612ab3565b8181036060830152613cb88184613c3e565b905095945050505050565b600081519050613cd2816126ad565b92915050565b600060208284031215613cee57613ced612677565b5b6000613cfc84828501613cc3565b91505092915050565b7f4e487b7100000000000000000000000000000000000000000000000000000000600052603160045260246000fdfea26469706673582212206d72b2832a0a38eeaeb06300e54e854b0a4c206fe2d0bb6860302f9a1fb1893e64736f6c63430008090033",
  "immutableReferences": {},
  "source": "// SPDX-License-Identifier: MIT\r\npragma solidity >=0.6.0 <0.9.0;\r\n\r\nimport \"@openzeppelin/contracts/token/ERC721/extensions/ERC721Enumerable.sol\";\r\nimport \"@openzeppelin/contracts/utils/Counters.sol\";\r\n\r\nimport \"./Roles.sol\";\r\n\r\ncontract Vehicle is ERC721Enumerable {\r\n\r\n    using Counters for Counters.Counter;\r\n    Counters.Counter _tokenIds;\r\n\r\n    Roles roles;\r\n\r\n    struct getObject {\r\n        uint[] ids;\r\n        string[] uris;\r\n        address[] owners;\r\n        address[] garages;\r\n    }\r\n\r\n    event NewGarageApproval(uint256 indexed tokenId);\r\n\r\n    mapping(uint256 => string) internal _tokenURIs;\r\n    mapping(string => bool) private _uriRegistered;\r\n    mapping(uint256 => address) private _approvedGarage;\r\n\r\n    constructor(address addr) ERC721(\"Vehicle\", \"VHC\") {\r\n        roles = Roles(addr);\r\n    }\r\n\r\n    function getAllVehicles () \r\n    public\r\n    view\r\n    returns (getObject memory)\r\n    {   \r\n\r\n        getObject memory getObject1;\r\n\r\n\r\n        uint256 totalSupply = totalSupply();\r\n        uint256[] memory ids = new uint256[](totalSupply);\r\n        string[] memory uris = new string[](totalSupply);\r\n        address[] memory owners = new address[](totalSupply);\r\n        address[] memory garages = new address[](totalSupply);\r\n        \r\n        for (uint256 i=0 ; i< totalSupply; i++) {\r\n            uint256 index = tokenByIndex(i);\r\n\r\n            ids[i] = index;\r\n            uris[i] = tokenURI(index);\r\n            owners[i] = ownerOf(index);\r\n            garages[i] = _approvedGarage[index];\r\n        }\r\n\r\n        getObject1.ids = ids;\r\n        getObject1.uris = uris;\r\n        getObject1.owners = owners;\r\n        getObject1.garages = garages;\r\n\r\n        return getObject1;\r\n    }\r\n\r\n\r\n    function tokenURI(uint256 tokenId)\r\n        public\r\n        view\r\n        virtual\r\n        override\r\n        returns (string memory)\r\n    {\r\n        return _tokenURIs[tokenId];\r\n    }\r\n\r\n    function exists(uint256 tokenId) external view returns (bool) {\r\n        return _exists(tokenId);\r\n    }\r\n\r\n    function getApprovedGarage (uint256 tokenId) public view returns (address) {\r\n        return _approvedGarage[tokenId];\r\n    }\r\n\r\n    function setApprovedGarage (uint256 tokenId, address addr) external {\r\n        require(msg.sender == ownerOf(tokenId));\r\n        _approvedGarage[tokenId] = addr;\r\n        emit NewGarageApproval(tokenId);\r\n    }\r\n\r\n    function setTokenURI(uint256 tokenId, string memory _tokenURI) external {\r\n        require (getApprovedGarage(tokenId) == msg.sender);\r\n        require (roles.hasRole(roles.GARAGE_ROLE(), msg.sender));\r\n        _setTokenURI(tokenId, _tokenURI);\r\n        _approvedGarage[tokenId] = 0x0000000000000000000000000000000000000000;\r\n        emit NewGarageApproval(tokenId);\r\n    }\r\n\r\n    function _setTokenURI(uint256 tokenId, string memory _tokenURI) internal {\r\n        _tokenURIs[tokenId] = _tokenURI;\r\n    }\r\n\r\n    function mint(string memory uri) external {\r\n        require(\r\n            roles.isMinterClass(msg.sender)\r\n        );\r\n        require(_uriRegistered[uri] == false, \"E3\");\r\n        uint256 _tokenId = _tokenIds.current();\r\n        _mint(msg.sender, _tokenId);\r\n        _setTokenURI(_tokenId, uri);\r\n        _uriRegistered[uri] = true;\r\n        _tokenIds.increment();\r\n    }\r\n\r\n    function burn(uint256 _tokenId) external {\r\n        require(\r\n            roles.isAuthorityClass(msg.sender)\r\n        );\r\n        _burn(_tokenId);\r\n        _setTokenURI(_tokenId, \"N/A\");\r\n    }\r\n}\r\n",
  "sourcePath": "C:\\mssz\\contracts\\Vehicle.sol",
  "compiler": {
    "name": "solc",
    "version": "0.8.9+commit.e5eed63a.Emscripten.clang"
  },
  "schemaVersion": "3.4.3",
  "updatedAt": "2022-03-16T13:28:08.158Z",
  "networkType": "ethereum",
  "devdoc": {
    "kind": "dev",
    "methods": {
      "approve(address,uint256)": {
        "details": "See {IERC721-approve}."
      },
      "balanceOf(address)": {
        "details": "See {IERC721-balanceOf}."
      },
      "getApproved(uint256)": {
        "details": "See {IERC721-getApproved}."
      },
      "isApprovedForAll(address,address)": {
        "details": "See {IERC721-isApprovedForAll}."
      },
      "name()": {
        "details": "See {IERC721Metadata-name}."
      },
      "ownerOf(uint256)": {
        "details": "See {IERC721-ownerOf}."
      },
      "safeTransferFrom(address,address,uint256)": {
        "details": "See {IERC721-safeTransferFrom}."
      },
      "safeTransferFrom(address,address,uint256,bytes)": {
        "details": "See {IERC721-safeTransferFrom}."
      },
      "setApprovalForAll(address,bool)": {
        "details": "See {IERC721-setApprovalForAll}."
      },
      "supportsInterface(bytes4)": {
        "details": "See {IERC165-supportsInterface}."
      },
      "symbol()": {
        "details": "See {IERC721Metadata-symbol}."
      },
      "tokenByIndex(uint256)": {
        "details": "See {IERC721Enumerable-tokenByIndex}."
      },
      "tokenOfOwnerByIndex(address,uint256)": {
        "details": "See {IERC721Enumerable-tokenOfOwnerByIndex}."
      },
      "tokenURI(uint256)": {
        "details": "See {IERC721Metadata-tokenURI}."
      },
      "totalSupply()": {
        "details": "See {IERC721Enumerable-totalSupply}."
      },
      "transferFrom(address,address,uint256)": {
        "details": "See {IERC721-transferFrom}."
      }
    },
    "version": 1
  },
  "userdoc": {
    "kind": "user",
    "methods": {},
    "version": 1
  }
}