{
  "contractName": "Vehicle",
  "abi": [
    {
      "inputs": [
        {
          "internalType": "address",
          "name": "addr",
          "type": "address"
        }
      ],
      "stateMutability": "nonpayable",
      "type": "constructor"
    },
    {
      "anonymous": false,
      "inputs": [
        {
          "indexed": true,
          "internalType": "address",
          "name": "owner",
          "type": "address"
        },
        {
          "indexed": true,
          "internalType": "address",
          "name": "approved",
          "type": "address"
        },
        {
          "indexed": true,
          "internalType": "uint256",
          "name": "tokenId",
          "type": "uint256"
        }
      ],
      "name": "Approval",
      "type": "event"
    },
    {
      "anonymous": false,
      "inputs": [
        {
          "indexed": true,
          "internalType": "address",
          "name": "owner",
          "type": "address"
        },
        {
          "indexed": true,
          "internalType": "address",
          "name": "operator",
          "type": "address"
        },
        {
          "indexed": false,
          "internalType": "bool",
          "name": "approved",
          "type": "bool"
        }
      ],
      "name": "ApprovalForAll",
      "type": "event"
    },
    {
      "anonymous": false,
      "inputs": [
        {
          "indexed": true,
          "internalType": "uint256",
          "name": "tokenId",
          "type": "uint256"
        }
      ],
      "name": "NewGarageApproval",
      "type": "event"
    },
    {
      "anonymous": false,
      "inputs": [
        {
          "indexed": true,
          "internalType": "address",
          "name": "from",
          "type": "address"
        },
        {
          "indexed": true,
          "internalType": "address",
          "name": "to",
          "type": "address"
        },
        {
          "indexed": true,
          "internalType": "uint256",
          "name": "tokenId",
          "type": "uint256"
        }
      ],
      "name": "Transfer",
      "type": "event"
    },
    {
      "inputs": [
        {
          "internalType": "address",
          "name": "to",
          "type": "address"
        },
        {
          "internalType": "uint256",
          "name": "tokenId",
          "type": "uint256"
        }
      ],
      "name": "approve",
      "outputs": [],
      "stateMutability": "nonpayable",
      "type": "function"
    },
    {
      "inputs": [
        {
          "internalType": "address",
          "name": "owner",
          "type": "address"
        }
      ],
      "name": "balanceOf",
      "outputs": [
        {
          "internalType": "uint256",
          "name": "",
          "type": "uint256"
        }
      ],
      "stateMutability": "view",
      "type": "function",
      "constant": true
    },
    {
      "inputs": [
        {
          "internalType": "uint256",
          "name": "tokenId",
          "type": "uint256"
        }
      ],
      "name": "getApproved",
      "outputs": [
        {
          "internalType": "address",
          "name": "",
          "type": "address"
        }
      ],
      "stateMutability": "view",
      "type": "function",
      "constant": true
    },
    {
      "inputs": [
        {
          "internalType": "address",
          "name": "owner",
          "type": "address"
        },
        {
          "internalType": "address",
          "name": "operator",
          "type": "address"
        }
      ],
      "name": "isApprovedForAll",
      "outputs": [
        {
          "internalType": "bool",
          "name": "",
          "type": "bool"
        }
      ],
      "stateMutability": "view",
      "type": "function",
      "constant": true
    },
    {
      "inputs": [],
      "name": "name",
      "outputs": [
        {
          "internalType": "string",
          "name": "",
          "type": "string"
        }
      ],
      "stateMutability": "view",
      "type": "function",
      "constant": true
    },
    {
      "inputs": [
        {
          "internalType": "uint256",
          "name": "tokenId",
          "type": "uint256"
        }
      ],
      "name": "ownerOf",
      "outputs": [
        {
          "internalType": "address",
          "name": "",
          "type": "address"
        }
      ],
      "stateMutability": "view",
      "type": "function",
      "constant": true
    },
    {
      "inputs": [
        {
          "internalType": "address",
          "name": "from",
          "type": "address"
        },
        {
          "internalType": "address",
          "name": "to",
          "type": "address"
        },
        {
          "internalType": "uint256",
          "name": "tokenId",
          "type": "uint256"
        }
      ],
      "name": "safeTransferFrom",
      "outputs": [],
      "stateMutability": "nonpayable",
      "type": "function"
    },
    {
      "inputs": [
        {
          "internalType": "address",
          "name": "from",
          "type": "address"
        },
        {
          "internalType": "address",
          "name": "to",
          "type": "address"
        },
        {
          "internalType": "uint256",
          "name": "tokenId",
          "type": "uint256"
        },
        {
          "internalType": "bytes",
          "name": "_data",
          "type": "bytes"
        }
      ],
      "name": "safeTransferFrom",
      "outputs": [],
      "stateMutability": "nonpayable",
      "type": "function"
    },
    {
      "inputs": [
        {
          "internalType": "address",
          "name": "operator",
          "type": "address"
        },
        {
          "internalType": "bool",
          "name": "approved",
          "type": "bool"
        }
      ],
      "name": "setApprovalForAll",
      "outputs": [],
      "stateMutability": "nonpayable",
      "type": "function"
    },
    {
      "inputs": [
        {
          "internalType": "bytes4",
          "name": "interfaceId",
          "type": "bytes4"
        }
      ],
      "name": "supportsInterface",
      "outputs": [
        {
          "internalType": "bool",
          "name": "",
          "type": "bool"
        }
      ],
      "stateMutability": "view",
      "type": "function",
      "constant": true
    },
    {
      "inputs": [],
      "name": "symbol",
      "outputs": [
        {
          "internalType": "string",
          "name": "",
          "type": "string"
        }
      ],
      "stateMutability": "view",
      "type": "function",
      "constant": true
    },
    {
      "inputs": [
        {
          "internalType": "uint256",
          "name": "index",
          "type": "uint256"
        }
      ],
      "name": "tokenByIndex",
      "outputs": [
        {
          "internalType": "uint256",
          "name": "",
          "type": "uint256"
        }
      ],
      "stateMutability": "view",
      "type": "function",
      "constant": true
    },
    {
      "inputs": [
        {
          "internalType": "address",
          "name": "owner",
          "type": "address"
        },
        {
          "internalType": "uint256",
          "name": "index",
          "type": "uint256"
        }
      ],
      "name": "tokenOfOwnerByIndex",
      "outputs": [
        {
          "internalType": "uint256",
          "name": "",
          "type": "uint256"
        }
      ],
      "stateMutability": "view",
      "type": "function",
      "constant": true
    },
    {
      "inputs": [],
      "name": "totalSupply",
      "outputs": [
        {
          "internalType": "uint256",
          "name": "",
          "type": "uint256"
        }
      ],
      "stateMutability": "view",
      "type": "function",
      "constant": true
    },
    {
      "inputs": [
        {
          "internalType": "address",
          "name": "from",
          "type": "address"
        },
        {
          "internalType": "address",
          "name": "to",
          "type": "address"
        },
        {
          "internalType": "uint256",
          "name": "tokenId",
          "type": "uint256"
        }
      ],
      "name": "transferFrom",
      "outputs": [],
      "stateMutability": "nonpayable",
      "type": "function"
    },
    {
      "inputs": [
        {
          "internalType": "uint256",
          "name": "tokenId",
          "type": "uint256"
        }
      ],
      "name": "tokenURI",
      "outputs": [
        {
          "internalType": "string",
          "name": "",
          "type": "string"
        }
      ],
      "stateMutability": "view",
      "type": "function",
      "constant": true
    },
    {
      "inputs": [
        {
          "internalType": "uint256",
          "name": "tokenId",
          "type": "uint256"
        }
      ],
      "name": "exists",
      "outputs": [
        {
          "internalType": "bool",
          "name": "",
          "type": "bool"
        }
      ],
      "stateMutability": "view",
      "type": "function",
      "constant": true
    },
    {
      "inputs": [
        {
          "internalType": "uint256",
          "name": "tokenId",
          "type": "uint256"
        }
      ],
      "name": "getApprovedGarage",
      "outputs": [
        {
          "internalType": "address",
          "name": "",
          "type": "address"
        }
      ],
      "stateMutability": "view",
      "type": "function",
      "constant": true
    },
    {
      "inputs": [
        {
          "internalType": "uint256",
          "name": "tokenId",
          "type": "uint256"
        },
        {
          "internalType": "address",
          "name": "addr",
          "type": "address"
        }
      ],
      "name": "setApprovedGarage",
      "outputs": [],
      "stateMutability": "nonpayable",
      "type": "function"
    },
    {
      "inputs": [
        {
          "internalType": "uint256",
          "name": "tokenId",
          "type": "uint256"
        },
        {
          "internalType": "string",
          "name": "_tokenURI",
          "type": "string"
        }
      ],
      "name": "setTokenURI",
      "outputs": [],
      "stateMutability": "nonpayable",
      "type": "function"
    },
    {
      "inputs": [
        {
          "internalType": "string",
          "name": "uri",
          "type": "string"
        }
      ],
      "name": "mint",
      "outputs": [],
      "stateMutability": "nonpayable",
      "type": "function"
    },
    {
      "inputs": [
        {
          "internalType": "uint256",
          "name": "_tokenId",
          "type": "uint256"
        }
      ],
      "name": "burn",
      "outputs": [],
      "stateMutability": "nonpayable",
      "type": "function"
    }
  ],
  "bytecode": "0x60806040523480156200001157600080fd5b50604051620039be380380620039be833981810160405281019062000037919062000239565b6040518060400160405280600781526020017f56656869636c65000000000000000000000000000000000000000000000000008152506040518060400160405280600381526020017f56484300000000000000000000000000000000000000000000000000000000008152508160009080519060200190620000bb9291906200011f565b508060019080519060200190620000d49291906200011f565b50505080600b60006101000a81548173ffffffffffffffffffffffffffffffffffffffff021916908373ffffffffffffffffffffffffffffffffffffffff16021790555050620002d0565b8280546200012d906200029a565b90600052602060002090601f0160209004810192826200015157600085556200019d565b82601f106200016c57805160ff19168380011785556200019d565b828001600101855582156200019d579182015b828111156200019c5782518255916020019190600101906200017f565b5b509050620001ac9190620001b0565b5090565b5b80821115620001cb576000816000905550600101620001b1565b5090565b600080fd5b600073ffffffffffffffffffffffffffffffffffffffff82169050919050565b60006200020182620001d4565b9050919050565b6200021381620001f4565b81146200021f57600080fd5b50565b600081519050620002338162000208565b92915050565b600060208284031215620002525762000251620001cf565b5b6000620002628482850162000222565b91505092915050565b7f4e487b7100000000000000000000000000000000000000000000000000000000600052602260045260246000fd5b60006002820490506001821680620002b357607f821691505b60208210811415620002ca57620002c96200026b565b5b50919050565b6136de80620002e06000396000f3fe608060405234801561001057600080fd5b50600436106101425760003560e01c80634f6ccce7116100b8578063a22cb4651161007c578063a22cb465146103ad578063b88d4fde146103c9578063c87b56dd146103e5578063d85d3d2714610415578063e985e9c514610431578063ff8cf7de1461046157610142565b80634f6ccce7146102cf5780636352211e146102ff57806370a082311461032f57806385fd3cb81461035f57806395d89b411461038f57610142565b806318160ddd1161010a57806318160ddd146101fd57806323b872dd1461021b5780632f745c591461023757806342842e0e1461026757806342966c68146102835780634f558e791461029f57610142565b806301ffc9a71461014757806306fdde0314610177578063081812fc14610195578063095ea7b3146101c5578063162094c4146101e1575b600080fd5b610161600480360381019061015c91906123b8565b61047d565b60405161016e9190612400565b60405180910390f35b61017f6104f7565b60405161018c91906124b4565b60405180910390f35b6101af60048036038101906101aa919061250c565b610589565b6040516101bc919061257a565b60405180910390f35b6101df60048036038101906101da91906125c1565b61060e565b005b6101fb60048036038101906101f69190612736565b610726565b005b610205610949565b60405161021291906127a1565b60405180910390f35b610235600480360381019061023091906127bc565b610956565b005b610251600480360381019061024c91906125c1565b6109b6565b60405161025e91906127a1565b60405180910390f35b610281600480360381019061027c91906127bc565b610a5b565b005b61029d6004803603810190610298919061250c565b610a7b565b005b6102b960048036038101906102b4919061250c565b610b7a565b6040516102c69190612400565b60405180910390f35b6102e960048036038101906102e4919061250c565b610b8c565b6040516102f691906127a1565b60405180910390f35b6103196004803603810190610314919061250c565b610bfd565b604051610326919061257a565b60405180910390f35b6103496004803603810190610344919061280f565b610caf565b60405161035691906127a1565b60405180910390f35b6103796004803603810190610374919061250c565b610d67565b604051610386919061257a565b60405180910390f35b610397610da4565b6040516103a491906124b4565b60405180910390f35b6103c760048036038101906103c29190612868565b610e36565b005b6103e360048036038101906103de9190612949565b610fb7565b005b6103ff60048036038101906103fa919061250c565b611019565b60405161040c91906124b4565b60405180910390f35b61042f600480360381019061042a91906129cc565b6110be565b005b61044b60048036038101906104469190612a15565b61124b565b6040516104589190612400565b60405180910390f35b61047b60048036038101906104769190612a55565b6112df565b005b60007f780e9d63000000000000000000000000000000000000000000000000000000007bffffffffffffffffffffffffffffffffffffffffffffffffffffffff1916827bffffffffffffffffffffffffffffffffffffffffffffffffffffffff191614806104f057506104ef826113a2565b5b9050919050565b60606000805461050690612ac4565b80601f016020809104026020016040519081016040528092919081815260200182805461053290612ac4565b801561057f5780601f106105545761010080835404028352916020019161057f565b820191906000526020600020905b81548152906001019060200180831161056257829003601f168201915b5050505050905090565b600061059482611484565b6105d3576040517f08c379a00000000000000000000000000000000000000000000000000000000081526004016105ca90612b68565b60405180910390fd5b6004600083815260200190815260200160002060009054906101000a900473ffffffffffffffffffffffffffffffffffffffff169050919050565b600061061982610bfd565b90508073ffffffffffffffffffffffffffffffffffffffff168373ffffffffffffffffffffffffffffffffffffffff16141561068a576040517f08c379a000000000000000000000000000000000000000000000000000000000815260040161068190612bfa565b60405180910390fd5b8073ffffffffffffffffffffffffffffffffffffffff166106a96114f0565b73ffffffffffffffffffffffffffffffffffffffff1614806106d857506106d7816106d26114f0565b61124b565b5b610717576040517f08c379a000000000000000000000000000000000000000000000000000000000815260040161070e90612c8c565b60405180910390fd5b61072183836114f8565b505050565b3373ffffffffffffffffffffffffffffffffffffffff1661074683610d67565b73ffffffffffffffffffffffffffffffffffffffff161461076657600080fd5b600b60009054906101000a900473ffffffffffffffffffffffffffffffffffffffff1673ffffffffffffffffffffffffffffffffffffffff166391d14854600b60009054906101000a900473ffffffffffffffffffffffffffffffffffffffff1673ffffffffffffffffffffffffffffffffffffffff16636fd1c4746040518163ffffffff1660e01b815260040160206040518083038186803b15801561080c57600080fd5b505afa158015610820573d6000803e3d6000fd5b505050506040513d601f19601f820116820180604052508101906108449190612ce2565b336040518363ffffffff1660e01b8152600401610862929190612d1e565b60206040518083038186803b15801561087a57600080fd5b505afa15801561088e573d6000803e3d6000fd5b505050506040513d601f19601f820116820180604052508101906108b29190612d5c565b6108bb57600080fd5b6108c582826115b1565b6000600e600084815260200190815260200160002060006101000a81548173ffffffffffffffffffffffffffffffffffffffff021916908373ffffffffffffffffffffffffffffffffffffffff160217905550817fb65bb9ee07c81a87b8e99a1af9c9278708ec662aaec950ca0146d4ea1254698e60405160405180910390a25050565b6000600880549050905090565b6109676109616114f0565b826115dd565b6109a6576040517f08c379a000000000000000000000000000000000000000000000000000000000815260040161099d90612dfb565b60405180910390fd5b6109b18383836116bb565b505050565b60006109c183610caf565b8210610a02576040517f08c379a00000000000000000000000000000000000000000000000000000000081526004016109f990612e8d565b60405180910390fd5b600660008473ffffffffffffffffffffffffffffffffffffffff1673ffffffffffffffffffffffffffffffffffffffff168152602001908152602001600020600083815260200190815260200160002054905092915050565b610a7683838360405180602001604052806000815250610fb7565b505050565b600b60009054906101000a900473ffffffffffffffffffffffffffffffffffffffff1673ffffffffffffffffffffffffffffffffffffffff16632d662a00336040518263ffffffff1660e01b8152600401610ad6919061257a565b60206040518083038186803b158015610aee57600080fd5b505afa158015610b02573d6000803e3d6000fd5b505050506040513d601f19601f82011682018060405250810190610b269190612d5c565b610b2f57600080fd5b610b3881611917565b610b77816040518060400160405280600381526020017f4e2f4100000000000000000000000000000000000000000000000000000000008152506115b1565b50565b6000610b8582611484565b9050919050565b6000610b96610949565b8210610bd7576040517f08c379a0000000000000000000000000000000000000000000000000000000008152600401610bce90612f1f565b60405180910390fd5b60088281548110610beb57610bea612f3f565b5b90600052602060002001549050919050565b6000806002600084815260200190815260200160002060009054906101000a900473ffffffffffffffffffffffffffffffffffffffff169050600073ffffffffffffffffffffffffffffffffffffffff168173ffffffffffffffffffffffffffffffffffffffff161415610ca6576040517f08c379a0000000000000000000000000000000000000000000000000000000008152600401610c9d90612fe0565b60405180910390fd5b80915050919050565b60008073ffffffffffffffffffffffffffffffffffffffff168273ffffffffffffffffffffffffffffffffffffffff161415610d20576040517f08c379a0000000000000000000000000000000000000000000000000000000008152600401610d1790613072565b60405180910390fd5b600360008373ffffffffffffffffffffffffffffffffffffffff1673ffffffffffffffffffffffffffffffffffffffff168152602001908152602001600020549050919050565b6000600e600083815260200190815260200160002060009054906101000a900473ffffffffffffffffffffffffffffffffffffffff169050919050565b606060018054610db390612ac4565b80601f0160208091040260200160405190810160405280929190818152602001828054610ddf90612ac4565b8015610e2c5780601f10610e0157610100808354040283529160200191610e2c565b820191906000526020600020905b815481529060010190602001808311610e0f57829003601f168201915b5050505050905090565b610e3e6114f0565b73ffffffffffffffffffffffffffffffffffffffff168273ffffffffffffffffffffffffffffffffffffffff161415610eac576040517f08c379a0000000000000000000000000000000000000000000000000000000008152600401610ea3906130de565b60405180910390fd5b8060056000610eb96114f0565b73ffffffffffffffffffffffffffffffffffffffff1673ffffffffffffffffffffffffffffffffffffffff16815260200190815260200160002060008473ffffffffffffffffffffffffffffffffffffffff1673ffffffffffffffffffffffffffffffffffffffff16815260200190815260200160002060006101000a81548160ff0219169083151502179055508173ffffffffffffffffffffffffffffffffffffffff16610f666114f0565b73ffffffffffffffffffffffffffffffffffffffff167f17307eab39ab6107e8899845ad3d59bd9653f200f220920489ca2b5937696c3183604051610fab9190612400565b60405180910390a35050565b610fc8610fc26114f0565b836115dd565b611007576040517f08c379a0000000000000000000000000000000000000000000000000000000008152600401610ffe90612dfb565b60405180910390fd5b61101384848484611a28565b50505050565b6060600c6000838152602001908152602001600020805461103990612ac4565b80601f016020809104026020016040519081016040528092919081815260200182805461106590612ac4565b80156110b25780601f10611087576101008083540402835291602001916110b2565b820191906000526020600020905b81548152906001019060200180831161109557829003601f168201915b50505050509050919050565b600b60009054906101000a900473ffffffffffffffffffffffffffffffffffffffff1673ffffffffffffffffffffffffffffffffffffffff1663f77732fb336040518263ffffffff1660e01b8152600401611119919061257a565b60206040518083038186803b15801561113157600080fd5b505afa158015611145573d6000803e3d6000fd5b505050506040513d601f19601f820116820180604052508101906111699190612d5c565b61117257600080fd5b60001515600d82604051611186919061313a565b908152602001604051809103902060009054906101000a900460ff161515146111e4576040517f08c379a00000000000000000000000000000000000000000000000000000000081526004016111db9061319d565b60405180910390fd5b60006111f0600a611a84565b90506111fc3382611a92565b61120681836115b1565b6001600d83604051611218919061313a565b908152602001604051809103902060006101000a81548160ff021916908315150217905550611247600a611c60565b5050565b6000600560008473ffffffffffffffffffffffffffffffffffffffff1673ffffffffffffffffffffffffffffffffffffffff16815260200190815260200160002060008373ffffffffffffffffffffffffffffffffffffffff1673ffffffffffffffffffffffffffffffffffffffff16815260200190815260200160002060009054906101000a900460ff16905092915050565b6112e882610bfd565b73ffffffffffffffffffffffffffffffffffffffff163373ffffffffffffffffffffffffffffffffffffffff161461131f57600080fd5b80600e600084815260200190815260200160002060006101000a81548173ffffffffffffffffffffffffffffffffffffffff021916908373ffffffffffffffffffffffffffffffffffffffff160217905550817fb65bb9ee07c81a87b8e99a1af9c9278708ec662aaec950ca0146d4ea1254698e60405160405180910390a25050565b60007f80ac58cd000000000000000000000000000000000000000000000000000000007bffffffffffffffffffffffffffffffffffffffffffffffffffffffff1916827bffffffffffffffffffffffffffffffffffffffffffffffffffffffff1916148061146d57507f5b5e139f000000000000000000000000000000000000000000000000000000007bffffffffffffffffffffffffffffffffffffffffffffffffffffffff1916827bffffffffffffffffffffffffffffffffffffffffffffffffffffffff1916145b8061147d575061147c82611c76565b5b9050919050565b60008073ffffffffffffffffffffffffffffffffffffffff166002600084815260200190815260200160002060009054906101000a900473ffffffffffffffffffffffffffffffffffffffff1673ffffffffffffffffffffffffffffffffffffffff1614159050919050565b600033905090565b816004600083815260200190815260200160002060006101000a81548173ffffffffffffffffffffffffffffffffffffffff021916908373ffffffffffffffffffffffffffffffffffffffff160217905550808273ffffffffffffffffffffffffffffffffffffffff1661156b83610bfd565b73ffffffffffffffffffffffffffffffffffffffff167f8c5be1e5ebec7d5bd14f71427d1e84f3dd0314c0f7b2291e5b200ac8c7c3b92560405160405180910390a45050565b80600c600084815260200190815260200160002090805190602001906115d89291906122a9565b505050565b60006115e882611484565b611627576040517f08c379a000000000000000000000000000000000000000000000000000000000815260040161161e9061322f565b60405180910390fd5b600061163283610bfd565b90508073ffffffffffffffffffffffffffffffffffffffff168473ffffffffffffffffffffffffffffffffffffffff1614806116a157508373ffffffffffffffffffffffffffffffffffffffff1661168984610589565b73ffffffffffffffffffffffffffffffffffffffff16145b806116b257506116b1818561124b565b5b91505092915050565b8273ffffffffffffffffffffffffffffffffffffffff166116db82610bfd565b73ffffffffffffffffffffffffffffffffffffffff1614611731576040517f08c379a0000000000000000000000000000000000000000000000000000000008152600401611728906132c1565b60405180910390fd5b600073ffffffffffffffffffffffffffffffffffffffff168273ffffffffffffffffffffffffffffffffffffffff1614156117a1576040517f08c379a000000000000000000000000000000000000000000000000000000000815260040161179890613353565b60405180910390fd5b6117ac838383611ce0565b6117b76000826114f8565b6001600360008573ffffffffffffffffffffffffffffffffffffffff1673ffffffffffffffffffffffffffffffffffffffff168152602001908152602001600020600082825461180791906133a2565b925050819055506001600360008473ffffffffffffffffffffffffffffffffffffffff1673ffffffffffffffffffffffffffffffffffffffff168152602001908152602001600020600082825461185e91906133d6565b92505081905550816002600083815260200190815260200160002060006101000a81548173ffffffffffffffffffffffffffffffffffffffff021916908373ffffffffffffffffffffffffffffffffffffffff160217905550808273ffffffffffffffffffffffffffffffffffffffff168473ffffffffffffffffffffffffffffffffffffffff167fddf252ad1be2c89b69c2b068fc378daa952ba7f163c4a11628f55a4df523b3ef60405160405180910390a4505050565b600061192282610bfd565b905061193081600084611ce0565b61193b6000836114f8565b6001600360008373ffffffffffffffffffffffffffffffffffffffff1673ffffffffffffffffffffffffffffffffffffffff168152602001908152602001600020600082825461198b91906133a2565b925050819055506002600083815260200190815260200160002060006101000a81549073ffffffffffffffffffffffffffffffffffffffff021916905581600073ffffffffffffffffffffffffffffffffffffffff168273ffffffffffffffffffffffffffffffffffffffff167fddf252ad1be2c89b69c2b068fc378daa952ba7f163c4a11628f55a4df523b3ef60405160405180910390a45050565b611a338484846116bb565b611a3f84848484611df4565b611a7e576040517f08c379a0000000000000000000000000000000000000000000000000000000008152600401611a759061349e565b60405180910390fd5b50505050565b600081600001549050919050565b600073ffffffffffffffffffffffffffffffffffffffff168273ffffffffffffffffffffffffffffffffffffffff161415611b02576040517f08c379a0000000000000000000000000000000000000000000000000000000008152600401611af99061350a565b60405180910390fd5b611b0b81611484565b15611b4b576040517f08c379a0000000000000000000000000000000000000000000000000000000008152600401611b4290613576565b60405180910390fd5b611b5760008383611ce0565b6001600360008473ffffffffffffffffffffffffffffffffffffffff1673ffffffffffffffffffffffffffffffffffffffff1681526020019081526020016000206000828254611ba791906133d6565b92505081905550816002600083815260200190815260200160002060006101000a81548173ffffffffffffffffffffffffffffffffffffffff021916908373ffffffffffffffffffffffffffffffffffffffff160217905550808273ffffffffffffffffffffffffffffffffffffffff16600073ffffffffffffffffffffffffffffffffffffffff167fddf252ad1be2c89b69c2b068fc378daa952ba7f163c4a11628f55a4df523b3ef60405160405180910390a45050565b6001816000016000828254019250508190555050565b60007f01ffc9a7000000000000000000000000000000000000000000000000000000007bffffffffffffffffffffffffffffffffffffffffffffffffffffffff1916827bffffffffffffffffffffffffffffffffffffffffffffffffffffffff1916149050919050565b611ceb838383611f8b565b600073ffffffffffffffffffffffffffffffffffffffff168373ffffffffffffffffffffffffffffffffffffffff161415611d2e57611d2981611f90565b611d6d565b8173ffffffffffffffffffffffffffffffffffffffff168373ffffffffffffffffffffffffffffffffffffffff1614611d6c57611d6b8382611fd9565b5b5b600073ffffffffffffffffffffffffffffffffffffffff168273ffffffffffffffffffffffffffffffffffffffff161415611db057611dab81612146565b611def565b8273ffffffffffffffffffffffffffffffffffffffff168273ffffffffffffffffffffffffffffffffffffffff1614611dee57611ded8282612217565b5b5b505050565b6000611e158473ffffffffffffffffffffffffffffffffffffffff16612296565b15611f7e578373ffffffffffffffffffffffffffffffffffffffff1663150b7a02611e3e6114f0565b8786866040518563ffffffff1660e01b8152600401611e6094939291906135eb565b602060405180830381600087803b158015611e7a57600080fd5b505af1925050508015611eab57506040513d601f19601f82011682018060405250810190611ea8919061364c565b60015b611f2e573d8060008114611edb576040519150601f19603f3d011682016040523d82523d6000602084013e611ee0565b606091505b50600081511415611f26576040517f08c379a0000000000000000000000000000000000000000000000000000000008152600401611f1d9061349e565b60405180910390fd5b805181602001fd5b63150b7a0260e01b7bffffffffffffffffffffffffffffffffffffffffffffffffffffffff1916817bffffffffffffffffffffffffffffffffffffffffffffffffffffffff191614915050611f83565b600190505b949350505050565b505050565b6008805490506009600083815260200190815260200160002081905550600881908060018154018082558091505060019003906000526020600020016000909190919091505550565b60006001611fe684610caf565b611ff091906133a2565b90506000600760008481526020019081526020016000205490508181146120d5576000600660008673ffffffffffffffffffffffffffffffffffffffff1673ffffffffffffffffffffffffffffffffffffffff168152602001908152602001600020600084815260200190815260200160002054905080600660008773ffffffffffffffffffffffffffffffffffffffff1673ffffffffffffffffffffffffffffffffffffffff168152602001908152602001600020600084815260200190815260200160002081905550816007600083815260200190815260200160002081905550505b6007600084815260200190815260200160002060009055600660008573ffffffffffffffffffffffffffffffffffffffff1673ffffffffffffffffffffffffffffffffffffffff16815260200190815260200160002060008381526020019081526020016000206000905550505050565b6000600160088054905061215a91906133a2565b905060006009600084815260200190815260200160002054905060006008838154811061218a57612189612f3f565b5b9060005260206000200154905080600883815481106121ac576121ab612f3f565b5b9060005260206000200181905550816009600083815260200190815260200160002081905550600960008581526020019081526020016000206000905560088054806121fb576121fa613679565b5b6001900381819060005260206000200160009055905550505050565b600061222283610caf565b905081600660008573ffffffffffffffffffffffffffffffffffffffff1673ffffffffffffffffffffffffffffffffffffffff168152602001908152602001600020600083815260200190815260200160002081905550806007600084815260200190815260200160002081905550505050565b600080823b905060008111915050919050565b8280546122b590612ac4565b90600052602060002090601f0160209004810192826122d7576000855561231e565b82601f106122f057805160ff191683800117855561231e565b8280016001018555821561231e579182015b8281111561231d578251825591602001919060010190612302565b5b50905061232b919061232f565b5090565b5b80821115612348576000816000905550600101612330565b5090565b6000604051905090565b600080fd5b600080fd5b60007fffffffff0000000000000000000000000000000000000000000000000000000082169050919050565b61239581612360565b81146123a057600080fd5b50565b6000813590506123b28161238c565b92915050565b6000602082840312156123ce576123cd612356565b5b60006123dc848285016123a3565b91505092915050565b60008115159050919050565b6123fa816123e5565b82525050565b600060208201905061241560008301846123f1565b92915050565b600081519050919050565b600082825260208201905092915050565b60005b8381101561245557808201518184015260208101905061243a565b83811115612464576000848401525b50505050565b6000601f19601f8301169050919050565b60006124868261241b565b6124908185612426565b93506124a0818560208601612437565b6124a98161246a565b840191505092915050565b600060208201905081810360008301526124ce818461247b565b905092915050565b6000819050919050565b6124e9816124d6565b81146124f457600080fd5b50565b600081359050612506816124e0565b92915050565b60006020828403121561252257612521612356565b5b6000612530848285016124f7565b91505092915050565b600073ffffffffffffffffffffffffffffffffffffffff82169050919050565b600061256482612539565b9050919050565b61257481612559565b82525050565b600060208201905061258f600083018461256b565b92915050565b61259e81612559565b81146125a957600080fd5b50565b6000813590506125bb81612595565b92915050565b600080604083850312156125d8576125d7612356565b5b60006125e6858286016125ac565b92505060206125f7858286016124f7565b9150509250929050565b600080fd5b600080fd5b7f4e487b7100000000000000000000000000000000000000000000000000000000600052604160045260246000fd5b6126438261246a565b810181811067ffffffffffffffff821117156126625761266161260b565b5b80604052505050565b600061267561234c565b9050612681828261263a565b919050565b600067ffffffffffffffff8211156126a1576126a061260b565b5b6126aa8261246a565b9050602081019050919050565b82818337600083830152505050565b60006126d96126d484612686565b61266b565b9050828152602081018484840111156126f5576126f4612606565b5b6127008482856126b7565b509392505050565b600082601f83011261271d5761271c612601565b5b813561272d8482602086016126c6565b91505092915050565b6000806040838503121561274d5761274c612356565b5b600061275b858286016124f7565b925050602083013567ffffffffffffffff81111561277c5761277b61235b565b5b61278885828601612708565b9150509250929050565b61279b816124d6565b82525050565b60006020820190506127b66000830184612792565b92915050565b6000806000606084860312156127d5576127d4612356565b5b60006127e3868287016125ac565b93505060206127f4868287016125ac565b9250506040612805868287016124f7565b9150509250925092565b60006020828403121561282557612824612356565b5b6000612833848285016125ac565b91505092915050565b612845816123e5565b811461285057600080fd5b50565b6000813590506128628161283c565b92915050565b6000806040838503121561287f5761287e612356565b5b600061288d858286016125ac565b925050602061289e85828601612853565b9150509250929050565b600067ffffffffffffffff8211156128c3576128c261260b565b5b6128cc8261246a565b9050602081019050919050565b60006128ec6128e7846128a8565b61266b565b90508281526020810184848401111561290857612907612606565b5b6129138482856126b7565b509392505050565b600082601f8301126129305761292f612601565b5b81356129408482602086016128d9565b91505092915050565b6000806000806080858703121561296357612962612356565b5b6000612971878288016125ac565b9450506020612982878288016125ac565b9350506040612993878288016124f7565b925050606085013567ffffffffffffffff8111156129b4576129b361235b565b5b6129c08782880161291b565b91505092959194509250565b6000602082840312156129e2576129e1612356565b5b600082013567ffffffffffffffff811115612a00576129ff61235b565b5b612a0c84828501612708565b91505092915050565b60008060408385031215612a2c57612a2b612356565b5b6000612a3a858286016125ac565b9250506020612a4b858286016125ac565b9150509250929050565b60008060408385031215612a6c57612a6b612356565b5b6000612a7a858286016124f7565b9250506020612a8b858286016125ac565b9150509250929050565b7f4e487b7100000000000000000000000000000000000000000000000000000000600052602260045260246000fd5b60006002820490506001821680612adc57607f821691505b60208210811415612af057612aef612a95565b5b50919050565b7f4552433732313a20617070726f76656420717565727920666f72206e6f6e657860008201527f697374656e7420746f6b656e0000000000000000000000000000000000000000602082015250565b6000612b52602c83612426565b9150612b5d82612af6565b604082019050919050565b60006020820190508181036000830152612b8181612b45565b9050919050565b7f4552433732313a20617070726f76616c20746f2063757272656e74206f776e6560008201527f7200000000000000000000000000000000000000000000000000000000000000602082015250565b6000612be4602183612426565b9150612bef82612b88565b604082019050919050565b60006020820190508181036000830152612c1381612bd7565b9050919050565b7f4552433732313a20617070726f76652063616c6c6572206973206e6f74206f7760008201527f6e6572206e6f7220617070726f76656420666f7220616c6c0000000000000000602082015250565b6000612c76603883612426565b9150612c8182612c1a565b604082019050919050565b60006020820190508181036000830152612ca581612c69565b9050919050565b6000819050919050565b612cbf81612cac565b8114612cca57600080fd5b50565b600081519050612cdc81612cb6565b92915050565b600060208284031215612cf857612cf7612356565b5b6000612d0684828501612ccd565b91505092915050565b612d1881612cac565b82525050565b6000604082019050612d336000830185612d0f565b612d40602083018461256b565b9392505050565b600081519050612d568161283c565b92915050565b600060208284031215612d7257612d71612356565b5b6000612d8084828501612d47565b91505092915050565b7f4552433732313a207472616e736665722063616c6c6572206973206e6f74206f60008201527f776e6572206e6f7220617070726f766564000000000000000000000000000000602082015250565b6000612de5603183612426565b9150612df082612d89565b604082019050919050565b60006020820190508181036000830152612e1481612dd8565b9050919050565b7f455243373231456e756d657261626c653a206f776e657220696e646578206f7560008201527f74206f6620626f756e6473000000000000000000000000000000000000000000602082015250565b6000612e77602b83612426565b9150612e8282612e1b565b604082019050919050565b60006020820190508181036000830152612ea681612e6a565b9050919050565b7f455243373231456e756d657261626c653a20676c6f62616c20696e646578206f60008201527f7574206f6620626f756e64730000000000000000000000000000000000000000602082015250565b6000612f09602c83612426565b9150612f1482612ead565b604082019050919050565b60006020820190508181036000830152612f3881612efc565b9050919050565b7f4e487b7100000000000000000000000000000000000000000000000000000000600052603260045260246000fd5b7f4552433732313a206f776e657220717565727920666f72206e6f6e657869737460008201527f656e7420746f6b656e0000000000000000000000000000000000000000000000602082015250565b6000612fca602983612426565b9150612fd582612f6e565b604082019050919050565b60006020820190508181036000830152612ff981612fbd565b9050919050565b7f4552433732313a2062616c616e636520717565727920666f7220746865207a6560008201527f726f206164647265737300000000000000000000000000000000000000000000602082015250565b600061305c602a83612426565b915061306782613000565b604082019050919050565b6000602082019050818103600083015261308b8161304f565b9050919050565b7f4552433732313a20617070726f766520746f2063616c6c657200000000000000600082015250565b60006130c8601983612426565b91506130d382613092565b602082019050919050565b600060208201905081810360008301526130f7816130bb565b9050919050565b600081905092915050565b60006131148261241b565b61311e81856130fe565b935061312e818560208601612437565b80840191505092915050565b60006131468284613109565b915081905092915050565b7f4533000000000000000000000000000000000000000000000000000000000000600082015250565b6000613187600283612426565b915061319282613151565b602082019050919050565b600060208201905081810360008301526131b68161317a565b9050919050565b7f4552433732313a206f70657261746f7220717565727920666f72206e6f6e657860008201527f697374656e7420746f6b656e0000000000000000000000000000000000000000602082015250565b6000613219602c83612426565b9150613224826131bd565b604082019050919050565b600060208201905081810360008301526132488161320c565b9050919050565b7f4552433732313a207472616e73666572206f6620746f6b656e2074686174206960008201527f73206e6f74206f776e0000000000000000000000000000000000000000000000602082015250565b60006132ab602983612426565b91506132b68261324f565b604082019050919050565b600060208201905081810360008301526132da8161329e565b9050919050565b7f4552433732313a207472616e7366657220746f20746865207a65726f2061646460008201527f7265737300000000000000000000000000000000000000000000000000000000602082015250565b600061333d602483612426565b9150613348826132e1565b604082019050919050565b6000602082019050818103600083015261336c81613330565b9050919050565b7f4e487b7100000000000000000000000000000000000000000000000000000000600052601160045260246000fd5b60006133ad826124d6565b91506133b8836124d6565b9250828210156133cb576133ca613373565b5b828203905092915050565b60006133e1826124d6565b91506133ec836124d6565b9250827fffffffffffffffffffffffffffffffffffffffffffffffffffffffffffffffff0382111561342157613420613373565b5b828201905092915050565b7f4552433732313a207472616e7366657220746f206e6f6e20455243373231526560008201527f63656976657220696d706c656d656e7465720000000000000000000000000000602082015250565b6000613488603283612426565b91506134938261342c565b604082019050919050565b600060208201905081810360008301526134b78161347b565b9050919050565b7f4552433732313a206d696e7420746f20746865207a65726f2061646472657373600082015250565b60006134f4602083612426565b91506134ff826134be565b602082019050919050565b60006020820190508181036000830152613523816134e7565b9050919050565b7f4552433732313a20746f6b656e20616c7265616479206d696e74656400000000600082015250565b6000613560601c83612426565b915061356b8261352a565b602082019050919050565b6000602082019050818103600083015261358f81613553565b9050919050565b600081519050919050565b600082825260208201905092915050565b60006135bd82613596565b6135c781856135a1565b93506135d7818560208601612437565b6135e08161246a565b840191505092915050565b6000608082019050613600600083018761256b565b61360d602083018661256b565b61361a6040830185612792565b818103606083015261362c81846135b2565b905095945050505050565b6000815190506136468161238c565b92915050565b60006020828403121561366257613661612356565b5b600061367084828501613637565b91505092915050565b7f4e487b7100000000000000000000000000000000000000000000000000000000600052603160045260246000fdfea2646970667358221220f2cb74c2c7d96e973f11bf33b233815497b9291bc72ca8caa5ff775c0f6bbba564736f6c63430008090033",
  "immutableReferences": {},
  "source": "// SPDX-License-Identifier: MIT\r\npragma solidity >=0.6.0 <0.9.0;\r\n\r\nimport \"@openzeppelin/contracts/token/ERC721/extensions/ERC721Enumerable.sol\";\r\nimport \"@openzeppelin/contracts/utils/Counters.sol\";\r\n\r\nimport \"./Roles.sol\";\r\n\r\ncontract Vehicle is ERC721Enumerable {\r\n\r\n    using Counters for Counters.Counter;\r\n    Counters.Counter _tokenIds;\r\n\r\n    Roles roles;\r\n\r\n    event NewGarageApproval(uint256 indexed tokenId);\r\n\r\n    mapping(uint256 => string) internal _tokenURIs;\r\n    mapping(string => bool) private _uriRegistered;\r\n    mapping(uint256 => address) private _approvedGarage;\r\n\r\n    constructor(address addr) ERC721(\"Vehicle\", \"VHC\") {\r\n        roles = Roles(addr);\r\n    }\r\n  \r\n    function tokenURI(uint256 tokenId)\r\n        public\r\n        view\r\n        virtual\r\n        override\r\n        returns (string memory)\r\n    {\r\n        return _tokenURIs[tokenId];\r\n    }\r\n\r\n    function exists(uint256 tokenId) external view returns (bool) {\r\n        return _exists(tokenId);\r\n    }\r\n\r\n    function getApprovedGarage (uint256 tokenId) public view returns (address) {\r\n        return _approvedGarage[tokenId];\r\n    }\r\n\r\n    function setApprovedGarage (uint256 tokenId, address addr) external {\r\n        require(msg.sender == ownerOf(tokenId));\r\n        _approvedGarage[tokenId] = addr;\r\n        emit NewGarageApproval(tokenId);\r\n    }\r\n\r\n    function setTokenURI(uint256 tokenId, string memory _tokenURI) external {\r\n        require (getApprovedGarage(tokenId) == msg.sender);\r\n        require (roles.hasRole(roles.GARAGE_ROLE(), msg.sender));\r\n        _setTokenURI(tokenId, _tokenURI);\r\n        _approvedGarage[tokenId] = 0x0000000000000000000000000000000000000000;\r\n        emit NewGarageApproval(tokenId);\r\n    }\r\n\r\n    function _setTokenURI(uint256 tokenId, string memory _tokenURI) internal {\r\n        _tokenURIs[tokenId] = _tokenURI;\r\n    }\r\n\r\n    function mint(string memory uri) external {\r\n        require(\r\n            roles.isMinterClass(msg.sender)\r\n        );\r\n        require(_uriRegistered[uri] == false, \"E3\");\r\n        uint256 _tokenId = _tokenIds.current();\r\n        _mint(msg.sender, _tokenId);\r\n        _setTokenURI(_tokenId, uri);\r\n        _uriRegistered[uri] = true;\r\n        _tokenIds.increment();\r\n    }\r\n\r\n    function burn(uint256 _tokenId) external {\r\n        require(\r\n            roles.isAuthorityClass(msg.sender)\r\n        );\r\n        _burn(_tokenId);\r\n        _setTokenURI(_tokenId, \"N/A\");\r\n    }\r\n}\r\n",
  "sourcePath": "C:\\sgs020\\contracts\\Vehicle.sol",
  "compiler": {
    "name": "solc",
    "version": "0.8.9+commit.e5eed63a.Emscripten.clang"
  },
  "schemaVersion": "3.4.3",
  "updatedAt": "2022-03-09T16:23:58.284Z",
  "networkType": "ethereum",
  "devdoc": {
    "kind": "dev",
    "methods": {
      "approve(address,uint256)": {
        "details": "See {IERC721-approve}."
      },
      "balanceOf(address)": {
        "details": "See {IERC721-balanceOf}."
      },
      "getApproved(uint256)": {
        "details": "See {IERC721-getApproved}."
      },
      "isApprovedForAll(address,address)": {
        "details": "See {IERC721-isApprovedForAll}."
      },
      "name()": {
        "details": "See {IERC721Metadata-name}."
      },
      "ownerOf(uint256)": {
        "details": "See {IERC721-ownerOf}."
      },
      "safeTransferFrom(address,address,uint256)": {
        "details": "See {IERC721-safeTransferFrom}."
      },
      "safeTransferFrom(address,address,uint256,bytes)": {
        "details": "See {IERC721-safeTransferFrom}."
      },
      "setApprovalForAll(address,bool)": {
        "details": "See {IERC721-setApprovalForAll}."
      },
      "supportsInterface(bytes4)": {
        "details": "See {IERC165-supportsInterface}."
      },
      "symbol()": {
        "details": "See {IERC721Metadata-symbol}."
      },
      "tokenByIndex(uint256)": {
        "details": "See {IERC721Enumerable-tokenByIndex}."
      },
      "tokenOfOwnerByIndex(address,uint256)": {
        "details": "See {IERC721Enumerable-tokenOfOwnerByIndex}."
      },
      "tokenURI(uint256)": {
        "details": "See {IERC721Metadata-tokenURI}."
      },
      "totalSupply()": {
        "details": "See {IERC721Enumerable-totalSupply}."
      },
      "transferFrom(address,address,uint256)": {
        "details": "See {IERC721-transferFrom}."
      }
    },
    "version": 1
  },
  "userdoc": {
    "kind": "user",
    "methods": {},
    "version": 1
  }
}