{
  "contractName": "ExternalGateway",
  "abi": [
    {
      "anonymous": false,
      "inputs": [
        {
          "indexed": true,
          "internalType": "address",
          "name": "owner",
          "type": "address"
        },
        {
          "indexed": true,
          "internalType": "address",
          "name": "approved",
          "type": "address"
        },
        {
          "indexed": true,
          "internalType": "uint256",
          "name": "tokenId",
          "type": "uint256"
        }
      ],
      "name": "Approval",
      "type": "event"
    },
    {
      "anonymous": false,
      "inputs": [
        {
          "indexed": true,
          "internalType": "address",
          "name": "owner",
          "type": "address"
        },
        {
          "indexed": true,
          "internalType": "address",
          "name": "operator",
          "type": "address"
        },
        {
          "indexed": false,
          "internalType": "bool",
          "name": "approved",
          "type": "bool"
        }
      ],
      "name": "ApprovalForAll",
      "type": "event"
    },
    {
      "anonymous": false,
      "inputs": [
        {
          "indexed": true,
          "internalType": "uint256",
          "name": "tokenId",
          "type": "uint256"
        }
      ],
      "name": "NewPrice",
      "type": "event"
    },
    {
      "anonymous": false,
      "inputs": [
        {
          "indexed": true,
          "internalType": "uint256",
          "name": "tokenId",
          "type": "uint256"
        }
      ],
      "name": "NewTopBidder",
      "type": "event"
    },
    {
      "anonymous": false,
      "inputs": [
        {
          "indexed": true,
          "internalType": "bytes32",
          "name": "role",
          "type": "bytes32"
        },
        {
          "indexed": true,
          "internalType": "bytes32",
          "name": "previousAdminRole",
          "type": "bytes32"
        },
        {
          "indexed": true,
          "internalType": "bytes32",
          "name": "newAdminRole",
          "type": "bytes32"
        }
      ],
      "name": "RoleAdminChanged",
      "type": "event"
    },
    {
      "anonymous": false,
      "inputs": [
        {
          "indexed": true,
          "internalType": "bytes32",
          "name": "role",
          "type": "bytes32"
        },
        {
          "indexed": true,
          "internalType": "address",
          "name": "account",
          "type": "address"
        },
        {
          "indexed": true,
          "internalType": "address",
          "name": "sender",
          "type": "address"
        }
      ],
      "name": "RoleGranted",
      "type": "event"
    },
    {
      "anonymous": false,
      "inputs": [
        {
          "indexed": true,
          "internalType": "bytes32",
          "name": "role",
          "type": "bytes32"
        },
        {
          "indexed": true,
          "internalType": "address",
          "name": "account",
          "type": "address"
        },
        {
          "indexed": true,
          "internalType": "address",
          "name": "sender",
          "type": "address"
        }
      ],
      "name": "RoleRevoked",
      "type": "event"
    },
    {
      "anonymous": false,
      "inputs": [
        {
          "indexed": true,
          "internalType": "uint256",
          "name": "tokenId",
          "type": "uint256"
        },
        {
          "indexed": false,
          "internalType": "bool",
          "name": "status",
          "type": "bool"
        },
        {
          "indexed": false,
          "internalType": "bool",
          "name": "isAuction",
          "type": "bool"
        }
      ],
      "name": "SaleStatus",
      "type": "event"
    },
    {
      "anonymous": false,
      "inputs": [
        {
          "indexed": true,
          "internalType": "address",
          "name": "from",
          "type": "address"
        },
        {
          "indexed": true,
          "internalType": "address",
          "name": "to",
          "type": "address"
        },
        {
          "indexed": true,
          "internalType": "uint256",
          "name": "tokenId",
          "type": "uint256"
        }
      ],
      "name": "Transfer",
      "type": "event"
    },
    {
      "inputs": [],
      "name": "DEFAULT_ADMIN_ROLE",
      "outputs": [
        {
          "internalType": "bytes32",
          "name": "",
          "type": "bytes32"
        }
      ],
      "stateMutability": "view",
      "type": "function"
    },
    {
      "inputs": [
        {
          "internalType": "address",
          "name": "to",
          "type": "address"
        },
        {
          "internalType": "uint256",
          "name": "tokenId",
          "type": "uint256"
        }
      ],
      "name": "approve",
      "outputs": [],
      "stateMutability": "nonpayable",
      "type": "function"
    },
    {
      "inputs": [
        {
          "internalType": "address",
          "name": "owner",
          "type": "address"
        }
      ],
      "name": "balanceOf",
      "outputs": [
        {
          "internalType": "uint256",
          "name": "",
          "type": "uint256"
        }
      ],
      "stateMutability": "view",
      "type": "function"
    },
    {
      "inputs": [
        {
          "internalType": "uint256",
          "name": "tokenId",
          "type": "uint256"
        }
      ],
      "name": "getApproved",
      "outputs": [
        {
          "internalType": "address",
          "name": "",
          "type": "address"
        }
      ],
      "stateMutability": "view",
      "type": "function"
    },
    {
      "inputs": [
        {
          "internalType": "bytes32",
          "name": "role",
          "type": "bytes32"
        }
      ],
      "name": "getRoleAdmin",
      "outputs": [
        {
          "internalType": "bytes32",
          "name": "",
          "type": "bytes32"
        }
      ],
      "stateMutability": "view",
      "type": "function"
    },
    {
      "inputs": [
        {
          "internalType": "bytes32",
          "name": "role",
          "type": "bytes32"
        },
        {
          "internalType": "address",
          "name": "account",
          "type": "address"
        }
      ],
      "name": "grantRole",
      "outputs": [],
      "stateMutability": "nonpayable",
      "type": "function"
    },
    {
      "inputs": [
        {
          "internalType": "bytes32",
          "name": "role",
          "type": "bytes32"
        },
        {
          "internalType": "address",
          "name": "account",
          "type": "address"
        }
      ],
      "name": "hasRole",
      "outputs": [
        {
          "internalType": "bool",
          "name": "",
          "type": "bool"
        }
      ],
      "stateMutability": "view",
      "type": "function"
    },
    {
      "inputs": [
        {
          "internalType": "address",
          "name": "owner",
          "type": "address"
        },
        {
          "internalType": "address",
          "name": "operator",
          "type": "address"
        }
      ],
      "name": "isApprovedForAll",
      "outputs": [
        {
          "internalType": "bool",
          "name": "",
          "type": "bool"
        }
      ],
      "stateMutability": "view",
      "type": "function"
    },
    {
      "inputs": [],
      "name": "name",
      "outputs": [
        {
          "internalType": "string",
          "name": "",
          "type": "string"
        }
      ],
      "stateMutability": "view",
      "type": "function"
    },
    {
      "inputs": [
        {
          "internalType": "uint256",
          "name": "tokenId",
          "type": "uint256"
        }
      ],
      "name": "ownerOf",
      "outputs": [
        {
          "internalType": "address",
          "name": "",
          "type": "address"
        }
      ],
      "stateMutability": "view",
      "type": "function"
    },
    {
      "inputs": [
        {
          "internalType": "bytes32",
          "name": "role",
          "type": "bytes32"
        },
        {
          "internalType": "address",
          "name": "account",
          "type": "address"
        }
      ],
      "name": "renounceRole",
      "outputs": [],
      "stateMutability": "nonpayable",
      "type": "function"
    },
    {
      "inputs": [
        {
          "internalType": "bytes32",
          "name": "role",
          "type": "bytes32"
        },
        {
          "internalType": "address",
          "name": "account",
          "type": "address"
        }
      ],
      "name": "revokeRole",
      "outputs": [],
      "stateMutability": "nonpayable",
      "type": "function"
    },
    {
      "inputs": [
        {
          "internalType": "address",
          "name": "from",
          "type": "address"
        },
        {
          "internalType": "address",
          "name": "to",
          "type": "address"
        },
        {
          "internalType": "uint256",
          "name": "tokenId",
          "type": "uint256"
        }
      ],
      "name": "safeTransferFrom",
      "outputs": [],
      "stateMutability": "nonpayable",
      "type": "function"
    },
    {
      "inputs": [
        {
          "internalType": "address",
          "name": "from",
          "type": "address"
        },
        {
          "internalType": "address",
          "name": "to",
          "type": "address"
        },
        {
          "internalType": "uint256",
          "name": "tokenId",
          "type": "uint256"
        },
        {
          "internalType": "bytes",
          "name": "_data",
          "type": "bytes"
        }
      ],
      "name": "safeTransferFrom",
      "outputs": [],
      "stateMutability": "nonpayable",
      "type": "function"
    },
    {
      "inputs": [
        {
          "internalType": "address",
          "name": "operator",
          "type": "address"
        },
        {
          "internalType": "bool",
          "name": "approved",
          "type": "bool"
        }
      ],
      "name": "setApprovalForAll",
      "outputs": [],
      "stateMutability": "nonpayable",
      "type": "function"
    },
    {
      "inputs": [
        {
          "internalType": "bytes4",
          "name": "interfaceId",
          "type": "bytes4"
        }
      ],
      "name": "supportsInterface",
      "outputs": [
        {
          "internalType": "bool",
          "name": "",
          "type": "bool"
        }
      ],
      "stateMutability": "view",
      "type": "function"
    },
    {
      "inputs": [],
      "name": "symbol",
      "outputs": [
        {
          "internalType": "string",
          "name": "",
          "type": "string"
        }
      ],
      "stateMutability": "view",
      "type": "function"
    },
    {
      "inputs": [
        {
          "internalType": "uint256",
          "name": "index",
          "type": "uint256"
        }
      ],
      "name": "tokenByIndex",
      "outputs": [
        {
          "internalType": "uint256",
          "name": "",
          "type": "uint256"
        }
      ],
      "stateMutability": "view",
      "type": "function"
    },
    {
      "inputs": [
        {
          "internalType": "address",
          "name": "owner",
          "type": "address"
        },
        {
          "internalType": "uint256",
          "name": "index",
          "type": "uint256"
        }
      ],
      "name": "tokenOfOwnerByIndex",
      "outputs": [
        {
          "internalType": "uint256",
          "name": "",
          "type": "uint256"
        }
      ],
      "stateMutability": "view",
      "type": "function"
    },
    {
      "inputs": [],
      "name": "totalSupply",
      "outputs": [
        {
          "internalType": "uint256",
          "name": "",
          "type": "uint256"
        }
      ],
      "stateMutability": "view",
      "type": "function"
    },
    {
      "inputs": [
        {
          "internalType": "address",
          "name": "from",
          "type": "address"
        },
        {
          "internalType": "address",
          "name": "to",
          "type": "address"
        },
        {
          "internalType": "uint256",
          "name": "tokenId",
          "type": "uint256"
        }
      ],
      "name": "transferFrom",
      "outputs": [],
      "stateMutability": "nonpayable",
      "type": "function"
    },
    {
      "stateMutability": "payable",
      "type": "receive"
    },
    {
      "inputs": [
        {
          "internalType": "uint256",
          "name": "tokenId",
          "type": "uint256"
        }
      ],
      "name": "exists",
      "outputs": [
        {
          "internalType": "bool",
          "name": "",
          "type": "bool"
        }
      ],
      "stateMutability": "view",
      "type": "function"
    },
    {
      "inputs": [
        {
          "internalType": "uint256",
          "name": "tokenId",
          "type": "uint256"
        }
      ],
      "name": "tokenURI",
      "outputs": [
        {
          "internalType": "string",
          "name": "",
          "type": "string"
        }
      ],
      "stateMutability": "view",
      "type": "function"
    },
    {
      "inputs": [
        {
          "internalType": "uint256",
          "name": "tokenId",
          "type": "uint256"
        }
      ],
      "name": "getVehiclePrice",
      "outputs": [
        {
          "internalType": "uint256",
          "name": "",
          "type": "uint256"
        }
      ],
      "stateMutability": "view",
      "type": "function"
    },
    {
      "inputs": [
        {
          "internalType": "uint256",
          "name": "tokenId",
          "type": "uint256"
        }
      ],
      "name": "getTopBidder",
      "outputs": [
        {
          "internalType": "address",
          "name": "",
          "type": "address"
        }
      ],
      "stateMutability": "view",
      "type": "function"
    },
    {
      "inputs": [
        {
          "internalType": "uint256",
          "name": "tokenId",
          "type": "uint256"
        }
      ],
      "name": "isAuction",
      "outputs": [
        {
          "internalType": "bool",
          "name": "",
          "type": "bool"
        }
      ],
      "stateMutability": "view",
      "type": "function"
    },
    {
      "inputs": [
        {
          "internalType": "uint256",
          "name": "tokenId",
          "type": "uint256"
        }
      ],
      "name": "isForSale",
      "outputs": [
        {
          "internalType": "bool",
          "name": "",
          "type": "bool"
        }
      ],
      "stateMutability": "view",
      "type": "function"
    },
    {
      "inputs": [
        {
          "internalType": "uint256",
          "name": "tokenId",
          "type": "uint256"
        }
      ],
      "name": "concludeAuction",
      "outputs": [],
      "stateMutability": "nonpayable",
      "type": "function"
    },
    {
      "inputs": [
        {
          "internalType": "uint256",
          "name": "tokenId",
          "type": "uint256"
        },
        {
          "internalType": "uint256",
          "name": "price",
          "type": "uint256"
        }
      ],
      "name": "listAuction",
      "outputs": [],
      "stateMutability": "nonpayable",
      "type": "function"
    },
    {
      "inputs": [
        {
          "internalType": "uint256",
          "name": "tokenId",
          "type": "uint256"
        },
        {
          "internalType": "uint256",
          "name": "price",
          "type": "uint256"
        }
      ],
      "name": "listForSale",
      "outputs": [],
      "stateMutability": "nonpayable",
      "type": "function"
    },
    {
      "inputs": [
        {
          "internalType": "uint256",
          "name": "tokenId",
          "type": "uint256"
        }
      ],
      "name": "removeFromSale",
      "outputs": [],
      "stateMutability": "nonpayable",
      "type": "function"
    },
    {
      "inputs": [
        {
          "internalType": "uint256",
          "name": "tokenId",
          "type": "uint256"
        },
        {
          "internalType": "uint256",
          "name": "_price",
          "type": "uint256"
        }
      ],
      "name": "setVehiclePrice",
      "outputs": [],
      "stateMutability": "nonpayable",
      "type": "function"
    },
    {
      "inputs": [
        {
          "internalType": "uint256",
          "name": "tokenId",
          "type": "uint256"
        }
      ],
      "name": "buyVehicle",
      "outputs": [],
      "stateMutability": "payable",
      "type": "function"
    },
    {
      "inputs": [
        {
          "internalType": "uint256",
          "name": "tokenId",
          "type": "uint256"
        }
      ],
      "name": "bidVehicle",
      "outputs": [],
      "stateMutability": "payable",
      "type": "function"
    },
    {
      "inputs": [
        {
          "internalType": "string",
          "name": "uri",
          "type": "string"
        }
      ],
      "name": "createVehicle",
      "outputs": [],
      "stateMutability": "nonpayable",
      "type": "function"
    },
    {
      "inputs": [
        {
          "internalType": "uint256",
          "name": "_tokenId",
          "type": "uint256"
        }
      ],
      "name": "destroyVehicle",
      "outputs": [],
      "stateMutability": "nonpayable",
      "type": "function"
    },
    {
      "inputs": [
        {
          "internalType": "uint256",
          "name": "tokenId",
          "type": "uint256"
        }
      ],
      "name": "getOdometerValue",
      "outputs": [
        {
          "internalType": "uint256",
          "name": "",
          "type": "uint256"
        }
      ],
      "stateMutability": "view",
      "type": "function"
    },
    {
      "inputs": [
        {
          "internalType": "uint256",
          "name": "tokenId",
          "type": "uint256"
        },
        {
          "internalType": "uint256",
          "name": "value",
          "type": "uint256"
        }
      ],
      "name": "increaseOdometer",
      "outputs": [],
      "stateMutability": "nonpayable",
      "type": "function"
    },
    {
      "inputs": [
        {
          "internalType": "uint256",
          "name": "tokenId",
          "type": "uint256"
        },
        {
          "internalType": "address",
          "name": "odometer",
          "type": "address"
        }
      ],
      "name": "setOdometerAddress",
      "outputs": [],
      "stateMutability": "nonpayable",
      "type": "function"
    }
  ],
  "bytecode": "0x60806040523480156200001157600080fd5b506040518060400160405280600781526020017f56656869636c65000000000000000000000000000000000000000000000000008152506040518060400160405280600381526020017f5648430000000000000000000000000000000000000000000000000000000000815250816000908051906020019062000096929190620004c2565b508060019080519060200190620000af929190620004c2565b505050620000c76000801b33620002c360201b60201c565b620000f97f11c2020b6b4f4e00c2410234e0c72636b4739cf7cda4d8e24ef6b881350e670433620002c360201b60201c565b6200012b7f9f2df0fed2c77648de5860a4cc508cd0818c85b8b8a1ab4ceeef8d981c8956a633620002c360201b60201c565b6200015d7f6f75c7e45b923a976102cf1173921af9cd14f3a7474f743b14e64b348aa2520d33620002c360201b60201c565b620001927f11c2020b6b4f4e00c2410234e0c72636b4739cf7cda4d8e24ef6b881350e67046000801b620002d960201b60201c565b620001c77f6f75c7e45b923a976102cf1173921af9cd14f3a7474f743b14e64b348aa2520d6000801b620002d960201b60201c565b620002197f9f2df0fed2c77648de5860a4cc508cd0818c85b8b8a1ab4ceeef8d981c8956a67f11c2020b6b4f4e00c2410234e0c72636b4739cf7cda4d8e24ef6b881350e6704620002d960201b60201c565b6200026b7fd565e3fc066df348a5cbc05a8d6323e00552838041cea2d84cc59876ba37735d7f6f75c7e45b923a976102cf1173921af9cd14f3a7474f743b14e64b348aa2520d620002d960201b60201c565b620002bd7f530aa2e706d666af1b04435a2cdfb362347f53ff7899306c42824dce7c19b0f77f6f75c7e45b923a976102cf1173921af9cd14f3a7474f743b14e64b348aa2520d620002d960201b60201c565b620005d7565b620002d582826200033d60201b60201c565b5050565b6000620002ec836200042f60201b60201c565b905081600a6000858152602001908152602001600020600101819055508181847fbd79b86ffe0ab8e8776151514217cd7cacd52c909f66475c3af44e129f0b00ff60405160405180910390a4505050565b6200034f82826200044f60201b60201c565b6200042b576001600a600084815260200190815260200160002060000160008373ffffffffffffffffffffffffffffffffffffffff1673ffffffffffffffffffffffffffffffffffffffff16815260200190815260200160002060006101000a81548160ff021916908315150217905550620003d0620004ba60201b60201c565b73ffffffffffffffffffffffffffffffffffffffff168173ffffffffffffffffffffffffffffffffffffffff16837f2f8788117e7eff1d82e926ec794901d17c78024a50270940304540a733656f0d60405160405180910390a45b5050565b6000600a6000838152602001908152602001600020600101549050919050565b6000600a600084815260200190815260200160002060000160008373ffffffffffffffffffffffffffffffffffffffff1673ffffffffffffffffffffffffffffffffffffffff16815260200190815260200160002060009054906101000a900460ff16905092915050565b600033905090565b828054620004d090620005a1565b90600052602060002090601f016020900481019282620004f4576000855562000540565b82601f106200050f57805160ff191683800117855562000540565b8280016001018555821562000540579182015b828111156200053f57825182559160200191906001019062000522565b5b5090506200054f919062000553565b5090565b5b808211156200056e57600081600090555060010162000554565b5090565b7f4e487b7100000000000000000000000000000000000000000000000000000000600052602260045260246000fd5b60006002820490506001821680620005ba57607f821691505b60208210811415620005d157620005d062000572565b5b50919050565b615d7880620005e76000396000f3fe6080604052600436106102345760003560e01c80634f6ccce71161012e578063b8761301116100ab578063e80d7fec1161006f578063e80d7fec146108b8578063e985e9c5146108e1578063facbbf201461091e578063fcc51fa11461095b578063fec81ee9146109845761023b565b8063b8761301146107e4578063b88d4fde1461080d578063befcfd5914610836578063c87b56dd14610852578063d547741f1461088f5761023b565b80638b79aa20116100f25780638b79aa20146106eb57806391d148541461072857806395d89b4114610765578063a217fddf14610790578063a22cb465146107bb5761023b565b80634f6ccce7146105ba5780636352211e146105f757806370a08231146106345780638546d002146106715780638704f2a3146106ae5761023b565b8063248a9ca3116101bc57806336ce09201161018057806336ce0920146104e6578063375209601461050257806342842e0e1461052b5780634c5210f6146105545780634f558e791461057d5761023b565b8063248a9ca3146103f1578063251781e71461042e5780632f2ff15d146104575780632f745c591461048057806336568abe146104bd5761023b565b8063095ea7b311610203578063095ea7b3146103225780631361a3b61461034b57806318160ddd146103745780632132730e1461039f57806323b872dd146103c85761023b565b806301ffc9a71461024057806304744d081461027d57806306fdde03146102ba578063081812fc146102e55761023b565b3661023b57005b600080fd5b34801561024c57600080fd5b5061026760048036038101906102629190614119565b6109ad565b6040516102749190614161565b60405180910390f35b34801561028957600080fd5b506102a4600480360381019061029f91906141b2565b6109bf565b6040516102b19190614220565b60405180910390f35b3480156102c657600080fd5b506102cf610a1b565b6040516102dc91906142d4565b60405180910390f35b3480156102f157600080fd5b5061030c600480360381019061030791906141b2565b610aad565b6040516103199190614220565b60405180910390f35b34801561032e57600080fd5b5061034960048036038101906103449190614322565b610b32565b005b34801561035757600080fd5b50610372600480360381019061036d91906141b2565b610c4a565b005b34801561038057600080fd5b50610389610d53565b6040516103969190614371565b60405180910390f35b3480156103ab57600080fd5b506103c660048036038101906103c191906144c1565b610d60565b005b3480156103d457600080fd5b506103ef60048036038101906103ea919061450a565b610e96565b005b3480156103fd57600080fd5b5061041860048036038101906104139190614593565b610ef6565b60405161042591906145cf565b60405180910390f35b34801561043a57600080fd5b50610455600480360381019061045091906145ea565b610f16565b005b34801561046357600080fd5b5061047e6004803603810190610479919061462a565b611059565b005b34801561048c57600080fd5b506104a760048036038101906104a29190614322565b611082565b6040516104b49190614371565b60405180910390f35b3480156104c957600080fd5b506104e460048036038101906104df919061462a565b611127565b005b61050060048036038101906104fb91906141b2565b6111aa565b005b34801561050e57600080fd5b50610529600480360381019061052491906141b2565b6112e4565b005b34801561053757600080fd5b50610552600480360381019061054d919061450a565b611367565b005b34801561056057600080fd5b5061057b600480360381019061057691906145ea565b611387565b005b34801561058957600080fd5b506105a4600480360381019061059f91906141b2565b611523565b6040516105b19190614161565b60405180910390f35b3480156105c657600080fd5b506105e160048036038101906105dc91906141b2565b611535565b6040516105ee9190614371565b60405180910390f35b34801561060357600080fd5b5061061e600480360381019061061991906141b2565b6115a6565b60405161062b9190614220565b60405180910390f35b34801561064057600080fd5b5061065b6004803603810190610656919061466a565b611658565b6040516106689190614371565b60405180910390f35b34801561067d57600080fd5b50610698600480360381019061069391906141b2565b611710565b6040516106a59190614161565b60405180910390f35b3480156106ba57600080fd5b506106d560048036038101906106d091906141b2565b611722565b6040516106e29190614161565b60405180910390f35b3480156106f757600080fd5b50610712600480360381019061070d91906141b2565b611734565b60405161071f9190614371565b60405180910390f35b34801561073457600080fd5b5061074f600480360381019061074a919061462a565b611790565b60405161075c9190614161565b60405180910390f35b34801561077157600080fd5b5061077a6117fb565b60405161078791906142d4565b60405180910390f35b34801561079c57600080fd5b506107a561188d565b6040516107b291906145cf565b60405180910390f35b3480156107c757600080fd5b506107e260048036038101906107dd91906146c3565b611894565b005b3480156107f057600080fd5b5061080b600480360381019061080691906141b2565b611a15565b005b34801561081957600080fd5b50610834600480360381019061082f91906147a4565b611b1e565b005b610850600480360381019061084b91906141b2565b611b80565b005b34801561085e57600080fd5b50610879600480360381019061087491906141b2565b611d0f565b60405161088691906142d4565b60405180910390f35b34801561089b57600080fd5b506108b660048036038101906108b1919061462a565b611db4565b005b3480156108c457600080fd5b506108df60048036038101906108da91906145ea565b611ddd565b005b3480156108ed57600080fd5b5061090860048036038101906109039190614827565b611f2f565b6040516109159190614161565b60405180910390f35b34801561092a57600080fd5b50610945600480360381019061094091906141b2565b611fc3565b6040516109529190614371565b60405180910390f35b34801561096757600080fd5b50610982600480360381019061097d91906145ea565b611fe0565b005b34801561099057600080fd5b506109ab60048036038101906109a69190614867565b6120b8565b005b60006109b882612141565b9050919050565b6000816109cb816121bb565b610a0a576040517f08c379a0000000000000000000000000000000000000000000000000000000008152600401610a01906148f3565b60405180910390fd5b610a13836122f3565b915050919050565b606060008054610a2a90614942565b80601f0160208091040260200160405190810160405280929190818152602001828054610a5690614942565b8015610aa35780601f10610a7857610100808354040283529160200191610aa3565b820191906000526020600020905b815481529060010190602001808311610a8657829003601f168201915b5050505050905090565b6000610ab882612330565b610af7576040517f08c379a0000000000000000000000000000000000000000000000000000000008152600401610aee906149e6565b60405180910390fd5b6004600083815260200190815260200160002060009054906101000a900473ffffffffffffffffffffffffffffffffffffffff169050919050565b6000610b3d826115a6565b90508073ffffffffffffffffffffffffffffffffffffffff168373ffffffffffffffffffffffffffffffffffffffff161415610bae576040517f08c379a0000000000000000000000000000000000000000000000000000000008152600401610ba590614a78565b60405180910390fd5b8073ffffffffffffffffffffffffffffffffffffffff16610bcd61239c565b73ffffffffffffffffffffffffffffffffffffffff161480610bfc5750610bfb81610bf661239c565b611f2f565b5b610c3b576040517f08c379a0000000000000000000000000000000000000000000000000000000008152600401610c3290614b0a565b60405180910390fd5b610c4583836123a4565b505050565b80610c548161245d565b610c93576040517f08c379a0000000000000000000000000000000000000000000000000000000008152600401610c8a90614b76565b60405180910390fd5b813373ffffffffffffffffffffffffffffffffffffffff16610cb4826115a6565b73ffffffffffffffffffffffffffffffffffffffff1614610d0a576040517f08c379a0000000000000000000000000000000000000000000000000000000008152600401610d0190614be2565b60405180910390fd5b610d1383612595565b827f6a954bd8417a491685feaae6ddad6ca52234ae6e9e02bbdfea52b463c8513d6a600080604051610d46929190614c02565b60405180910390a2505050565b6000600880549050905090565b6000806001811115610d7557610d74614c2b565b5b816001811115610d8857610d87614c2b565b5b1415610df757610db87f9f2df0fed2c77648de5860a4cc508cd0818c85b8b8a1ab4ceeef8d981c8956a633611790565b80610de95750610de87f11c2020b6b4f4e00c2410234e0c72636b4739cf7cda4d8e24ef6b881350e670433611790565b5b610df257600080fd5b610e89565b600180811115610e0a57610e09614c2b565b5b816001811115610e1d57610e1c614c2b565b5b1415610e8857610e4d7fd565e3fc066df348a5cbc05a8d6323e00552838041cea2d84cc59876ba37735d33611790565b80610e7e5750610e7d7f6f75c7e45b923a976102cf1173921af9cd14f3a7474f743b14e64b348aa2520d33611790565b5b610e8757600080fd5b5b5b610e92826125cf565b5050565b610ea7610ea161239c565b826126a8565b610ee6576040517f08c379a0000000000000000000000000000000000000000000000000000000008152600401610edd90614ccc565b60405180910390fd5b610ef1838383612786565b505050565b6000600a6000838152602001908152602001600020600101549050919050565b813373ffffffffffffffffffffffffffffffffffffffff16610f37826115a6565b73ffffffffffffffffffffffffffffffffffffffff1614610f8d576040517f08c379a0000000000000000000000000000000000000000000000000000000008152600401610f8490614be2565b60405180910390fd5b82610f97816121bb565b15610fd7576040517f08c379a0000000000000000000000000000000000000000000000000000000008152600401610fce90614d38565b60405180910390fd5b826000811161101b576040517f08c379a000000000000000000000000000000000000000000000000000000000815260040161101290614da4565b60405180910390fd5b61102585856129e2565b847f270b316b51ab2cf3a3bb8ca4d22e76a327d05e762fcaa8bd6afaf8cfde9270b760405160405180910390a25050505050565b61106282610ef6565b6110738161106e61239c565b6129fe565b61107d8383612a9b565b505050565b600061108d83611658565b82106110ce576040517f08c379a00000000000000000000000000000000000000000000000000000000081526004016110c590614e36565b60405180910390fd5b600660008473ffffffffffffffffffffffffffffffffffffffff1673ffffffffffffffffffffffffffffffffffffffff168152602001908152602001600020600083815260200190815260200160002054905092915050565b61112f61239c565b73ffffffffffffffffffffffffffffffffffffffff168173ffffffffffffffffffffffffffffffffffffffff161461119c576040517f08c379a000000000000000000000000000000000000000000000000000000000815260040161119390614ec8565b60405180910390fd5b6111a68282612b7c565b5050565b806111b48161245d565b6111f3576040517f08c379a00000000000000000000000000000000000000000000000000000000081526004016111ea90614b76565b60405180910390fd5b816111fd816121bb565b1561123d576040517f08c379a000000000000000000000000000000000000000000000000000000000815260040161123490614d38565b60405180910390fd5b61124683612c5e565b3414611287576040517f08c379a000000000000000000000000000000000000000000000000000000000815260040161127e90614f5a565b60405180910390fd5b61129b611293846115a6565b338534612c7b565b6112a483612595565b827f6a954bd8417a491685feaae6ddad6ca52234ae6e9e02bbdfea52b463c8513d6a6000806040516112d7929190614c02565b60405180910390a2505050565b7f6f75c7e45b923a976102cf1173921af9cd14f3a7474f743b14e64b348aa2520d6113168161131161239c565b6129fe565b61131f82612595565b61132882612d0c565b817f6a954bd8417a491685feaae6ddad6ca52234ae6e9e02bbdfea52b463c8513d6a60008060405161135b929190614c02565b60405180910390a25050565b61138283838360405180602001604052806000815250611b1e565b505050565b813373ffffffffffffffffffffffffffffffffffffffff166113a8826115a6565b73ffffffffffffffffffffffffffffffffffffffff16146113fe576040517f08c379a00000000000000000000000000000000000000000000000000000000081526004016113f590614be2565b60405180910390fd5b826114088161245d565b15611448576040517f08c379a000000000000000000000000000000000000000000000000000000000815260040161143f90614fc6565b60405180910390fd5b83611452816121bb565b15611492576040517f08c379a000000000000000000000000000000000000000000000000000000000815260040161148990614d38565b60405180910390fd5b83600081116114d6576040517f08c379a00000000000000000000000000000000000000000000000000000000081526004016114cd90614da4565b60405180910390fd5b6114e08686612d9b565b857f6a954bd8417a491685feaae6ddad6ca52234ae6e9e02bbdfea52b463c8513d6a600180604051611513929190614c02565b60405180910390a2505050505050565b600061152e82612330565b9050919050565b600061153f610d53565b8210611580576040517f08c379a000000000000000000000000000000000000000000000000000000000815260040161157790615058565b60405180910390fd5b6008828154811061159457611593615078565b5b90600052602060002001549050919050565b6000806002600084815260200190815260200160002060009054906101000a900473ffffffffffffffffffffffffffffffffffffffff169050600073ffffffffffffffffffffffffffffffffffffffff168173ffffffffffffffffffffffffffffffffffffffff16141561164f576040517f08c379a000000000000000000000000000000000000000000000000000000000815260040161164690615119565b60405180910390fd5b80915050919050565b60008073ffffffffffffffffffffffffffffffffffffffff168273ffffffffffffffffffffffffffffffffffffffff1614156116c9576040517f08c379a00000000000000000000000000000000000000000000000000000000081526004016116c0906151ab565b60405180910390fd5b600360008373ffffffffffffffffffffffffffffffffffffffff1673ffffffffffffffffffffffffffffffffffffffff168152602001908152602001600020549050919050565b600061171b8261245d565b9050919050565b600061172d826121bb565b9050919050565b6000816117408161245d565b61177f576040517f08c379a000000000000000000000000000000000000000000000000000000000815260040161177690614b76565b60405180910390fd5b61178883612c5e565b915050919050565b6000600a600084815260200190815260200160002060000160008373ffffffffffffffffffffffffffffffffffffffff1673ffffffffffffffffffffffffffffffffffffffff16815260200190815260200160002060009054906101000a900460ff16905092915050565b60606001805461180a90614942565b80601f016020809104026020016040519081016040528092919081815260200182805461183690614942565b80156118835780601f1061185857610100808354040283529160200191611883565b820191906000526020600020905b81548152906001019060200180831161186657829003601f168201915b5050505050905090565b6000801b81565b61189c61239c565b73ffffffffffffffffffffffffffffffffffffffff168273ffffffffffffffffffffffffffffffffffffffff16141561190a576040517f08c379a000000000000000000000000000000000000000000000000000000000815260040161190190615217565b60405180910390fd5b806005600061191761239c565b73ffffffffffffffffffffffffffffffffffffffff1673ffffffffffffffffffffffffffffffffffffffff16815260200190815260200160002060008473ffffffffffffffffffffffffffffffffffffffff1673ffffffffffffffffffffffffffffffffffffffff16815260200190815260200160002060006101000a81548160ff0219169083151502179055508173ffffffffffffffffffffffffffffffffffffffff166119c461239c565b73ffffffffffffffffffffffffffffffffffffffff167f17307eab39ab6107e8899845ad3d59bd9653f200f220920489ca2b5937696c3183604051611a099190614161565b60405180910390a35050565b803373ffffffffffffffffffffffffffffffffffffffff16611a36826115a6565b73ffffffffffffffffffffffffffffffffffffffff1614611a8c576040517f08c379a0000000000000000000000000000000000000000000000000000000008152600401611a8390614be2565b60405180910390fd5b81611a96816121bb565b611ad5576040517f08c379a0000000000000000000000000000000000000000000000000000000008152600401611acc906148f3565b60405180910390fd5b611ade83612db4565b827f6a954bd8417a491685feaae6ddad6ca52234ae6e9e02bbdfea52b463c8513d6a600080604051611b11929190614c02565b60405180910390a2505050565b611b2f611b2961239c565b836126a8565b611b6e576040517f08c379a0000000000000000000000000000000000000000000000000000000008152600401611b6590614ccc565b60405180910390fd5b611b7a84848484612e25565b50505050565b80611b8a816121bb565b611bc9576040517f08c379a0000000000000000000000000000000000000000000000000000000008152600401611bc0906148f3565b60405180910390fd5b611bd282612c5e565b3411611c13576040517f08c379a0000000000000000000000000000000000000000000000000000000008152600401611c0a906152a9565b60405180910390fd5b611c1c826115a6565b73ffffffffffffffffffffffffffffffffffffffff163373ffffffffffffffffffffffffffffffffffffffff161415611c8a576040517f08c379a0000000000000000000000000000000000000000000000000000000008152600401611c819061533b565b60405180910390fd5b611c943034612e81565b611c9d82612f35565b611ca782346129e2565b611cb18233612fa2565b817f270b316b51ab2cf3a3bb8ca4d22e76a327d05e762fcaa8bd6afaf8cfde9270b760405160405180910390a2817fc95960509dc0aa4c1e2234f4c1313b2a1466421ea6d179fb0714306305b9c1e560405160405180910390a25050565b6060600e60008381526020019081526020016000208054611d2f90614942565b80601f0160208091040260200160405190810160405280929190818152602001828054611d5b90614942565b8015611da85780601f10611d7d57610100808354040283529160200191611da8565b820191906000526020600020905b815481529060010190602001808311611d8b57829003601f168201915b50505050509050919050565b611dbd82610ef6565b611dce81611dc961239c565b6129fe565b611dd88383612b7c565b505050565b813373ffffffffffffffffffffffffffffffffffffffff16611dfe826115a6565b73ffffffffffffffffffffffffffffffffffffffff1614611e54576040517f08c379a0000000000000000000000000000000000000000000000000000000008152600401611e4b90614be2565b60405180910390fd5b82611e5e8161245d565b15611e9e576040517f08c379a0000000000000000000000000000000000000000000000000000000008152600401611e9590614fc6565b60405180910390fd5b8260008111611ee2576040517f08c379a0000000000000000000000000000000000000000000000000000000008152600401611ed990614da4565b60405180910390fd5b611eec8585612ff8565b847f6a954bd8417a491685feaae6ddad6ca52234ae6e9e02bbdfea52b463c8513d6a60016000604051611f20929190614c02565b60405180910390a25050505050565b6000600560008473ffffffffffffffffffffffffffffffffffffffff1673ffffffffffffffffffffffffffffffffffffffff16815260200190815260200160002060008373ffffffffffffffffffffffffffffffffffffffff1673ffffffffffffffffffffffffffffffffffffffff16815260200190815260200160002060009054906101000a900460ff16905092915050565b6000600d6000838152602001908152602001600020549050919050565b7f530aa2e706d666af1b04435a2cdfb362347f53ff7899306c42824dce7c19b0f76120128161200d61239c565b6129fe565b600c600084815260200190815260200160002060009054906101000a900473ffffffffffffffffffffffffffffffffffffffff1673ffffffffffffffffffffffffffffffffffffffff163373ffffffffffffffffffffffffffffffffffffffff161461207d57600080fd5b81600d60008581526020019081526020016000205461209c919061538a565b600d600085815260200190815260200160002081905550505050565b7f6f75c7e45b923a976102cf1173921af9cd14f3a7474f743b14e64b348aa2520d6120ea816120e561239c565b6129fe565b81600c600085815260200190815260200160002060006101000a81548173ffffffffffffffffffffffffffffffffffffffff021916908373ffffffffffffffffffffffffffffffffffffffff160217905550505050565b60007f7965db0b000000000000000000000000000000000000000000000000000000007bffffffffffffffffffffffffffffffffffffffffffffffffffffffff1916827bffffffffffffffffffffffffffffffffffffffffffffffffffffffff191614806121b457506121b382613011565b5b9050919050565b600080600073__BoolBitStorage________________________63f7d1c1dd856040518263ffffffff1660e01b81526004016121f791906153ef565b604080518083038186803b15801561220e57600080fd5b505af4158015612222573d6000803e3d6000fd5b505050506040513d601f19601f82011682018060405250810190612246919061541f565b809250819350505073__BoolBitStorage________________________633ea5d11e6011600085815260200190815260200160002054836040518363ffffffff1660e01b815260040161229a92919061545f565b60206040518083038186803b1580156122b257600080fd5b505af41580156122c6573d6000803e3d6000fd5b505050506040513d601f19601f820116820180604052508101906122ea919061549d565b92505050919050565b60006013600083815260200190815260200160002060009054906101000a900473ffffffffffffffffffffffffffffffffffffffff169050919050565b60008073ffffffffffffffffffffffffffffffffffffffff166002600084815260200190815260200160002060009054906101000a900473ffffffffffffffffffffffffffffffffffffffff1673ffffffffffffffffffffffffffffffffffffffff1614159050919050565b600033905090565b816004600083815260200190815260200160002060006101000a81548173ffffffffffffffffffffffffffffffffffffffff021916908373ffffffffffffffffffffffffffffffffffffffff160217905550808273ffffffffffffffffffffffffffffffffffffffff16612417836115a6565b73ffffffffffffffffffffffffffffffffffffffff167f8c5be1e5ebec7d5bd14f71427d1e84f3dd0314c0f7b2291e5b200ac8c7c3b92560405160405180910390a45050565b600080600073__BoolBitStorage________________________63f7d1c1dd856040518263ffffffff1660e01b815260040161249991906153ef565b604080518083038186803b1580156124b057600080fd5b505af41580156124c4573d6000803e3d6000fd5b505050506040513d601f19601f820116820180604052508101906124e8919061541f565b809250819350505073__BoolBitStorage________________________633ea5d11e6010600085815260200190815260200160002054836040518363ffffffff1660e01b815260040161253c92919061545f565b60206040518083038186803b15801561255457600080fd5b505af4158015612568573d6000803e3d6000fd5b505050506040513d601f19601f8201168201806040525081019061258c919061549d565b92505050919050565b61259e816121bb565b156125c1576125ac81612f35565b6125b58161308b565b6125c08160006130f2565b5b6125cc81600061323e565b50565b60001515600f826040516125e39190615506565b908152602001604051809103902060009054906101000a900460ff16151514612641576040517f08c379a000000000000000000000000000000000000000000000000000000000815260040161263890615569565b60405180910390fd5b600061264d600b61338a565b90506126593382613398565b6126638183613566565b6001600f836040516126759190615506565b908152602001604051809103902060006101000a81548160ff0219169083151502179055506126a4600b613592565b5050565b60006126b382612330565b6126f2576040517f08c379a00000000000000000000000000000000000000000000000000000000081526004016126e9906155fb565b60405180910390fd5b60006126fd836115a6565b90508073ffffffffffffffffffffffffffffffffffffffff168473ffffffffffffffffffffffffffffffffffffffff16148061276c57508373ffffffffffffffffffffffffffffffffffffffff1661275484610aad565b73ffffffffffffffffffffffffffffffffffffffff16145b8061277d575061277c8185611f2f565b5b91505092915050565b8273ffffffffffffffffffffffffffffffffffffffff166127a6826115a6565b73ffffffffffffffffffffffffffffffffffffffff16146127fc576040517f08c379a00000000000000000000000000000000000000000000000000000000081526004016127f39061568d565b60405180910390fd5b600073ffffffffffffffffffffffffffffffffffffffff168273ffffffffffffffffffffffffffffffffffffffff16141561286c576040517f08c379a00000000000000000000000000000000000000000000000000000000081526004016128639061571f565b60405180910390fd5b6128778383836135a8565b6128826000826123a4565b6001600360008573ffffffffffffffffffffffffffffffffffffffff1673ffffffffffffffffffffffffffffffffffffffff16815260200190815260200160002060008282546128d2919061573f565b925050819055506001600360008473ffffffffffffffffffffffffffffffffffffffff1673ffffffffffffffffffffffffffffffffffffffff1681526020019081526020016000206000828254612929919061538a565b92505081905550816002600083815260200190815260200160002060006101000a81548173ffffffffffffffffffffffffffffffffffffffff021916908373ffffffffffffffffffffffffffffffffffffffff160217905550808273ffffffffffffffffffffffffffffffffffffffff168473ffffffffffffffffffffffffffffffffffffffff167fddf252ad1be2c89b69c2b068fc378daa952ba7f163c4a11628f55a4df523b3ef60405160405180910390a4505050565b8060126000848152602001908152602001600020819055505050565b612a088282611790565b612a9757612a2d8173ffffffffffffffffffffffffffffffffffffffff1660146136bc565b612a3b8360001c60206136bc565b604051602001612a4c92919061580b565b6040516020818303038152906040526040517f08c379a0000000000000000000000000000000000000000000000000000000008152600401612a8e91906142d4565b60405180910390fd5b5050565b612aa58282611790565b612b78576001600a600084815260200190815260200160002060000160008373ffffffffffffffffffffffffffffffffffffffff1673ffffffffffffffffffffffffffffffffffffffff16815260200190815260200160002060006101000a81548160ff021916908315150217905550612b1d61239c565b73ffffffffffffffffffffffffffffffffffffffff168173ffffffffffffffffffffffffffffffffffffffff16837f2f8788117e7eff1d82e926ec794901d17c78024a50270940304540a733656f0d60405160405180910390a45b5050565b612b868282611790565b15612c5a576000600a600084815260200190815260200160002060000160008373ffffffffffffffffffffffffffffffffffffffff1673ffffffffffffffffffffffffffffffffffffffff16815260200190815260200160002060006101000a81548160ff021916908315150217905550612bff61239c565b73ffffffffffffffffffffffffffffffffffffffff168173ffffffffffffffffffffffffffffffffffffffff16837ff6391f5c32d9c69d2a47ea670b442974b53935d1edc7fd64eb21e047a839171b60405160405180910390a45b5050565b600060126000838152602001908152602001600020549050919050565b612c858482612e81565b612c90848484612786565b8273ffffffffffffffffffffffffffffffffffffffff16612cb0836115a6565b73ffffffffffffffffffffffffffffffffffffffff1614612d06576040517f08c379a0000000000000000000000000000000000000000000000000000000008152600401612cfd90615891565b60405180910390fd5b50505050565b612d1581612595565b807f6a954bd8417a491685feaae6ddad6ca52234ae6e9e02bbdfea52b463c8513d6a600080604051612d48929190614c02565b60405180910390a2612d59816138f8565b612d98816040518060400160405280600381526020017f4e2f410000000000000000000000000000000000000000000000000000000000815250613566565b50565b612da58282612ff8565b612db08260016130f2565b5050565b6000612dbf826122f3565b9050600073ffffffffffffffffffffffffffffffffffffffff168173ffffffffffffffffffffffffffffffffffffffff161415612dfb57600080fd5b612e0f338284612e0a86612c5e565b612c7b565b612e188261308b565b612e2182612595565b5050565b612e30848484612786565b612e3c84848484613a09565b612e7b576040517f08c379a0000000000000000000000000000000000000000000000000000000008152600401612e7290615923565b60405180910390fd5b50505050565b6000808373ffffffffffffffffffffffffffffffffffffffff1683604051612ea890615974565b60006040518083038185875af1925050503d8060008114612ee5576040519150601f19603f3d011682016040523d82523d6000602084013e612eea565b606091505b509150915081612f2f576040517f08c379a0000000000000000000000000000000000000000000000000000000008152600401612f26906159d5565b60405180910390fd5b50505050565b6000612f40826122f3565b90506000612f4d83612c5e565b905060008114158015612f8d5750600073ffffffffffffffffffffffffffffffffffffffff168273ffffffffffffffffffffffffffffffffffffffff1614155b15612f9d57612f9c8282612e81565b5b505050565b806013600084815260200190815260200160002060006101000a81548173ffffffffffffffffffffffffffffffffffffffff021916908373ffffffffffffffffffffffffffffffffffffffff1602179055505050565b61300382600161323e565b61300d82826129e2565b5050565b60007f780e9d63000000000000000000000000000000000000000000000000000000007bffffffffffffffffffffffffffffffffffffffffffffffffffffffff1916827bffffffffffffffffffffffffffffffffffffffffffffffffffffffff19161480613084575061308382613ba0565b5b9050919050565b600073ffffffffffffffffffffffffffffffffffffffff166130ac826122f3565b73ffffffffffffffffffffffffffffffffffffffff16146130d3576130d2816000612fa2565b5b60006130de82612c5e565b146130ef576130ee8160006129e2565b5b50565b60008073__BoolBitStorage________________________63f7d1c1dd856040518263ffffffff1660e01b815260040161312c91906153ef565b604080518083038186803b15801561314357600080fd5b505af4158015613157573d6000803e3d6000fd5b505050506040513d601f19601f8201168201806040525081019061317b919061541f565b809250819350505073__BoolBitStorage________________________6333720693601160008581526020019081526020016000205483866040518463ffffffff1660e01b81526004016131d193929190615a04565b60206040518083038186803b1580156131e957600080fd5b505af41580156131fd573d6000803e3d6000fd5b505050506040513d601f19601f820116820180604052508101906132219190615a3b565b601160008481526020019081526020016000208190555050505050565b60008073__BoolBitStorage________________________63f7d1c1dd856040518263ffffffff1660e01b815260040161327891906153ef565b604080518083038186803b15801561328f57600080fd5b505af41580156132a3573d6000803e3d6000fd5b505050506040513d601f19601f820116820180604052508101906132c7919061541f565b809250819350505073__BoolBitStorage________________________6333720693601060008581526020019081526020016000205483866040518463ffffffff1660e01b815260040161331d93929190615a04565b60206040518083038186803b15801561333557600080fd5b505af4158015613349573d6000803e3d6000fd5b505050506040513d601f19601f8201168201806040525081019061336d9190615a3b565b601060008481526020019081526020016000208190555050505050565b600081600001549050919050565b600073ffffffffffffffffffffffffffffffffffffffff168273ffffffffffffffffffffffffffffffffffffffff161415613408576040517f08c379a00000000000000000000000000000000000000000000000000000000081526004016133ff90615ab4565b60405180910390fd5b61341181612330565b15613451576040517f08c379a000000000000000000000000000000000000000000000000000000000815260040161344890615b20565b60405180910390fd5b61345d600083836135a8565b6001600360008473ffffffffffffffffffffffffffffffffffffffff1673ffffffffffffffffffffffffffffffffffffffff16815260200190815260200160002060008282546134ad919061538a565b92505081905550816002600083815260200190815260200160002060006101000a81548173ffffffffffffffffffffffffffffffffffffffff021916908373ffffffffffffffffffffffffffffffffffffffff160217905550808273ffffffffffffffffffffffffffffffffffffffff16600073ffffffffffffffffffffffffffffffffffffffff167fddf252ad1be2c89b69c2b068fc378daa952ba7f163c4a11628f55a4df523b3ef60405160405180910390a45050565b80600e6000848152602001908152602001600020908051906020019061358d92919061400a565b505050565b6001816000016000828254019250508190555050565b6135b3838383613c82565b600073ffffffffffffffffffffffffffffffffffffffff168373ffffffffffffffffffffffffffffffffffffffff1614156135f6576135f181613c87565b613635565b8173ffffffffffffffffffffffffffffffffffffffff168373ffffffffffffffffffffffffffffffffffffffff1614613634576136338382613cd0565b5b5b600073ffffffffffffffffffffffffffffffffffffffff168273ffffffffffffffffffffffffffffffffffffffff1614156136785761367381613e3d565b6136b7565b8273ffffffffffffffffffffffffffffffffffffffff168273ffffffffffffffffffffffffffffffffffffffff16146136b6576136b58282613f0e565b5b5b505050565b6060600060028360026136cf9190615b40565b6136d9919061538a565b67ffffffffffffffff8111156136f2576136f1614396565b5b6040519080825280601f01601f1916602001820160405280156137245781602001600182028036833780820191505090505b5090507f30000000000000000000000000000000000000000000000000000000000000008160008151811061375c5761375b615078565b5b60200101907effffffffffffffffffffffffffffffffffffffffffffffffffffffffffffff1916908160001a9053507f7800000000000000000000000000000000000000000000000000000000000000816001815181106137c0576137bf615078565b5b60200101907effffffffffffffffffffffffffffffffffffffffffffffffffffffffffffff1916908160001a905350600060018460026138009190615b40565b61380a919061538a565b90505b60018111156138aa577f3031323334353637383961626364656600000000000000000000000000000000600f86166010811061384c5761384b615078565b5b1a60f81b82828151811061386357613862615078565b5b60200101907effffffffffffffffffffffffffffffffffffffffffffffffffffffffffffff1916908160001a905350600485901c9450806138a390615b9a565b905061380d565b50600084146138ee576040517f08c379a00000000000000000000000000000000000000000000000000000000081526004016138e590615c10565b60405180910390fd5b8091505092915050565b6000613903826115a6565b9050613911816000846135a8565b61391c6000836123a4565b6001600360008373ffffffffffffffffffffffffffffffffffffffff1673ffffffffffffffffffffffffffffffffffffffff168152602001908152602001600020600082825461396c919061573f565b925050819055506002600083815260200190815260200160002060006101000a81549073ffffffffffffffffffffffffffffffffffffffff021916905581600073ffffffffffffffffffffffffffffffffffffffff168273ffffffffffffffffffffffffffffffffffffffff167fddf252ad1be2c89b69c2b068fc378daa952ba7f163c4a11628f55a4df523b3ef60405160405180910390a45050565b6000613a2a8473ffffffffffffffffffffffffffffffffffffffff16613f8d565b15613b93578373ffffffffffffffffffffffffffffffffffffffff1663150b7a02613a5361239c565b8786866040518563ffffffff1660e01b8152600401613a759493929190615c85565b602060405180830381600087803b158015613a8f57600080fd5b505af1925050508015613ac057506040513d601f19601f82011682018060405250810190613abd9190615ce6565b60015b613b43573d8060008114613af0576040519150601f19603f3d011682016040523d82523d6000602084013e613af5565b606091505b50600081511415613b3b576040517f08c379a0000000000000000000000000000000000000000000000000000000008152600401613b3290615923565b60405180910390fd5b805181602001fd5b63150b7a0260e01b7bffffffffffffffffffffffffffffffffffffffffffffffffffffffff1916817bffffffffffffffffffffffffffffffffffffffffffffffffffffffff191614915050613b98565b600190505b949350505050565b60007f80ac58cd000000000000000000000000000000000000000000000000000000007bffffffffffffffffffffffffffffffffffffffffffffffffffffffff1916827bffffffffffffffffffffffffffffffffffffffffffffffffffffffff19161480613c6b57507f5b5e139f000000000000000000000000000000000000000000000000000000007bffffffffffffffffffffffffffffffffffffffffffffffffffffffff1916827bffffffffffffffffffffffffffffffffffffffffffffffffffffffff1916145b80613c7b5750613c7a82613fa0565b5b9050919050565b505050565b6008805490506009600083815260200190815260200160002081905550600881908060018154018082558091505060019003906000526020600020016000909190919091505550565b60006001613cdd84611658565b613ce7919061573f565b9050600060076000848152602001908152602001600020549050818114613dcc576000600660008673ffffffffffffffffffffffffffffffffffffffff1673ffffffffffffffffffffffffffffffffffffffff168152602001908152602001600020600084815260200190815260200160002054905080600660008773ffffffffffffffffffffffffffffffffffffffff1673ffffffffffffffffffffffffffffffffffffffff168152602001908152602001600020600084815260200190815260200160002081905550816007600083815260200190815260200160002081905550505b6007600084815260200190815260200160002060009055600660008573ffffffffffffffffffffffffffffffffffffffff1673ffffffffffffffffffffffffffffffffffffffff16815260200190815260200160002060008381526020019081526020016000206000905550505050565b60006001600880549050613e51919061573f565b9050600060096000848152602001908152602001600020549050600060088381548110613e8157613e80615078565b5b906000526020600020015490508060088381548110613ea357613ea2615078565b5b906000526020600020018190555081600960008381526020019081526020016000208190555060096000858152602001908152602001600020600090556008805480613ef257613ef1615d13565b5b6001900381819060005260206000200160009055905550505050565b6000613f1983611658565b905081600660008573ffffffffffffffffffffffffffffffffffffffff1673ffffffffffffffffffffffffffffffffffffffff168152602001908152602001600020600083815260200190815260200160002081905550806007600084815260200190815260200160002081905550505050565b600080823b905060008111915050919050565b60007f01ffc9a7000000000000000000000000000000000000000000000000000000007bffffffffffffffffffffffffffffffffffffffffffffffffffffffff1916827bffffffffffffffffffffffffffffffffffffffffffffffffffffffff1916149050919050565b82805461401690614942565b90600052602060002090601f016020900481019282614038576000855561407f565b82601f1061405157805160ff191683800117855561407f565b8280016001018555821561407f579182015b8281111561407e578251825591602001919060010190614063565b5b50905061408c9190614090565b5090565b5b808211156140a9576000816000905550600101614091565b5090565b6000604051905090565b600080fd5b600080fd5b60007fffffffff0000000000000000000000000000000000000000000000000000000082169050919050565b6140f6816140c1565b811461410157600080fd5b50565b600081359050614113816140ed565b92915050565b60006020828403121561412f5761412e6140b7565b5b600061413d84828501614104565b91505092915050565b60008115159050919050565b61415b81614146565b82525050565b60006020820190506141766000830184614152565b92915050565b6000819050919050565b61418f8161417c565b811461419a57600080fd5b50565b6000813590506141ac81614186565b92915050565b6000602082840312156141c8576141c76140b7565b5b60006141d68482850161419d565b91505092915050565b600073ffffffffffffffffffffffffffffffffffffffff82169050919050565b600061420a826141df565b9050919050565b61421a816141ff565b82525050565b60006020820190506142356000830184614211565b92915050565b600081519050919050565b600082825260208201905092915050565b60005b8381101561427557808201518184015260208101905061425a565b83811115614284576000848401525b50505050565b6000601f19601f8301169050919050565b60006142a68261423b565b6142b08185614246565b93506142c0818560208601614257565b6142c98161428a565b840191505092915050565b600060208201905081810360008301526142ee818461429b565b905092915050565b6142ff816141ff565b811461430a57600080fd5b50565b60008135905061431c816142f6565b92915050565b60008060408385031215614339576143386140b7565b5b60006143478582860161430d565b92505060206143588582860161419d565b9150509250929050565b61436b8161417c565b82525050565b60006020820190506143866000830184614362565b92915050565b600080fd5b600080fd5b7f4e487b7100000000000000000000000000000000000000000000000000000000600052604160045260246000fd5b6143ce8261428a565b810181811067ffffffffffffffff821117156143ed576143ec614396565b5b80604052505050565b60006144006140ad565b905061440c82826143c5565b919050565b600067ffffffffffffffff82111561442c5761442b614396565b5b6144358261428a565b9050602081019050919050565b82818337600083830152505050565b600061446461445f84614411565b6143f6565b9050828152602081018484840111156144805761447f614391565b5b61448b848285614442565b509392505050565b600082601f8301126144a8576144a761438c565b5b81356144b8848260208601614451565b91505092915050565b6000602082840312156144d7576144d66140b7565b5b600082013567ffffffffffffffff8111156144f5576144f46140bc565b5b61450184828501614493565b91505092915050565b600080600060608486031215614523576145226140b7565b5b60006145318682870161430d565b93505060206145428682870161430d565b92505060406145538682870161419d565b9150509250925092565b6000819050919050565b6145708161455d565b811461457b57600080fd5b50565b60008135905061458d81614567565b92915050565b6000602082840312156145a9576145a86140b7565b5b60006145b78482850161457e565b91505092915050565b6145c98161455d565b82525050565b60006020820190506145e460008301846145c0565b92915050565b60008060408385031215614601576146006140b7565b5b600061460f8582860161419d565b92505060206146208582860161419d565b9150509250929050565b60008060408385031215614641576146406140b7565b5b600061464f8582860161457e565b92505060206146608582860161430d565b9150509250929050565b6000602082840312156146805761467f6140b7565b5b600061468e8482850161430d565b91505092915050565b6146a081614146565b81146146ab57600080fd5b50565b6000813590506146bd81614697565b92915050565b600080604083850312156146da576146d96140b7565b5b60006146e88582860161430d565b92505060206146f9858286016146ae565b9150509250929050565b600067ffffffffffffffff82111561471e5761471d614396565b5b6147278261428a565b9050602081019050919050565b600061474761474284614703565b6143f6565b90508281526020810184848401111561476357614762614391565b5b61476e848285614442565b509392505050565b600082601f83011261478b5761478a61438c565b5b813561479b848260208601614734565b91505092915050565b600080600080608085870312156147be576147bd6140b7565b5b60006147cc8782880161430d565b94505060206147dd8782880161430d565b93505060406147ee8782880161419d565b925050606085013567ffffffffffffffff81111561480f5761480e6140bc565b5b61481b87828801614776565b91505092959194509250565b6000806040838503121561483e5761483d6140b7565b5b600061484c8582860161430d565b925050602061485d8582860161430d565b9150509250929050565b6000806040838503121561487e5761487d6140b7565b5b600061488c8582860161419d565b925050602061489d8582860161430d565b9150509250929050565b7f4536000000000000000000000000000000000000000000000000000000000000600082015250565b60006148dd600283614246565b91506148e8826148a7565b602082019050919050565b6000602082019050818103600083015261490c816148d0565b9050919050565b7f4e487b7100000000000000000000000000000000000000000000000000000000600052602260045260246000fd5b6000600282049050600182168061495a57607f821691505b6020821081141561496e5761496d614913565b5b50919050565b7f4552433732313a20617070726f76656420717565727920666f72206e6f6e657860008201527f697374656e7420746f6b656e0000000000000000000000000000000000000000602082015250565b60006149d0602c83614246565b91506149db82614974565b604082019050919050565b600060208201905081810360008301526149ff816149c3565b9050919050565b7f4552433732313a20617070726f76616c20746f2063757272656e74206f776e6560008201527f7200000000000000000000000000000000000000000000000000000000000000602082015250565b6000614a62602183614246565b9150614a6d82614a06565b604082019050919050565b60006020820190508181036000830152614a9181614a55565b9050919050565b7f4552433732313a20617070726f76652063616c6c6572206973206e6f74206f7760008201527f6e6572206e6f7220617070726f76656420666f7220616c6c0000000000000000602082015250565b6000614af4603883614246565b9150614aff82614a98565b604082019050919050565b60006020820190508181036000830152614b2381614ae7565b9050919050565b7f4534000000000000000000000000000000000000000000000000000000000000600082015250565b6000614b60600283614246565b9150614b6b82614b2a565b602082019050919050565b60006020820190508181036000830152614b8f81614b53565b9050919050565b7f4532000000000000000000000000000000000000000000000000000000000000600082015250565b6000614bcc600283614246565b9150614bd782614b96565b602082019050919050565b60006020820190508181036000830152614bfb81614bbf565b9050919050565b6000604082019050614c176000830185614152565b614c246020830184614152565b9392505050565b7f4e487b7100000000000000000000000000000000000000000000000000000000600052602160045260246000fd5b7f4552433732313a207472616e736665722063616c6c6572206973206e6f74206f60008201527f776e6572206e6f7220617070726f766564000000000000000000000000000000602082015250565b6000614cb6603183614246565b9150614cc182614c5a565b604082019050919050565b60006020820190508181036000830152614ce581614ca9565b9050919050565b7f4537000000000000000000000000000000000000000000000000000000000000600082015250565b6000614d22600283614246565b9150614d2d82614cec565b602082019050919050565b60006020820190508181036000830152614d5181614d15565b9050919050565b7f4538000000000000000000000000000000000000000000000000000000000000600082015250565b6000614d8e600283614246565b9150614d9982614d58565b602082019050919050565b60006020820190508181036000830152614dbd81614d81565b9050919050565b7f455243373231456e756d657261626c653a206f776e657220696e646578206f7560008201527f74206f6620626f756e6473000000000000000000000000000000000000000000602082015250565b6000614e20602b83614246565b9150614e2b82614dc4565b604082019050919050565b60006020820190508181036000830152614e4f81614e13565b9050919050565b7f416363657373436f6e74726f6c3a2063616e206f6e6c792072656e6f756e636560008201527f20726f6c657320666f722073656c660000000000000000000000000000000000602082015250565b6000614eb2602f83614246565b9150614ebd82614e56565b604082019050919050565b60006020820190508181036000830152614ee181614ea5565b9050919050565b7f4d6f6e65792073656e7420656974686572206e6f7420656e6f756768206f722060008201527f746f6f206d7563682e0000000000000000000000000000000000000000000000602082015250565b6000614f44602983614246565b9150614f4f82614ee8565b604082019050919050565b60006020820190508181036000830152614f7381614f37565b9050919050565b7f4535000000000000000000000000000000000000000000000000000000000000600082015250565b6000614fb0600283614246565b9150614fbb82614f7a565b602082019050919050565b60006020820190508181036000830152614fdf81614fa3565b9050919050565b7f455243373231456e756d657261626c653a20676c6f62616c20696e646578206f60008201527f7574206f6620626f756e64730000000000000000000000000000000000000000602082015250565b6000615042602c83614246565b915061504d82614fe6565b604082019050919050565b6000602082019050818103600083015261507181615035565b9050919050565b7f4e487b7100000000000000000000000000000000000000000000000000000000600052603260045260246000fd5b7f4552433732313a206f776e657220717565727920666f72206e6f6e657869737460008201527f656e7420746f6b656e0000000000000000000000000000000000000000000000602082015250565b6000615103602983614246565b915061510e826150a7565b604082019050919050565b60006020820190508181036000830152615132816150f6565b9050919050565b7f4552433732313a2062616c616e636520717565727920666f7220746865207a6560008201527f726f206164647265737300000000000000000000000000000000000000000000602082015250565b6000615195602a83614246565b91506151a082615139565b604082019050919050565b600060208201905081810360008301526151c481615188565b9050919050565b7f4552433732313a20617070726f766520746f2063616c6c657200000000000000600082015250565b6000615201601983614246565b915061520c826151cb565b602082019050919050565b60006020820190508181036000830152615230816151f4565b9050919050565b7f426964206d75737420626520686967686572207468616e20746865206375727260008201527f656e742070726963652e00000000000000000000000000000000000000000000602082015250565b6000615293602a83614246565b915061529e82615237565b604082019050919050565b600060208201905081810360008301526152c281615286565b9050919050565b7f596f752063616e6e6f7420626964206f6e20796f7572206f776e20617563746960008201527f6f6e2e0000000000000000000000000000000000000000000000000000000000602082015250565b6000615325602383614246565b9150615330826152c9565b604082019050919050565b6000602082019050818103600083015261535481615318565b9050919050565b7f4e487b7100000000000000000000000000000000000000000000000000000000600052601160045260246000fd5b60006153958261417c565b91506153a08361417c565b9250827fffffffffffffffffffffffffffffffffffffffffffffffffffffffffffffffff038211156153d5576153d461535b565b5b828201905092915050565b6153e98161417c565b82525050565b600060208201905061540460008301846153e0565b92915050565b60008151905061541981614186565b92915050565b60008060408385031215615436576154356140b7565b5b60006154448582860161540a565b92505060206154558582860161540a565b9150509250929050565b600060408201905061547460008301856153e0565b61548160208301846153e0565b9392505050565b60008151905061549781614697565b92915050565b6000602082840312156154b3576154b26140b7565b5b60006154c184828501615488565b91505092915050565b600081905092915050565b60006154e08261423b565b6154ea81856154ca565b93506154fa818560208601614257565b80840191505092915050565b600061551282846154d5565b915081905092915050565b7f4533000000000000000000000000000000000000000000000000000000000000600082015250565b6000615553600283614246565b915061555e8261551d565b602082019050919050565b6000602082019050818103600083015261558281615546565b9050919050565b7f4552433732313a206f70657261746f7220717565727920666f72206e6f6e657860008201527f697374656e7420746f6b656e0000000000000000000000000000000000000000602082015250565b60006155e5602c83614246565b91506155f082615589565b604082019050919050565b60006020820190508181036000830152615614816155d8565b9050919050565b7f4552433732313a207472616e73666572206f6620746f6b656e2074686174206960008201527f73206e6f74206f776e0000000000000000000000000000000000000000000000602082015250565b6000615677602983614246565b91506156828261561b565b604082019050919050565b600060208201905081810360008301526156a68161566a565b9050919050565b7f4552433732313a207472616e7366657220746f20746865207a65726f2061646460008201527f7265737300000000000000000000000000000000000000000000000000000000602082015250565b6000615709602483614246565b9150615714826156ad565b604082019050919050565b60006020820190508181036000830152615738816156fc565b9050919050565b600061574a8261417c565b91506157558361417c565b9250828210156157685761576761535b565b5b828203905092915050565b7f416363657373436f6e74726f6c3a206163636f756e7420000000000000000000600082015250565b60006157a96017836154ca565b91506157b482615773565b601782019050919050565b7f206973206d697373696e6720726f6c6520000000000000000000000000000000600082015250565b60006157f56011836154ca565b9150615800826157bf565b601182019050919050565b60006158168261579c565b915061582282856154d5565b915061582d826157e8565b915061583982846154d5565b91508190509392505050565b7f4531330000000000000000000000000000000000000000000000000000000000600082015250565b600061587b600383614246565b915061588682615845565b602082019050919050565b600060208201905081810360008301526158aa8161586e565b9050919050565b7f4552433732313a207472616e7366657220746f206e6f6e20455243373231526560008201527f63656976657220696d706c656d656e7465720000000000000000000000000000602082015250565b600061590d603283614246565b9150615918826158b1565b604082019050919050565b6000602082019050818103600083015261593c81615900565b9050919050565b600081905092915050565b50565b600061595e600083615943565b91506159698261594e565b600082019050919050565b600061597f82615951565b9150819050919050565b7f4531320000000000000000000000000000000000000000000000000000000000600082015250565b60006159bf600383614246565b91506159ca82615989565b602082019050919050565b600060208201905081810360008301526159ee816159b2565b9050919050565b6159fe81614146565b82525050565b6000606082019050615a1960008301866153e0565b615a2660208301856153e0565b615a3360408301846159f5565b949350505050565b600060208284031215615a5157615a506140b7565b5b6000615a5f8482850161540a565b91505092915050565b7f4552433732313a206d696e7420746f20746865207a65726f2061646472657373600082015250565b6000615a9e602083614246565b9150615aa982615a68565b602082019050919050565b60006020820190508181036000830152615acd81615a91565b9050919050565b7f4552433732313a20746f6b656e20616c7265616479206d696e74656400000000600082015250565b6000615b0a601c83614246565b9150615b1582615ad4565b602082019050919050565b60006020820190508181036000830152615b3981615afd565b9050919050565b6000615b4b8261417c565b9150615b568361417c565b9250817fffffffffffffffffffffffffffffffffffffffffffffffffffffffffffffffff0483118215151615615b8f57615b8e61535b565b5b828202905092915050565b6000615ba58261417c565b91506000821415615bb957615bb861535b565b5b600182039050919050565b7f537472696e67733a20686578206c656e67746820696e73756666696369656e74600082015250565b6000615bfa602083614246565b9150615c0582615bc4565b602082019050919050565b60006020820190508181036000830152615c2981615bed565b9050919050565b600081519050919050565b600082825260208201905092915050565b6000615c5782615c30565b615c618185615c3b565b9350615c71818560208601614257565b615c7a8161428a565b840191505092915050565b6000608082019050615c9a6000830187614211565b615ca76020830186614211565b615cb46040830185614362565b8181036060830152615cc68184615c4c565b905095945050505050565b600081519050615ce0816140ed565b92915050565b600060208284031215615cfc57615cfb6140b7565b5b6000615d0a84828501615cd1565b91505092915050565b7f4e487b7100000000000000000000000000000000000000000000000000000000600052603160045260246000fdfea26469706673582212208027059e69427221b792ff123427c5bdb6bbb0734c50ccd46fa9a081c51214d764736f6c63430008090033",
  "immutableReferences": {},
  "source": "// SPDX-License-Identifier: MIT\r\npragma solidity >=0.6.0 <0.9.0;\r\n\r\nimport \"./Vehicle.sol\";\r\n\r\ncontract ExternalGateway is Vehicle {\r\n    event NewPrice(uint256 indexed tokenId);\r\n    event NewTopBidder(uint256 indexed tokenId);\r\n\r\n    function exists(uint256 tokenId) external view returns (bool) {\r\n        return _exists(tokenId);\r\n    }\r\n\r\n    function tokenURI(uint256 tokenId)\r\n        public\r\n        view\r\n        virtual\r\n        override\r\n        returns (string memory)\r\n    {\r\n        return _tokenURIs[tokenId];\r\n    }\r\n\r\n    function getVehiclePrice(uint256 tokenId)\r\n        external\r\n        view\r\n        onlyIfForSale(tokenId)\r\n        returns (uint256)\r\n    {\r\n        return _getVehiclePrice(tokenId);\r\n    }\r\n\r\n    function getTopBidder(uint256 tokenId)\r\n        external\r\n        view\r\n        onlyIfAuction(tokenId)\r\n        returns (address)\r\n    {\r\n        return _getTopBidder(tokenId);\r\n    }\r\n\r\n    function isAuction(uint256 tokenId) external view returns (bool) {\r\n        return _isAuction(tokenId);\r\n    }\r\n\r\n    function isForSale(uint256 tokenId) external view returns (bool) {\r\n        return _isForSale(tokenId);\r\n    }\r\n\r\n    function concludeAuction(uint256 tokenId)\r\n        external\r\n        onlyOwnerOf(tokenId)\r\n        onlyIfAuction(tokenId)\r\n    {\r\n        _concludeAuction(tokenId);\r\n        emit SaleStatus(tokenId, false, false);\r\n    }\r\n\r\n    function listAuction(uint256 tokenId, uint256 price)\r\n        external\r\n        onlyOwnerOf(tokenId)\r\n        onlyIfNotForSale(tokenId)\r\n        onlyIfNotAuction(tokenId)\r\n        onlyIfPriceNonNull(price)\r\n    {\r\n        _listAuction(tokenId, price);\r\n        emit SaleStatus(tokenId, true, true);\r\n    }\r\n\r\n    function listForSale(uint256 tokenId, uint256 price)\r\n        external\r\n        onlyOwnerOf(tokenId)\r\n        onlyIfNotForSale(tokenId)\r\n        onlyIfPriceNonNull(price)\r\n    {\r\n        _listForSale(tokenId, price);\r\n        emit SaleStatus(tokenId, true, false);\r\n    }\r\n\r\n    function removeFromSale(uint256 tokenId)\r\n        external\r\n        onlyIfForSale(tokenId)\r\n        onlyOwnerOf(tokenId)\r\n    {\r\n        _removeFromSale(tokenId);\r\n        emit SaleStatus(tokenId, false, false);\r\n    }\r\n\r\n    function setVehiclePrice(uint256 tokenId, uint256 _price)\r\n        external\r\n        onlyOwnerOf(tokenId)\r\n        onlyIfNotAuction(tokenId)\r\n        onlyIfPriceNonNull(_price)\r\n    {\r\n        _setVehiclePrice(tokenId, _price);\r\n        emit NewPrice(tokenId);\r\n    }\r\n\r\n    function buyVehicle(uint256 tokenId)\r\n        external\r\n        payable\r\n        onlyIfForSale(tokenId)\r\n        onlyIfNotAuction(tokenId)\r\n    {\r\n        require(\r\n            msg.value == _getVehiclePrice(tokenId),\r\n            \"Money sent either not enough or too much.\"\r\n        );\r\n\r\n        _classicExchange(ownerOf(tokenId), msg.sender, tokenId, msg.value);\r\n        _removeFromSale(tokenId);\r\n        emit SaleStatus(tokenId, false, false);\r\n    }\r\n\r\n    function bidVehicle(uint256 tokenId)\r\n        external\r\n        payable\r\n        onlyIfAuction(tokenId)\r\n    {\r\n        require(\r\n            msg.value > _getVehiclePrice(tokenId),\r\n            \"Bid must be higher than the current price.\"\r\n        );\r\n        require(\r\n            msg.sender != ownerOf(tokenId),\r\n            \"You cannot bid on your own auction.\"\r\n        );\r\n\r\n        _secureMoneyTransfer(address(this), msg.value);\r\n        _refundCurentTopBidder(tokenId);\r\n        _setVehiclePrice(tokenId, msg.value);\r\n        _setTopBidder(tokenId, msg.sender);\r\n        emit NewPrice(tokenId);\r\n        emit NewTopBidder(tokenId);\r\n    }\r\n\r\n    function createVehicle(string memory uri)\r\n        external\r\n        onlyClass(ROLE_CLASS.MINTER)\r\n    {\r\n        mint(uri);\r\n    }\r\n\r\n    function destroyVehicle(uint256 _tokenId)\r\n        external\r\n        onlyRole(AUTHORITY_ROLE_ADMIN)\r\n    {\r\n        _removeFromSale(_tokenId);\r\n        burn(_tokenId);\r\n        emit SaleStatus(_tokenId, false, false);\r\n    }\r\n\r\n    //ODOMETER\r\n\r\n    function getOdometerValue(uint256 tokenId) external view returns (uint256) {\r\n        return _odometerValue[tokenId];\r\n    }\r\n\r\n    function increaseOdometer(uint256 tokenId, uint256 value)\r\n        external\r\n        onlyRole(ODOMETER_ROLE)\r\n    {\r\n        require(msg.sender == _odometerAddress[tokenId]);\r\n        _odometerValue[tokenId] = _odometerValue[tokenId] + value;\r\n    }\r\n\r\n    function setOdometerAddress(uint256 tokenId, address odometer)\r\n        external\r\n        onlyRole(AUTHORITY_ROLE_ADMIN)\r\n    {\r\n        _odometerAddress[tokenId] = odometer;\r\n    }\r\n}\r\n",
  "sourcePath": "C:\\sgs020\\contracts\\ExternalGateway.sol",
  "compiler": {
    "name": "solc",
    "version": "0.8.9+commit.e5eed63a.Emscripten.clang"
  },
  "schemaVersion": "3.4.3",
  "updatedAt": "2022-02-24T12:25:14.662Z",
  "devdoc": {
    "kind": "dev",
    "methods": {
      "approve(address,uint256)": {
        "details": "See {IERC721-approve}."
      },
      "balanceOf(address)": {
        "details": "See {IERC721-balanceOf}."
      },
      "getApproved(uint256)": {
        "details": "See {IERC721-getApproved}."
      },
      "getRoleAdmin(bytes32)": {
        "details": "Returns the admin role that controls `role`. See {grantRole} and {revokeRole}. To change a role's admin, use {_setRoleAdmin}."
      },
      "grantRole(bytes32,address)": {
        "details": "Grants `role` to `account`. If `account` had not been already granted `role`, emits a {RoleGranted} event. Requirements: - the caller must have ``role``'s admin role."
      },
      "hasRole(bytes32,address)": {
        "details": "Returns `true` if `account` has been granted `role`."
      },
      "isApprovedForAll(address,address)": {
        "details": "See {IERC721-isApprovedForAll}."
      },
      "name()": {
        "details": "See {IERC721Metadata-name}."
      },
      "ownerOf(uint256)": {
        "details": "See {IERC721-ownerOf}."
      },
      "renounceRole(bytes32,address)": {
        "details": "Revokes `role` from the calling account. Roles are often managed via {grantRole} and {revokeRole}: this function's purpose is to provide a mechanism for accounts to lose their privileges if they are compromised (such as when a trusted device is misplaced). If the calling account had been granted `role`, emits a {RoleRevoked} event. Requirements: - the caller must be `account`."
      },
      "revokeRole(bytes32,address)": {
        "details": "Revokes `role` from `account`. If `account` had been granted `role`, emits a {RoleRevoked} event. Requirements: - the caller must have ``role``'s admin role."
      },
      "safeTransferFrom(address,address,uint256)": {
        "details": "See {IERC721-safeTransferFrom}."
      },
      "safeTransferFrom(address,address,uint256,bytes)": {
        "details": "See {IERC721-safeTransferFrom}."
      },
      "setApprovalForAll(address,bool)": {
        "details": "See {IERC721-setApprovalForAll}."
      },
      "symbol()": {
        "details": "See {IERC721Metadata-symbol}."
      },
      "tokenByIndex(uint256)": {
        "details": "See {IERC721Enumerable-tokenByIndex}."
      },
      "tokenOfOwnerByIndex(address,uint256)": {
        "details": "See {IERC721Enumerable-tokenOfOwnerByIndex}."
      },
      "tokenURI(uint256)": {
        "details": "See {IERC721Metadata-tokenURI}."
      },
      "totalSupply()": {
        "details": "See {IERC721Enumerable-totalSupply}."
      },
      "transferFrom(address,address,uint256)": {
        "details": "See {IERC721-transferFrom}."
      }
    },
    "version": 1
  },
  "userdoc": {
    "kind": "user",
    "methods": {},
    "version": 1
  }
}