{
  "contractName": "ExternalGateway",
  "abi": [
    {
      "anonymous": false,
      "inputs": [
        {
          "indexed": true,
          "internalType": "address",
          "name": "owner",
          "type": "address"
        },
        {
          "indexed": true,
          "internalType": "address",
          "name": "approved",
          "type": "address"
        },
        {
          "indexed": true,
          "internalType": "uint256",
          "name": "tokenId",
          "type": "uint256"
        }
      ],
      "name": "Approval",
      "type": "event"
    },
    {
      "anonymous": false,
      "inputs": [
        {
          "indexed": true,
          "internalType": "address",
          "name": "owner",
          "type": "address"
        },
        {
          "indexed": true,
          "internalType": "address",
          "name": "operator",
          "type": "address"
        },
        {
          "indexed": false,
          "internalType": "bool",
          "name": "approved",
          "type": "bool"
        }
      ],
      "name": "ApprovalForAll",
      "type": "event"
    },
    {
      "anonymous": false,
      "inputs": [
        {
          "indexed": true,
          "internalType": "uint256",
          "name": "tokenId",
          "type": "uint256"
        }
      ],
      "name": "NewPrice",
      "type": "event"
    },
    {
      "anonymous": false,
      "inputs": [
        {
          "indexed": true,
          "internalType": "uint256",
          "name": "tokenId",
          "type": "uint256"
        }
      ],
      "name": "NewTopBidder",
      "type": "event"
    },
    {
      "anonymous": false,
      "inputs": [
        {
          "indexed": true,
          "internalType": "bytes32",
          "name": "role",
          "type": "bytes32"
        },
        {
          "indexed": true,
          "internalType": "bytes32",
          "name": "previousAdminRole",
          "type": "bytes32"
        },
        {
          "indexed": true,
          "internalType": "bytes32",
          "name": "newAdminRole",
          "type": "bytes32"
        }
      ],
      "name": "RoleAdminChanged",
      "type": "event"
    },
    {
      "anonymous": false,
      "inputs": [
        {
          "indexed": true,
          "internalType": "bytes32",
          "name": "role",
          "type": "bytes32"
        },
        {
          "indexed": true,
          "internalType": "address",
          "name": "account",
          "type": "address"
        },
        {
          "indexed": true,
          "internalType": "address",
          "name": "sender",
          "type": "address"
        }
      ],
      "name": "RoleGranted",
      "type": "event"
    },
    {
      "anonymous": false,
      "inputs": [
        {
          "indexed": true,
          "internalType": "bytes32",
          "name": "role",
          "type": "bytes32"
        },
        {
          "indexed": true,
          "internalType": "address",
          "name": "account",
          "type": "address"
        },
        {
          "indexed": true,
          "internalType": "address",
          "name": "sender",
          "type": "address"
        }
      ],
      "name": "RoleRevoked",
      "type": "event"
    },
    {
      "anonymous": false,
      "inputs": [
        {
          "indexed": true,
          "internalType": "uint256",
          "name": "tokenId",
          "type": "uint256"
        },
        {
          "indexed": false,
          "internalType": "bool",
          "name": "status",
          "type": "bool"
        },
        {
          "indexed": false,
          "internalType": "bool",
          "name": "isAuction",
          "type": "bool"
        }
      ],
      "name": "SaleStatus",
      "type": "event"
    },
    {
      "anonymous": false,
      "inputs": [
        {
          "indexed": true,
          "internalType": "address",
          "name": "from",
          "type": "address"
        },
        {
          "indexed": true,
          "internalType": "address",
          "name": "to",
          "type": "address"
        },
        {
          "indexed": true,
          "internalType": "uint256",
          "name": "tokenId",
          "type": "uint256"
        }
      ],
      "name": "Transfer",
      "type": "event"
    },
    {
      "inputs": [],
      "name": "DEFAULT_ADMIN_ROLE",
      "outputs": [
        {
          "internalType": "bytes32",
          "name": "",
          "type": "bytes32"
        }
      ],
      "stateMutability": "view",
      "type": "function"
    },
    {
      "inputs": [
        {
          "internalType": "address",
          "name": "to",
          "type": "address"
        },
        {
          "internalType": "uint256",
          "name": "tokenId",
          "type": "uint256"
        }
      ],
      "name": "approve",
      "outputs": [],
      "stateMutability": "nonpayable",
      "type": "function"
    },
    {
      "inputs": [
        {
          "internalType": "address",
          "name": "owner",
          "type": "address"
        }
      ],
      "name": "balanceOf",
      "outputs": [
        {
          "internalType": "uint256",
          "name": "",
          "type": "uint256"
        }
      ],
      "stateMutability": "view",
      "type": "function"
    },
    {
      "inputs": [
        {
          "internalType": "uint256",
          "name": "tokenId",
          "type": "uint256"
        }
      ],
      "name": "getApproved",
      "outputs": [
        {
          "internalType": "address",
          "name": "",
          "type": "address"
        }
      ],
      "stateMutability": "view",
      "type": "function"
    },
    {
      "inputs": [
        {
          "internalType": "bytes32",
          "name": "role",
          "type": "bytes32"
        }
      ],
      "name": "getRoleAdmin",
      "outputs": [
        {
          "internalType": "bytes32",
          "name": "",
          "type": "bytes32"
        }
      ],
      "stateMutability": "view",
      "type": "function"
    },
    {
      "inputs": [
        {
          "internalType": "bytes32",
          "name": "role",
          "type": "bytes32"
        },
        {
          "internalType": "address",
          "name": "account",
          "type": "address"
        }
      ],
      "name": "grantRole",
      "outputs": [],
      "stateMutability": "nonpayable",
      "type": "function"
    },
    {
      "inputs": [
        {
          "internalType": "bytes32",
          "name": "role",
          "type": "bytes32"
        },
        {
          "internalType": "address",
          "name": "account",
          "type": "address"
        }
      ],
      "name": "hasRole",
      "outputs": [
        {
          "internalType": "bool",
          "name": "",
          "type": "bool"
        }
      ],
      "stateMutability": "view",
      "type": "function"
    },
    {
      "inputs": [
        {
          "internalType": "address",
          "name": "owner",
          "type": "address"
        },
        {
          "internalType": "address",
          "name": "operator",
          "type": "address"
        }
      ],
      "name": "isApprovedForAll",
      "outputs": [
        {
          "internalType": "bool",
          "name": "",
          "type": "bool"
        }
      ],
      "stateMutability": "view",
      "type": "function"
    },
    {
      "inputs": [],
      "name": "name",
      "outputs": [
        {
          "internalType": "string",
          "name": "",
          "type": "string"
        }
      ],
      "stateMutability": "view",
      "type": "function"
    },
    {
      "inputs": [
        {
          "internalType": "uint256",
          "name": "tokenId",
          "type": "uint256"
        }
      ],
      "name": "ownerOf",
      "outputs": [
        {
          "internalType": "address",
          "name": "",
          "type": "address"
        }
      ],
      "stateMutability": "view",
      "type": "function"
    },
    {
      "inputs": [
        {
          "internalType": "bytes32",
          "name": "role",
          "type": "bytes32"
        },
        {
          "internalType": "address",
          "name": "account",
          "type": "address"
        }
      ],
      "name": "renounceRole",
      "outputs": [],
      "stateMutability": "nonpayable",
      "type": "function"
    },
    {
      "inputs": [],
      "name": "restAPI",
      "outputs": [
        {
          "internalType": "string",
          "name": "",
          "type": "string"
        }
      ],
      "stateMutability": "view",
      "type": "function"
    },
    {
      "inputs": [
        {
          "internalType": "bytes32",
          "name": "role",
          "type": "bytes32"
        },
        {
          "internalType": "address",
          "name": "account",
          "type": "address"
        }
      ],
      "name": "revokeRole",
      "outputs": [],
      "stateMutability": "nonpayable",
      "type": "function"
    },
    {
      "inputs": [
        {
          "internalType": "address",
          "name": "from",
          "type": "address"
        },
        {
          "internalType": "address",
          "name": "to",
          "type": "address"
        },
        {
          "internalType": "uint256",
          "name": "tokenId",
          "type": "uint256"
        }
      ],
      "name": "safeTransferFrom",
      "outputs": [],
      "stateMutability": "nonpayable",
      "type": "function"
    },
    {
      "inputs": [
        {
          "internalType": "address",
          "name": "from",
          "type": "address"
        },
        {
          "internalType": "address",
          "name": "to",
          "type": "address"
        },
        {
          "internalType": "uint256",
          "name": "tokenId",
          "type": "uint256"
        },
        {
          "internalType": "bytes",
          "name": "_data",
          "type": "bytes"
        }
      ],
      "name": "safeTransferFrom",
      "outputs": [],
      "stateMutability": "nonpayable",
      "type": "function"
    },
    {
      "inputs": [
        {
          "internalType": "address",
          "name": "operator",
          "type": "address"
        },
        {
          "internalType": "bool",
          "name": "approved",
          "type": "bool"
        }
      ],
      "name": "setApprovalForAll",
      "outputs": [],
      "stateMutability": "nonpayable",
      "type": "function"
    },
    {
      "inputs": [
        {
          "internalType": "bytes4",
          "name": "interfaceId",
          "type": "bytes4"
        }
      ],
      "name": "supportsInterface",
      "outputs": [
        {
          "internalType": "bool",
          "name": "",
          "type": "bool"
        }
      ],
      "stateMutability": "view",
      "type": "function"
    },
    {
      "inputs": [],
      "name": "symbol",
      "outputs": [
        {
          "internalType": "string",
          "name": "",
          "type": "string"
        }
      ],
      "stateMutability": "view",
      "type": "function"
    },
    {
      "inputs": [
        {
          "internalType": "uint256",
          "name": "index",
          "type": "uint256"
        }
      ],
      "name": "tokenByIndex",
      "outputs": [
        {
          "internalType": "uint256",
          "name": "",
          "type": "uint256"
        }
      ],
      "stateMutability": "view",
      "type": "function"
    },
    {
      "inputs": [
        {
          "internalType": "address",
          "name": "owner",
          "type": "address"
        },
        {
          "internalType": "uint256",
          "name": "index",
          "type": "uint256"
        }
      ],
      "name": "tokenOfOwnerByIndex",
      "outputs": [
        {
          "internalType": "uint256",
          "name": "",
          "type": "uint256"
        }
      ],
      "stateMutability": "view",
      "type": "function"
    },
    {
      "inputs": [],
      "name": "totalSupply",
      "outputs": [
        {
          "internalType": "uint256",
          "name": "",
          "type": "uint256"
        }
      ],
      "stateMutability": "view",
      "type": "function"
    },
    {
      "inputs": [
        {
          "internalType": "address",
          "name": "from",
          "type": "address"
        },
        {
          "internalType": "address",
          "name": "to",
          "type": "address"
        },
        {
          "internalType": "uint256",
          "name": "tokenId",
          "type": "uint256"
        }
      ],
      "name": "transferFrom",
      "outputs": [],
      "stateMutability": "nonpayable",
      "type": "function"
    },
    {
      "stateMutability": "payable",
      "type": "receive"
    },
    {
      "inputs": [
        {
          "internalType": "uint256",
          "name": "tokenId",
          "type": "uint256"
        }
      ],
      "name": "exists",
      "outputs": [
        {
          "internalType": "bool",
          "name": "",
          "type": "bool"
        }
      ],
      "stateMutability": "view",
      "type": "function"
    },
    {
      "inputs": [
        {
          "internalType": "uint256",
          "name": "tokenId",
          "type": "uint256"
        }
      ],
      "name": "tokenURI",
      "outputs": [
        {
          "internalType": "string",
          "name": "",
          "type": "string"
        }
      ],
      "stateMutability": "view",
      "type": "function"
    },
    {
      "inputs": [
        {
          "internalType": "uint256",
          "name": "tokenId",
          "type": "uint256"
        }
      ],
      "name": "getVehiclePrice",
      "outputs": [
        {
          "internalType": "uint256",
          "name": "",
          "type": "uint256"
        }
      ],
      "stateMutability": "view",
      "type": "function"
    },
    {
      "inputs": [
        {
          "internalType": "uint256",
          "name": "tokenId",
          "type": "uint256"
        }
      ],
      "name": "getTopBidder",
      "outputs": [
        {
          "internalType": "address",
          "name": "",
          "type": "address"
        }
      ],
      "stateMutability": "view",
      "type": "function"
    },
    {
      "inputs": [
        {
          "internalType": "uint256",
          "name": "tokenId",
          "type": "uint256"
        }
      ],
      "name": "isAuction",
      "outputs": [
        {
          "internalType": "bool",
          "name": "",
          "type": "bool"
        }
      ],
      "stateMutability": "view",
      "type": "function"
    },
    {
      "inputs": [
        {
          "internalType": "uint256",
          "name": "tokenId",
          "type": "uint256"
        }
      ],
      "name": "isForSale",
      "outputs": [
        {
          "internalType": "bool",
          "name": "",
          "type": "bool"
        }
      ],
      "stateMutability": "view",
      "type": "function"
    },
    {
      "inputs": [
        {
          "internalType": "uint256",
          "name": "tokenId",
          "type": "uint256"
        }
      ],
      "name": "concludeAuction",
      "outputs": [],
      "stateMutability": "nonpayable",
      "type": "function"
    },
    {
      "inputs": [
        {
          "internalType": "uint256",
          "name": "tokenId",
          "type": "uint256"
        },
        {
          "internalType": "uint256",
          "name": "price",
          "type": "uint256"
        }
      ],
      "name": "listAuction",
      "outputs": [],
      "stateMutability": "nonpayable",
      "type": "function"
    },
    {
      "inputs": [
        {
          "internalType": "uint256",
          "name": "tokenId",
          "type": "uint256"
        },
        {
          "internalType": "uint256",
          "name": "price",
          "type": "uint256"
        }
      ],
      "name": "listForSale",
      "outputs": [],
      "stateMutability": "nonpayable",
      "type": "function"
    },
    {
      "inputs": [
        {
          "internalType": "uint256",
          "name": "tokenId",
          "type": "uint256"
        }
      ],
      "name": "removeFromSale",
      "outputs": [],
      "stateMutability": "nonpayable",
      "type": "function"
    },
    {
      "inputs": [
        {
          "internalType": "uint256",
          "name": "tokenId",
          "type": "uint256"
        },
        {
          "internalType": "uint256",
          "name": "_price",
          "type": "uint256"
        }
      ],
      "name": "setVehiclePrice",
      "outputs": [],
      "stateMutability": "nonpayable",
      "type": "function"
    },
    {
      "inputs": [
        {
          "internalType": "uint256",
          "name": "tokenId",
          "type": "uint256"
        }
      ],
      "name": "buyVehicle",
      "outputs": [],
      "stateMutability": "payable",
      "type": "function"
    },
    {
      "inputs": [
        {
          "internalType": "uint256",
          "name": "tokenId",
          "type": "uint256"
        }
      ],
      "name": "bidVehicle",
      "outputs": [],
      "stateMutability": "payable",
      "type": "function"
    },
    {
      "inputs": [
        {
          "internalType": "string",
          "name": "uri",
          "type": "string"
        }
      ],
      "name": "createVehicle",
      "outputs": [],
      "stateMutability": "nonpayable",
      "type": "function"
    },
    {
      "inputs": [
        {
          "internalType": "uint256",
          "name": "_tokenId",
          "type": "uint256"
        }
      ],
      "name": "destroyVehicle",
      "outputs": [],
      "stateMutability": "nonpayable",
      "type": "function"
    },
    {
      "inputs": [
        {
          "internalType": "uint256",
          "name": "tokenId",
          "type": "uint256"
        }
      ],
      "name": "getOdometerValue",
      "outputs": [
        {
          "internalType": "uint256",
          "name": "",
          "type": "uint256"
        }
      ],
      "stateMutability": "view",
      "type": "function"
    },
    {
      "inputs": [
        {
          "internalType": "uint256",
          "name": "tokenId",
          "type": "uint256"
        },
        {
          "internalType": "uint256",
          "name": "value",
          "type": "uint256"
        }
      ],
      "name": "increaseOdometer",
      "outputs": [],
      "stateMutability": "nonpayable",
      "type": "function"
    },
    {
      "inputs": [
        {
          "internalType": "uint256",
          "name": "tokenId",
          "type": "uint256"
        },
        {
          "internalType": "address",
          "name": "odometer",
          "type": "address"
        }
      ],
      "name": "setOdometerAddress",
      "outputs": [],
      "stateMutability": "nonpayable",
      "type": "function"
    },
    {
      "inputs": [],
      "name": "getPullCache",
      "outputs": [
        {
          "internalType": "bool",
          "name": "",
          "type": "bool"
        }
      ],
      "stateMutability": "view",
      "type": "function"
    },
    {
      "inputs": [
        {
          "internalType": "bool",
          "name": "value",
          "type": "bool"
        }
      ],
      "name": "setPullCache",
      "outputs": [],
      "stateMutability": "nonpayable",
      "type": "function"
    },
    {
      "inputs": [],
      "name": "getRestart",
      "outputs": [
        {
          "internalType": "bool",
          "name": "",
          "type": "bool"
        }
      ],
      "stateMutability": "view",
      "type": "function"
    },
    {
      "inputs": [
        {
          "internalType": "bool",
          "name": "value",
          "type": "bool"
        }
      ],
      "name": "setRestart",
      "outputs": [],
      "stateMutability": "nonpayable",
      "type": "function"
    }
  ],
  "bytecode": "0x60806040526000601460006101000a81548160ff0219169083151502179055506000601460016101000a81548160ff0219169083151502179055506040518060400160405280600e81526020017f6c6f63616c686f73743a38343433000000000000000000000000000000000000815250601590805190602001906200008792919062000546565b503480156200009557600080fd5b506040518060400160405280600781526020017f56656869636c65000000000000000000000000000000000000000000000000008152506040518060400160405280600381526020017f564843000000000000000000000000000000000000000000000000000000000081525081600090805190602001906200011a92919062000546565b5080600190805190602001906200013392919062000546565b5050506200014b6000801b336200034760201b60201c565b6200017d7f11c2020b6b4f4e00c2410234e0c72636b4739cf7cda4d8e24ef6b881350e6704336200034760201b60201c565b620001af7f9f2df0fed2c77648de5860a4cc508cd0818c85b8b8a1ab4ceeef8d981c8956a6336200034760201b60201c565b620001e17f6f75c7e45b923a976102cf1173921af9cd14f3a7474f743b14e64b348aa2520d336200034760201b60201c565b620002167f11c2020b6b4f4e00c2410234e0c72636b4739cf7cda4d8e24ef6b881350e67046000801b6200035d60201b60201c565b6200024b7f6f75c7e45b923a976102cf1173921af9cd14f3a7474f743b14e64b348aa2520d6000801b6200035d60201b60201c565b6200029d7f9f2df0fed2c77648de5860a4cc508cd0818c85b8b8a1ab4ceeef8d981c8956a67f11c2020b6b4f4e00c2410234e0c72636b4739cf7cda4d8e24ef6b881350e67046200035d60201b60201c565b620002ef7fd565e3fc066df348a5cbc05a8d6323e00552838041cea2d84cc59876ba37735d7f6f75c7e45b923a976102cf1173921af9cd14f3a7474f743b14e64b348aa2520d6200035d60201b60201c565b620003417f530aa2e706d666af1b04435a2cdfb362347f53ff7899306c42824dce7c19b0f77f6f75c7e45b923a976102cf1173921af9cd14f3a7474f743b14e64b348aa2520d6200035d60201b60201c565b6200065b565b620003598282620003c160201b60201c565b5050565b60006200037083620004b360201b60201c565b905081600a6000858152602001908152602001600020600101819055508181847fbd79b86ffe0ab8e8776151514217cd7cacd52c909f66475c3af44e129f0b00ff60405160405180910390a4505050565b620003d38282620004d360201b60201c565b620004af576001600a600084815260200190815260200160002060000160008373ffffffffffffffffffffffffffffffffffffffff1673ffffffffffffffffffffffffffffffffffffffff16815260200190815260200160002060006101000a81548160ff021916908315150217905550620004546200053e60201b60201c565b73ffffffffffffffffffffffffffffffffffffffff168173ffffffffffffffffffffffffffffffffffffffff16837f2f8788117e7eff1d82e926ec794901d17c78024a50270940304540a733656f0d60405160405180910390a45b5050565b6000600a6000838152602001908152602001600020600101549050919050565b6000600a600084815260200190815260200160002060000160008373ffffffffffffffffffffffffffffffffffffffff1673ffffffffffffffffffffffffffffffffffffffff16815260200190815260200160002060009054906101000a900460ff16905092915050565b600033905090565b828054620005549062000625565b90600052602060002090601f016020900481019282620005785760008555620005c4565b82601f106200059357805160ff1916838001178555620005c4565b82800160010185558215620005c4579182015b82811115620005c3578251825591602001919060010190620005a6565b5b509050620005d39190620005d7565b5090565b5b80821115620005f2576000816000905550600101620005d8565b5090565b7f4e487b7100000000000000000000000000000000000000000000000000000000600052602260045260246000fd5b600060028204905060018216806200063e57607f821691505b60208210811415620006555762000654620005f6565b5b50919050565b615fd1806200066b6000396000f3fe60806040526004361061026b5760003560e01c80635ca8ee8511610144578063b8761301116100b6578063e339ed961161007a578063e339ed9614610999578063e80d7fec146109c2578063e985e9c5146109eb578063facbbf2014610a28578063fcc51fa114610a65578063fec81ee914610a8e57610272565b8063b8761301146108c5578063b88d4fde146108ee578063befcfd5914610917578063c87b56dd14610933578063d547741f1461097057610272565b80638704f2a3116101085780638704f2a31461078f5780638b79aa20146107cc57806391d148541461080957806395d89b4114610846578063a217fddf14610871578063a22cb4651461089c57610272565b80635ca8ee85146106825780636352211e146106ad57806370a08231146106ea5780637bafde3b146107275780638546d0021461075257610272565b80632f2ff15d116101dd57806342842e0e116101a157806342842e0e1461056257806348e3aa611461058b5780634c5210f6146105b45780634f558e79146105dd5780634f6ccce71461061a5780635b607caf1461065757610272565b80632f2ff15d1461048e5780632f745c59146104b757806336568abe146104f457806336ce09201461051d578063375209601461053957610272565b80631361a3b61161022f5780631361a3b61461038257806318160ddd146103ab5780632132730e146103d657806323b872dd146103ff578063248a9ca314610428578063251781e71461046557610272565b806301ffc9a71461027757806304744d08146102b457806306fdde03146102f1578063081812fc1461031c578063095ea7b31461035957610272565b3661027257005b600080fd5b34801561028357600080fd5b5061029e60048036038101906102999190614345565b610ab7565b6040516102ab919061438d565b60405180910390f35b3480156102c057600080fd5b506102db60048036038101906102d691906143de565b610ac9565b6040516102e8919061444c565b60405180910390f35b3480156102fd57600080fd5b50610306610b25565b6040516103139190614500565b60405180910390f35b34801561032857600080fd5b50610343600480360381019061033e91906143de565b610bb7565b604051610350919061444c565b60405180910390f35b34801561036557600080fd5b50610380600480360381019061037b919061454e565b610c3c565b005b34801561038e57600080fd5b506103a960048036038101906103a491906143de565b610d54565b005b3480156103b757600080fd5b506103c0610e5d565b6040516103cd919061459d565b60405180910390f35b3480156103e257600080fd5b506103fd60048036038101906103f891906146ed565b610e6a565b005b34801561040b57600080fd5b5061042660048036038101906104219190614736565b610fa0565b005b34801561043457600080fd5b5061044f600480360381019061044a91906147bf565b611000565b60405161045c91906147fb565b60405180910390f35b34801561047157600080fd5b5061048c60048036038101906104879190614816565b611020565b005b34801561049a57600080fd5b506104b560048036038101906104b09190614856565b611163565b005b3480156104c357600080fd5b506104de60048036038101906104d9919061454e565b61118c565b6040516104eb919061459d565b60405180910390f35b34801561050057600080fd5b5061051b60048036038101906105169190614856565b611231565b005b610537600480360381019061053291906143de565b6112b4565b005b34801561054557600080fd5b50610560600480360381019061055b91906143de565b6113ee565b005b34801561056e57600080fd5b5061058960048036038101906105849190614736565b611471565b005b34801561059757600080fd5b506105b260048036038101906105ad91906148c2565b611491565b005b3480156105c057600080fd5b506105db60048036038101906105d69190614816565b6114c4565b005b3480156105e957600080fd5b5061060460048036038101906105ff91906143de565b611660565b604051610611919061438d565b60405180910390f35b34801561062657600080fd5b50610641600480360381019061063c91906143de565b611672565b60405161064e919061459d565b60405180910390f35b34801561066357600080fd5b5061066c6116e3565b604051610679919061438d565b60405180910390f35b34801561068e57600080fd5b506106976116fa565b6040516106a49190614500565b60405180910390f35b3480156106b957600080fd5b506106d460048036038101906106cf91906143de565b611788565b6040516106e1919061444c565b60405180910390f35b3480156106f657600080fd5b50610711600480360381019061070c91906148ef565b61183a565b60405161071e919061459d565b60405180910390f35b34801561073357600080fd5b5061073c6118f2565b604051610749919061438d565b60405180910390f35b34801561075e57600080fd5b50610779600480360381019061077491906143de565b611909565b604051610786919061438d565b60405180910390f35b34801561079b57600080fd5b506107b660048036038101906107b191906143de565b61191b565b6040516107c3919061438d565b60405180910390f35b3480156107d857600080fd5b506107f360048036038101906107ee91906143de565b61192d565b604051610800919061459d565b60405180910390f35b34801561081557600080fd5b50610830600480360381019061082b9190614856565b611989565b60405161083d919061438d565b60405180910390f35b34801561085257600080fd5b5061085b6119f4565b6040516108689190614500565b60405180910390f35b34801561087d57600080fd5b50610886611a86565b60405161089391906147fb565b60405180910390f35b3480156108a857600080fd5b506108c360048036038101906108be919061491c565b611a8d565b005b3480156108d157600080fd5b506108ec60048036038101906108e791906143de565b611c0e565b005b3480156108fa57600080fd5b50610915600480360381019061091091906149fd565b611d17565b005b610931600480360381019061092c91906143de565b611d79565b005b34801561093f57600080fd5b5061095a600480360381019061095591906143de565b611f08565b6040516109679190614500565b60405180910390f35b34801561097c57600080fd5b5061099760048036038101906109929190614856565b611fad565b005b3480156109a557600080fd5b506109c060048036038101906109bb91906148c2565b611fd6565b005b3480156109ce57600080fd5b506109e960048036038101906109e49190614816565b612009565b005b3480156109f757600080fd5b50610a126004803603810190610a0d9190614a80565b61215b565b604051610a1f919061438d565b60405180910390f35b348015610a3457600080fd5b50610a4f6004803603810190610a4a91906143de565b6121ef565b604051610a5c919061459d565b60405180910390f35b348015610a7157600080fd5b50610a8c6004803603810190610a879190614816565b61220c565b005b348015610a9a57600080fd5b50610ab56004803603810190610ab09190614ac0565b6122e4565b005b6000610ac28261236d565b9050919050565b600081610ad5816123e7565b610b14576040517f08c379a0000000000000000000000000000000000000000000000000000000008152600401610b0b90614b4c565b60405180910390fd5b610b1d8361251f565b915050919050565b606060008054610b3490614b9b565b80601f0160208091040260200160405190810160405280929190818152602001828054610b6090614b9b565b8015610bad5780601f10610b8257610100808354040283529160200191610bad565b820191906000526020600020905b815481529060010190602001808311610b9057829003601f168201915b5050505050905090565b6000610bc28261255c565b610c01576040517f08c379a0000000000000000000000000000000000000000000000000000000008152600401610bf890614c3f565b60405180910390fd5b6004600083815260200190815260200160002060009054906101000a900473ffffffffffffffffffffffffffffffffffffffff169050919050565b6000610c4782611788565b90508073ffffffffffffffffffffffffffffffffffffffff168373ffffffffffffffffffffffffffffffffffffffff161415610cb8576040517f08c379a0000000000000000000000000000000000000000000000000000000008152600401610caf90614cd1565b60405180910390fd5b8073ffffffffffffffffffffffffffffffffffffffff16610cd76125c8565b73ffffffffffffffffffffffffffffffffffffffff161480610d065750610d0581610d006125c8565b61215b565b5b610d45576040517f08c379a0000000000000000000000000000000000000000000000000000000008152600401610d3c90614d63565b60405180910390fd5b610d4f83836125d0565b505050565b80610d5e81612689565b610d9d576040517f08c379a0000000000000000000000000000000000000000000000000000000008152600401610d9490614dcf565b60405180910390fd5b813373ffffffffffffffffffffffffffffffffffffffff16610dbe82611788565b73ffffffffffffffffffffffffffffffffffffffff1614610e14576040517f08c379a0000000000000000000000000000000000000000000000000000000008152600401610e0b90614e3b565b60405180910390fd5b610e1d836127c1565b827f6a954bd8417a491685feaae6ddad6ca52234ae6e9e02bbdfea52b463c8513d6a600080604051610e50929190614e5b565b60405180910390a2505050565b6000600880549050905090565b6000806001811115610e7f57610e7e614e84565b5b816001811115610e9257610e91614e84565b5b1415610f0157610ec27f9f2df0fed2c77648de5860a4cc508cd0818c85b8b8a1ab4ceeef8d981c8956a633611989565b80610ef35750610ef27f11c2020b6b4f4e00c2410234e0c72636b4739cf7cda4d8e24ef6b881350e670433611989565b5b610efc57600080fd5b610f93565b600180811115610f1457610f13614e84565b5b816001811115610f2757610f26614e84565b5b1415610f9257610f577fd565e3fc066df348a5cbc05a8d6323e00552838041cea2d84cc59876ba37735d33611989565b80610f885750610f877f6f75c7e45b923a976102cf1173921af9cd14f3a7474f743b14e64b348aa2520d33611989565b5b610f9157600080fd5b5b5b610f9c826127fb565b5050565b610fb1610fab6125c8565b826128d4565b610ff0576040517f08c379a0000000000000000000000000000000000000000000000000000000008152600401610fe790614f25565b60405180910390fd5b610ffb8383836129b2565b505050565b6000600a6000838152602001908152602001600020600101549050919050565b813373ffffffffffffffffffffffffffffffffffffffff1661104182611788565b73ffffffffffffffffffffffffffffffffffffffff1614611097576040517f08c379a000000000000000000000000000000000000000000000000000000000815260040161108e90614e3b565b60405180910390fd5b826110a1816123e7565b156110e1576040517f08c379a00000000000000000000000000000000000000000000000000000000081526004016110d890614f91565b60405180910390fd5b8260008111611125576040517f08c379a000000000000000000000000000000000000000000000000000000000815260040161111c90614ffd565b60405180910390fd5b61112f8585612c0e565b847f270b316b51ab2cf3a3bb8ca4d22e76a327d05e762fcaa8bd6afaf8cfde9270b760405160405180910390a25050505050565b61116c82611000565b61117d816111786125c8565b612c2a565b6111878383612cc7565b505050565b60006111978361183a565b82106111d8576040517f08c379a00000000000000000000000000000000000000000000000000000000081526004016111cf9061508f565b60405180910390fd5b600660008473ffffffffffffffffffffffffffffffffffffffff1673ffffffffffffffffffffffffffffffffffffffff168152602001908152602001600020600083815260200190815260200160002054905092915050565b6112396125c8565b73ffffffffffffffffffffffffffffffffffffffff168173ffffffffffffffffffffffffffffffffffffffff16146112a6576040517f08c379a000000000000000000000000000000000000000000000000000000000815260040161129d90615121565b60405180910390fd5b6112b08282612da8565b5050565b806112be81612689565b6112fd576040517f08c379a00000000000000000000000000000000000000000000000000000000081526004016112f490614dcf565b60405180910390fd5b81611307816123e7565b15611347576040517f08c379a000000000000000000000000000000000000000000000000000000000815260040161133e90614f91565b60405180910390fd5b61135083612e8a565b3414611391576040517f08c379a0000000000000000000000000000000000000000000000000000000008152600401611388906151b3565b60405180910390fd5b6113a561139d84611788565b338534612ea7565b6113ae836127c1565b827f6a954bd8417a491685feaae6ddad6ca52234ae6e9e02bbdfea52b463c8513d6a6000806040516113e1929190614e5b565b60405180910390a2505050565b7f6f75c7e45b923a976102cf1173921af9cd14f3a7474f743b14e64b348aa2520d6114208161141b6125c8565b612c2a565b611429826127c1565b61143282612f38565b817f6a954bd8417a491685feaae6ddad6ca52234ae6e9e02bbdfea52b463c8513d6a600080604051611465929190614e5b565b60405180910390a25050565b61148c83838360405180602001604052806000815250611d17565b505050565b6000801b6114a6816114a16125c8565b612c2a565b81601460016101000a81548160ff0219169083151502179055505050565b813373ffffffffffffffffffffffffffffffffffffffff166114e582611788565b73ffffffffffffffffffffffffffffffffffffffff161461153b576040517f08c379a000000000000000000000000000000000000000000000000000000000815260040161153290614e3b565b60405180910390fd5b8261154581612689565b15611585576040517f08c379a000000000000000000000000000000000000000000000000000000000815260040161157c9061521f565b60405180910390fd5b8361158f816123e7565b156115cf576040517f08c379a00000000000000000000000000000000000000000000000000000000081526004016115c690614f91565b60405180910390fd5b8360008111611613576040517f08c379a000000000000000000000000000000000000000000000000000000000815260040161160a90614ffd565b60405180910390fd5b61161d8686612fc7565b857f6a954bd8417a491685feaae6ddad6ca52234ae6e9e02bbdfea52b463c8513d6a600180604051611650929190614e5b565b60405180910390a2505050505050565b600061166b8261255c565b9050919050565b600061167c610e5d565b82106116bd576040517f08c379a00000000000000000000000000000000000000000000000000000000081526004016116b4906152b1565b60405180910390fd5b600882815481106116d1576116d06152d1565b5b90600052602060002001549050919050565b6000601460019054906101000a900460ff16905090565b6015805461170790614b9b565b80601f016020809104026020016040519081016040528092919081815260200182805461173390614b9b565b80156117805780601f1061175557610100808354040283529160200191611780565b820191906000526020600020905b81548152906001019060200180831161176357829003601f168201915b505050505081565b6000806002600084815260200190815260200160002060009054906101000a900473ffffffffffffffffffffffffffffffffffffffff169050600073ffffffffffffffffffffffffffffffffffffffff168173ffffffffffffffffffffffffffffffffffffffff161415611831576040517f08c379a000000000000000000000000000000000000000000000000000000000815260040161182890615372565b60405180910390fd5b80915050919050565b60008073ffffffffffffffffffffffffffffffffffffffff168273ffffffffffffffffffffffffffffffffffffffff1614156118ab576040517f08c379a00000000000000000000000000000000000000000000000000000000081526004016118a290615404565b60405180910390fd5b600360008373ffffffffffffffffffffffffffffffffffffffff1673ffffffffffffffffffffffffffffffffffffffff168152602001908152602001600020549050919050565b6000601460009054906101000a900460ff16905090565b600061191482612689565b9050919050565b6000611926826123e7565b9050919050565b60008161193981612689565b611978576040517f08c379a000000000000000000000000000000000000000000000000000000000815260040161196f90614dcf565b60405180910390fd5b61198183612e8a565b915050919050565b6000600a600084815260200190815260200160002060000160008373ffffffffffffffffffffffffffffffffffffffff1673ffffffffffffffffffffffffffffffffffffffff16815260200190815260200160002060009054906101000a900460ff16905092915050565b606060018054611a0390614b9b565b80601f0160208091040260200160405190810160405280929190818152602001828054611a2f90614b9b565b8015611a7c5780601f10611a5157610100808354040283529160200191611a7c565b820191906000526020600020905b815481529060010190602001808311611a5f57829003601f168201915b5050505050905090565b6000801b81565b611a956125c8565b73ffffffffffffffffffffffffffffffffffffffff168273ffffffffffffffffffffffffffffffffffffffff161415611b03576040517f08c379a0000000000000000000000000000000000000000000000000000000008152600401611afa90615470565b60405180910390fd5b8060056000611b106125c8565b73ffffffffffffffffffffffffffffffffffffffff1673ffffffffffffffffffffffffffffffffffffffff16815260200190815260200160002060008473ffffffffffffffffffffffffffffffffffffffff1673ffffffffffffffffffffffffffffffffffffffff16815260200190815260200160002060006101000a81548160ff0219169083151502179055508173ffffffffffffffffffffffffffffffffffffffff16611bbd6125c8565b73ffffffffffffffffffffffffffffffffffffffff167f17307eab39ab6107e8899845ad3d59bd9653f200f220920489ca2b5937696c3183604051611c02919061438d565b60405180910390a35050565b803373ffffffffffffffffffffffffffffffffffffffff16611c2f82611788565b73ffffffffffffffffffffffffffffffffffffffff1614611c85576040517f08c379a0000000000000000000000000000000000000000000000000000000008152600401611c7c90614e3b565b60405180910390fd5b81611c8f816123e7565b611cce576040517f08c379a0000000000000000000000000000000000000000000000000000000008152600401611cc590614b4c565b60405180910390fd5b611cd783612fe0565b827f6a954bd8417a491685feaae6ddad6ca52234ae6e9e02bbdfea52b463c8513d6a600080604051611d0a929190614e5b565b60405180910390a2505050565b611d28611d226125c8565b836128d4565b611d67576040517f08c379a0000000000000000000000000000000000000000000000000000000008152600401611d5e90614f25565b60405180910390fd5b611d7384848484613051565b50505050565b80611d83816123e7565b611dc2576040517f08c379a0000000000000000000000000000000000000000000000000000000008152600401611db990614b4c565b60405180910390fd5b611dcb82612e8a565b3411611e0c576040517f08c379a0000000000000000000000000000000000000000000000000000000008152600401611e0390615502565b60405180910390fd5b611e1582611788565b73ffffffffffffffffffffffffffffffffffffffff163373ffffffffffffffffffffffffffffffffffffffff161415611e83576040517f08c379a0000000000000000000000000000000000000000000000000000000008152600401611e7a90615594565b60405180910390fd5b611e8d30346130ad565b611e9682613161565b611ea08234612c0e565b611eaa82336131ce565b817f270b316b51ab2cf3a3bb8ca4d22e76a327d05e762fcaa8bd6afaf8cfde9270b760405160405180910390a2817fc95960509dc0aa4c1e2234f4c1313b2a1466421ea6d179fb0714306305b9c1e560405160405180910390a25050565b6060600e60008381526020019081526020016000208054611f2890614b9b565b80601f0160208091040260200160405190810160405280929190818152602001828054611f5490614b9b565b8015611fa15780601f10611f7657610100808354040283529160200191611fa1565b820191906000526020600020905b815481529060010190602001808311611f8457829003601f168201915b50505050509050919050565b611fb682611000565b611fc781611fc26125c8565b612c2a565b611fd18383612da8565b505050565b6000801b611feb81611fe66125c8565b612c2a565b81601460006101000a81548160ff0219169083151502179055505050565b813373ffffffffffffffffffffffffffffffffffffffff1661202a82611788565b73ffffffffffffffffffffffffffffffffffffffff1614612080576040517f08c379a000000000000000000000000000000000000000000000000000000000815260040161207790614e3b565b60405180910390fd5b8261208a81612689565b156120ca576040517f08c379a00000000000000000000000000000000000000000000000000000000081526004016120c19061521f565b60405180910390fd5b826000811161210e576040517f08c379a000000000000000000000000000000000000000000000000000000000815260040161210590614ffd565b60405180910390fd5b6121188585613224565b847f6a954bd8417a491685feaae6ddad6ca52234ae6e9e02bbdfea52b463c8513d6a6001600060405161214c929190614e5b565b60405180910390a25050505050565b6000600560008473ffffffffffffffffffffffffffffffffffffffff1673ffffffffffffffffffffffffffffffffffffffff16815260200190815260200160002060008373ffffffffffffffffffffffffffffffffffffffff1673ffffffffffffffffffffffffffffffffffffffff16815260200190815260200160002060009054906101000a900460ff16905092915050565b6000600d6000838152602001908152602001600020549050919050565b7f530aa2e706d666af1b04435a2cdfb362347f53ff7899306c42824dce7c19b0f761223e816122396125c8565b612c2a565b600c600084815260200190815260200160002060009054906101000a900473ffffffffffffffffffffffffffffffffffffffff1673ffffffffffffffffffffffffffffffffffffffff163373ffffffffffffffffffffffffffffffffffffffff16146122a957600080fd5b81600d6000858152602001908152602001600020546122c891906155e3565b600d600085815260200190815260200160002081905550505050565b7f6f75c7e45b923a976102cf1173921af9cd14f3a7474f743b14e64b348aa2520d612316816123116125c8565b612c2a565b81600c600085815260200190815260200160002060006101000a81548173ffffffffffffffffffffffffffffffffffffffff021916908373ffffffffffffffffffffffffffffffffffffffff160217905550505050565b60007f7965db0b000000000000000000000000000000000000000000000000000000007bffffffffffffffffffffffffffffffffffffffffffffffffffffffff1916827bffffffffffffffffffffffffffffffffffffffffffffffffffffffff191614806123e057506123df8261323d565b5b9050919050565b600080600073__BoolBitStorage________________________63f7d1c1dd856040518263ffffffff1660e01b81526004016124239190615648565b604080518083038186803b15801561243a57600080fd5b505af415801561244e573d6000803e3d6000fd5b505050506040513d601f19601f820116820180604052508101906124729190615678565b809250819350505073__BoolBitStorage________________________633ea5d11e6011600085815260200190815260200160002054836040518363ffffffff1660e01b81526004016124c69291906156b8565b60206040518083038186803b1580156124de57600080fd5b505af41580156124f2573d6000803e3d6000fd5b505050506040513d601f19601f8201168201806040525081019061251691906156f6565b92505050919050565b60006013600083815260200190815260200160002060009054906101000a900473ffffffffffffffffffffffffffffffffffffffff169050919050565b60008073ffffffffffffffffffffffffffffffffffffffff166002600084815260200190815260200160002060009054906101000a900473ffffffffffffffffffffffffffffffffffffffff1673ffffffffffffffffffffffffffffffffffffffff1614159050919050565b600033905090565b816004600083815260200190815260200160002060006101000a81548173ffffffffffffffffffffffffffffffffffffffff021916908373ffffffffffffffffffffffffffffffffffffffff160217905550808273ffffffffffffffffffffffffffffffffffffffff1661264383611788565b73ffffffffffffffffffffffffffffffffffffffff167f8c5be1e5ebec7d5bd14f71427d1e84f3dd0314c0f7b2291e5b200ac8c7c3b92560405160405180910390a45050565b600080600073__BoolBitStorage________________________63f7d1c1dd856040518263ffffffff1660e01b81526004016126c59190615648565b604080518083038186803b1580156126dc57600080fd5b505af41580156126f0573d6000803e3d6000fd5b505050506040513d601f19601f820116820180604052508101906127149190615678565b809250819350505073__BoolBitStorage________________________633ea5d11e6010600085815260200190815260200160002054836040518363ffffffff1660e01b81526004016127689291906156b8565b60206040518083038186803b15801561278057600080fd5b505af4158015612794573d6000803e3d6000fd5b505050506040513d601f19601f820116820180604052508101906127b891906156f6565b92505050919050565b6127ca816123e7565b156127ed576127d881613161565b6127e1816132b7565b6127ec81600061331e565b5b6127f881600061346a565b50565b60001515600f8260405161280f919061575f565b908152602001604051809103902060009054906101000a900460ff1615151461286d576040517f08c379a0000000000000000000000000000000000000000000000000000000008152600401612864906157c2565b60405180910390fd5b6000612879600b6135b6565b905061288533826135c4565b61288f8183613792565b6001600f836040516128a1919061575f565b908152602001604051809103902060006101000a81548160ff0219169083151502179055506128d0600b6137be565b5050565b60006128df8261255c565b61291e576040517f08c379a000000000000000000000000000000000000000000000000000000000815260040161291590615854565b60405180910390fd5b600061292983611788565b90508073ffffffffffffffffffffffffffffffffffffffff168473ffffffffffffffffffffffffffffffffffffffff16148061299857508373ffffffffffffffffffffffffffffffffffffffff1661298084610bb7565b73ffffffffffffffffffffffffffffffffffffffff16145b806129a957506129a8818561215b565b5b91505092915050565b8273ffffffffffffffffffffffffffffffffffffffff166129d282611788565b73ffffffffffffffffffffffffffffffffffffffff1614612a28576040517f08c379a0000000000000000000000000000000000000000000000000000000008152600401612a1f906158e6565b60405180910390fd5b600073ffffffffffffffffffffffffffffffffffffffff168273ffffffffffffffffffffffffffffffffffffffff161415612a98576040517f08c379a0000000000000000000000000000000000000000000000000000000008152600401612a8f90615978565b60405180910390fd5b612aa38383836137d4565b612aae6000826125d0565b6001600360008573ffffffffffffffffffffffffffffffffffffffff1673ffffffffffffffffffffffffffffffffffffffff1681526020019081526020016000206000828254612afe9190615998565b925050819055506001600360008473ffffffffffffffffffffffffffffffffffffffff1673ffffffffffffffffffffffffffffffffffffffff1681526020019081526020016000206000828254612b5591906155e3565b92505081905550816002600083815260200190815260200160002060006101000a81548173ffffffffffffffffffffffffffffffffffffffff021916908373ffffffffffffffffffffffffffffffffffffffff160217905550808273ffffffffffffffffffffffffffffffffffffffff168473ffffffffffffffffffffffffffffffffffffffff167fddf252ad1be2c89b69c2b068fc378daa952ba7f163c4a11628f55a4df523b3ef60405160405180910390a4505050565b8060126000848152602001908152602001600020819055505050565b612c348282611989565b612cc357612c598173ffffffffffffffffffffffffffffffffffffffff1660146138e8565b612c678360001c60206138e8565b604051602001612c78929190615a64565b6040516020818303038152906040526040517f08c379a0000000000000000000000000000000000000000000000000000000008152600401612cba9190614500565b60405180910390fd5b5050565b612cd18282611989565b612da4576001600a600084815260200190815260200160002060000160008373ffffffffffffffffffffffffffffffffffffffff1673ffffffffffffffffffffffffffffffffffffffff16815260200190815260200160002060006101000a81548160ff021916908315150217905550612d496125c8565b73ffffffffffffffffffffffffffffffffffffffff168173ffffffffffffffffffffffffffffffffffffffff16837f2f8788117e7eff1d82e926ec794901d17c78024a50270940304540a733656f0d60405160405180910390a45b5050565b612db28282611989565b15612e86576000600a600084815260200190815260200160002060000160008373ffffffffffffffffffffffffffffffffffffffff1673ffffffffffffffffffffffffffffffffffffffff16815260200190815260200160002060006101000a81548160ff021916908315150217905550612e2b6125c8565b73ffffffffffffffffffffffffffffffffffffffff168173ffffffffffffffffffffffffffffffffffffffff16837ff6391f5c32d9c69d2a47ea670b442974b53935d1edc7fd64eb21e047a839171b60405160405180910390a45b5050565b600060126000838152602001908152602001600020549050919050565b612eb184826130ad565b612ebc8484846129b2565b8273ffffffffffffffffffffffffffffffffffffffff16612edc83611788565b73ffffffffffffffffffffffffffffffffffffffff1614612f32576040517f08c379a0000000000000000000000000000000000000000000000000000000008152600401612f2990615aea565b60405180910390fd5b50505050565b612f41816127c1565b807f6a954bd8417a491685feaae6ddad6ca52234ae6e9e02bbdfea52b463c8513d6a600080604051612f74929190614e5b565b60405180910390a2612f8581613b24565b612fc4816040518060400160405280600381526020017f4e2f410000000000000000000000000000000000000000000000000000000000815250613792565b50565b612fd18282613224565b612fdc82600161331e565b5050565b6000612feb8261251f565b9050600073ffffffffffffffffffffffffffffffffffffffff168173ffffffffffffffffffffffffffffffffffffffff16141561302757600080fd5b61303b33828461303686612e8a565b612ea7565b613044826132b7565b61304d826127c1565b5050565b61305c8484846129b2565b61306884848484613c35565b6130a7576040517f08c379a000000000000000000000000000000000000000000000000000000000815260040161309e90615b7c565b60405180910390fd5b50505050565b6000808373ffffffffffffffffffffffffffffffffffffffff16836040516130d490615bcd565b60006040518083038185875af1925050503d8060008114613111576040519150601f19603f3d011682016040523d82523d6000602084013e613116565b606091505b50915091508161315b576040517f08c379a000000000000000000000000000000000000000000000000000000000815260040161315290615c2e565b60405180910390fd5b50505050565b600061316c8261251f565b9050600061317983612e8a565b9050600081141580156131b95750600073ffffffffffffffffffffffffffffffffffffffff168273ffffffffffffffffffffffffffffffffffffffff1614155b156131c9576131c882826130ad565b5b505050565b806013600084815260200190815260200160002060006101000a81548173ffffffffffffffffffffffffffffffffffffffff021916908373ffffffffffffffffffffffffffffffffffffffff1602179055505050565b61322f82600161346a565b6132398282612c0e565b5050565b60007f780e9d63000000000000000000000000000000000000000000000000000000007bffffffffffffffffffffffffffffffffffffffffffffffffffffffff1916827bffffffffffffffffffffffffffffffffffffffffffffffffffffffff191614806132b057506132af82613dcc565b5b9050919050565b600073ffffffffffffffffffffffffffffffffffffffff166132d88261251f565b73ffffffffffffffffffffffffffffffffffffffff16146132ff576132fe8160006131ce565b5b600061330a82612e8a565b1461331b5761331a816000612c0e565b5b50565b60008073__BoolBitStorage________________________63f7d1c1dd856040518263ffffffff1660e01b81526004016133589190615648565b604080518083038186803b15801561336f57600080fd5b505af4158015613383573d6000803e3d6000fd5b505050506040513d601f19601f820116820180604052508101906133a79190615678565b809250819350505073__BoolBitStorage________________________6333720693601160008581526020019081526020016000205483866040518463ffffffff1660e01b81526004016133fd93929190615c5d565b60206040518083038186803b15801561341557600080fd5b505af4158015613429573d6000803e3d6000fd5b505050506040513d601f19601f8201168201806040525081019061344d9190615c94565b601160008481526020019081526020016000208190555050505050565b60008073__BoolBitStorage________________________63f7d1c1dd856040518263ffffffff1660e01b81526004016134a49190615648565b604080518083038186803b1580156134bb57600080fd5b505af41580156134cf573d6000803e3d6000fd5b505050506040513d601f19601f820116820180604052508101906134f39190615678565b809250819350505073__BoolBitStorage________________________6333720693601060008581526020019081526020016000205483866040518463ffffffff1660e01b815260040161354993929190615c5d565b60206040518083038186803b15801561356157600080fd5b505af4158015613575573d6000803e3d6000fd5b505050506040513d601f19601f820116820180604052508101906135999190615c94565b601060008481526020019081526020016000208190555050505050565b600081600001549050919050565b600073ffffffffffffffffffffffffffffffffffffffff168273ffffffffffffffffffffffffffffffffffffffff161415613634576040517f08c379a000000000000000000000000000000000000000000000000000000000815260040161362b90615d0d565b60405180910390fd5b61363d8161255c565b1561367d576040517f08c379a000000000000000000000000000000000000000000000000000000000815260040161367490615d79565b60405180910390fd5b613689600083836137d4565b6001600360008473ffffffffffffffffffffffffffffffffffffffff1673ffffffffffffffffffffffffffffffffffffffff16815260200190815260200160002060008282546136d991906155e3565b92505081905550816002600083815260200190815260200160002060006101000a81548173ffffffffffffffffffffffffffffffffffffffff021916908373ffffffffffffffffffffffffffffffffffffffff160217905550808273ffffffffffffffffffffffffffffffffffffffff16600073ffffffffffffffffffffffffffffffffffffffff167fddf252ad1be2c89b69c2b068fc378daa952ba7f163c4a11628f55a4df523b3ef60405160405180910390a45050565b80600e600084815260200190815260200160002090805190602001906137b9929190614236565b505050565b6001816000016000828254019250508190555050565b6137df838383613eae565b600073ffffffffffffffffffffffffffffffffffffffff168373ffffffffffffffffffffffffffffffffffffffff1614156138225761381d81613eb3565b613861565b8173ffffffffffffffffffffffffffffffffffffffff168373ffffffffffffffffffffffffffffffffffffffff16146138605761385f8382613efc565b5b5b600073ffffffffffffffffffffffffffffffffffffffff168273ffffffffffffffffffffffffffffffffffffffff1614156138a45761389f81614069565b6138e3565b8273ffffffffffffffffffffffffffffffffffffffff168273ffffffffffffffffffffffffffffffffffffffff16146138e2576138e1828261413a565b5b5b505050565b6060600060028360026138fb9190615d99565b61390591906155e3565b67ffffffffffffffff81111561391e5761391d6145c2565b5b6040519080825280601f01601f1916602001820160405280156139505781602001600182028036833780820191505090505b5090507f300000000000000000000000000000000000000000000000000000000000000081600081518110613988576139876152d1565b5b60200101907effffffffffffffffffffffffffffffffffffffffffffffffffffffffffffff1916908160001a9053507f7800000000000000000000000000000000000000000000000000000000000000816001815181106139ec576139eb6152d1565b5b60200101907effffffffffffffffffffffffffffffffffffffffffffffffffffffffffffff1916908160001a90535060006001846002613a2c9190615d99565b613a3691906155e3565b90505b6001811115613ad6577f3031323334353637383961626364656600000000000000000000000000000000600f861660108110613a7857613a776152d1565b5b1a60f81b828281518110613a8f57613a8e6152d1565b5b60200101907effffffffffffffffffffffffffffffffffffffffffffffffffffffffffffff1916908160001a905350600485901c945080613acf90615df3565b9050613a39565b5060008414613b1a576040517f08c379a0000000000000000000000000000000000000000000000000000000008152600401613b1190615e69565b60405180910390fd5b8091505092915050565b6000613b2f82611788565b9050613b3d816000846137d4565b613b486000836125d0565b6001600360008373ffffffffffffffffffffffffffffffffffffffff1673ffffffffffffffffffffffffffffffffffffffff1681526020019081526020016000206000828254613b989190615998565b925050819055506002600083815260200190815260200160002060006101000a81549073ffffffffffffffffffffffffffffffffffffffff021916905581600073ffffffffffffffffffffffffffffffffffffffff168273ffffffffffffffffffffffffffffffffffffffff167fddf252ad1be2c89b69c2b068fc378daa952ba7f163c4a11628f55a4df523b3ef60405160405180910390a45050565b6000613c568473ffffffffffffffffffffffffffffffffffffffff166141b9565b15613dbf578373ffffffffffffffffffffffffffffffffffffffff1663150b7a02613c7f6125c8565b8786866040518563ffffffff1660e01b8152600401613ca19493929190615ede565b602060405180830381600087803b158015613cbb57600080fd5b505af1925050508015613cec57506040513d601f19601f82011682018060405250810190613ce99190615f3f565b60015b613d6f573d8060008114613d1c576040519150601f19603f3d011682016040523d82523d6000602084013e613d21565b606091505b50600081511415613d67576040517f08c379a0000000000000000000000000000000000000000000000000000000008152600401613d5e90615b7c565b60405180910390fd5b805181602001fd5b63150b7a0260e01b7bffffffffffffffffffffffffffffffffffffffffffffffffffffffff1916817bffffffffffffffffffffffffffffffffffffffffffffffffffffffff191614915050613dc4565b600190505b949350505050565b60007f80ac58cd000000000000000000000000000000000000000000000000000000007bffffffffffffffffffffffffffffffffffffffffffffffffffffffff1916827bffffffffffffffffffffffffffffffffffffffffffffffffffffffff19161480613e9757507f5b5e139f000000000000000000000000000000000000000000000000000000007bffffffffffffffffffffffffffffffffffffffffffffffffffffffff1916827bffffffffffffffffffffffffffffffffffffffffffffffffffffffff1916145b80613ea75750613ea6826141cc565b5b9050919050565b505050565b6008805490506009600083815260200190815260200160002081905550600881908060018154018082558091505060019003906000526020600020016000909190919091505550565b60006001613f098461183a565b613f139190615998565b9050600060076000848152602001908152602001600020549050818114613ff8576000600660008673ffffffffffffffffffffffffffffffffffffffff1673ffffffffffffffffffffffffffffffffffffffff168152602001908152602001600020600084815260200190815260200160002054905080600660008773ffffffffffffffffffffffffffffffffffffffff1673ffffffffffffffffffffffffffffffffffffffff168152602001908152602001600020600084815260200190815260200160002081905550816007600083815260200190815260200160002081905550505b6007600084815260200190815260200160002060009055600660008573ffffffffffffffffffffffffffffffffffffffff1673ffffffffffffffffffffffffffffffffffffffff16815260200190815260200160002060008381526020019081526020016000206000905550505050565b6000600160088054905061407d9190615998565b90506000600960008481526020019081526020016000205490506000600883815481106140ad576140ac6152d1565b5b9060005260206000200154905080600883815481106140cf576140ce6152d1565b5b90600052602060002001819055508160096000838152602001908152602001600020819055506009600085815260200190815260200160002060009055600880548061411e5761411d615f6c565b5b6001900381819060005260206000200160009055905550505050565b60006141458361183a565b905081600660008573ffffffffffffffffffffffffffffffffffffffff1673ffffffffffffffffffffffffffffffffffffffff168152602001908152602001600020600083815260200190815260200160002081905550806007600084815260200190815260200160002081905550505050565b600080823b905060008111915050919050565b60007f01ffc9a7000000000000000000000000000000000000000000000000000000007bffffffffffffffffffffffffffffffffffffffffffffffffffffffff1916827bffffffffffffffffffffffffffffffffffffffffffffffffffffffff1916149050919050565b82805461424290614b9b565b90600052602060002090601f01602090048101928261426457600085556142ab565b82601f1061427d57805160ff19168380011785556142ab565b828001600101855582156142ab579182015b828111156142aa57825182559160200191906001019061428f565b5b5090506142b891906142bc565b5090565b5b808211156142d55760008160009055506001016142bd565b5090565b6000604051905090565b600080fd5b600080fd5b60007fffffffff0000000000000000000000000000000000000000000000000000000082169050919050565b614322816142ed565b811461432d57600080fd5b50565b60008135905061433f81614319565b92915050565b60006020828403121561435b5761435a6142e3565b5b600061436984828501614330565b91505092915050565b60008115159050919050565b61438781614372565b82525050565b60006020820190506143a2600083018461437e565b92915050565b6000819050919050565b6143bb816143a8565b81146143c657600080fd5b50565b6000813590506143d8816143b2565b92915050565b6000602082840312156143f4576143f36142e3565b5b6000614402848285016143c9565b91505092915050565b600073ffffffffffffffffffffffffffffffffffffffff82169050919050565b60006144368261440b565b9050919050565b6144468161442b565b82525050565b6000602082019050614461600083018461443d565b92915050565b600081519050919050565b600082825260208201905092915050565b60005b838110156144a1578082015181840152602081019050614486565b838111156144b0576000848401525b50505050565b6000601f19601f8301169050919050565b60006144d282614467565b6144dc8185614472565b93506144ec818560208601614483565b6144f5816144b6565b840191505092915050565b6000602082019050818103600083015261451a81846144c7565b905092915050565b61452b8161442b565b811461453657600080fd5b50565b60008135905061454881614522565b92915050565b60008060408385031215614565576145646142e3565b5b600061457385828601614539565b9250506020614584858286016143c9565b9150509250929050565b614597816143a8565b82525050565b60006020820190506145b2600083018461458e565b92915050565b600080fd5b600080fd5b7f4e487b7100000000000000000000000000000000000000000000000000000000600052604160045260246000fd5b6145fa826144b6565b810181811067ffffffffffffffff82111715614619576146186145c2565b5b80604052505050565b600061462c6142d9565b905061463882826145f1565b919050565b600067ffffffffffffffff821115614658576146576145c2565b5b614661826144b6565b9050602081019050919050565b82818337600083830152505050565b600061469061468b8461463d565b614622565b9050828152602081018484840111156146ac576146ab6145bd565b5b6146b784828561466e565b509392505050565b600082601f8301126146d4576146d36145b8565b5b81356146e484826020860161467d565b91505092915050565b600060208284031215614703576147026142e3565b5b600082013567ffffffffffffffff811115614721576147206142e8565b5b61472d848285016146bf565b91505092915050565b60008060006060848603121561474f5761474e6142e3565b5b600061475d86828701614539565b935050602061476e86828701614539565b925050604061477f868287016143c9565b9150509250925092565b6000819050919050565b61479c81614789565b81146147a757600080fd5b50565b6000813590506147b981614793565b92915050565b6000602082840312156147d5576147d46142e3565b5b60006147e3848285016147aa565b91505092915050565b6147f581614789565b82525050565b600060208201905061481060008301846147ec565b92915050565b6000806040838503121561482d5761482c6142e3565b5b600061483b858286016143c9565b925050602061484c858286016143c9565b9150509250929050565b6000806040838503121561486d5761486c6142e3565b5b600061487b858286016147aa565b925050602061488c85828601614539565b9150509250929050565b61489f81614372565b81146148aa57600080fd5b50565b6000813590506148bc81614896565b92915050565b6000602082840312156148d8576148d76142e3565b5b60006148e6848285016148ad565b91505092915050565b600060208284031215614905576149046142e3565b5b600061491384828501614539565b91505092915050565b60008060408385031215614933576149326142e3565b5b600061494185828601614539565b9250506020614952858286016148ad565b9150509250929050565b600067ffffffffffffffff821115614977576149766145c2565b5b614980826144b6565b9050602081019050919050565b60006149a061499b8461495c565b614622565b9050828152602081018484840111156149bc576149bb6145bd565b5b6149c784828561466e565b509392505050565b600082601f8301126149e4576149e36145b8565b5b81356149f484826020860161498d565b91505092915050565b60008060008060808587031215614a1757614a166142e3565b5b6000614a2587828801614539565b9450506020614a3687828801614539565b9350506040614a47878288016143c9565b925050606085013567ffffffffffffffff811115614a6857614a676142e8565b5b614a74878288016149cf565b91505092959194509250565b60008060408385031215614a9757614a966142e3565b5b6000614aa585828601614539565b9250506020614ab685828601614539565b9150509250929050565b60008060408385031215614ad757614ad66142e3565b5b6000614ae5858286016143c9565b9250506020614af685828601614539565b9150509250929050565b7f4536000000000000000000000000000000000000000000000000000000000000600082015250565b6000614b36600283614472565b9150614b4182614b00565b602082019050919050565b60006020820190508181036000830152614b6581614b29565b9050919050565b7f4e487b7100000000000000000000000000000000000000000000000000000000600052602260045260246000fd5b60006002820490506001821680614bb357607f821691505b60208210811415614bc757614bc6614b6c565b5b50919050565b7f4552433732313a20617070726f76656420717565727920666f72206e6f6e657860008201527f697374656e7420746f6b656e0000000000000000000000000000000000000000602082015250565b6000614c29602c83614472565b9150614c3482614bcd565b604082019050919050565b60006020820190508181036000830152614c5881614c1c565b9050919050565b7f4552433732313a20617070726f76616c20746f2063757272656e74206f776e6560008201527f7200000000000000000000000000000000000000000000000000000000000000602082015250565b6000614cbb602183614472565b9150614cc682614c5f565b604082019050919050565b60006020820190508181036000830152614cea81614cae565b9050919050565b7f4552433732313a20617070726f76652063616c6c6572206973206e6f74206f7760008201527f6e6572206e6f7220617070726f76656420666f7220616c6c0000000000000000602082015250565b6000614d4d603883614472565b9150614d5882614cf1565b604082019050919050565b60006020820190508181036000830152614d7c81614d40565b9050919050565b7f4534000000000000000000000000000000000000000000000000000000000000600082015250565b6000614db9600283614472565b9150614dc482614d83565b602082019050919050565b60006020820190508181036000830152614de881614dac565b9050919050565b7f4532000000000000000000000000000000000000000000000000000000000000600082015250565b6000614e25600283614472565b9150614e3082614def565b602082019050919050565b60006020820190508181036000830152614e5481614e18565b9050919050565b6000604082019050614e70600083018561437e565b614e7d602083018461437e565b9392505050565b7f4e487b7100000000000000000000000000000000000000000000000000000000600052602160045260246000fd5b7f4552433732313a207472616e736665722063616c6c6572206973206e6f74206f60008201527f776e6572206e6f7220617070726f766564000000000000000000000000000000602082015250565b6000614f0f603183614472565b9150614f1a82614eb3565b604082019050919050565b60006020820190508181036000830152614f3e81614f02565b9050919050565b7f4537000000000000000000000000000000000000000000000000000000000000600082015250565b6000614f7b600283614472565b9150614f8682614f45565b602082019050919050565b60006020820190508181036000830152614faa81614f6e565b9050919050565b7f4538000000000000000000000000000000000000000000000000000000000000600082015250565b6000614fe7600283614472565b9150614ff282614fb1565b602082019050919050565b6000602082019050818103600083015261501681614fda565b9050919050565b7f455243373231456e756d657261626c653a206f776e657220696e646578206f7560008201527f74206f6620626f756e6473000000000000000000000000000000000000000000602082015250565b6000615079602b83614472565b91506150848261501d565b604082019050919050565b600060208201905081810360008301526150a88161506c565b9050919050565b7f416363657373436f6e74726f6c3a2063616e206f6e6c792072656e6f756e636560008201527f20726f6c657320666f722073656c660000000000000000000000000000000000602082015250565b600061510b602f83614472565b9150615116826150af565b604082019050919050565b6000602082019050818103600083015261513a816150fe565b9050919050565b7f4d6f6e65792073656e7420656974686572206e6f7420656e6f756768206f722060008201527f746f6f206d7563682e0000000000000000000000000000000000000000000000602082015250565b600061519d602983614472565b91506151a882615141565b604082019050919050565b600060208201905081810360008301526151cc81615190565b9050919050565b7f4535000000000000000000000000000000000000000000000000000000000000600082015250565b6000615209600283614472565b9150615214826151d3565b602082019050919050565b60006020820190508181036000830152615238816151fc565b9050919050565b7f455243373231456e756d657261626c653a20676c6f62616c20696e646578206f60008201527f7574206f6620626f756e64730000000000000000000000000000000000000000602082015250565b600061529b602c83614472565b91506152a68261523f565b604082019050919050565b600060208201905081810360008301526152ca8161528e565b9050919050565b7f4e487b7100000000000000000000000000000000000000000000000000000000600052603260045260246000fd5b7f4552433732313a206f776e657220717565727920666f72206e6f6e657869737460008201527f656e7420746f6b656e0000000000000000000000000000000000000000000000602082015250565b600061535c602983614472565b915061536782615300565b604082019050919050565b6000602082019050818103600083015261538b8161534f565b9050919050565b7f4552433732313a2062616c616e636520717565727920666f7220746865207a6560008201527f726f206164647265737300000000000000000000000000000000000000000000602082015250565b60006153ee602a83614472565b91506153f982615392565b604082019050919050565b6000602082019050818103600083015261541d816153e1565b9050919050565b7f4552433732313a20617070726f766520746f2063616c6c657200000000000000600082015250565b600061545a601983614472565b915061546582615424565b602082019050919050565b600060208201905081810360008301526154898161544d565b9050919050565b7f426964206d75737420626520686967686572207468616e20746865206375727260008201527f656e742070726963652e00000000000000000000000000000000000000000000602082015250565b60006154ec602a83614472565b91506154f782615490565b604082019050919050565b6000602082019050818103600083015261551b816154df565b9050919050565b7f596f752063616e6e6f7420626964206f6e20796f7572206f776e20617563746960008201527f6f6e2e0000000000000000000000000000000000000000000000000000000000602082015250565b600061557e602383614472565b915061558982615522565b604082019050919050565b600060208201905081810360008301526155ad81615571565b9050919050565b7f4e487b7100000000000000000000000000000000000000000000000000000000600052601160045260246000fd5b60006155ee826143a8565b91506155f9836143a8565b9250827fffffffffffffffffffffffffffffffffffffffffffffffffffffffffffffffff0382111561562e5761562d6155b4565b5b828201905092915050565b615642816143a8565b82525050565b600060208201905061565d6000830184615639565b92915050565b600081519050615672816143b2565b92915050565b6000806040838503121561568f5761568e6142e3565b5b600061569d85828601615663565b92505060206156ae85828601615663565b9150509250929050565b60006040820190506156cd6000830185615639565b6156da6020830184615639565b9392505050565b6000815190506156f081614896565b92915050565b60006020828403121561570c5761570b6142e3565b5b600061571a848285016156e1565b91505092915050565b600081905092915050565b600061573982614467565b6157438185615723565b9350615753818560208601614483565b80840191505092915050565b600061576b828461572e565b915081905092915050565b7f4533000000000000000000000000000000000000000000000000000000000000600082015250565b60006157ac600283614472565b91506157b782615776565b602082019050919050565b600060208201905081810360008301526157db8161579f565b9050919050565b7f4552433732313a206f70657261746f7220717565727920666f72206e6f6e657860008201527f697374656e7420746f6b656e0000000000000000000000000000000000000000602082015250565b600061583e602c83614472565b9150615849826157e2565b604082019050919050565b6000602082019050818103600083015261586d81615831565b9050919050565b7f4552433732313a207472616e73666572206f6620746f6b656e2074686174206960008201527f73206e6f74206f776e0000000000000000000000000000000000000000000000602082015250565b60006158d0602983614472565b91506158db82615874565b604082019050919050565b600060208201905081810360008301526158ff816158c3565b9050919050565b7f4552433732313a207472616e7366657220746f20746865207a65726f2061646460008201527f7265737300000000000000000000000000000000000000000000000000000000602082015250565b6000615962602483614472565b915061596d82615906565b604082019050919050565b6000602082019050818103600083015261599181615955565b9050919050565b60006159a3826143a8565b91506159ae836143a8565b9250828210156159c1576159c06155b4565b5b828203905092915050565b7f416363657373436f6e74726f6c3a206163636f756e7420000000000000000000600082015250565b6000615a02601783615723565b9150615a0d826159cc565b601782019050919050565b7f206973206d697373696e6720726f6c6520000000000000000000000000000000600082015250565b6000615a4e601183615723565b9150615a5982615a18565b601182019050919050565b6000615a6f826159f5565b9150615a7b828561572e565b9150615a8682615a41565b9150615a92828461572e565b91508190509392505050565b7f4531330000000000000000000000000000000000000000000000000000000000600082015250565b6000615ad4600383614472565b9150615adf82615a9e565b602082019050919050565b60006020820190508181036000830152615b0381615ac7565b9050919050565b7f4552433732313a207472616e7366657220746f206e6f6e20455243373231526560008201527f63656976657220696d706c656d656e7465720000000000000000000000000000602082015250565b6000615b66603283614472565b9150615b7182615b0a565b604082019050919050565b60006020820190508181036000830152615b9581615b59565b9050919050565b600081905092915050565b50565b6000615bb7600083615b9c565b9150615bc282615ba7565b600082019050919050565b6000615bd882615baa565b9150819050919050565b7f4531320000000000000000000000000000000000000000000000000000000000600082015250565b6000615c18600383614472565b9150615c2382615be2565b602082019050919050565b60006020820190508181036000830152615c4781615c0b565b9050919050565b615c5781614372565b82525050565b6000606082019050615c726000830186615639565b615c7f6020830185615639565b615c8c6040830184615c4e565b949350505050565b600060208284031215615caa57615ca96142e3565b5b6000615cb884828501615663565b91505092915050565b7f4552433732313a206d696e7420746f20746865207a65726f2061646472657373600082015250565b6000615cf7602083614472565b9150615d0282615cc1565b602082019050919050565b60006020820190508181036000830152615d2681615cea565b9050919050565b7f4552433732313a20746f6b656e20616c7265616479206d696e74656400000000600082015250565b6000615d63601c83614472565b9150615d6e82615d2d565b602082019050919050565b60006020820190508181036000830152615d9281615d56565b9050919050565b6000615da4826143a8565b9150615daf836143a8565b9250817fffffffffffffffffffffffffffffffffffffffffffffffffffffffffffffffff0483118215151615615de857615de76155b4565b5b828202905092915050565b6000615dfe826143a8565b91506000821415615e1257615e116155b4565b5b600182039050919050565b7f537472696e67733a20686578206c656e67746820696e73756666696369656e74600082015250565b6000615e53602083614472565b9150615e5e82615e1d565b602082019050919050565b60006020820190508181036000830152615e8281615e46565b9050919050565b600081519050919050565b600082825260208201905092915050565b6000615eb082615e89565b615eba8185615e94565b9350615eca818560208601614483565b615ed3816144b6565b840191505092915050565b6000608082019050615ef3600083018761443d565b615f00602083018661443d565b615f0d604083018561458e565b8181036060830152615f1f8184615ea5565b905095945050505050565b600081519050615f3981614319565b92915050565b600060208284031215615f5557615f546142e3565b5b6000615f6384828501615f2a565b91505092915050565b7f4e487b7100000000000000000000000000000000000000000000000000000000600052603160045260246000fdfea264697066735822122013c321d55e3c021e7a96053eb4447eb7d5265b9029d2d93d26701da029fc062364736f6c63430008090033",
  "immutableReferences": {},
  "source": "// SPDX-License-Identifier: MIT\r\npragma solidity >=0.6.0 <0.9.0;\r\n\r\nimport \"./Vehicle.sol\";\r\n\r\ncontract ExternalGateway is Vehicle {\r\n    event NewPrice(uint256 indexed tokenId);\r\n    event NewTopBidder(uint256 indexed tokenId);\r\n\r\n    function exists(uint256 tokenId) external view returns (bool) {\r\n        return _exists(tokenId);\r\n    }\r\n\r\n    function tokenURI(uint256 tokenId)\r\n        public\r\n        view\r\n        virtual\r\n        override\r\n        returns (string memory)\r\n    {\r\n        return _tokenURIs[tokenId];\r\n    }\r\n\r\n    function getVehiclePrice(uint256 tokenId)\r\n        external\r\n        view\r\n        onlyIfForSale(tokenId)\r\n        returns (uint256)\r\n    {\r\n        return _getVehiclePrice(tokenId);\r\n    }\r\n\r\n    function getTopBidder(uint256 tokenId)\r\n        external\r\n        view\r\n        onlyIfAuction(tokenId)\r\n        returns (address)\r\n    {\r\n        return _getTopBidder(tokenId);\r\n    }\r\n\r\n    function isAuction(uint256 tokenId) external view returns (bool) {\r\n        return _isAuction(tokenId);\r\n    }\r\n\r\n    function isForSale(uint256 tokenId) external view returns (bool) {\r\n        return _isForSale(tokenId);\r\n    }\r\n\r\n    function concludeAuction(uint256 tokenId)\r\n        external\r\n        onlyOwnerOf(tokenId)\r\n        onlyIfAuction(tokenId)\r\n    {\r\n        _concludeAuction(tokenId);\r\n        emit SaleStatus(tokenId, false, false);\r\n    }\r\n\r\n    function listAuction(uint256 tokenId, uint256 price)\r\n        external\r\n        onlyOwnerOf(tokenId)\r\n        onlyIfNotForSale(tokenId)\r\n        onlyIfNotAuction(tokenId)\r\n        onlyIfPriceNonNull(price)\r\n    {\r\n        _listAuction(tokenId, price);\r\n        emit SaleStatus(tokenId, true, true);\r\n    }\r\n\r\n    function listForSale(uint256 tokenId, uint256 price)\r\n        external\r\n        onlyOwnerOf(tokenId)\r\n        onlyIfNotForSale(tokenId)\r\n        onlyIfPriceNonNull(price)\r\n    {\r\n        _listForSale(tokenId, price);\r\n        emit SaleStatus(tokenId, true, false);\r\n    }\r\n\r\n    function removeFromSale(uint256 tokenId)\r\n        external\r\n        onlyIfForSale(tokenId)\r\n        onlyOwnerOf(tokenId)\r\n    {\r\n        _removeFromSale(tokenId);\r\n        emit SaleStatus(tokenId, false, false);\r\n    }\r\n\r\n    function setVehiclePrice(uint256 tokenId, uint256 _price)\r\n        external\r\n        onlyOwnerOf(tokenId)\r\n        onlyIfNotAuction(tokenId)\r\n        onlyIfPriceNonNull(_price)\r\n    {\r\n        _setVehiclePrice(tokenId, _price);\r\n        emit NewPrice(tokenId);\r\n    }\r\n\r\n    function buyVehicle(uint256 tokenId)\r\n        external\r\n        payable\r\n        onlyIfForSale(tokenId)\r\n        onlyIfNotAuction(tokenId)\r\n    {\r\n        require(\r\n            msg.value == _getVehiclePrice(tokenId),\r\n            \"Money sent either not enough or too much.\"\r\n        );\r\n\r\n        _classicExchange(ownerOf(tokenId), msg.sender, tokenId, msg.value);\r\n        _removeFromSale(tokenId);\r\n        emit SaleStatus(tokenId, false, false);\r\n    }\r\n\r\n    function bidVehicle(uint256 tokenId)\r\n        external\r\n        payable\r\n        onlyIfAuction(tokenId)\r\n    {\r\n        require(\r\n            msg.value > _getVehiclePrice(tokenId),\r\n            \"Bid must be higher than the current price.\"\r\n        );\r\n        require(\r\n            msg.sender != ownerOf(tokenId),\r\n            \"You cannot bid on your own auction.\"\r\n        );\r\n\r\n        _secureMoneyTransfer(address(this), msg.value);\r\n        _refundCurentTopBidder(tokenId);\r\n        _setVehiclePrice(tokenId, msg.value);\r\n        _setTopBidder(tokenId, msg.sender);\r\n        emit NewPrice(tokenId);\r\n        emit NewTopBidder(tokenId);\r\n    }\r\n\r\n    function createVehicle(string memory uri)\r\n        external\r\n        onlyClass(ROLE_CLASS.MINTER)\r\n    {\r\n        mint(uri);\r\n    }\r\n\r\n    function destroyVehicle(uint256 _tokenId)\r\n        external\r\n        onlyRole(AUTHORITY_ROLE_ADMIN)\r\n    {\r\n        _removeFromSale(_tokenId);\r\n        burn(_tokenId);\r\n        emit SaleStatus(_tokenId, false, false);\r\n    }\r\n\r\n    //ODOMETER\r\n\r\n    function getOdometerValue(uint256 tokenId) external view returns (uint256) {\r\n        return _odometerValue[tokenId];\r\n    }\r\n\r\n    function increaseOdometer(uint256 tokenId, uint256 value)\r\n        external\r\n        onlyRole(ODOMETER_ROLE)\r\n    {\r\n        require(msg.sender == _odometerAddress[tokenId]);\r\n        _odometerValue[tokenId] = _odometerValue[tokenId] + value;\r\n    }\r\n\r\n    function setOdometerAddress(uint256 tokenId, address odometer)\r\n        external\r\n        onlyRole(AUTHORITY_ROLE_ADMIN)\r\n    {\r\n        _odometerAddress[tokenId] = odometer;\r\n    }\r\n\r\n    // IOT CACHE/RESTART\r\n\r\n    function getPullCache() external view returns (bool) {\r\n        return pullCache;\r\n    }\r\n\r\n    function setPullCache(bool value) external onlyRole(DEFAULT_ADMIN_ROLE) {\r\n        pullCache = value;\r\n    }\r\n\r\n    function getRestart() external view returns (bool) {\r\n        return restart;\r\n    } \r\n\r\n    function setRestart(bool value) external onlyRole(DEFAULT_ADMIN_ROLE) {\r\n        restart = value;\r\n    }\r\n\r\n}\r\n",
  "sourcePath": "C:\\sgs020\\contracts\\ExternalGateway.sol",
  "compiler": {
    "name": "solc",
    "version": "0.8.9+commit.e5eed63a.Emscripten.clang"
  },
  "schemaVersion": "3.4.3",
  "updatedAt": "2022-02-26T17:06:14.057Z",
  "devdoc": {
    "kind": "dev",
    "methods": {
      "approve(address,uint256)": {
        "details": "See {IERC721-approve}."
      },
      "balanceOf(address)": {
        "details": "See {IERC721-balanceOf}."
      },
      "getApproved(uint256)": {
        "details": "See {IERC721-getApproved}."
      },
      "getRoleAdmin(bytes32)": {
        "details": "Returns the admin role that controls `role`. See {grantRole} and {revokeRole}. To change a role's admin, use {_setRoleAdmin}."
      },
      "grantRole(bytes32,address)": {
        "details": "Grants `role` to `account`. If `account` had not been already granted `role`, emits a {RoleGranted} event. Requirements: - the caller must have ``role``'s admin role."
      },
      "hasRole(bytes32,address)": {
        "details": "Returns `true` if `account` has been granted `role`."
      },
      "isApprovedForAll(address,address)": {
        "details": "See {IERC721-isApprovedForAll}."
      },
      "name()": {
        "details": "See {IERC721Metadata-name}."
      },
      "ownerOf(uint256)": {
        "details": "See {IERC721-ownerOf}."
      },
      "renounceRole(bytes32,address)": {
        "details": "Revokes `role` from the calling account. Roles are often managed via {grantRole} and {revokeRole}: this function's purpose is to provide a mechanism for accounts to lose their privileges if they are compromised (such as when a trusted device is misplaced). If the calling account had been granted `role`, emits a {RoleRevoked} event. Requirements: - the caller must be `account`."
      },
      "revokeRole(bytes32,address)": {
        "details": "Revokes `role` from `account`. If `account` had been granted `role`, emits a {RoleRevoked} event. Requirements: - the caller must have ``role``'s admin role."
      },
      "safeTransferFrom(address,address,uint256)": {
        "details": "See {IERC721-safeTransferFrom}."
      },
      "safeTransferFrom(address,address,uint256,bytes)": {
        "details": "See {IERC721-safeTransferFrom}."
      },
      "setApprovalForAll(address,bool)": {
        "details": "See {IERC721-setApprovalForAll}."
      },
      "symbol()": {
        "details": "See {IERC721Metadata-symbol}."
      },
      "tokenByIndex(uint256)": {
        "details": "See {IERC721Enumerable-tokenByIndex}."
      },
      "tokenOfOwnerByIndex(address,uint256)": {
        "details": "See {IERC721Enumerable-tokenOfOwnerByIndex}."
      },
      "tokenURI(uint256)": {
        "details": "See {IERC721Metadata-tokenURI}."
      },
      "totalSupply()": {
        "details": "See {IERC721Enumerable-totalSupply}."
      },
      "transferFrom(address,address,uint256)": {
        "details": "See {IERC721-transferFrom}."
      }
    },
    "version": 1
  },
  "userdoc": {
    "kind": "user",
    "methods": {},
    "version": 1
  }
}