{
  "contractName": "ExternalGateway",
  "abi": [
    {
      "anonymous": false,
      "inputs": [
        {
          "indexed": true,
          "internalType": "address",
          "name": "owner",
          "type": "address"
        },
        {
          "indexed": true,
          "internalType": "address",
          "name": "approved",
          "type": "address"
        },
        {
          "indexed": true,
          "internalType": "uint256",
          "name": "tokenId",
          "type": "uint256"
        }
      ],
      "name": "Approval",
      "type": "event"
    },
    {
      "anonymous": false,
      "inputs": [
        {
          "indexed": true,
          "internalType": "address",
          "name": "owner",
          "type": "address"
        },
        {
          "indexed": true,
          "internalType": "address",
          "name": "operator",
          "type": "address"
        },
        {
          "indexed": false,
          "internalType": "bool",
          "name": "approved",
          "type": "bool"
        }
      ],
      "name": "ApprovalForAll",
      "type": "event"
    },
    {
      "anonymous": false,
      "inputs": [
        {
          "indexed": true,
          "internalType": "uint256",
          "name": "tokenId",
          "type": "uint256"
        }
      ],
      "name": "NewPrice",
      "type": "event"
    },
    {
      "anonymous": false,
      "inputs": [
        {
          "indexed": true,
          "internalType": "uint256",
          "name": "tokenId",
          "type": "uint256"
        }
      ],
      "name": "NewTopBidder",
      "type": "event"
    },
    {
      "anonymous": false,
      "inputs": [
        {
          "indexed": true,
          "internalType": "uint256",
          "name": "tokenId",
          "type": "uint256"
        },
        {
          "indexed": true,
          "internalType": "address",
          "name": "depositer",
          "type": "address"
        },
        {
          "indexed": false,
          "internalType": "uint256",
          "name": "amount",
          "type": "uint256"
        }
      ],
      "name": "Received",
      "type": "event"
    },
    {
      "anonymous": false,
      "inputs": [
        {
          "indexed": true,
          "internalType": "bytes32",
          "name": "role",
          "type": "bytes32"
        },
        {
          "indexed": true,
          "internalType": "bytes32",
          "name": "previousAdminRole",
          "type": "bytes32"
        },
        {
          "indexed": true,
          "internalType": "bytes32",
          "name": "newAdminRole",
          "type": "bytes32"
        }
      ],
      "name": "RoleAdminChanged",
      "type": "event"
    },
    {
      "anonymous": false,
      "inputs": [
        {
          "indexed": true,
          "internalType": "bytes32",
          "name": "role",
          "type": "bytes32"
        },
        {
          "indexed": true,
          "internalType": "address",
          "name": "account",
          "type": "address"
        },
        {
          "indexed": true,
          "internalType": "address",
          "name": "sender",
          "type": "address"
        }
      ],
      "name": "RoleGranted",
      "type": "event"
    },
    {
      "anonymous": false,
      "inputs": [
        {
          "indexed": true,
          "internalType": "bytes32",
          "name": "role",
          "type": "bytes32"
        },
        {
          "indexed": true,
          "internalType": "address",
          "name": "account",
          "type": "address"
        },
        {
          "indexed": true,
          "internalType": "address",
          "name": "sender",
          "type": "address"
        }
      ],
      "name": "RoleRevoked",
      "type": "event"
    },
    {
      "anonymous": false,
      "inputs": [
        {
          "indexed": true,
          "internalType": "uint256",
          "name": "tokenId",
          "type": "uint256"
        },
        {
          "indexed": false,
          "internalType": "bool",
          "name": "status",
          "type": "bool"
        },
        {
          "indexed": false,
          "internalType": "bool",
          "name": "isAuction",
          "type": "bool"
        }
      ],
      "name": "SaleStatus",
      "type": "event"
    },
    {
      "anonymous": false,
      "inputs": [
        {
          "indexed": true,
          "internalType": "address",
          "name": "from",
          "type": "address"
        },
        {
          "indexed": true,
          "internalType": "address",
          "name": "to",
          "type": "address"
        },
        {
          "indexed": true,
          "internalType": "uint256",
          "name": "tokenId",
          "type": "uint256"
        }
      ],
      "name": "Transfer",
      "type": "event"
    },
    {
      "inputs": [],
      "name": "DEFAULT_ADMIN_ROLE",
      "outputs": [
        {
          "internalType": "bytes32",
          "name": "",
          "type": "bytes32"
        }
      ],
      "stateMutability": "view",
      "type": "function",
      "constant": true
    },
    {
      "inputs": [
        {
          "internalType": "address",
          "name": "to",
          "type": "address"
        },
        {
          "internalType": "uint256",
          "name": "tokenId",
          "type": "uint256"
        }
      ],
      "name": "approve",
      "outputs": [],
      "stateMutability": "nonpayable",
      "type": "function"
    },
    {
      "inputs": [
        {
          "internalType": "address",
          "name": "owner",
          "type": "address"
        }
      ],
      "name": "balanceOf",
      "outputs": [
        {
          "internalType": "uint256",
          "name": "",
          "type": "uint256"
        }
      ],
      "stateMutability": "view",
      "type": "function",
      "constant": true
    },
    {
      "inputs": [
        {
          "internalType": "uint256",
          "name": "tokenId",
          "type": "uint256"
        }
      ],
      "name": "getApproved",
      "outputs": [
        {
          "internalType": "address",
          "name": "",
          "type": "address"
        }
      ],
      "stateMutability": "view",
      "type": "function",
      "constant": true
    },
    {
      "inputs": [],
      "name": "getContractBalance",
      "outputs": [
        {
          "internalType": "uint256",
          "name": "",
          "type": "uint256"
        }
      ],
      "stateMutability": "view",
      "type": "function",
      "constant": true
    },
    {
      "inputs": [
        {
          "internalType": "uint256",
          "name": "tokenId",
          "type": "uint256"
        }
      ],
      "name": "getOdometer",
      "outputs": [
        {
          "internalType": "uint256",
          "name": "",
          "type": "uint256"
        }
      ],
      "stateMutability": "view",
      "type": "function",
      "constant": true
    },
    {
      "inputs": [
        {
          "internalType": "bytes32",
          "name": "role",
          "type": "bytes32"
        }
      ],
      "name": "getRoleAdmin",
      "outputs": [
        {
          "internalType": "bytes32",
          "name": "",
          "type": "bytes32"
        }
      ],
      "stateMutability": "view",
      "type": "function",
      "constant": true
    },
    {
      "inputs": [
        {
          "internalType": "bytes32",
          "name": "role",
          "type": "bytes32"
        },
        {
          "internalType": "address",
          "name": "account",
          "type": "address"
        }
      ],
      "name": "grantRole",
      "outputs": [],
      "stateMutability": "nonpayable",
      "type": "function"
    },
    {
      "inputs": [
        {
          "internalType": "bytes32",
          "name": "role",
          "type": "bytes32"
        },
        {
          "internalType": "address",
          "name": "account",
          "type": "address"
        }
      ],
      "name": "hasRole",
      "outputs": [
        {
          "internalType": "bool",
          "name": "",
          "type": "bool"
        }
      ],
      "stateMutability": "view",
      "type": "function",
      "constant": true
    },
    {
      "inputs": [
        {
          "internalType": "uint256",
          "name": "tokenId",
          "type": "uint256"
        },
        {
          "internalType": "uint256",
          "name": "value",
          "type": "uint256"
        }
      ],
      "name": "incrementOdometerBy",
      "outputs": [],
      "stateMutability": "nonpayable",
      "type": "function"
    },
    {
      "inputs": [
        {
          "internalType": "address",
          "name": "owner",
          "type": "address"
        },
        {
          "internalType": "address",
          "name": "operator",
          "type": "address"
        }
      ],
      "name": "isApprovedForAll",
      "outputs": [
        {
          "internalType": "bool",
          "name": "",
          "type": "bool"
        }
      ],
      "stateMutability": "view",
      "type": "function",
      "constant": true
    },
    {
      "inputs": [],
      "name": "name",
      "outputs": [
        {
          "internalType": "string",
          "name": "",
          "type": "string"
        }
      ],
      "stateMutability": "view",
      "type": "function",
      "constant": true
    },
    {
      "inputs": [
        {
          "internalType": "uint256",
          "name": "tokenId",
          "type": "uint256"
        }
      ],
      "name": "ownerOf",
      "outputs": [
        {
          "internalType": "address",
          "name": "",
          "type": "address"
        }
      ],
      "stateMutability": "view",
      "type": "function",
      "constant": true
    },
    {
      "inputs": [
        {
          "internalType": "bytes32",
          "name": "role",
          "type": "bytes32"
        },
        {
          "internalType": "address",
          "name": "account",
          "type": "address"
        }
      ],
      "name": "renounceRole",
      "outputs": [],
      "stateMutability": "nonpayable",
      "type": "function"
    },
    {
      "inputs": [
        {
          "internalType": "bytes32",
          "name": "role",
          "type": "bytes32"
        },
        {
          "internalType": "address",
          "name": "account",
          "type": "address"
        }
      ],
      "name": "revokeRole",
      "outputs": [],
      "stateMutability": "nonpayable",
      "type": "function"
    },
    {
      "inputs": [
        {
          "internalType": "address",
          "name": "from",
          "type": "address"
        },
        {
          "internalType": "address",
          "name": "to",
          "type": "address"
        },
        {
          "internalType": "uint256",
          "name": "tokenId",
          "type": "uint256"
        }
      ],
      "name": "safeTransferFrom",
      "outputs": [],
      "stateMutability": "nonpayable",
      "type": "function"
    },
    {
      "inputs": [
        {
          "internalType": "address",
          "name": "from",
          "type": "address"
        },
        {
          "internalType": "address",
          "name": "to",
          "type": "address"
        },
        {
          "internalType": "uint256",
          "name": "tokenId",
          "type": "uint256"
        },
        {
          "internalType": "bytes",
          "name": "_data",
          "type": "bytes"
        }
      ],
      "name": "safeTransferFrom",
      "outputs": [],
      "stateMutability": "nonpayable",
      "type": "function"
    },
    {
      "inputs": [
        {
          "internalType": "address",
          "name": "operator",
          "type": "address"
        },
        {
          "internalType": "bool",
          "name": "approved",
          "type": "bool"
        }
      ],
      "name": "setApprovalForAll",
      "outputs": [],
      "stateMutability": "nonpayable",
      "type": "function"
    },
    {
      "inputs": [
        {
          "internalType": "bytes4",
          "name": "interfaceId",
          "type": "bytes4"
        }
      ],
      "name": "supportsInterface",
      "outputs": [
        {
          "internalType": "bool",
          "name": "",
          "type": "bool"
        }
      ],
      "stateMutability": "view",
      "type": "function",
      "constant": true
    },
    {
      "inputs": [],
      "name": "symbol",
      "outputs": [
        {
          "internalType": "string",
          "name": "",
          "type": "string"
        }
      ],
      "stateMutability": "view",
      "type": "function",
      "constant": true
    },
    {
      "inputs": [
        {
          "internalType": "uint256",
          "name": "index",
          "type": "uint256"
        }
      ],
      "name": "tokenByIndex",
      "outputs": [
        {
          "internalType": "uint256",
          "name": "",
          "type": "uint256"
        }
      ],
      "stateMutability": "view",
      "type": "function",
      "constant": true
    },
    {
      "inputs": [
        {
          "internalType": "address",
          "name": "owner",
          "type": "address"
        },
        {
          "internalType": "uint256",
          "name": "index",
          "type": "uint256"
        }
      ],
      "name": "tokenOfOwnerByIndex",
      "outputs": [
        {
          "internalType": "uint256",
          "name": "",
          "type": "uint256"
        }
      ],
      "stateMutability": "view",
      "type": "function",
      "constant": true
    },
    {
      "inputs": [],
      "name": "totalSupply",
      "outputs": [
        {
          "internalType": "uint256",
          "name": "",
          "type": "uint256"
        }
      ],
      "stateMutability": "view",
      "type": "function",
      "constant": true
    },
    {
      "inputs": [
        {
          "internalType": "address",
          "name": "from",
          "type": "address"
        },
        {
          "internalType": "address",
          "name": "to",
          "type": "address"
        },
        {
          "internalType": "uint256",
          "name": "tokenId",
          "type": "uint256"
        }
      ],
      "name": "transferFrom",
      "outputs": [],
      "stateMutability": "nonpayable",
      "type": "function"
    },
    {
      "stateMutability": "payable",
      "type": "receive",
      "payable": true
    },
    {
      "inputs": [
        {
          "internalType": "uint256",
          "name": "tokenId",
          "type": "uint256"
        }
      ],
      "name": "getIfTokenExists",
      "outputs": [
        {
          "internalType": "bool",
          "name": "",
          "type": "bool"
        }
      ],
      "stateMutability": "view",
      "type": "function",
      "constant": true
    },
    {
      "inputs": [
        {
          "internalType": "uint256",
          "name": "tokenId",
          "type": "uint256"
        }
      ],
      "name": "tokenURI",
      "outputs": [
        {
          "internalType": "string",
          "name": "",
          "type": "string"
        }
      ],
      "stateMutability": "view",
      "type": "function",
      "constant": true
    },
    {
      "inputs": [
        {
          "internalType": "uint256",
          "name": "tokenId",
          "type": "uint256"
        }
      ],
      "name": "getVehiclePrice",
      "outputs": [
        {
          "internalType": "uint256",
          "name": "",
          "type": "uint256"
        }
      ],
      "stateMutability": "view",
      "type": "function",
      "constant": true
    },
    {
      "inputs": [
        {
          "internalType": "uint256",
          "name": "tokenId",
          "type": "uint256"
        }
      ],
      "name": "getTopBidder",
      "outputs": [
        {
          "internalType": "address",
          "name": "",
          "type": "address"
        }
      ],
      "stateMutability": "view",
      "type": "function",
      "constant": true
    },
    {
      "inputs": [
        {
          "internalType": "uint256",
          "name": "tokenId",
          "type": "uint256"
        }
      ],
      "name": "isAuction",
      "outputs": [
        {
          "internalType": "bool",
          "name": "",
          "type": "bool"
        }
      ],
      "stateMutability": "view",
      "type": "function",
      "constant": true
    },
    {
      "inputs": [
        {
          "internalType": "uint256",
          "name": "tokenId",
          "type": "uint256"
        }
      ],
      "name": "isForSale",
      "outputs": [
        {
          "internalType": "bool",
          "name": "",
          "type": "bool"
        }
      ],
      "stateMutability": "view",
      "type": "function",
      "constant": true
    },
    {
      "inputs": [
        {
          "internalType": "uint256",
          "name": "tokenId",
          "type": "uint256"
        }
      ],
      "name": "concludeAuction",
      "outputs": [],
      "stateMutability": "nonpayable",
      "type": "function"
    },
    {
      "inputs": [
        {
          "internalType": "uint256",
          "name": "tokenId",
          "type": "uint256"
        },
        {
          "internalType": "uint256",
          "name": "price",
          "type": "uint256"
        }
      ],
      "name": "listAuction",
      "outputs": [],
      "stateMutability": "nonpayable",
      "type": "function"
    },
    {
      "inputs": [
        {
          "internalType": "uint256",
          "name": "tokenId",
          "type": "uint256"
        },
        {
          "internalType": "uint256",
          "name": "price",
          "type": "uint256"
        }
      ],
      "name": "listForSale",
      "outputs": [],
      "stateMutability": "nonpayable",
      "type": "function"
    },
    {
      "inputs": [
        {
          "internalType": "uint256",
          "name": "tokenId",
          "type": "uint256"
        }
      ],
      "name": "removeFromSale",
      "outputs": [],
      "stateMutability": "nonpayable",
      "type": "function"
    },
    {
      "inputs": [
        {
          "internalType": "uint256",
          "name": "tokenId",
          "type": "uint256"
        },
        {
          "internalType": "uint256",
          "name": "_price",
          "type": "uint256"
        }
      ],
      "name": "setVehiclePrice",
      "outputs": [],
      "stateMutability": "nonpayable",
      "type": "function"
    },
    {
      "inputs": [
        {
          "internalType": "uint256",
          "name": "tokenId",
          "type": "uint256"
        }
      ],
      "name": "buyVehicle",
      "outputs": [],
      "stateMutability": "payable",
      "type": "function",
      "payable": true
    },
    {
      "inputs": [
        {
          "internalType": "uint256",
          "name": "tokenId",
          "type": "uint256"
        }
      ],
      "name": "bidVehicle",
      "outputs": [],
      "stateMutability": "payable",
      "type": "function",
      "payable": true
    },
    {
      "inputs": [
        {
          "internalType": "string",
          "name": "uri",
          "type": "string"
        }
      ],
      "name": "createVehicle",
      "outputs": [],
      "stateMutability": "nonpayable",
      "type": "function"
    },
    {
      "inputs": [
        {
          "internalType": "uint256",
          "name": "_tokenId",
          "type": "uint256"
        }
      ],
      "name": "destroyVehicle",
      "outputs": [],
      "stateMutability": "nonpayable",
      "type": "function"
    }
  ],
  "bytecode": "0x60806040523480156200001157600080fd5b506040518060400160405280600781526020017f56656869636c65000000000000000000000000000000000000000000000000008152506040518060400160405280600381526020017f56484300000000000000000000000000000000000000000000000000000000008152508160009080519060200190620000969291906200043e565b508060019080519060200190620000af9291906200043e565b505050620000c76000801b336200023f60201b60201c565b620000f97f11c2020b6b4f4e00c2410234e0c72636b4739cf7cda4d8e24ef6b881350e6704336200023f60201b60201c565b6200012b7f9f2df0fed2c77648de5860a4cc508cd0818c85b8b8a1ab4ceeef8d981c8956a6336200023f60201b60201c565b620001607f11c2020b6b4f4e00c2410234e0c72636b4739cf7cda4d8e24ef6b881350e67046000801b6200025560201b60201c565b620001957f6f75c7e45b923a976102cf1173921af9cd14f3a7474f743b14e64b348aa2520d6000801b6200025560201b60201c565b620001e77f9f2df0fed2c77648de5860a4cc508cd0818c85b8b8a1ab4ceeef8d981c8956a67f11c2020b6b4f4e00c2410234e0c72636b4739cf7cda4d8e24ef6b881350e67046200025560201b60201c565b620002397fd565e3fc066df348a5cbc05a8d6323e00552838041cea2d84cc59876ba37735d7f6f75c7e45b923a976102cf1173921af9cd14f3a7474f743b14e64b348aa2520d6200025560201b60201c565b62000553565b620002518282620002b960201b60201c565b5050565b60006200026883620003ab60201b60201c565b905081600a6000858152602001908152602001600020600101819055508181847fbd79b86ffe0ab8e8776151514217cd7cacd52c909f66475c3af44e129f0b00ff60405160405180910390a4505050565b620002cb8282620003cb60201b60201c565b620003a7576001600a600084815260200190815260200160002060000160008373ffffffffffffffffffffffffffffffffffffffff1673ffffffffffffffffffffffffffffffffffffffff16815260200190815260200160002060006101000a81548160ff0219169083151502179055506200034c6200043660201b60201c565b73ffffffffffffffffffffffffffffffffffffffff168173ffffffffffffffffffffffffffffffffffffffff16837f2f8788117e7eff1d82e926ec794901d17c78024a50270940304540a733656f0d60405160405180910390a45b5050565b6000600a6000838152602001908152602001600020600101549050919050565b6000600a600084815260200190815260200160002060000160008373ffffffffffffffffffffffffffffffffffffffff1673ffffffffffffffffffffffffffffffffffffffff16815260200190815260200160002060009054906101000a900460ff16905092915050565b600033905090565b8280546200044c906200051d565b90600052602060002090601f016020900481019282620004705760008555620004bc565b82601f106200048b57805160ff1916838001178555620004bc565b82800160010185558215620004bc579182015b82811115620004bb5782518255916020019190600101906200049e565b5b509050620004cb9190620004cf565b5090565b5b80821115620004ea576000816000905550600101620004d0565b5090565b7f4e487b7100000000000000000000000000000000000000000000000000000000600052602260045260246000fd5b600060028204905060018216806200053657607f821691505b602082108114156200054d576200054c620004ee565b5b50919050565b615bde80620005636000396000f3fe6080604052600436106102345760003560e01c80634f6ccce71161012e578063a217fddf116100ab578063c87b56dd1161006f578063c87b56dd146108ba578063d547741f146108f7578063d84bcb2514610920578063e80d7fec14610949578063e985e9c5146109725761023b565b8063a217fddf146107f8578063a22cb46514610823578063b87613011461084c578063b88d4fde14610875578063befcfd591461089e5761023b565b80638704f2a3116100f25780638704f2a3146106d95780638b79aa201461071657806391d148541461075357806395d89b41146107905780639e3e000f146107bb5761023b565b80634f6ccce7146105ba5780636352211e146105f75780636f9fb98a1461063457806370a082311461065f5780638546d0021461069c5761023b565b806323b872dd116101bc57806336568abe1161018057806336568abe146104fa57806336ce092014610523578063375209601461053f57806342842e0e146105685780634c5210f6146105915761023b565b806323b872dd14610405578063248a9ca31461042e578063251781e71461046b5780632f2ff15d146104945780632f745c59146104bd5761023b565b8063095ea7b311610203578063095ea7b31461032257806311033e481461034b5780631361a3b61461038857806318160ddd146103b15780632132730e146103dc5761023b565b806301ffc9a71461024057806304744d081461027d57806306fdde03146102ba578063081812fc146102e55761023b565b3661023b57005b600080fd5b34801561024c57600080fd5b5061026760048036038101906102629190613fb8565b6109af565b6040516102749190614000565b60405180910390f35b34801561028957600080fd5b506102a4600480360381019061029f9190614051565b6109c1565b6040516102b191906140bf565b60405180910390f35b3480156102c657600080fd5b506102cf610a67565b6040516102dc9190614173565b60405180910390f35b3480156102f157600080fd5b5061030c60048036038101906103079190614051565b610af9565b60405161031991906140bf565b60405180910390f35b34801561032e57600080fd5b50610349600480360381019061034491906141c1565b610b7e565b005b34801561035757600080fd5b50610372600480360381019061036d9190614051565b610c96565b60405161037f9190614000565b60405180910390f35b34801561039457600080fd5b506103af60048036038101906103aa9190614051565b610ca8565b005b3480156103bd57600080fd5b506103c6610dfb565b6040516103d39190614210565b60405180910390f35b3480156103e857600080fd5b5061040360048036038101906103fe9190614360565b610e08565b005b34801561041157600080fd5b5061042c600480360381019061042791906143a9565b61105d565b005b34801561043a57600080fd5b5061045560048036038101906104509190614432565b6110bd565b604051610462919061446e565b60405180910390f35b34801561047757600080fd5b50610492600480360381019061048d9190614489565b6110dd565b005b3480156104a057600080fd5b506104bb60048036038101906104b691906144c9565b611220565b005b3480156104c957600080fd5b506104e460048036038101906104df91906141c1565b611249565b6040516104f19190614210565b60405180910390f35b34801561050657600080fd5b50610521600480360381019061051c91906144c9565b6112ee565b005b61053d60048036038101906105389190614051565b611371565b005b34801561054b57600080fd5b5061056660048036038101906105619190614051565b6114f5565b005b34801561057457600080fd5b5061058f600480360381019061058a91906143a9565b611545565b005b34801561059d57600080fd5b506105b860048036038101906105b39190614489565b611565565b005b3480156105c657600080fd5b506105e160048036038101906105dc9190614051565b61174b565b6040516105ee9190614210565b60405180910390f35b34801561060357600080fd5b5061061e60048036038101906106199190614051565b6117bc565b60405161062b91906140bf565b60405180910390f35b34801561064057600080fd5b5061064961186e565b6040516106569190614210565b60405180910390f35b34801561066b57600080fd5b5061068660048036038101906106819190614509565b611876565b6040516106939190614210565b60405180910390f35b3480156106a857600080fd5b506106c360048036038101906106be9190614051565b61192e565b6040516106d09190614000565b60405180910390f35b3480156106e557600080fd5b5061070060048036038101906106fb9190614051565b61198a565b60405161070d9190614000565b60405180910390f35b34801561072257600080fd5b5061073d60048036038101906107389190614051565b6119e6565b60405161074a9190614210565b60405180910390f35b34801561075f57600080fd5b5061077a600480360381019061077591906144c9565b611a8c565b6040516107879190614000565b60405180910390f35b34801561079c57600080fd5b506107a5611af7565b6040516107b29190614173565b60405180910390f35b3480156107c757600080fd5b506107e260048036038101906107dd9190614051565b611b89565b6040516107ef9190614210565b60405180910390f35b34801561080457600080fd5b5061080d611ba6565b60405161081a919061446e565b60405180910390f35b34801561082f57600080fd5b5061084a60048036038101906108459190614562565b611bad565b005b34801561085857600080fd5b50610873600480360381019061086e9190614051565b611d2e565b005b34801561088157600080fd5b5061089c60048036038101906108979190614643565b611e37565b005b6108b860048036038101906108b39190614051565b611e99565b005b3480156108c657600080fd5b506108e160048036038101906108dc9190614051565b612072565b6040516108ee9190614173565b60405180910390f35b34801561090357600080fd5b5061091e600480360381019061091991906144c9565b612161565b005b34801561092c57600080fd5b5061094760048036038101906109429190614489565b61218a565b005b34801561095557600080fd5b50610970600480360381019061096b9190614489565b6121c4565b005b34801561097e57600080fd5b50610999600480360381019061099491906146c6565b612360565b6040516109a69190614000565b60405180910390f35b60006109ba826123f4565b9050919050565b6000816109cd8161246e565b610a0c576040517f08c379a0000000000000000000000000000000000000000000000000000000008152600401610a0390614752565b60405180910390fd5b82610a16816124da565b610a55576040517f08c379a0000000000000000000000000000000000000000000000000000000008152600401610a4c906147be565b60405180910390fd5b610a5e84612516565b92505050919050565b606060008054610a769061480d565b80601f0160208091040260200160405190810160405280929190818152602001828054610aa29061480d565b8015610aef5780601f10610ac457610100808354040283529160200191610aef565b820191906000526020600020905b815481529060010190602001808311610ad257829003601f168201915b5050505050905090565b6000610b048261246e565b610b43576040517f08c379a0000000000000000000000000000000000000000000000000000000008152600401610b3a906148b1565b60405180910390fd5b6004600083815260200190815260200160002060009054906101000a900473ffffffffffffffffffffffffffffffffffffffff169050919050565b6000610b89826117bc565b90508073ffffffffffffffffffffffffffffffffffffffff168373ffffffffffffffffffffffffffffffffffffffff161415610bfa576040517f08c379a0000000000000000000000000000000000000000000000000000000008152600401610bf190614943565b60405180910390fd5b8073ffffffffffffffffffffffffffffffffffffffff16610c19612553565b73ffffffffffffffffffffffffffffffffffffffff161480610c485750610c4781610c42612553565b612360565b5b610c87576040517f08c379a0000000000000000000000000000000000000000000000000000000008152600401610c7e906149d5565b60405180910390fd5b610c91838361255b565b505050565b6000610ca18261246e565b9050919050565b80610cb28161246e565b610cf1576040517f08c379a0000000000000000000000000000000000000000000000000000000008152600401610ce890614752565b60405180910390fd5b81610cfb81612614565b610d3a576040517f08c379a0000000000000000000000000000000000000000000000000000000008152600401610d3190614a41565b60405180910390fd5b823373ffffffffffffffffffffffffffffffffffffffff16610d5b826117bc565b73ffffffffffffffffffffffffffffffffffffffff1614610db1576040517f08c379a0000000000000000000000000000000000000000000000000000000008152600401610da890614af9565b60405180910390fd5b610dba84612650565b837f6a954bd8417a491685feaae6ddad6ca52234ae6e9e02bbdfea52b463c8513d6a600080604051610ded929190614b19565b60405180910390a250505050565b6000600880549050905090565b6000806002811115610e1d57610e1c614b42565b5b816002811115610e3057610e2f614b42565b5b1415610e9f57610e607f9f2df0fed2c77648de5860a4cc508cd0818c85b8b8a1ab4ceeef8d981c8956a633611a8c565b80610e915750610e907f11c2020b6b4f4e00c2410234e0c72636b4739cf7cda4d8e24ef6b881350e670433611a8c565b5b610e9a57600080fd5b610fdc565b60016002811115610eb357610eb2614b42565b5b816002811115610ec657610ec5614b42565b5b1415610f3557610ef67fd565e3fc066df348a5cbc05a8d6323e00552838041cea2d84cc59876ba37735d33611a8c565b80610f275750610f267f6f75c7e45b923a976102cf1173921af9cd14f3a7474f743b14e64b348aa2520d33611a8c565b5b610f3057600080fd5b610fdb565b600280811115610f4857610f47614b42565b5b816002811115610f5b57610f5a614b42565b5b1415610fda57610f8b7f11c2020b6b4f4e00c2410234e0c72636b4739cf7cda4d8e24ef6b881350e670433611a8c565b80610fbc5750610fbb7f6f75c7e45b923a976102cf1173921af9cd14f3a7474f743b14e64b348aa2520d33611a8c565b5b80610fd05750610fcf6000801b33611a8c565b5b610fd957600080fd5b5b5b5b8160001515600f82604051610ff19190614bad565b908152602001604051809103902060009054906101000a900460ff1615151461104f576040517f08c379a000000000000000000000000000000000000000000000000000000000815260040161104690614c10565b60405180910390fd5b6110588361268a565b505050565b61106e611068612553565b826126f1565b6110ad576040517f08c379a00000000000000000000000000000000000000000000000000000000081526004016110a490614ca2565b60405180910390fd5b6110b88383836127cf565b505050565b6000600a6000838152602001908152602001600020600101549050919050565b813373ffffffffffffffffffffffffffffffffffffffff166110fe826117bc565b73ffffffffffffffffffffffffffffffffffffffff1614611154576040517f08c379a000000000000000000000000000000000000000000000000000000000815260040161114b90614af9565b60405180910390fd5b8261115e816124da565b1561119e576040517f08c379a000000000000000000000000000000000000000000000000000000000815260040161119590614d0e565b60405180910390fd5b82600081116111e2576040517f08c379a00000000000000000000000000000000000000000000000000000000081526004016111d990614d7a565b60405180910390fd5b6111ec8585612a2b565b847f270b316b51ab2cf3a3bb8ca4d22e76a327d05e762fcaa8bd6afaf8cfde9270b760405160405180910390a25050505050565b611229826110bd565b61123a81611235612553565b612a47565b6112448383612ae4565b505050565b600061125483611876565b8210611295576040517f08c379a000000000000000000000000000000000000000000000000000000000815260040161128c90614e0c565b60405180910390fd5b600660008473ffffffffffffffffffffffffffffffffffffffff1673ffffffffffffffffffffffffffffffffffffffff168152602001908152602001600020600083815260200190815260200160002054905092915050565b6112f6612553565b73ffffffffffffffffffffffffffffffffffffffff168173ffffffffffffffffffffffffffffffffffffffff1614611363576040517f08c379a000000000000000000000000000000000000000000000000000000000815260040161135a90614e9e565b60405180910390fd5b61136d8282612bc5565b5050565b8061137b8161246e565b6113ba576040517f08c379a00000000000000000000000000000000000000000000000000000000081526004016113b190614752565b60405180910390fd5b816113c481612614565b611403576040517f08c379a00000000000000000000000000000000000000000000000000000000081526004016113fa90614a41565b60405180910390fd5b8261140d816124da565b1561144d576040517f08c379a000000000000000000000000000000000000000000000000000000000815260040161144490614d0e565b60405180910390fd5b61145684612ca7565b3414611497576040517f08c379a000000000000000000000000000000000000000000000000000000000815260040161148e90614f30565b60405180910390fd5b6114ab6114a3856117bc565b338634612cc4565b6114b484612650565b837f6a954bd8417a491685feaae6ddad6ca52234ae6e9e02bbdfea52b463c8513d6a6000806040516114e7929190614b19565b60405180910390a250505050565b6114fe81612650565b61150781612d55565b807f6a954bd8417a491685feaae6ddad6ca52234ae6e9e02bbdfea52b463c8513d6a60008060405161153a929190614b19565b60405180910390a250565b61156083838360405180602001604052806000815250611e37565b505050565b8161156f8161246e565b6115ae576040517f08c379a00000000000000000000000000000000000000000000000000000000081526004016115a590614752565b60405180910390fd5b823373ffffffffffffffffffffffffffffffffffffffff166115cf826117bc565b73ffffffffffffffffffffffffffffffffffffffff1614611625576040517f08c379a000000000000000000000000000000000000000000000000000000000815260040161161c90614af9565b60405180910390fd5b8361162f81612614565b1561166f576040517f08c379a000000000000000000000000000000000000000000000000000000000815260040161166690614f9c565b60405180910390fd5b84611679816124da565b156116b9576040517f08c379a00000000000000000000000000000000000000000000000000000000081526004016116b090614d0e565b60405180910390fd5b84600081116116fd576040517f08c379a00000000000000000000000000000000000000000000000000000000081526004016116f490614d7a565b60405180910390fd5b6117078787612da0565b867f6a954bd8417a491685feaae6ddad6ca52234ae6e9e02bbdfea52b463c8513d6a60018060405161173a929190614b19565b60405180910390a250505050505050565b6000611755610dfb565b8210611796576040517f08c379a000000000000000000000000000000000000000000000000000000000815260040161178d9061502e565b60405180910390fd5b600882815481106117aa576117a961504e565b5b90600052602060002001549050919050565b6000806002600084815260200190815260200160002060009054906101000a900473ffffffffffffffffffffffffffffffffffffffff169050600073ffffffffffffffffffffffffffffffffffffffff168173ffffffffffffffffffffffffffffffffffffffff161415611865576040517f08c379a000000000000000000000000000000000000000000000000000000000815260040161185c906150ef565b60405180910390fd5b80915050919050565b600047905090565b60008073ffffffffffffffffffffffffffffffffffffffff168273ffffffffffffffffffffffffffffffffffffffff1614156118e7576040517f08c379a00000000000000000000000000000000000000000000000000000000081526004016118de90615181565b60405180910390fd5b600360008373ffffffffffffffffffffffffffffffffffffffff1673ffffffffffffffffffffffffffffffffffffffff168152602001908152602001600020549050919050565b60008161193a8161246e565b611979576040517f08c379a000000000000000000000000000000000000000000000000000000000815260040161197090614752565b60405180910390fd5b61198283612614565b915050919050565b6000816119968161246e565b6119d5576040517f08c379a00000000000000000000000000000000000000000000000000000000081526004016119cc90614752565b60405180910390fd5b6119de836124da565b915050919050565b6000816119f28161246e565b611a31576040517f08c379a0000000000000000000000000000000000000000000000000000000008152600401611a2890614752565b60405180910390fd5b82611a3b81612614565b611a7a576040517f08c379a0000000000000000000000000000000000000000000000000000000008152600401611a7190614a41565b60405180910390fd5b611a8384612ca7565b92505050919050565b6000600a600084815260200190815260200160002060000160008373ffffffffffffffffffffffffffffffffffffffff1673ffffffffffffffffffffffffffffffffffffffff16815260200190815260200160002060009054906101000a900460ff16905092915050565b606060018054611b069061480d565b80601f0160208091040260200160405190810160405280929190818152602001828054611b329061480d565b8015611b7f5780601f10611b5457610100808354040283529160200191611b7f565b820191906000526020600020905b815481529060010190602001808311611b6257829003601f168201915b5050505050905090565b6000600d6000838152602001908152602001600020549050919050565b6000801b81565b611bb5612553565b73ffffffffffffffffffffffffffffffffffffffff168273ffffffffffffffffffffffffffffffffffffffff161415611c23576040517f08c379a0000000000000000000000000000000000000000000000000000000008152600401611c1a906151ed565b60405180910390fd5b8060056000611c30612553565b73ffffffffffffffffffffffffffffffffffffffff1673ffffffffffffffffffffffffffffffffffffffff16815260200190815260200160002060008473ffffffffffffffffffffffffffffffffffffffff1673ffffffffffffffffffffffffffffffffffffffff16815260200190815260200160002060006101000a81548160ff0219169083151502179055508173ffffffffffffffffffffffffffffffffffffffff16611cdd612553565b73ffffffffffffffffffffffffffffffffffffffff167f17307eab39ab6107e8899845ad3d59bd9653f200f220920489ca2b5937696c3183604051611d229190614000565b60405180910390a35050565b803373ffffffffffffffffffffffffffffffffffffffff16611d4f826117bc565b73ffffffffffffffffffffffffffffffffffffffff1614611da5576040517f08c379a0000000000000000000000000000000000000000000000000000000008152600401611d9c90614af9565b60405180910390fd5b81611daf816124da565b611dee576040517f08c379a0000000000000000000000000000000000000000000000000000000008152600401611de5906147be565b60405180910390fd5b611df783612db9565b827f6a954bd8417a491685feaae6ddad6ca52234ae6e9e02bbdfea52b463c8513d6a600080604051611e2a929190614b19565b60405180910390a2505050565b611e48611e42612553565b836126f1565b611e87576040517f08c379a0000000000000000000000000000000000000000000000000000000008152600401611e7e90614ca2565b60405180910390fd5b611e9384848484612e2a565b50505050565b80611ea38161246e565b611ee2576040517f08c379a0000000000000000000000000000000000000000000000000000000008152600401611ed990614752565b60405180910390fd5b81611eec816124da565b611f2b576040517f08c379a0000000000000000000000000000000000000000000000000000000008152600401611f22906147be565b60405180910390fd5b611f3483612ca7565b3411611f75576040517f08c379a0000000000000000000000000000000000000000000000000000000008152600401611f6c9061527f565b60405180910390fd5b611f7e836117bc565b73ffffffffffffffffffffffffffffffffffffffff163373ffffffffffffffffffffffffffffffffffffffff161415611fec576040517f08c379a0000000000000000000000000000000000000000000000000000000008152600401611fe390615311565b60405180910390fd5b611ff63034612e86565b611fff83612f40565b6120098334612a2b565b6120138333612fad565b827f270b316b51ab2cf3a3bb8ca4d22e76a327d05e762fcaa8bd6afaf8cfde9270b760405160405180910390a2827fc95960509dc0aa4c1e2234f4c1313b2a1466421ea6d179fb0714306305b9c1e560405160405180910390a2505050565b60608161207e8161246e565b6120bd576040517f08c379a00000000000000000000000000000000000000000000000000000000081526004016120b490614752565b60405180910390fd5b600e600084815260200190815260200160002080546120db9061480d565b80601f01602080910402602001604051908101604052809291908181526020018280546121079061480d565b80156121545780601f1061212957610100808354040283529160200191612154565b820191906000526020600020905b81548152906001019060200180831161213757829003601f168201915b5050505050915050919050565b61216a826110bd565b61217b81612176612553565b612a47565b6121858383612bc5565b505050565b80600d6000848152602001908152602001600020546121a99190615360565b600d6000848152602001908152602001600020819055505050565b816121ce8161246e565b61220d576040517f08c379a000000000000000000000000000000000000000000000000000000000815260040161220490614752565b60405180910390fd5b823373ffffffffffffffffffffffffffffffffffffffff1661222e826117bc565b73ffffffffffffffffffffffffffffffffffffffff1614612284576040517f08c379a000000000000000000000000000000000000000000000000000000000815260040161227b90614af9565b60405180910390fd5b8361228e81612614565b156122ce576040517f08c379a00000000000000000000000000000000000000000000000000000000081526004016122c590614f9c565b60405180910390fd5b8360008111612312576040517f08c379a000000000000000000000000000000000000000000000000000000000815260040161230990614d7a565b60405180910390fd5b61231c8686613003565b857f6a954bd8417a491685feaae6ddad6ca52234ae6e9e02bbdfea52b463c8513d6a60016000604051612350929190614b19565b60405180910390a2505050505050565b6000600560008473ffffffffffffffffffffffffffffffffffffffff1673ffffffffffffffffffffffffffffffffffffffff16815260200190815260200160002060008373ffffffffffffffffffffffffffffffffffffffff1673ffffffffffffffffffffffffffffffffffffffff16815260200190815260200160002060009054906101000a900460ff16905092915050565b60007f7965db0b000000000000000000000000000000000000000000000000000000007bffffffffffffffffffffffffffffffffffffffffffffffffffffffff1916827bffffffffffffffffffffffffffffffffffffffffffffffffffffffff1916148061246757506124668261301c565b5b9050919050565b60008073ffffffffffffffffffffffffffffffffffffffff166002600084815260200190815260200160002060009054906101000a900473ffffffffffffffffffffffffffffffffffffffff1673ffffffffffffffffffffffffffffffffffffffff1614159050919050565b60008060006124e884613096565b809250819350505061250d6011600084815260200190815260200160002054826130d5565b92505050919050565b60006013600083815260200190815260200160002060009054906101000a900473ffffffffffffffffffffffffffffffffffffffff169050919050565b600033905090565b816004600083815260200190815260200160002060006101000a81548173ffffffffffffffffffffffffffffffffffffffff021916908373ffffffffffffffffffffffffffffffffffffffff160217905550808273ffffffffffffffffffffffffffffffffffffffff166125ce836117bc565b73ffffffffffffffffffffffffffffffffffffffff167f8c5be1e5ebec7d5bd14f71427d1e84f3dd0314c0f7b2291e5b200ac8c7c3b92560405160405180910390a45050565b600080600061262284613096565b80925081935050506126476010600084815260200190815260200160002054826130d5565b92505050919050565b612659816124da565b1561267c5761266781612f40565b612670816130fc565b61267b816000613163565b5b6126878160006131b2565b50565b6000612696600b613201565b90506126a2338261320f565b6126ac81836133dd565b6001600f836040516126be9190614bad565b908152602001604051809103902060006101000a81548160ff0219169083151502179055506126ed600b613409565b5050565b60006126fc8261246e565b61273b576040517f08c379a000000000000000000000000000000000000000000000000000000000815260040161273290615428565b60405180910390fd5b6000612746836117bc565b90508073ffffffffffffffffffffffffffffffffffffffff168473ffffffffffffffffffffffffffffffffffffffff1614806127b557508373ffffffffffffffffffffffffffffffffffffffff1661279d84610af9565b73ffffffffffffffffffffffffffffffffffffffff16145b806127c657506127c58185612360565b5b91505092915050565b8273ffffffffffffffffffffffffffffffffffffffff166127ef826117bc565b73ffffffffffffffffffffffffffffffffffffffff1614612845576040517f08c379a000000000000000000000000000000000000000000000000000000000815260040161283c906154ba565b60405180910390fd5b600073ffffffffffffffffffffffffffffffffffffffff168273ffffffffffffffffffffffffffffffffffffffff1614156128b5576040517f08c379a00000000000000000000000000000000000000000000000000000000081526004016128ac9061554c565b60405180910390fd5b6128c083838361341f565b6128cb60008261255b565b6001600360008573ffffffffffffffffffffffffffffffffffffffff1673ffffffffffffffffffffffffffffffffffffffff168152602001908152602001600020600082825461291b919061556c565b925050819055506001600360008473ffffffffffffffffffffffffffffffffffffffff1673ffffffffffffffffffffffffffffffffffffffff16815260200190815260200160002060008282546129729190615360565b92505081905550816002600083815260200190815260200160002060006101000a81548173ffffffffffffffffffffffffffffffffffffffff021916908373ffffffffffffffffffffffffffffffffffffffff160217905550808273ffffffffffffffffffffffffffffffffffffffff168473ffffffffffffffffffffffffffffffffffffffff167fddf252ad1be2c89b69c2b068fc378daa952ba7f163c4a11628f55a4df523b3ef60405160405180910390a4505050565b8060126000848152602001908152602001600020819055505050565b612a518282611a8c565b612ae057612a768173ffffffffffffffffffffffffffffffffffffffff166014613533565b612a848360001c6020613533565b604051602001612a95929190615638565b6040516020818303038152906040526040517f08c379a0000000000000000000000000000000000000000000000000000000008152600401612ad79190614173565b60405180910390fd5b5050565b612aee8282611a8c565b612bc1576001600a600084815260200190815260200160002060000160008373ffffffffffffffffffffffffffffffffffffffff1673ffffffffffffffffffffffffffffffffffffffff16815260200190815260200160002060006101000a81548160ff021916908315150217905550612b66612553565b73ffffffffffffffffffffffffffffffffffffffff168173ffffffffffffffffffffffffffffffffffffffff16837f2f8788117e7eff1d82e926ec794901d17c78024a50270940304540a733656f0d60405160405180910390a45b5050565b612bcf8282611a8c565b15612ca3576000600a600084815260200190815260200160002060000160008373ffffffffffffffffffffffffffffffffffffffff1673ffffffffffffffffffffffffffffffffffffffff16815260200190815260200160002060006101000a81548160ff021916908315150217905550612c48612553565b73ffffffffffffffffffffffffffffffffffffffff168173ffffffffffffffffffffffffffffffffffffffff16837ff6391f5c32d9c69d2a47ea670b442974b53935d1edc7fd64eb21e047a839171b60405160405180910390a45b5050565b600060126000838152602001908152602001600020549050919050565b612cce8482612e86565b612cd98484846127cf565b8273ffffffffffffffffffffffffffffffffffffffff16612cf9836117bc565b73ffffffffffffffffffffffffffffffffffffffff1614612d4f576040517f08c379a0000000000000000000000000000000000000000000000000000000008152600401612d46906156e4565b60405180910390fd5b50505050565b612d5e8161376f565b612d9d816040518060400160405280600f81526020017f56656869636c652044656c6574656400000000000000000000000000000000008152506133dd565b50565b612daa8282613003565b612db5826001613163565b5050565b6000612dc482612516565b9050600073ffffffffffffffffffffffffffffffffffffffff168173ffffffffffffffffffffffffffffffffffffffff161415612e0057600080fd5b612e14338284612e0f86612ca7565b612cc4565b612e1d826130fc565b612e2682612650565b5050565b612e358484846127cf565b612e4184848484613880565b612e80576040517f08c379a0000000000000000000000000000000000000000000000000000000008152600401612e7790615776565b60405180910390fd5b50505050565b60008290506000808273ffffffffffffffffffffffffffffffffffffffff1684604051612eb2906157c7565b60006040518083038185875af1925050503d8060008114612eef576040519150601f19603f3d011682016040523d82523d6000602084013e612ef4565b606091505b509150915081612f39576040517f08c379a0000000000000000000000000000000000000000000000000000000008152600401612f309061584e565b60405180910390fd5b5050505050565b6000612f4b82612516565b90506000612f5883612ca7565b905060008114158015612f985750600073ffffffffffffffffffffffffffffffffffffffff168273ffffffffffffffffffffffffffffffffffffffff1614155b15612fa857612fa78282612e86565b5b505050565b806013600084815260200190815260200160002060006101000a81548173ffffffffffffffffffffffffffffffffffffffff021916908373ffffffffffffffffffffffffffffffffffffffff1602179055505050565b61300e8260016131b2565b6130188282612a2b565b5050565b60007f780e9d63000000000000000000000000000000000000000000000000000000007bffffffffffffffffffffffffffffffffffffffffffffffffffffffff1916827bffffffffffffffffffffffffffffffffffffffffffffffffffffffff1916148061308f575061308e82613a17565b5b9050919050565b6000806000610100846130a9919061589d565b90506000816101006130bb91906158ce565b856130c6919061556c565b90508181935093505050915091565b60008060018385901c169050600181146130f05760006130f3565b60015b91505092915050565b600073ffffffffffffffffffffffffffffffffffffffff1661311d82612516565b73ffffffffffffffffffffffffffffffffffffffff161461314457613143816000612fad565b5b600061314f82612ca7565b146131605761315f816000612a2b565b5b50565b60008061316f84613096565b809250819350505061319560116000848152602001908152602001600020548285613af9565b601160008481526020019081526020016000208190555050505050565b6000806131be84613096565b80925081935050506131e460106000848152602001908152602001600020548285613af9565b601060008481526020019081526020016000208190555050505050565b600081600001549050919050565b600073ffffffffffffffffffffffffffffffffffffffff168273ffffffffffffffffffffffffffffffffffffffff16141561327f576040517f08c379a000000000000000000000000000000000000000000000000000000000815260040161327690615974565b60405180910390fd5b6132888161246e565b156132c8576040517f08c379a00000000000000000000000000000000000000000000000000000000081526004016132bf906159e0565b60405180910390fd5b6132d46000838361341f565b6001600360008473ffffffffffffffffffffffffffffffffffffffff1673ffffffffffffffffffffffffffffffffffffffff16815260200190815260200160002060008282546133249190615360565b92505081905550816002600083815260200190815260200160002060006101000a81548173ffffffffffffffffffffffffffffffffffffffff021916908373ffffffffffffffffffffffffffffffffffffffff160217905550808273ffffffffffffffffffffffffffffffffffffffff16600073ffffffffffffffffffffffffffffffffffffffff167fddf252ad1be2c89b69c2b068fc378daa952ba7f163c4a11628f55a4df523b3ef60405160405180910390a45050565b80600e60008481526020019081526020016000209080519060200190613404929190613ea9565b505050565b6001816000016000828254019250508190555050565b61342a838383613b21565b600073ffffffffffffffffffffffffffffffffffffffff168373ffffffffffffffffffffffffffffffffffffffff16141561346d5761346881613b26565b6134ac565b8173ffffffffffffffffffffffffffffffffffffffff168373ffffffffffffffffffffffffffffffffffffffff16146134ab576134aa8382613b6f565b5b5b600073ffffffffffffffffffffffffffffffffffffffff168273ffffffffffffffffffffffffffffffffffffffff1614156134ef576134ea81613cdc565b61352e565b8273ffffffffffffffffffffffffffffffffffffffff168273ffffffffffffffffffffffffffffffffffffffff161461352d5761352c8282613dad565b5b5b505050565b60606000600283600261354691906158ce565b6135509190615360565b67ffffffffffffffff81111561356957613568614235565b5b6040519080825280601f01601f19166020018201604052801561359b5781602001600182028036833780820191505090505b5090507f3000000000000000000000000000000000000000000000000000000000000000816000815181106135d3576135d261504e565b5b60200101907effffffffffffffffffffffffffffffffffffffffffffffffffffffffffffff1916908160001a9053507f7800000000000000000000000000000000000000000000000000000000000000816001815181106136375761363661504e565b5b60200101907effffffffffffffffffffffffffffffffffffffffffffffffffffffffffffff1916908160001a9053506000600184600261367791906158ce565b6136819190615360565b90505b6001811115613721577f3031323334353637383961626364656600000000000000000000000000000000600f8616601081106136c3576136c261504e565b5b1a60f81b8282815181106136da576136d961504e565b5b60200101907effffffffffffffffffffffffffffffffffffffffffffffffffffffffffffff1916908160001a905350600485901c94508061371a90615a00565b9050613684565b5060008414613765576040517f08c379a000000000000000000000000000000000000000000000000000000000815260040161375c90615a76565b60405180910390fd5b8091505092915050565b600061377a826117bc565b90506137888160008461341f565b61379360008361255b565b6001600360008373ffffffffffffffffffffffffffffffffffffffff1673ffffffffffffffffffffffffffffffffffffffff16815260200190815260200160002060008282546137e3919061556c565b925050819055506002600083815260200190815260200160002060006101000a81549073ffffffffffffffffffffffffffffffffffffffff021916905581600073ffffffffffffffffffffffffffffffffffffffff168273ffffffffffffffffffffffffffffffffffffffff167fddf252ad1be2c89b69c2b068fc378daa952ba7f163c4a11628f55a4df523b3ef60405160405180910390a45050565b60006138a18473ffffffffffffffffffffffffffffffffffffffff16613e2c565b15613a0a578373ffffffffffffffffffffffffffffffffffffffff1663150b7a026138ca612553565b8786866040518563ffffffff1660e01b81526004016138ec9493929190615aeb565b602060405180830381600087803b15801561390657600080fd5b505af192505050801561393757506040513d601f19601f820116820180604052508101906139349190615b4c565b60015b6139ba573d8060008114613967576040519150601f19603f3d011682016040523d82523d6000602084013e61396c565b606091505b506000815114156139b2576040517f08c379a00000000000000000000000000000000000000000000000000000000081526004016139a990615776565b60405180910390fd5b805181602001fd5b63150b7a0260e01b7bffffffffffffffffffffffffffffffffffffffffffffffffffffffff1916817bffffffffffffffffffffffffffffffffffffffffffffffffffffffff191614915050613a0f565b600190505b949350505050565b60007f80ac58cd000000000000000000000000000000000000000000000000000000007bffffffffffffffffffffffffffffffffffffffffffffffffffffffff1916827bffffffffffffffffffffffffffffffffffffffffffffffffffffffff19161480613ae257507f5b5e139f000000000000000000000000000000000000000000000000000000007bffffffffffffffffffffffffffffffffffffffffffffffffffffffff1916827bffffffffffffffffffffffffffffffffffffffffffffffffffffffff1916145b80613af25750613af182613e3f565b5b9050919050565b60008115613b0f57826001901b84179050613b1a565b826001901b19841690505b9392505050565b505050565b6008805490506009600083815260200190815260200160002081905550600881908060018154018082558091505060019003906000526020600020016000909190919091505550565b60006001613b7c84611876565b613b86919061556c565b9050600060076000848152602001908152602001600020549050818114613c6b576000600660008673ffffffffffffffffffffffffffffffffffffffff1673ffffffffffffffffffffffffffffffffffffffff168152602001908152602001600020600084815260200190815260200160002054905080600660008773ffffffffffffffffffffffffffffffffffffffff1673ffffffffffffffffffffffffffffffffffffffff168152602001908152602001600020600084815260200190815260200160002081905550816007600083815260200190815260200160002081905550505b6007600084815260200190815260200160002060009055600660008573ffffffffffffffffffffffffffffffffffffffff1673ffffffffffffffffffffffffffffffffffffffff16815260200190815260200160002060008381526020019081526020016000206000905550505050565b60006001600880549050613cf0919061556c565b9050600060096000848152602001908152602001600020549050600060088381548110613d2057613d1f61504e565b5b906000526020600020015490508060088381548110613d4257613d4161504e565b5b906000526020600020018190555081600960008381526020019081526020016000208190555060096000858152602001908152602001600020600090556008805480613d9157613d90615b79565b5b6001900381819060005260206000200160009055905550505050565b6000613db883611876565b905081600660008573ffffffffffffffffffffffffffffffffffffffff1673ffffffffffffffffffffffffffffffffffffffff168152602001908152602001600020600083815260200190815260200160002081905550806007600084815260200190815260200160002081905550505050565b600080823b905060008111915050919050565b60007f01ffc9a7000000000000000000000000000000000000000000000000000000007bffffffffffffffffffffffffffffffffffffffffffffffffffffffff1916827bffffffffffffffffffffffffffffffffffffffffffffffffffffffff1916149050919050565b828054613eb59061480d565b90600052602060002090601f016020900481019282613ed75760008555613f1e565b82601f10613ef057805160ff1916838001178555613f1e565b82800160010185558215613f1e579182015b82811115613f1d578251825591602001919060010190613f02565b5b509050613f2b9190613f2f565b5090565b5b80821115613f48576000816000905550600101613f30565b5090565b6000604051905090565b600080fd5b600080fd5b60007fffffffff0000000000000000000000000000000000000000000000000000000082169050919050565b613f9581613f60565b8114613fa057600080fd5b50565b600081359050613fb281613f8c565b92915050565b600060208284031215613fce57613fcd613f56565b5b6000613fdc84828501613fa3565b91505092915050565b60008115159050919050565b613ffa81613fe5565b82525050565b60006020820190506140156000830184613ff1565b92915050565b6000819050919050565b61402e8161401b565b811461403957600080fd5b50565b60008135905061404b81614025565b92915050565b60006020828403121561406757614066613f56565b5b60006140758482850161403c565b91505092915050565b600073ffffffffffffffffffffffffffffffffffffffff82169050919050565b60006140a98261407e565b9050919050565b6140b98161409e565b82525050565b60006020820190506140d460008301846140b0565b92915050565b600081519050919050565b600082825260208201905092915050565b60005b838110156141145780820151818401526020810190506140f9565b83811115614123576000848401525b50505050565b6000601f19601f8301169050919050565b6000614145826140da565b61414f81856140e5565b935061415f8185602086016140f6565b61416881614129565b840191505092915050565b6000602082019050818103600083015261418d818461413a565b905092915050565b61419e8161409e565b81146141a957600080fd5b50565b6000813590506141bb81614195565b92915050565b600080604083850312156141d8576141d7613f56565b5b60006141e6858286016141ac565b92505060206141f78582860161403c565b9150509250929050565b61420a8161401b565b82525050565b60006020820190506142256000830184614201565b92915050565b600080fd5b600080fd5b7f4e487b7100000000000000000000000000000000000000000000000000000000600052604160045260246000fd5b61426d82614129565b810181811067ffffffffffffffff8211171561428c5761428b614235565b5b80604052505050565b600061429f613f4c565b90506142ab8282614264565b919050565b600067ffffffffffffffff8211156142cb576142ca614235565b5b6142d482614129565b9050602081019050919050565b82818337600083830152505050565b60006143036142fe846142b0565b614295565b90508281526020810184848401111561431f5761431e614230565b5b61432a8482856142e1565b509392505050565b600082601f8301126143475761434661422b565b5b81356143578482602086016142f0565b91505092915050565b60006020828403121561437657614375613f56565b5b600082013567ffffffffffffffff81111561439457614393613f5b565b5b6143a084828501614332565b91505092915050565b6000806000606084860312156143c2576143c1613f56565b5b60006143d0868287016141ac565b93505060206143e1868287016141ac565b92505060406143f28682870161403c565b9150509250925092565b6000819050919050565b61440f816143fc565b811461441a57600080fd5b50565b60008135905061442c81614406565b92915050565b60006020828403121561444857614447613f56565b5b60006144568482850161441d565b91505092915050565b614468816143fc565b82525050565b6000602082019050614483600083018461445f565b92915050565b600080604083850312156144a05761449f613f56565b5b60006144ae8582860161403c565b92505060206144bf8582860161403c565b9150509250929050565b600080604083850312156144e0576144df613f56565b5b60006144ee8582860161441d565b92505060206144ff858286016141ac565b9150509250929050565b60006020828403121561451f5761451e613f56565b5b600061452d848285016141ac565b91505092915050565b61453f81613fe5565b811461454a57600080fd5b50565b60008135905061455c81614536565b92915050565b6000806040838503121561457957614578613f56565b5b6000614587858286016141ac565b92505060206145988582860161454d565b9150509250929050565b600067ffffffffffffffff8211156145bd576145bc614235565b5b6145c682614129565b9050602081019050919050565b60006145e66145e1846145a2565b614295565b90508281526020810184848401111561460257614601614230565b5b61460d8482856142e1565b509392505050565b600082601f83011261462a5761462961422b565b5b813561463a8482602086016145d3565b91505092915050565b6000806000806080858703121561465d5761465c613f56565b5b600061466b878288016141ac565b945050602061467c878288016141ac565b935050604061468d8782880161403c565b925050606085013567ffffffffffffffff8111156146ae576146ad613f5b565b5b6146ba87828801614615565b91505092959194509250565b600080604083850312156146dd576146dc613f56565b5b60006146eb858286016141ac565b92505060206146fc858286016141ac565b9150509250929050565b7f546f6b656e2f56656869636c6520646f6573206e6f742065786973742e000000600082015250565b600061473c601d836140e5565b915061474782614706565b602082019050919050565b6000602082019050818103600083015261476b8161472f565b9050919050565b7f56656869636c65206973206e6f7420616e2061756374696f6e2e000000000000600082015250565b60006147a8601a836140e5565b91506147b382614772565b602082019050919050565b600060208201905081810360008301526147d78161479b565b9050919050565b7f4e487b7100000000000000000000000000000000000000000000000000000000600052602260045260246000fd5b6000600282049050600182168061482557607f821691505b60208210811415614839576148386147de565b5b50919050565b7f4552433732313a20617070726f76656420717565727920666f72206e6f6e657860008201527f697374656e7420746f6b656e0000000000000000000000000000000000000000602082015250565b600061489b602c836140e5565b91506148a68261483f565b604082019050919050565b600060208201905081810360008301526148ca8161488e565b9050919050565b7f4552433732313a20617070726f76616c20746f2063757272656e74206f776e6560008201527f7200000000000000000000000000000000000000000000000000000000000000602082015250565b600061492d6021836140e5565b9150614938826148d1565b604082019050919050565b6000602082019050818103600083015261495c81614920565b9050919050565b7f4552433732313a20617070726f76652063616c6c6572206973206e6f74206f7760008201527f6e6572206e6f7220617070726f76656420666f7220616c6c0000000000000000602082015250565b60006149bf6038836140e5565b91506149ca82614963565b604082019050919050565b600060208201905081810360008301526149ee816149b2565b9050919050565b7f56656869636c65206973206e6f7420666f722073616c652e0000000000000000600082015250565b6000614a2b6018836140e5565b9150614a36826149f5565b602082019050919050565b60006020820190508181036000830152614a5a81614a1e565b9050919050565b7f4d6573736167652073656e646572206973206e6f7420746865206f776e65722f60008201527f617574686f72697a656420666f722074686520746f6b656e49642070726f766960208201527f6465642e00000000000000000000000000000000000000000000000000000000604082015250565b6000614ae36044836140e5565b9150614aee82614a61565b606082019050919050565b60006020820190508181036000830152614b1281614ad6565b9050919050565b6000604082019050614b2e6000830185613ff1565b614b3b6020830184613ff1565b9392505050565b7f4e487b7100000000000000000000000000000000000000000000000000000000600052602160045260246000fd5b600081905092915050565b6000614b87826140da565b614b918185614b71565b9350614ba18185602086016140f6565b80840191505092915050565b6000614bb98284614b7c565b915081905092915050565b7f4475706c69636174652055524927732064657465637465642e00000000000000600082015250565b6000614bfa6019836140e5565b9150614c0582614bc4565b602082019050919050565b60006020820190508181036000830152614c2981614bed565b9050919050565b7f4552433732313a207472616e736665722063616c6c6572206973206e6f74206f60008201527f776e6572206e6f7220617070726f766564000000000000000000000000000000602082015250565b6000614c8c6031836140e5565b9150614c9782614c30565b604082019050919050565b60006020820190508181036000830152614cbb81614c7f565b9050919050565b7f56656869636c6520697320616c726561647920616e2061756374696f6e2e0000600082015250565b6000614cf8601e836140e5565b9150614d0382614cc2565b602082019050919050565b60006020820190508181036000830152614d2781614ceb565b9050919050565b7f43616e6e6f742073657420707269636520746f20302e00000000000000000000600082015250565b6000614d646016836140e5565b9150614d6f82614d2e565b602082019050919050565b60006020820190508181036000830152614d9381614d57565b9050919050565b7f455243373231456e756d657261626c653a206f776e657220696e646578206f7560008201527f74206f6620626f756e6473000000000000000000000000000000000000000000602082015250565b6000614df6602b836140e5565b9150614e0182614d9a565b604082019050919050565b60006020820190508181036000830152614e2581614de9565b9050919050565b7f416363657373436f6e74726f6c3a2063616e206f6e6c792072656e6f756e636560008201527f20726f6c657320666f722073656c660000000000000000000000000000000000602082015250565b6000614e88602f836140e5565b9150614e9382614e2c565b604082019050919050565b60006020820190508181036000830152614eb781614e7b565b9050919050565b7f4d6f6e65792073656e7420656974686572206e6f7420656e6f756768206f722060008201527f746f6f206d7563682e0000000000000000000000000000000000000000000000602082015250565b6000614f1a6029836140e5565b9150614f2582614ebe565b604082019050919050565b60006020820190508181036000830152614f4981614f0d565b9050919050565b7f56656869636c6520697320616c726561647920666f722073616c652e00000000600082015250565b6000614f86601c836140e5565b9150614f9182614f50565b602082019050919050565b60006020820190508181036000830152614fb581614f79565b9050919050565b7f455243373231456e756d657261626c653a20676c6f62616c20696e646578206f60008201527f7574206f6620626f756e64730000000000000000000000000000000000000000602082015250565b6000615018602c836140e5565b915061502382614fbc565b604082019050919050565b600060208201905081810360008301526150478161500b565b9050919050565b7f4e487b7100000000000000000000000000000000000000000000000000000000600052603260045260246000fd5b7f4552433732313a206f776e657220717565727920666f72206e6f6e657869737460008201527f656e7420746f6b656e0000000000000000000000000000000000000000000000602082015250565b60006150d96029836140e5565b91506150e48261507d565b604082019050919050565b60006020820190508181036000830152615108816150cc565b9050919050565b7f4552433732313a2062616c616e636520717565727920666f7220746865207a6560008201527f726f206164647265737300000000000000000000000000000000000000000000602082015250565b600061516b602a836140e5565b91506151768261510f565b604082019050919050565b6000602082019050818103600083015261519a8161515e565b9050919050565b7f4552433732313a20617070726f766520746f2063616c6c657200000000000000600082015250565b60006151d76019836140e5565b91506151e2826151a1565b602082019050919050565b60006020820190508181036000830152615206816151ca565b9050919050565b7f426964206d75737420626520686967686572207468616e20746865206375727260008201527f656e742070726963652e00000000000000000000000000000000000000000000602082015250565b6000615269602a836140e5565b91506152748261520d565b604082019050919050565b600060208201905081810360008301526152988161525c565b9050919050565b7f596f752063616e6e6f7420626964206f6e20796f7572206f776e20617563746960008201527f6f6e2e0000000000000000000000000000000000000000000000000000000000602082015250565b60006152fb6023836140e5565b91506153068261529f565b604082019050919050565b6000602082019050818103600083015261532a816152ee565b9050919050565b7f4e487b7100000000000000000000000000000000000000000000000000000000600052601160045260246000fd5b600061536b8261401b565b91506153768361401b565b9250827fffffffffffffffffffffffffffffffffffffffffffffffffffffffffffffffff038211156153ab576153aa615331565b5b828201905092915050565b7f4552433732313a206f70657261746f7220717565727920666f72206e6f6e657860008201527f697374656e7420746f6b656e0000000000000000000000000000000000000000602082015250565b6000615412602c836140e5565b915061541d826153b6565b604082019050919050565b6000602082019050818103600083015261544181615405565b9050919050565b7f4552433732313a207472616e73666572206f6620746f6b656e2074686174206960008201527f73206e6f74206f776e0000000000000000000000000000000000000000000000602082015250565b60006154a46029836140e5565b91506154af82615448565b604082019050919050565b600060208201905081810360008301526154d381615497565b9050919050565b7f4552433732313a207472616e7366657220746f20746865207a65726f2061646460008201527f7265737300000000000000000000000000000000000000000000000000000000602082015250565b60006155366024836140e5565b9150615541826154da565b604082019050919050565b6000602082019050818103600083015261556581615529565b9050919050565b60006155778261401b565b91506155828361401b565b92508282101561559557615594615331565b5b828203905092915050565b7f416363657373436f6e74726f6c3a206163636f756e7420000000000000000000600082015250565b60006155d6601783614b71565b91506155e1826155a0565b601782019050919050565b7f206973206d697373696e6720726f6c6520000000000000000000000000000000600082015250565b6000615622601183614b71565b915061562d826155ec565b601182019050919050565b6000615643826155c9565b915061564f8285614b7c565b915061565a82615615565b91506156668284614b7c565b91508190509392505050565b7f4661696c656420746f207472616e736665722076656869636c6520746f20627560008201527f7965720000000000000000000000000000000000000000000000000000000000602082015250565b60006156ce6023836140e5565b91506156d982615672565b604082019050919050565b600060208201905081810360008301526156fd816156c1565b9050919050565b7f4552433732313a207472616e7366657220746f206e6f6e20455243373231526560008201527f63656976657220696d706c656d656e7465720000000000000000000000000000602082015250565b60006157606032836140e5565b915061576b82615704565b604082019050919050565b6000602082019050818103600083015261578f81615753565b9050919050565b600081905092915050565b50565b60006157b1600083615796565b91506157bc826157a1565b600082019050919050565b60006157d2826157a4565b9150819050919050565b7f4661696c656420746f2073656e64206d6f6e657920746f2062656e656669636960008201527f6172790000000000000000000000000000000000000000000000000000000000602082015250565b60006158386023836140e5565b9150615843826157dc565b604082019050919050565b600060208201905081810360008301526158678161582b565b9050919050565b7f4e487b7100000000000000000000000000000000000000000000000000000000600052601260045260246000fd5b60006158a88261401b565b91506158b38361401b565b9250826158c3576158c261586e565b5b828204905092915050565b60006158d98261401b565b91506158e48361401b565b9250817fffffffffffffffffffffffffffffffffffffffffffffffffffffffffffffffff048311821515161561591d5761591c615331565b5b828202905092915050565b7f4552433732313a206d696e7420746f20746865207a65726f2061646472657373600082015250565b600061595e6020836140e5565b915061596982615928565b602082019050919050565b6000602082019050818103600083015261598d81615951565b9050919050565b7f4552433732313a20746f6b656e20616c7265616479206d696e74656400000000600082015250565b60006159ca601c836140e5565b91506159d582615994565b602082019050919050565b600060208201905081810360008301526159f9816159bd565b9050919050565b6000615a0b8261401b565b91506000821415615a1f57615a1e615331565b5b600182039050919050565b7f537472696e67733a20686578206c656e67746820696e73756666696369656e74600082015250565b6000615a606020836140e5565b9150615a6b82615a2a565b602082019050919050565b60006020820190508181036000830152615a8f81615a53565b9050919050565b600081519050919050565b600082825260208201905092915050565b6000615abd82615a96565b615ac78185615aa1565b9350615ad78185602086016140f6565b615ae081614129565b840191505092915050565b6000608082019050615b0060008301876140b0565b615b0d60208301866140b0565b615b1a6040830185614201565b8181036060830152615b2c8184615ab2565b905095945050505050565b600081519050615b4681613f8c565b92915050565b600060208284031215615b6257615b61613f56565b5b6000615b7084828501615b37565b91505092915050565b7f4e487b7100000000000000000000000000000000000000000000000000000000600052603160045260246000fdfea26469706673582212209669f78aac59b482be1a5d7b72581de820eeb46c2737d7e25285ae700f8d8e8d64736f6c63430008090033",
  "immutableReferences": {},
  "source": "pragma solidity >=0.6.0 <0.9.0;\r\n\r\nimport \"./Vehicle.sol\";\r\n\r\ncontract ExternalGateway is Vehicle {\r\n\r\n    event NewPrice(uint256 indexed tokenId);\r\n    event NewTopBidder(uint256 indexed tokenId);\r\n\r\n    function getIfTokenExists(uint256 tokenId) external view returns (bool) {\r\n        return _exists(tokenId);\r\n    }\r\n\r\n    function tokenURI(uint256 tokenId)\r\n        public\r\n        view\r\n        virtual\r\n        override\r\n        onlyIfExists(tokenId)\r\n        returns (string memory)\r\n    {\r\n        return _tokenURIs[tokenId];\r\n    }\r\n\r\n    function getVehiclePrice(uint256 tokenId)\r\n        external\r\n        view\r\n        onlyIfExists(tokenId)\r\n        onlyIfForSale(tokenId)\r\n        returns (uint256)\r\n    {\r\n        return _getVehiclePrice(tokenId);\r\n    }\r\n\r\n    function getTopBidder(uint256 tokenId)\r\n        external\r\n        view\r\n        onlyIfExists(tokenId)\r\n        onlyIfAuction(tokenId)\r\n        returns (address)\r\n    {\r\n        return _getTopBidder(tokenId);\r\n    }\r\n\r\n    function isAuction(uint256 tokenId)\r\n        external\r\n        view\r\n        onlyIfExists(tokenId)\r\n        returns (bool)\r\n    {\r\n        return _isAuction(tokenId);\r\n    }\r\n\r\n    function isForSale(uint256 tokenId)\r\n        external\r\n        view\r\n        onlyIfExists(tokenId)\r\n        returns (bool)\r\n    {\r\n        return _isForSale(tokenId);\r\n    }\r\n\r\n    function concludeAuction(uint256 tokenId)\r\n        external\r\n        onlyOwnerOf(tokenId)\r\n        onlyIfAuction(tokenId)\r\n    {\r\n        _concludeAuction(tokenId);\r\n        emit SaleStatus(tokenId, false, false);\r\n    }\r\n\r\n    function listAuction(uint256 tokenId, uint256 price)\r\n        external\r\n        onlyIfExists(tokenId)\r\n        onlyOwnerOf(tokenId)\r\n        onlyIfNotForSale(tokenId)\r\n        onlyIfNotAuction(tokenId)\r\n        onlyIfPriceNonNull(price)\r\n    {\r\n        _listAuction(tokenId, price);\r\n        emit SaleStatus(tokenId, true, true);\r\n    }\r\n\r\n    function listForSale(uint256 tokenId, uint256 price)\r\n        external\r\n        onlyIfExists(tokenId)\r\n        onlyOwnerOf(tokenId)\r\n        onlyIfNotForSale(tokenId)\r\n        onlyIfPriceNonNull(price)\r\n    {\r\n        _listForSale(tokenId, price);\r\n        emit SaleStatus(tokenId, true, false);\r\n    }\r\n\r\n    function removeFromSale(uint256 tokenId)\r\n        external\r\n        onlyIfExists(tokenId)\r\n        onlyIfForSale(tokenId)\r\n        onlyOwnerOf(tokenId)\r\n    {\r\n        _removeFromSale(tokenId);\r\n        emit SaleStatus(tokenId, false, false);\r\n    }\r\n\r\n    function setVehiclePrice(uint256 tokenId, uint256 _price)\r\n        external\r\n        onlyOwnerOf(tokenId)\r\n        onlyIfNotAuction(tokenId)\r\n        onlyIfPriceNonNull(_price)\r\n    {\r\n        _setVehiclePrice(tokenId, _price);\r\n        emit NewPrice(tokenId);\r\n    }\r\n\r\n    function buyVehicle(uint256 tokenId)\r\n        external\r\n        payable\r\n        onlyIfExists(tokenId)\r\n        onlyIfForSale(tokenId)\r\n        onlyIfNotAuction(tokenId)\r\n    {\r\n        require(\r\n            msg.value == _getVehiclePrice(tokenId),\r\n            \"Money sent either not enough or too much.\"\r\n        );\r\n\r\n        _classicExchange(ownerOf(tokenId), msg.sender, tokenId, msg.value);\r\n        _removeFromSale(tokenId);\r\n        emit SaleStatus(tokenId, false, false);\r\n    }\r\n\r\n    function bidVehicle(uint256 tokenId)\r\n        external\r\n        payable\r\n        onlyIfExists(tokenId)\r\n        onlyIfAuction(tokenId)\r\n    {\r\n        require(\r\n            msg.value > _getVehiclePrice(tokenId),\r\n            \"Bid must be higher than the current price.\"\r\n        );\r\n        require(\r\n            msg.sender != ownerOf(tokenId),\r\n            \"You cannot bid on your own auction.\"\r\n        );\r\n\r\n        _secureMoneyTransfer(address(this), msg.value);\r\n        _refundCurentTopBidder(tokenId);\r\n        _setVehiclePrice(tokenId, msg.value);\r\n        _setTopBidder(tokenId, msg.sender);\r\n        emit NewPrice(tokenId);\r\n        emit NewTopBidder(tokenId);\r\n    }\r\n\r\n    function createVehicle(string memory uri)\r\n        external\r\n        onlyClass(ROLE_CLASS.MINTER)\r\n        onlyIfNotRegistered(uri)\r\n    {\r\n        mint(uri);\r\n    }\r\n\r\n    function destroyVehicle(uint256 _tokenId) external {\r\n        _removeFromSale(_tokenId);\r\n        burn(_tokenId);\r\n        emit SaleStatus(_tokenId, false, false);\r\n    }\r\n}\r\n",
  "sourcePath": "C:\\sgs020\\contracts\\ExternalGateway.sol",
  "compiler": {
    "name": "solc",
    "version": "0.8.9+commit.e5eed63a.Emscripten.clang"
  },
  "schemaVersion": "3.4.3",
  "updatedAt": "2022-02-01T12:08:28.043Z",
  "networkType": "ethereum",
  "devdoc": {
    "kind": "dev",
    "methods": {
      "approve(address,uint256)": {
        "details": "See {IERC721-approve}."
      },
      "balanceOf(address)": {
        "details": "See {IERC721-balanceOf}."
      },
      "getApproved(uint256)": {
        "details": "See {IERC721-getApproved}."
      },
      "getRoleAdmin(bytes32)": {
        "details": "Returns the admin role that controls `role`. See {grantRole} and {revokeRole}. To change a role's admin, use {_setRoleAdmin}."
      },
      "grantRole(bytes32,address)": {
        "details": "Grants `role` to `account`. If `account` had not been already granted `role`, emits a {RoleGranted} event. Requirements: - the caller must have ``role``'s admin role."
      },
      "hasRole(bytes32,address)": {
        "details": "Returns `true` if `account` has been granted `role`."
      },
      "isApprovedForAll(address,address)": {
        "details": "See {IERC721-isApprovedForAll}."
      },
      "name()": {
        "details": "See {IERC721Metadata-name}."
      },
      "ownerOf(uint256)": {
        "details": "See {IERC721-ownerOf}."
      },
      "renounceRole(bytes32,address)": {
        "details": "Revokes `role` from the calling account. Roles are often managed via {grantRole} and {revokeRole}: this function's purpose is to provide a mechanism for accounts to lose their privileges if they are compromised (such as when a trusted device is misplaced). If the calling account had been granted `role`, emits a {RoleRevoked} event. Requirements: - the caller must be `account`."
      },
      "revokeRole(bytes32,address)": {
        "details": "Revokes `role` from `account`. If `account` had been granted `role`, emits a {RoleRevoked} event. Requirements: - the caller must have ``role``'s admin role."
      },
      "safeTransferFrom(address,address,uint256)": {
        "details": "See {IERC721-safeTransferFrom}."
      },
      "safeTransferFrom(address,address,uint256,bytes)": {
        "details": "See {IERC721-safeTransferFrom}."
      },
      "setApprovalForAll(address,bool)": {
        "details": "See {IERC721-setApprovalForAll}."
      },
      "symbol()": {
        "details": "See {IERC721Metadata-symbol}."
      },
      "tokenByIndex(uint256)": {
        "details": "See {IERC721Enumerable-tokenByIndex}."
      },
      "tokenOfOwnerByIndex(address,uint256)": {
        "details": "See {IERC721Enumerable-tokenOfOwnerByIndex}."
      },
      "tokenURI(uint256)": {
        "details": "See {IERC721Metadata-tokenURI}."
      },
      "totalSupply()": {
        "details": "See {IERC721Enumerable-totalSupply}."
      },
      "transferFrom(address,address,uint256)": {
        "details": "See {IERC721-transferFrom}."
      }
    },
    "version": 1
  },
  "userdoc": {
    "kind": "user",
    "methods": {},
    "version": 1
  }
}