{
  "contractName": "ExternalGateway",
  "abi": [
    {
      "anonymous": false,
      "inputs": [
        {
          "indexed": true,
          "internalType": "address",
          "name": "owner",
          "type": "address"
        },
        {
          "indexed": true,
          "internalType": "address",
          "name": "approved",
          "type": "address"
        },
        {
          "indexed": true,
          "internalType": "uint256",
          "name": "tokenId",
          "type": "uint256"
        }
      ],
      "name": "Approval",
      "type": "event"
    },
    {
      "anonymous": false,
      "inputs": [
        {
          "indexed": true,
          "internalType": "address",
          "name": "owner",
          "type": "address"
        },
        {
          "indexed": true,
          "internalType": "address",
          "name": "operator",
          "type": "address"
        },
        {
          "indexed": false,
          "internalType": "bool",
          "name": "approved",
          "type": "bool"
        }
      ],
      "name": "ApprovalForAll",
      "type": "event"
    },
    {
      "anonymous": false,
      "inputs": [
        {
          "indexed": true,
          "internalType": "uint256",
          "name": "tokenId",
          "type": "uint256"
        }
      ],
      "name": "NewPrice",
      "type": "event"
    },
    {
      "anonymous": false,
      "inputs": [
        {
          "indexed": true,
          "internalType": "uint256",
          "name": "tokenId",
          "type": "uint256"
        }
      ],
      "name": "NewTopBidder",
      "type": "event"
    },
    {
      "anonymous": false,
      "inputs": [
        {
          "indexed": true,
          "internalType": "uint256",
          "name": "tokenId",
          "type": "uint256"
        },
        {
          "indexed": true,
          "internalType": "address",
          "name": "depositer",
          "type": "address"
        },
        {
          "indexed": false,
          "internalType": "uint256",
          "name": "amount",
          "type": "uint256"
        }
      ],
      "name": "Received",
      "type": "event"
    },
    {
      "anonymous": false,
      "inputs": [
        {
          "indexed": true,
          "internalType": "bytes32",
          "name": "role",
          "type": "bytes32"
        },
        {
          "indexed": true,
          "internalType": "bytes32",
          "name": "previousAdminRole",
          "type": "bytes32"
        },
        {
          "indexed": true,
          "internalType": "bytes32",
          "name": "newAdminRole",
          "type": "bytes32"
        }
      ],
      "name": "RoleAdminChanged",
      "type": "event"
    },
    {
      "anonymous": false,
      "inputs": [
        {
          "indexed": true,
          "internalType": "bytes32",
          "name": "role",
          "type": "bytes32"
        },
        {
          "indexed": true,
          "internalType": "address",
          "name": "account",
          "type": "address"
        },
        {
          "indexed": true,
          "internalType": "address",
          "name": "sender",
          "type": "address"
        }
      ],
      "name": "RoleGranted",
      "type": "event"
    },
    {
      "anonymous": false,
      "inputs": [
        {
          "indexed": true,
          "internalType": "bytes32",
          "name": "role",
          "type": "bytes32"
        },
        {
          "indexed": true,
          "internalType": "address",
          "name": "account",
          "type": "address"
        },
        {
          "indexed": true,
          "internalType": "address",
          "name": "sender",
          "type": "address"
        }
      ],
      "name": "RoleRevoked",
      "type": "event"
    },
    {
      "anonymous": false,
      "inputs": [
        {
          "indexed": true,
          "internalType": "uint256",
          "name": "tokenId",
          "type": "uint256"
        },
        {
          "indexed": false,
          "internalType": "bool",
          "name": "status",
          "type": "bool"
        },
        {
          "indexed": false,
          "internalType": "bool",
          "name": "isAuction",
          "type": "bool"
        }
      ],
      "name": "SaleStatus",
      "type": "event"
    },
    {
      "anonymous": false,
      "inputs": [
        {
          "indexed": true,
          "internalType": "address",
          "name": "from",
          "type": "address"
        },
        {
          "indexed": true,
          "internalType": "address",
          "name": "to",
          "type": "address"
        },
        {
          "indexed": true,
          "internalType": "uint256",
          "name": "tokenId",
          "type": "uint256"
        }
      ],
      "name": "Transfer",
      "type": "event"
    },
    {
      "inputs": [],
      "name": "DEFAULT_ADMIN_ROLE",
      "outputs": [
        {
          "internalType": "bytes32",
          "name": "",
          "type": "bytes32"
        }
      ],
      "stateMutability": "view",
      "type": "function",
      "constant": true
    },
    {
      "inputs": [
        {
          "internalType": "address",
          "name": "to",
          "type": "address"
        },
        {
          "internalType": "uint256",
          "name": "tokenId",
          "type": "uint256"
        }
      ],
      "name": "approve",
      "outputs": [],
      "stateMutability": "nonpayable",
      "type": "function"
    },
    {
      "inputs": [
        {
          "internalType": "address",
          "name": "owner",
          "type": "address"
        }
      ],
      "name": "balanceOf",
      "outputs": [
        {
          "internalType": "uint256",
          "name": "",
          "type": "uint256"
        }
      ],
      "stateMutability": "view",
      "type": "function",
      "constant": true
    },
    {
      "inputs": [
        {
          "internalType": "uint256",
          "name": "tokenId",
          "type": "uint256"
        }
      ],
      "name": "getApproved",
      "outputs": [
        {
          "internalType": "address",
          "name": "",
          "type": "address"
        }
      ],
      "stateMutability": "view",
      "type": "function",
      "constant": true
    },
    {
      "inputs": [
        {
          "internalType": "bytes32",
          "name": "role",
          "type": "bytes32"
        }
      ],
      "name": "getRoleAdmin",
      "outputs": [
        {
          "internalType": "bytes32",
          "name": "",
          "type": "bytes32"
        }
      ],
      "stateMutability": "view",
      "type": "function",
      "constant": true
    },
    {
      "inputs": [
        {
          "internalType": "bytes32",
          "name": "role",
          "type": "bytes32"
        },
        {
          "internalType": "address",
          "name": "account",
          "type": "address"
        }
      ],
      "name": "grantRole",
      "outputs": [],
      "stateMutability": "nonpayable",
      "type": "function"
    },
    {
      "inputs": [
        {
          "internalType": "bytes32",
          "name": "role",
          "type": "bytes32"
        },
        {
          "internalType": "address",
          "name": "account",
          "type": "address"
        }
      ],
      "name": "hasRole",
      "outputs": [
        {
          "internalType": "bool",
          "name": "",
          "type": "bool"
        }
      ],
      "stateMutability": "view",
      "type": "function",
      "constant": true
    },
    {
      "inputs": [
        {
          "internalType": "address",
          "name": "owner",
          "type": "address"
        },
        {
          "internalType": "address",
          "name": "operator",
          "type": "address"
        }
      ],
      "name": "isApprovedForAll",
      "outputs": [
        {
          "internalType": "bool",
          "name": "",
          "type": "bool"
        }
      ],
      "stateMutability": "view",
      "type": "function",
      "constant": true
    },
    {
      "inputs": [],
      "name": "name",
      "outputs": [
        {
          "internalType": "string",
          "name": "",
          "type": "string"
        }
      ],
      "stateMutability": "view",
      "type": "function",
      "constant": true
    },
    {
      "inputs": [
        {
          "internalType": "uint256",
          "name": "tokenId",
          "type": "uint256"
        }
      ],
      "name": "ownerOf",
      "outputs": [
        {
          "internalType": "address",
          "name": "",
          "type": "address"
        }
      ],
      "stateMutability": "view",
      "type": "function",
      "constant": true
    },
    {
      "inputs": [
        {
          "internalType": "bytes32",
          "name": "role",
          "type": "bytes32"
        },
        {
          "internalType": "address",
          "name": "account",
          "type": "address"
        }
      ],
      "name": "renounceRole",
      "outputs": [],
      "stateMutability": "nonpayable",
      "type": "function"
    },
    {
      "inputs": [
        {
          "internalType": "bytes32",
          "name": "role",
          "type": "bytes32"
        },
        {
          "internalType": "address",
          "name": "account",
          "type": "address"
        }
      ],
      "name": "revokeRole",
      "outputs": [],
      "stateMutability": "nonpayable",
      "type": "function"
    },
    {
      "inputs": [
        {
          "internalType": "address",
          "name": "from",
          "type": "address"
        },
        {
          "internalType": "address",
          "name": "to",
          "type": "address"
        },
        {
          "internalType": "uint256",
          "name": "tokenId",
          "type": "uint256"
        }
      ],
      "name": "safeTransferFrom",
      "outputs": [],
      "stateMutability": "nonpayable",
      "type": "function"
    },
    {
      "inputs": [
        {
          "internalType": "address",
          "name": "from",
          "type": "address"
        },
        {
          "internalType": "address",
          "name": "to",
          "type": "address"
        },
        {
          "internalType": "uint256",
          "name": "tokenId",
          "type": "uint256"
        },
        {
          "internalType": "bytes",
          "name": "_data",
          "type": "bytes"
        }
      ],
      "name": "safeTransferFrom",
      "outputs": [],
      "stateMutability": "nonpayable",
      "type": "function"
    },
    {
      "inputs": [
        {
          "internalType": "address",
          "name": "operator",
          "type": "address"
        },
        {
          "internalType": "bool",
          "name": "approved",
          "type": "bool"
        }
      ],
      "name": "setApprovalForAll",
      "outputs": [],
      "stateMutability": "nonpayable",
      "type": "function"
    },
    {
      "inputs": [
        {
          "internalType": "bytes4",
          "name": "interfaceId",
          "type": "bytes4"
        }
      ],
      "name": "supportsInterface",
      "outputs": [
        {
          "internalType": "bool",
          "name": "",
          "type": "bool"
        }
      ],
      "stateMutability": "view",
      "type": "function",
      "constant": true
    },
    {
      "inputs": [],
      "name": "symbol",
      "outputs": [
        {
          "internalType": "string",
          "name": "",
          "type": "string"
        }
      ],
      "stateMutability": "view",
      "type": "function",
      "constant": true
    },
    {
      "inputs": [
        {
          "internalType": "uint256",
          "name": "index",
          "type": "uint256"
        }
      ],
      "name": "tokenByIndex",
      "outputs": [
        {
          "internalType": "uint256",
          "name": "",
          "type": "uint256"
        }
      ],
      "stateMutability": "view",
      "type": "function",
      "constant": true
    },
    {
      "inputs": [
        {
          "internalType": "address",
          "name": "owner",
          "type": "address"
        },
        {
          "internalType": "uint256",
          "name": "index",
          "type": "uint256"
        }
      ],
      "name": "tokenOfOwnerByIndex",
      "outputs": [
        {
          "internalType": "uint256",
          "name": "",
          "type": "uint256"
        }
      ],
      "stateMutability": "view",
      "type": "function",
      "constant": true
    },
    {
      "inputs": [],
      "name": "totalSupply",
      "outputs": [
        {
          "internalType": "uint256",
          "name": "",
          "type": "uint256"
        }
      ],
      "stateMutability": "view",
      "type": "function",
      "constant": true
    },
    {
      "inputs": [
        {
          "internalType": "address",
          "name": "from",
          "type": "address"
        },
        {
          "internalType": "address",
          "name": "to",
          "type": "address"
        },
        {
          "internalType": "uint256",
          "name": "tokenId",
          "type": "uint256"
        }
      ],
      "name": "transferFrom",
      "outputs": [],
      "stateMutability": "nonpayable",
      "type": "function"
    },
    {
      "stateMutability": "payable",
      "type": "receive",
      "payable": true
    },
    {
      "inputs": [
        {
          "internalType": "uint256",
          "name": "tokenId",
          "type": "uint256"
        }
      ],
      "name": "getIfTokenExists",
      "outputs": [
        {
          "internalType": "bool",
          "name": "",
          "type": "bool"
        }
      ],
      "stateMutability": "view",
      "type": "function",
      "constant": true
    },
    {
      "inputs": [
        {
          "internalType": "uint256",
          "name": "tokenId",
          "type": "uint256"
        }
      ],
      "name": "tokenURI",
      "outputs": [
        {
          "internalType": "string",
          "name": "",
          "type": "string"
        }
      ],
      "stateMutability": "view",
      "type": "function",
      "constant": true
    },
    {
      "inputs": [
        {
          "internalType": "uint256",
          "name": "tokenId",
          "type": "uint256"
        }
      ],
      "name": "getVehiclePrice",
      "outputs": [
        {
          "internalType": "uint256",
          "name": "",
          "type": "uint256"
        }
      ],
      "stateMutability": "view",
      "type": "function",
      "constant": true
    },
    {
      "inputs": [
        {
          "internalType": "uint256",
          "name": "tokenId",
          "type": "uint256"
        }
      ],
      "name": "getTopBidder",
      "outputs": [
        {
          "internalType": "address",
          "name": "",
          "type": "address"
        }
      ],
      "stateMutability": "view",
      "type": "function",
      "constant": true
    },
    {
      "inputs": [
        {
          "internalType": "uint256",
          "name": "tokenId",
          "type": "uint256"
        }
      ],
      "name": "isAuction",
      "outputs": [
        {
          "internalType": "bool",
          "name": "",
          "type": "bool"
        }
      ],
      "stateMutability": "view",
      "type": "function",
      "constant": true
    },
    {
      "inputs": [
        {
          "internalType": "uint256",
          "name": "tokenId",
          "type": "uint256"
        }
      ],
      "name": "isForSale",
      "outputs": [
        {
          "internalType": "bool",
          "name": "",
          "type": "bool"
        }
      ],
      "stateMutability": "view",
      "type": "function",
      "constant": true
    },
    {
      "inputs": [
        {
          "internalType": "uint256",
          "name": "tokenId",
          "type": "uint256"
        }
      ],
      "name": "concludeAuction",
      "outputs": [],
      "stateMutability": "nonpayable",
      "type": "function"
    },
    {
      "inputs": [
        {
          "internalType": "uint256",
          "name": "tokenId",
          "type": "uint256"
        },
        {
          "internalType": "uint256",
          "name": "price",
          "type": "uint256"
        }
      ],
      "name": "listAuction",
      "outputs": [],
      "stateMutability": "nonpayable",
      "type": "function"
    },
    {
      "inputs": [
        {
          "internalType": "uint256",
          "name": "tokenId",
          "type": "uint256"
        },
        {
          "internalType": "uint256",
          "name": "price",
          "type": "uint256"
        }
      ],
      "name": "listForSale",
      "outputs": [],
      "stateMutability": "nonpayable",
      "type": "function"
    },
    {
      "inputs": [
        {
          "internalType": "uint256",
          "name": "tokenId",
          "type": "uint256"
        }
      ],
      "name": "removeFromSale",
      "outputs": [],
      "stateMutability": "nonpayable",
      "type": "function"
    },
    {
      "inputs": [
        {
          "internalType": "uint256",
          "name": "tokenId",
          "type": "uint256"
        },
        {
          "internalType": "uint256",
          "name": "_price",
          "type": "uint256"
        }
      ],
      "name": "setVehiclePrice",
      "outputs": [],
      "stateMutability": "nonpayable",
      "type": "function"
    },
    {
      "inputs": [
        {
          "internalType": "uint256",
          "name": "tokenId",
          "type": "uint256"
        }
      ],
      "name": "buyVehicle",
      "outputs": [],
      "stateMutability": "payable",
      "type": "function",
      "payable": true
    },
    {
      "inputs": [
        {
          "internalType": "uint256",
          "name": "tokenId",
          "type": "uint256"
        }
      ],
      "name": "bidVehicle",
      "outputs": [],
      "stateMutability": "payable",
      "type": "function",
      "payable": true
    },
    {
      "inputs": [
        {
          "internalType": "string",
          "name": "uri",
          "type": "string"
        }
      ],
      "name": "createVehicle",
      "outputs": [],
      "stateMutability": "nonpayable",
      "type": "function"
    },
    {
      "inputs": [
        {
          "internalType": "uint256",
          "name": "_tokenId",
          "type": "uint256"
        }
      ],
      "name": "destroyVehicle",
      "outputs": [],
      "stateMutability": "nonpayable",
      "type": "function"
    },
    {
      "inputs": [
        {
          "internalType": "uint256",
          "name": "tokenId",
          "type": "uint256"
        }
      ],
      "name": "getOdometerValue",
      "outputs": [
        {
          "internalType": "uint256",
          "name": "",
          "type": "uint256"
        }
      ],
      "stateMutability": "view",
      "type": "function",
      "constant": true
    },
    {
      "inputs": [
        {
          "internalType": "uint256",
          "name": "tokenId",
          "type": "uint256"
        },
        {
          "internalType": "uint256",
          "name": "value",
          "type": "uint256"
        }
      ],
      "name": "increaseOdometer",
      "outputs": [],
      "stateMutability": "nonpayable",
      "type": "function"
    },
    {
      "inputs": [
        {
          "internalType": "uint256",
          "name": "tokenId",
          "type": "uint256"
        },
        {
          "internalType": "address",
          "name": "odometer",
          "type": "address"
        }
      ],
      "name": "setOdometerAddress",
      "outputs": [],
      "stateMutability": "nonpayable",
      "type": "function"
    }
  ],
  "bytecode": "0x60806040523480156200001157600080fd5b506040518060400160405280600781526020017f56656869636c65000000000000000000000000000000000000000000000000008152506040518060400160405280600381526020017f5648430000000000000000000000000000000000000000000000000000000000815250816000908051906020019062000096929190620004c2565b508060019080519060200190620000af929190620004c2565b505050620000c76000801b33620002c360201b60201c565b620000f97f11c2020b6b4f4e00c2410234e0c72636b4739cf7cda4d8e24ef6b881350e670433620002c360201b60201c565b6200012b7f9f2df0fed2c77648de5860a4cc508cd0818c85b8b8a1ab4ceeef8d981c8956a633620002c360201b60201c565b6200015d7f6f75c7e45b923a976102cf1173921af9cd14f3a7474f743b14e64b348aa2520d33620002c360201b60201c565b620001927f11c2020b6b4f4e00c2410234e0c72636b4739cf7cda4d8e24ef6b881350e67046000801b620002d960201b60201c565b620001c77f6f75c7e45b923a976102cf1173921af9cd14f3a7474f743b14e64b348aa2520d6000801b620002d960201b60201c565b620002197f9f2df0fed2c77648de5860a4cc508cd0818c85b8b8a1ab4ceeef8d981c8956a67f11c2020b6b4f4e00c2410234e0c72636b4739cf7cda4d8e24ef6b881350e6704620002d960201b60201c565b6200026b7fd565e3fc066df348a5cbc05a8d6323e00552838041cea2d84cc59876ba37735d7f6f75c7e45b923a976102cf1173921af9cd14f3a7474f743b14e64b348aa2520d620002d960201b60201c565b620002bd7f530aa2e706d666af1b04435a2cdfb362347f53ff7899306c42824dce7c19b0f77f6f75c7e45b923a976102cf1173921af9cd14f3a7474f743b14e64b348aa2520d620002d960201b60201c565b620005d7565b620002d582826200033d60201b60201c565b5050565b6000620002ec836200042f60201b60201c565b905081600a6000858152602001908152602001600020600101819055508181847fbd79b86ffe0ab8e8776151514217cd7cacd52c909f66475c3af44e129f0b00ff60405160405180910390a4505050565b6200034f82826200044f60201b60201c565b6200042b576001600a600084815260200190815260200160002060000160008373ffffffffffffffffffffffffffffffffffffffff1673ffffffffffffffffffffffffffffffffffffffff16815260200190815260200160002060006101000a81548160ff021916908315150217905550620003d0620004ba60201b60201c565b73ffffffffffffffffffffffffffffffffffffffff168173ffffffffffffffffffffffffffffffffffffffff16837f2f8788117e7eff1d82e926ec794901d17c78024a50270940304540a733656f0d60405160405180910390a45b5050565b6000600a6000838152602001908152602001600020600101549050919050565b6000600a600084815260200190815260200160002060000160008373ffffffffffffffffffffffffffffffffffffffff1673ffffffffffffffffffffffffffffffffffffffff16815260200190815260200160002060009054906101000a900460ff16905092915050565b600033905090565b828054620004d090620005a1565b90600052602060002090601f016020900481019282620004f4576000855562000540565b82601f106200050f57805160ff191683800117855562000540565b8280016001018555821562000540579182015b828111156200053f57825182559160200191906001019062000522565b5b5090506200054f919062000553565b5090565b5b808211156200056e57600081600090555060010162000554565b5090565b7f4e487b7100000000000000000000000000000000000000000000000000000000600052602260045260246000fd5b60006002820490506001821680620005ba57607f821691505b60208210811415620005d157620005d062000572565b5b50919050565b615ff480620005e76000396000f3fe6080604052600436106102345760003560e01c80634f6ccce71161012e578063b8761301116100ab578063e80d7fec1161006f578063e80d7fec146108b8578063e985e9c5146108e1578063facbbf201461091e578063fcc51fa11461095b578063fec81ee9146109845761023b565b8063b8761301146107e4578063b88d4fde1461080d578063befcfd5914610836578063c87b56dd14610852578063d547741f1461088f5761023b565b80638b79aa20116100f25780638b79aa20146106eb57806391d148541461072857806395d89b4114610765578063a217fddf14610790578063a22cb465146107bb5761023b565b80634f6ccce7146105ba5780636352211e146105f757806370a08231146106345780638546d002146106715780638704f2a3146106ae5761023b565b806323b872dd116101bc57806336568abe1161018057806336568abe146104fa57806336ce092014610523578063375209601461053f57806342842e0e146105685780634c5210f6146105915761023b565b806323b872dd14610405578063248a9ca31461042e578063251781e71461046b5780632f2ff15d146104945780632f745c59146104bd5761023b565b8063095ea7b311610203578063095ea7b31461032257806311033e481461034b5780631361a3b61461038857806318160ddd146103b15780632132730e146103dc5761023b565b806301ffc9a71461024057806304744d081461027d57806306fdde03146102ba578063081812fc146102e55761023b565b3661023b57005b600080fd5b34801561024c57600080fd5b506102676004803603810190610262919061438e565b6109ad565b60405161027491906143d6565b60405180910390f35b34801561028957600080fd5b506102a4600480360381019061029f9190614427565b6109bf565b6040516102b19190614495565b60405180910390f35b3480156102c657600080fd5b506102cf610a65565b6040516102dc9190614549565b60405180910390f35b3480156102f157600080fd5b5061030c60048036038101906103079190614427565b610af7565b6040516103199190614495565b60405180910390f35b34801561032e57600080fd5b5061034960048036038101906103449190614597565b610b7c565b005b34801561035757600080fd5b50610372600480360381019061036d9190614427565b610c94565b60405161037f91906143d6565b60405180910390f35b34801561039457600080fd5b506103af60048036038101906103aa9190614427565b610ca6565b005b3480156103bd57600080fd5b506103c6610df9565b6040516103d391906145e6565b60405180910390f35b3480156103e857600080fd5b5061040360048036038101906103fe9190614736565b610e06565b005b34801561041157600080fd5b5061042c6004803603810190610427919061477f565b6110c1565b005b34801561043a57600080fd5b5061045560048036038101906104509190614808565b611121565b6040516104629190614844565b60405180910390f35b34801561047757600080fd5b50610492600480360381019061048d919061485f565b611141565b005b3480156104a057600080fd5b506104bb60048036038101906104b6919061489f565b611284565b005b3480156104c957600080fd5b506104e460048036038101906104df9190614597565b6112ad565b6040516104f191906145e6565b60405180910390f35b34801561050657600080fd5b50610521600480360381019061051c919061489f565b611352565b005b61053d60048036038101906105389190614427565b6113d5565b005b34801561054b57600080fd5b5061056660048036038101906105619190614427565b611559565b005b34801561057457600080fd5b5061058f600480360381019061058a919061477f565b6115a9565b005b34801561059d57600080fd5b506105b860048036038101906105b3919061485f565b6115c9565b005b3480156105c657600080fd5b506105e160048036038101906105dc9190614427565b6117af565b6040516105ee91906145e6565b60405180910390f35b34801561060357600080fd5b5061061e60048036038101906106199190614427565b611820565b60405161062b9190614495565b60405180910390f35b34801561064057600080fd5b5061065b600480360381019061065691906148df565b6118d2565b60405161066891906145e6565b60405180910390f35b34801561067d57600080fd5b5061069860048036038101906106939190614427565b61198a565b6040516106a591906143d6565b60405180910390f35b3480156106ba57600080fd5b506106d560048036038101906106d09190614427565b6119e6565b6040516106e291906143d6565b60405180910390f35b3480156106f757600080fd5b50610712600480360381019061070d9190614427565b611a42565b60405161071f91906145e6565b60405180910390f35b34801561073457600080fd5b5061074f600480360381019061074a919061489f565b611ae8565b60405161075c91906143d6565b60405180910390f35b34801561077157600080fd5b5061077a611b53565b6040516107879190614549565b60405180910390f35b34801561079c57600080fd5b506107a5611be5565b6040516107b29190614844565b60405180910390f35b3480156107c757600080fd5b506107e260048036038101906107dd9190614938565b611bec565b005b3480156107f057600080fd5b5061080b60048036038101906108069190614427565b611d6d565b005b34801561081957600080fd5b50610834600480360381019061082f9190614a19565b611e76565b005b610850600480360381019061084b9190614427565b611ed8565b005b34801561085e57600080fd5b5061087960048036038101906108749190614427565b6120b1565b6040516108869190614549565b60405180910390f35b34801561089b57600080fd5b506108b660048036038101906108b1919061489f565b6121a0565b005b3480156108c457600080fd5b506108df60048036038101906108da919061485f565b6121c9565b005b3480156108ed57600080fd5b5061090860048036038101906109039190614a9c565b612365565b60405161091591906143d6565b60405180910390f35b34801561092a57600080fd5b5061094560048036038101906109409190614427565b6123f9565b60405161095291906145e6565b60405180910390f35b34801561096757600080fd5b50610982600480360381019061097d919061485f565b612460565b005b34801561099057600080fd5b506109ab60048036038101906109a69190614adc565b612741565b005b60006109b8826127ca565b9050919050565b6000816109cb81612844565b610a0a576040517f08c379a0000000000000000000000000000000000000000000000000000000008152600401610a0190614b68565b60405180910390fd5b82610a14816128b0565b610a53576040517f08c379a0000000000000000000000000000000000000000000000000000000008152600401610a4a90614bd4565b60405180910390fd5b610a5c846128ec565b92505050919050565b606060008054610a7490614c23565b80601f0160208091040260200160405190810160405280929190818152602001828054610aa090614c23565b8015610aed5780601f10610ac257610100808354040283529160200191610aed565b820191906000526020600020905b815481529060010190602001808311610ad057829003601f168201915b5050505050905090565b6000610b0282612844565b610b41576040517f08c379a0000000000000000000000000000000000000000000000000000000008152600401610b3890614cc7565b60405180910390fd5b6004600083815260200190815260200160002060009054906101000a900473ffffffffffffffffffffffffffffffffffffffff169050919050565b6000610b8782611820565b90508073ffffffffffffffffffffffffffffffffffffffff168373ffffffffffffffffffffffffffffffffffffffff161415610bf8576040517f08c379a0000000000000000000000000000000000000000000000000000000008152600401610bef90614d59565b60405180910390fd5b8073ffffffffffffffffffffffffffffffffffffffff16610c17612929565b73ffffffffffffffffffffffffffffffffffffffff161480610c465750610c4581610c40612929565b612365565b5b610c85576040517f08c379a0000000000000000000000000000000000000000000000000000000008152600401610c7c90614deb565b60405180910390fd5b610c8f8383612931565b505050565b6000610c9f82612844565b9050919050565b80610cb081612844565b610cef576040517f08c379a0000000000000000000000000000000000000000000000000000000008152600401610ce690614b68565b60405180910390fd5b81610cf9816129ea565b610d38576040517f08c379a0000000000000000000000000000000000000000000000000000000008152600401610d2f90614e57565b60405180910390fd5b823373ffffffffffffffffffffffffffffffffffffffff16610d5982611820565b73ffffffffffffffffffffffffffffffffffffffff1614610daf576040517f08c379a0000000000000000000000000000000000000000000000000000000008152600401610da690614f0f565b60405180910390fd5b610db884612a26565b837f6a954bd8417a491685feaae6ddad6ca52234ae6e9e02bbdfea52b463c8513d6a600080604051610deb929190614f2f565b60405180910390a250505050565b6000600880549050905090565b6000806003811115610e1b57610e1a614f58565b5b816003811115610e2e57610e2d614f58565b5b1415610e9d57610e5e7f9f2df0fed2c77648de5860a4cc508cd0818c85b8b8a1ab4ceeef8d981c8956a633611ae8565b80610e8f5750610e8e7f11c2020b6b4f4e00c2410234e0c72636b4739cf7cda4d8e24ef6b881350e670433611ae8565b5b610e9857600080fd5b611040565b60016003811115610eb157610eb0614f58565b5b816003811115610ec457610ec3614f58565b5b1415610f3357610ef47fd565e3fc066df348a5cbc05a8d6323e00552838041cea2d84cc59876ba37735d33611ae8565b80610f255750610f247f6f75c7e45b923a976102cf1173921af9cd14f3a7474f743b14e64b348aa2520d33611ae8565b5b610f2e57600080fd5b61103f565b60026003811115610f4757610f46614f58565b5b816003811115610f5a57610f59614f58565b5b1415610f9857610f8a7f530aa2e706d666af1b04435a2cdfb362347f53ff7899306c42824dce7c19b0f733611ae8565b610f9357600080fd5b61103e565b600380811115610fab57610faa614f58565b5b816003811115610fbe57610fbd614f58565b5b141561103d57610fee7f11c2020b6b4f4e00c2410234e0c72636b4739cf7cda4d8e24ef6b881350e670433611ae8565b8061101f575061101e7f6f75c7e45b923a976102cf1173921af9cd14f3a7474f743b14e64b348aa2520d33611ae8565b5b8061103357506110326000801b33611ae8565b5b61103c57600080fd5b5b5b5b5b8160001515600f826040516110559190614fc3565b908152602001604051809103902060009054906101000a900460ff161515146110b3576040517f08c379a00000000000000000000000000000000000000000000000000000000081526004016110aa90615026565b60405180910390fd5b6110bc83612a60565b505050565b6110d26110cc612929565b82612ac7565b611111576040517f08c379a0000000000000000000000000000000000000000000000000000000008152600401611108906150b8565b60405180910390fd5b61111c838383612ba5565b505050565b6000600a6000838152602001908152602001600020600101549050919050565b813373ffffffffffffffffffffffffffffffffffffffff1661116282611820565b73ffffffffffffffffffffffffffffffffffffffff16146111b8576040517f08c379a00000000000000000000000000000000000000000000000000000000081526004016111af90614f0f565b60405180910390fd5b826111c2816128b0565b15611202576040517f08c379a00000000000000000000000000000000000000000000000000000000081526004016111f990615124565b60405180910390fd5b8260008111611246576040517f08c379a000000000000000000000000000000000000000000000000000000000815260040161123d90615190565b60405180910390fd5b6112508585612e01565b847f270b316b51ab2cf3a3bb8ca4d22e76a327d05e762fcaa8bd6afaf8cfde9270b760405160405180910390a25050505050565b61128d82611121565b61129e81611299612929565b612e1d565b6112a88383612eba565b505050565b60006112b8836118d2565b82106112f9576040517f08c379a00000000000000000000000000000000000000000000000000000000081526004016112f090615222565b60405180910390fd5b600660008473ffffffffffffffffffffffffffffffffffffffff1673ffffffffffffffffffffffffffffffffffffffff168152602001908152602001600020600083815260200190815260200160002054905092915050565b61135a612929565b73ffffffffffffffffffffffffffffffffffffffff168173ffffffffffffffffffffffffffffffffffffffff16146113c7576040517f08c379a00000000000000000000000000000000000000000000000000000000081526004016113be906152b4565b60405180910390fd5b6113d18282612f9b565b5050565b806113df81612844565b61141e576040517f08c379a000000000000000000000000000000000000000000000000000000000815260040161141590614b68565b60405180910390fd5b81611428816129ea565b611467576040517f08c379a000000000000000000000000000000000000000000000000000000000815260040161145e90614e57565b60405180910390fd5b82611471816128b0565b156114b1576040517f08c379a00000000000000000000000000000000000000000000000000000000081526004016114a890615124565b60405180910390fd5b6114ba8461307d565b34146114fb576040517f08c379a00000000000000000000000000000000000000000000000000000000081526004016114f290615346565b60405180910390fd5b61150f61150785611820565b33863461309a565b61151884612a26565b837f6a954bd8417a491685feaae6ddad6ca52234ae6e9e02bbdfea52b463c8513d6a60008060405161154b929190614f2f565b60405180910390a250505050565b61156281612a26565b61156b8161312b565b807f6a954bd8417a491685feaae6ddad6ca52234ae6e9e02bbdfea52b463c8513d6a60008060405161159e929190614f2f565b60405180910390a250565b6115c483838360405180602001604052806000815250611e76565b505050565b816115d381612844565b611612576040517f08c379a000000000000000000000000000000000000000000000000000000000815260040161160990614b68565b60405180910390fd5b823373ffffffffffffffffffffffffffffffffffffffff1661163382611820565b73ffffffffffffffffffffffffffffffffffffffff1614611689576040517f08c379a000000000000000000000000000000000000000000000000000000000815260040161168090614f0f565b60405180910390fd5b83611693816129ea565b156116d3576040517f08c379a00000000000000000000000000000000000000000000000000000000081526004016116ca906153b2565b60405180910390fd5b846116dd816128b0565b1561171d576040517f08c379a000000000000000000000000000000000000000000000000000000000815260040161171490615124565b60405180910390fd5b8460008111611761576040517f08c379a000000000000000000000000000000000000000000000000000000000815260040161175890615190565b60405180910390fd5b61176b8787613176565b867f6a954bd8417a491685feaae6ddad6ca52234ae6e9e02bbdfea52b463c8513d6a60018060405161179e929190614f2f565b60405180910390a250505050505050565b60006117b9610df9565b82106117fa576040517f08c379a00000000000000000000000000000000000000000000000000000000081526004016117f190615444565b60405180910390fd5b6008828154811061180e5761180d615464565b5b90600052602060002001549050919050565b6000806002600084815260200190815260200160002060009054906101000a900473ffffffffffffffffffffffffffffffffffffffff169050600073ffffffffffffffffffffffffffffffffffffffff168173ffffffffffffffffffffffffffffffffffffffff1614156118c9576040517f08c379a00000000000000000000000000000000000000000000000000000000081526004016118c090615505565b60405180910390fd5b80915050919050565b60008073ffffffffffffffffffffffffffffffffffffffff168273ffffffffffffffffffffffffffffffffffffffff161415611943576040517f08c379a000000000000000000000000000000000000000000000000000000000815260040161193a90615597565b60405180910390fd5b600360008373ffffffffffffffffffffffffffffffffffffffff1673ffffffffffffffffffffffffffffffffffffffff168152602001908152602001600020549050919050565b60008161199681612844565b6119d5576040517f08c379a00000000000000000000000000000000000000000000000000000000081526004016119cc90614b68565b60405180910390fd5b6119de836129ea565b915050919050565b6000816119f281612844565b611a31576040517f08c379a0000000000000000000000000000000000000000000000000000000008152600401611a2890614b68565b60405180910390fd5b611a3a836128b0565b915050919050565b600081611a4e81612844565b611a8d576040517f08c379a0000000000000000000000000000000000000000000000000000000008152600401611a8490614b68565b60405180910390fd5b82611a97816129ea565b611ad6576040517f08c379a0000000000000000000000000000000000000000000000000000000008152600401611acd90614e57565b60405180910390fd5b611adf8461307d565b92505050919050565b6000600a600084815260200190815260200160002060000160008373ffffffffffffffffffffffffffffffffffffffff1673ffffffffffffffffffffffffffffffffffffffff16815260200190815260200160002060009054906101000a900460ff16905092915050565b606060018054611b6290614c23565b80601f0160208091040260200160405190810160405280929190818152602001828054611b8e90614c23565b8015611bdb5780601f10611bb057610100808354040283529160200191611bdb565b820191906000526020600020905b815481529060010190602001808311611bbe57829003601f168201915b5050505050905090565b6000801b81565b611bf4612929565b73ffffffffffffffffffffffffffffffffffffffff168273ffffffffffffffffffffffffffffffffffffffff161415611c62576040517f08c379a0000000000000000000000000000000000000000000000000000000008152600401611c5990615603565b60405180910390fd5b8060056000611c6f612929565b73ffffffffffffffffffffffffffffffffffffffff1673ffffffffffffffffffffffffffffffffffffffff16815260200190815260200160002060008473ffffffffffffffffffffffffffffffffffffffff1673ffffffffffffffffffffffffffffffffffffffff16815260200190815260200160002060006101000a81548160ff0219169083151502179055508173ffffffffffffffffffffffffffffffffffffffff16611d1c612929565b73ffffffffffffffffffffffffffffffffffffffff167f17307eab39ab6107e8899845ad3d59bd9653f200f220920489ca2b5937696c3183604051611d6191906143d6565b60405180910390a35050565b803373ffffffffffffffffffffffffffffffffffffffff16611d8e82611820565b73ffffffffffffffffffffffffffffffffffffffff1614611de4576040517f08c379a0000000000000000000000000000000000000000000000000000000008152600401611ddb90614f0f565b60405180910390fd5b81611dee816128b0565b611e2d576040517f08c379a0000000000000000000000000000000000000000000000000000000008152600401611e2490614bd4565b60405180910390fd5b611e368361318f565b827f6a954bd8417a491685feaae6ddad6ca52234ae6e9e02bbdfea52b463c8513d6a600080604051611e69929190614f2f565b60405180910390a2505050565b611e87611e81612929565b83612ac7565b611ec6576040517f08c379a0000000000000000000000000000000000000000000000000000000008152600401611ebd906150b8565b60405180910390fd5b611ed284848484613200565b50505050565b80611ee281612844565b611f21576040517f08c379a0000000000000000000000000000000000000000000000000000000008152600401611f1890614b68565b60405180910390fd5b81611f2b816128b0565b611f6a576040517f08c379a0000000000000000000000000000000000000000000000000000000008152600401611f6190614bd4565b60405180910390fd5b611f738361307d565b3411611fb4576040517f08c379a0000000000000000000000000000000000000000000000000000000008152600401611fab90615695565b60405180910390fd5b611fbd83611820565b73ffffffffffffffffffffffffffffffffffffffff163373ffffffffffffffffffffffffffffffffffffffff16141561202b576040517f08c379a000000000000000000000000000000000000000000000000000000000815260040161202290615727565b60405180910390fd5b612035303461325c565b61203e83613316565b6120488334612e01565b6120528333613383565b827f270b316b51ab2cf3a3bb8ca4d22e76a327d05e762fcaa8bd6afaf8cfde9270b760405160405180910390a2827fc95960509dc0aa4c1e2234f4c1313b2a1466421ea6d179fb0714306305b9c1e560405160405180910390a2505050565b6060816120bd81612844565b6120fc576040517f08c379a00000000000000000000000000000000000000000000000000000000081526004016120f390614b68565b60405180910390fd5b600e6000848152602001908152602001600020805461211a90614c23565b80601f016020809104026020016040519081016040528092919081815260200182805461214690614c23565b80156121935780601f1061216857610100808354040283529160200191612193565b820191906000526020600020905b81548152906001019060200180831161217657829003601f168201915b5050505050915050919050565b6121a982611121565b6121ba816121b5612929565b612e1d565b6121c48383612f9b565b505050565b816121d381612844565b612212576040517f08c379a000000000000000000000000000000000000000000000000000000000815260040161220990614b68565b60405180910390fd5b823373ffffffffffffffffffffffffffffffffffffffff1661223382611820565b73ffffffffffffffffffffffffffffffffffffffff1614612289576040517f08c379a000000000000000000000000000000000000000000000000000000000815260040161228090614f0f565b60405180910390fd5b83612293816129ea565b156122d3576040517f08c379a00000000000000000000000000000000000000000000000000000000081526004016122ca906153b2565b60405180910390fd5b8360008111612317576040517f08c379a000000000000000000000000000000000000000000000000000000000815260040161230e90615190565b60405180910390fd5b61232186866133d9565b857f6a954bd8417a491685feaae6ddad6ca52234ae6e9e02bbdfea52b463c8513d6a60016000604051612355929190614f2f565b60405180910390a2505050505050565b6000600560008473ffffffffffffffffffffffffffffffffffffffff1673ffffffffffffffffffffffffffffffffffffffff16815260200190815260200160002060008373ffffffffffffffffffffffffffffffffffffffff1673ffffffffffffffffffffffffffffffffffffffff16815260200190815260200160002060009054906101000a900460ff16905092915050565b60008161240581612844565b612444576040517f08c379a000000000000000000000000000000000000000000000000000000000815260040161243b90614b68565b60405180910390fd5b600d600084815260200190815260200160002054915050919050565b60026000600381111561247657612475614f58565b5b81600381111561248957612488614f58565b5b14156124f8576124b97f9f2df0fed2c77648de5860a4cc508cd0818c85b8b8a1ab4ceeef8d981c8956a633611ae8565b806124ea57506124e97f11c2020b6b4f4e00c2410234e0c72636b4739cf7cda4d8e24ef6b881350e670433611ae8565b5b6124f357600080fd5b61269b565b6001600381111561250c5761250b614f58565b5b81600381111561251f5761251e614f58565b5b141561258e5761254f7fd565e3fc066df348a5cbc05a8d6323e00552838041cea2d84cc59876ba37735d33611ae8565b80612580575061257f7f6f75c7e45b923a976102cf1173921af9cd14f3a7474f743b14e64b348aa2520d33611ae8565b5b61258957600080fd5b61269a565b600260038111156125a2576125a1614f58565b5b8160038111156125b5576125b4614f58565b5b14156125f3576125e57f530aa2e706d666af1b04435a2cdfb362347f53ff7899306c42824dce7c19b0f733611ae8565b6125ee57600080fd5b612699565b60038081111561260657612605614f58565b5b81600381111561261957612618614f58565b5b1415612698576126497f11c2020b6b4f4e00c2410234e0c72636b4739cf7cda4d8e24ef6b881350e670433611ae8565b8061267a57506126797f6f75c7e45b923a976102cf1173921af9cd14f3a7474f743b14e64b348aa2520d33611ae8565b5b8061268e575061268d6000801b33611ae8565b5b61269757600080fd5b5b5b5b5b600c600084815260200190815260200160002060009054906101000a900473ffffffffffffffffffffffffffffffffffffffff1673ffffffffffffffffffffffffffffffffffffffff163373ffffffffffffffffffffffffffffffffffffffff161461270657600080fd5b81600d6000858152602001908152602001600020546127259190615776565b600d600085815260200190815260200160002081905550505050565b61276b7f6f75c7e45b923a976102cf1173921af9cd14f3a7474f743b14e64b348aa2520d33611ae8565b61277457600080fd5b80600c600084815260200190815260200160002060006101000a81548173ffffffffffffffffffffffffffffffffffffffff021916908373ffffffffffffffffffffffffffffffffffffffff1602179055505050565b60007f7965db0b000000000000000000000000000000000000000000000000000000007bffffffffffffffffffffffffffffffffffffffffffffffffffffffff1916827bffffffffffffffffffffffffffffffffffffffffffffffffffffffff1916148061283d575061283c826133f2565b5b9050919050565b60008073ffffffffffffffffffffffffffffffffffffffff166002600084815260200190815260200160002060009054906101000a900473ffffffffffffffffffffffffffffffffffffffff1673ffffffffffffffffffffffffffffffffffffffff1614159050919050565b60008060006128be8461346c565b80925081935050506128e36011600084815260200190815260200160002054826134ab565b92505050919050565b60006013600083815260200190815260200160002060009054906101000a900473ffffffffffffffffffffffffffffffffffffffff169050919050565b600033905090565b816004600083815260200190815260200160002060006101000a81548173ffffffffffffffffffffffffffffffffffffffff021916908373ffffffffffffffffffffffffffffffffffffffff160217905550808273ffffffffffffffffffffffffffffffffffffffff166129a483611820565b73ffffffffffffffffffffffffffffffffffffffff167f8c5be1e5ebec7d5bd14f71427d1e84f3dd0314c0f7b2291e5b200ac8c7c3b92560405160405180910390a45050565b60008060006129f88461346c565b8092508193505050612a1d6010600084815260200190815260200160002054826134ab565b92505050919050565b612a2f816128b0565b15612a5257612a3d81613316565b612a46816134d2565b612a51816000613539565b5b612a5d816000613588565b50565b6000612a6c600b6135d7565b9050612a7833826135e5565b612a8281836137b3565b6001600f83604051612a949190614fc3565b908152602001604051809103902060006101000a81548160ff021916908315150217905550612ac3600b6137df565b5050565b6000612ad282612844565b612b11576040517f08c379a0000000000000000000000000000000000000000000000000000000008152600401612b089061583e565b60405180910390fd5b6000612b1c83611820565b90508073ffffffffffffffffffffffffffffffffffffffff168473ffffffffffffffffffffffffffffffffffffffff161480612b8b57508373ffffffffffffffffffffffffffffffffffffffff16612b7384610af7565b73ffffffffffffffffffffffffffffffffffffffff16145b80612b9c5750612b9b8185612365565b5b91505092915050565b8273ffffffffffffffffffffffffffffffffffffffff16612bc582611820565b73ffffffffffffffffffffffffffffffffffffffff1614612c1b576040517f08c379a0000000000000000000000000000000000000000000000000000000008152600401612c12906158d0565b60405180910390fd5b600073ffffffffffffffffffffffffffffffffffffffff168273ffffffffffffffffffffffffffffffffffffffff161415612c8b576040517f08c379a0000000000000000000000000000000000000000000000000000000008152600401612c8290615962565b60405180910390fd5b612c968383836137f5565b612ca1600082612931565b6001600360008573ffffffffffffffffffffffffffffffffffffffff1673ffffffffffffffffffffffffffffffffffffffff1681526020019081526020016000206000828254612cf19190615982565b925050819055506001600360008473ffffffffffffffffffffffffffffffffffffffff1673ffffffffffffffffffffffffffffffffffffffff1681526020019081526020016000206000828254612d489190615776565b92505081905550816002600083815260200190815260200160002060006101000a81548173ffffffffffffffffffffffffffffffffffffffff021916908373ffffffffffffffffffffffffffffffffffffffff160217905550808273ffffffffffffffffffffffffffffffffffffffff168473ffffffffffffffffffffffffffffffffffffffff167fddf252ad1be2c89b69c2b068fc378daa952ba7f163c4a11628f55a4df523b3ef60405160405180910390a4505050565b8060126000848152602001908152602001600020819055505050565b612e278282611ae8565b612eb657612e4c8173ffffffffffffffffffffffffffffffffffffffff166014613909565b612e5a8360001c6020613909565b604051602001612e6b929190615a4e565b6040516020818303038152906040526040517f08c379a0000000000000000000000000000000000000000000000000000000008152600401612ead9190614549565b60405180910390fd5b5050565b612ec48282611ae8565b612f97576001600a600084815260200190815260200160002060000160008373ffffffffffffffffffffffffffffffffffffffff1673ffffffffffffffffffffffffffffffffffffffff16815260200190815260200160002060006101000a81548160ff021916908315150217905550612f3c612929565b73ffffffffffffffffffffffffffffffffffffffff168173ffffffffffffffffffffffffffffffffffffffff16837f2f8788117e7eff1d82e926ec794901d17c78024a50270940304540a733656f0d60405160405180910390a45b5050565b612fa58282611ae8565b15613079576000600a600084815260200190815260200160002060000160008373ffffffffffffffffffffffffffffffffffffffff1673ffffffffffffffffffffffffffffffffffffffff16815260200190815260200160002060006101000a81548160ff02191690831515021790555061301e612929565b73ffffffffffffffffffffffffffffffffffffffff168173ffffffffffffffffffffffffffffffffffffffff16837ff6391f5c32d9c69d2a47ea670b442974b53935d1edc7fd64eb21e047a839171b60405160405180910390a45b5050565b600060126000838152602001908152602001600020549050919050565b6130a4848261325c565b6130af848484612ba5565b8273ffffffffffffffffffffffffffffffffffffffff166130cf83611820565b73ffffffffffffffffffffffffffffffffffffffff1614613125576040517f08c379a000000000000000000000000000000000000000000000000000000000815260040161311c90615afa565b60405180910390fd5b50505050565b61313481613b45565b613173816040518060400160405280600f81526020017f56656869636c652044656c6574656400000000000000000000000000000000008152506137b3565b50565b61318082826133d9565b61318b826001613539565b5050565b600061319a826128ec565b9050600073ffffffffffffffffffffffffffffffffffffffff168173ffffffffffffffffffffffffffffffffffffffff1614156131d657600080fd5b6131ea3382846131e58661307d565b61309a565b6131f3826134d2565b6131fc82612a26565b5050565b61320b848484612ba5565b61321784848484613c56565b613256576040517f08c379a000000000000000000000000000000000000000000000000000000000815260040161324d90615b8c565b60405180910390fd5b50505050565b60008290506000808273ffffffffffffffffffffffffffffffffffffffff168460405161328890615bdd565b60006040518083038185875af1925050503d80600081146132c5576040519150601f19603f3d011682016040523d82523d6000602084013e6132ca565b606091505b50915091508161330f576040517f08c379a000000000000000000000000000000000000000000000000000000000815260040161330690615c64565b60405180910390fd5b5050505050565b6000613321826128ec565b9050600061332e8361307d565b90506000811415801561336e5750600073ffffffffffffffffffffffffffffffffffffffff168273ffffffffffffffffffffffffffffffffffffffff1614155b1561337e5761337d828261325c565b5b505050565b806013600084815260200190815260200160002060006101000a81548173ffffffffffffffffffffffffffffffffffffffff021916908373ffffffffffffffffffffffffffffffffffffffff1602179055505050565b6133e4826001613588565b6133ee8282612e01565b5050565b60007f780e9d63000000000000000000000000000000000000000000000000000000007bffffffffffffffffffffffffffffffffffffffffffffffffffffffff1916827bffffffffffffffffffffffffffffffffffffffffffffffffffffffff19161480613465575061346482613ded565b5b9050919050565b60008060006101008461347f9190615cb3565b90506000816101006134919190615ce4565b8561349c9190615982565b90508181935093505050915091565b60008060018385901c169050600181146134c65760006134c9565b60015b91505092915050565b600073ffffffffffffffffffffffffffffffffffffffff166134f3826128ec565b73ffffffffffffffffffffffffffffffffffffffff161461351a57613519816000613383565b5b60006135258261307d565b1461353657613535816000612e01565b5b50565b6000806135458461346c565b809250819350505061356b60116000848152602001908152602001600020548285613ecf565b601160008481526020019081526020016000208190555050505050565b6000806135948461346c565b80925081935050506135ba60106000848152602001908152602001600020548285613ecf565b601060008481526020019081526020016000208190555050505050565b600081600001549050919050565b600073ffffffffffffffffffffffffffffffffffffffff168273ffffffffffffffffffffffffffffffffffffffff161415613655576040517f08c379a000000000000000000000000000000000000000000000000000000000815260040161364c90615d8a565b60405180910390fd5b61365e81612844565b1561369e576040517f08c379a000000000000000000000000000000000000000000000000000000000815260040161369590615df6565b60405180910390fd5b6136aa600083836137f5565b6001600360008473ffffffffffffffffffffffffffffffffffffffff1673ffffffffffffffffffffffffffffffffffffffff16815260200190815260200160002060008282546136fa9190615776565b92505081905550816002600083815260200190815260200160002060006101000a81548173ffffffffffffffffffffffffffffffffffffffff021916908373ffffffffffffffffffffffffffffffffffffffff160217905550808273ffffffffffffffffffffffffffffffffffffffff16600073ffffffffffffffffffffffffffffffffffffffff167fddf252ad1be2c89b69c2b068fc378daa952ba7f163c4a11628f55a4df523b3ef60405160405180910390a45050565b80600e600084815260200190815260200160002090805190602001906137da92919061427f565b505050565b6001816000016000828254019250508190555050565b613800838383613ef7565b600073ffffffffffffffffffffffffffffffffffffffff168373ffffffffffffffffffffffffffffffffffffffff1614156138435761383e81613efc565b613882565b8173ffffffffffffffffffffffffffffffffffffffff168373ffffffffffffffffffffffffffffffffffffffff1614613881576138808382613f45565b5b5b600073ffffffffffffffffffffffffffffffffffffffff168273ffffffffffffffffffffffffffffffffffffffff1614156138c5576138c0816140b2565b613904565b8273ffffffffffffffffffffffffffffffffffffffff168273ffffffffffffffffffffffffffffffffffffffff1614613903576139028282614183565b5b5b505050565b60606000600283600261391c9190615ce4565b6139269190615776565b67ffffffffffffffff81111561393f5761393e61460b565b5b6040519080825280601f01601f1916602001820160405280156139715781602001600182028036833780820191505090505b5090507f3000000000000000000000000000000000000000000000000000000000000000816000815181106139a9576139a8615464565b5b60200101907effffffffffffffffffffffffffffffffffffffffffffffffffffffffffffff1916908160001a9053507f780000000000000000000000000000000000000000000000000000000000000081600181518110613a0d57613a0c615464565b5b60200101907effffffffffffffffffffffffffffffffffffffffffffffffffffffffffffff1916908160001a90535060006001846002613a4d9190615ce4565b613a579190615776565b90505b6001811115613af7577f3031323334353637383961626364656600000000000000000000000000000000600f861660108110613a9957613a98615464565b5b1a60f81b828281518110613ab057613aaf615464565b5b60200101907effffffffffffffffffffffffffffffffffffffffffffffffffffffffffffff1916908160001a905350600485901c945080613af090615e16565b9050613a5a565b5060008414613b3b576040517f08c379a0000000000000000000000000000000000000000000000000000000008152600401613b3290615e8c565b60405180910390fd5b8091505092915050565b6000613b5082611820565b9050613b5e816000846137f5565b613b69600083612931565b6001600360008373ffffffffffffffffffffffffffffffffffffffff1673ffffffffffffffffffffffffffffffffffffffff1681526020019081526020016000206000828254613bb99190615982565b925050819055506002600083815260200190815260200160002060006101000a81549073ffffffffffffffffffffffffffffffffffffffff021916905581600073ffffffffffffffffffffffffffffffffffffffff168273ffffffffffffffffffffffffffffffffffffffff167fddf252ad1be2c89b69c2b068fc378daa952ba7f163c4a11628f55a4df523b3ef60405160405180910390a45050565b6000613c778473ffffffffffffffffffffffffffffffffffffffff16614202565b15613de0578373ffffffffffffffffffffffffffffffffffffffff1663150b7a02613ca0612929565b8786866040518563ffffffff1660e01b8152600401613cc29493929190615f01565b602060405180830381600087803b158015613cdc57600080fd5b505af1925050508015613d0d57506040513d601f19601f82011682018060405250810190613d0a9190615f62565b60015b613d90573d8060008114613d3d576040519150601f19603f3d011682016040523d82523d6000602084013e613d42565b606091505b50600081511415613d88576040517f08c379a0000000000000000000000000000000000000000000000000000000008152600401613d7f90615b8c565b60405180910390fd5b805181602001fd5b63150b7a0260e01b7bffffffffffffffffffffffffffffffffffffffffffffffffffffffff1916817bffffffffffffffffffffffffffffffffffffffffffffffffffffffff191614915050613de5565b600190505b949350505050565b60007f80ac58cd000000000000000000000000000000000000000000000000000000007bffffffffffffffffffffffffffffffffffffffffffffffffffffffff1916827bffffffffffffffffffffffffffffffffffffffffffffffffffffffff19161480613eb857507f5b5e139f000000000000000000000000000000000000000000000000000000007bffffffffffffffffffffffffffffffffffffffffffffffffffffffff1916827bffffffffffffffffffffffffffffffffffffffffffffffffffffffff1916145b80613ec85750613ec782614215565b5b9050919050565b60008115613ee557826001901b84179050613ef0565b826001901b19841690505b9392505050565b505050565b6008805490506009600083815260200190815260200160002081905550600881908060018154018082558091505060019003906000526020600020016000909190919091505550565b60006001613f52846118d2565b613f5c9190615982565b9050600060076000848152602001908152602001600020549050818114614041576000600660008673ffffffffffffffffffffffffffffffffffffffff1673ffffffffffffffffffffffffffffffffffffffff168152602001908152602001600020600084815260200190815260200160002054905080600660008773ffffffffffffffffffffffffffffffffffffffff1673ffffffffffffffffffffffffffffffffffffffff168152602001908152602001600020600084815260200190815260200160002081905550816007600083815260200190815260200160002081905550505b6007600084815260200190815260200160002060009055600660008573ffffffffffffffffffffffffffffffffffffffff1673ffffffffffffffffffffffffffffffffffffffff16815260200190815260200160002060008381526020019081526020016000206000905550505050565b600060016008805490506140c69190615982565b90506000600960008481526020019081526020016000205490506000600883815481106140f6576140f5615464565b5b90600052602060002001549050806008838154811061411857614117615464565b5b90600052602060002001819055508160096000838152602001908152602001600020819055506009600085815260200190815260200160002060009055600880548061416757614166615f8f565b5b6001900381819060005260206000200160009055905550505050565b600061418e836118d2565b905081600660008573ffffffffffffffffffffffffffffffffffffffff1673ffffffffffffffffffffffffffffffffffffffff168152602001908152602001600020600083815260200190815260200160002081905550806007600084815260200190815260200160002081905550505050565b600080823b905060008111915050919050565b60007f01ffc9a7000000000000000000000000000000000000000000000000000000007bffffffffffffffffffffffffffffffffffffffffffffffffffffffff1916827bffffffffffffffffffffffffffffffffffffffffffffffffffffffff1916149050919050565b82805461428b90614c23565b90600052602060002090601f0160209004810192826142ad57600085556142f4565b82601f106142c657805160ff19168380011785556142f4565b828001600101855582156142f4579182015b828111156142f35782518255916020019190600101906142d8565b5b5090506143019190614305565b5090565b5b8082111561431e576000816000905550600101614306565b5090565b6000604051905090565b600080fd5b600080fd5b60007fffffffff0000000000000000000000000000000000000000000000000000000082169050919050565b61436b81614336565b811461437657600080fd5b50565b60008135905061438881614362565b92915050565b6000602082840312156143a4576143a361432c565b5b60006143b284828501614379565b91505092915050565b60008115159050919050565b6143d0816143bb565b82525050565b60006020820190506143eb60008301846143c7565b92915050565b6000819050919050565b614404816143f1565b811461440f57600080fd5b50565b600081359050614421816143fb565b92915050565b60006020828403121561443d5761443c61432c565b5b600061444b84828501614412565b91505092915050565b600073ffffffffffffffffffffffffffffffffffffffff82169050919050565b600061447f82614454565b9050919050565b61448f81614474565b82525050565b60006020820190506144aa6000830184614486565b92915050565b600081519050919050565b600082825260208201905092915050565b60005b838110156144ea5780820151818401526020810190506144cf565b838111156144f9576000848401525b50505050565b6000601f19601f8301169050919050565b600061451b826144b0565b61452581856144bb565b93506145358185602086016144cc565b61453e816144ff565b840191505092915050565b600060208201905081810360008301526145638184614510565b905092915050565b61457481614474565b811461457f57600080fd5b50565b6000813590506145918161456b565b92915050565b600080604083850312156145ae576145ad61432c565b5b60006145bc85828601614582565b92505060206145cd85828601614412565b9150509250929050565b6145e0816143f1565b82525050565b60006020820190506145fb60008301846145d7565b92915050565b600080fd5b600080fd5b7f4e487b7100000000000000000000000000000000000000000000000000000000600052604160045260246000fd5b614643826144ff565b810181811067ffffffffffffffff821117156146625761466161460b565b5b80604052505050565b6000614675614322565b9050614681828261463a565b919050565b600067ffffffffffffffff8211156146a1576146a061460b565b5b6146aa826144ff565b9050602081019050919050565b82818337600083830152505050565b60006146d96146d484614686565b61466b565b9050828152602081018484840111156146f5576146f4614606565b5b6147008482856146b7565b509392505050565b600082601f83011261471d5761471c614601565b5b813561472d8482602086016146c6565b91505092915050565b60006020828403121561474c5761474b61432c565b5b600082013567ffffffffffffffff81111561476a57614769614331565b5b61477684828501614708565b91505092915050565b6000806000606084860312156147985761479761432c565b5b60006147a686828701614582565b93505060206147b786828701614582565b92505060406147c886828701614412565b9150509250925092565b6000819050919050565b6147e5816147d2565b81146147f057600080fd5b50565b600081359050614802816147dc565b92915050565b60006020828403121561481e5761481d61432c565b5b600061482c848285016147f3565b91505092915050565b61483e816147d2565b82525050565b60006020820190506148596000830184614835565b92915050565b600080604083850312156148765761487561432c565b5b600061488485828601614412565b925050602061489585828601614412565b9150509250929050565b600080604083850312156148b6576148b561432c565b5b60006148c4858286016147f3565b92505060206148d585828601614582565b9150509250929050565b6000602082840312156148f5576148f461432c565b5b600061490384828501614582565b91505092915050565b614915816143bb565b811461492057600080fd5b50565b6000813590506149328161490c565b92915050565b6000806040838503121561494f5761494e61432c565b5b600061495d85828601614582565b925050602061496e85828601614923565b9150509250929050565b600067ffffffffffffffff8211156149935761499261460b565b5b61499c826144ff565b9050602081019050919050565b60006149bc6149b784614978565b61466b565b9050828152602081018484840111156149d8576149d7614606565b5b6149e38482856146b7565b509392505050565b600082601f830112614a00576149ff614601565b5b8135614a108482602086016149a9565b91505092915050565b60008060008060808587031215614a3357614a3261432c565b5b6000614a4187828801614582565b9450506020614a5287828801614582565b9350506040614a6387828801614412565b925050606085013567ffffffffffffffff811115614a8457614a83614331565b5b614a90878288016149eb565b91505092959194509250565b60008060408385031215614ab357614ab261432c565b5b6000614ac185828601614582565b9250506020614ad285828601614582565b9150509250929050565b60008060408385031215614af357614af261432c565b5b6000614b0185828601614412565b9250506020614b1285828601614582565b9150509250929050565b7f546f6b656e2f56656869636c6520646f6573206e6f742065786973742e000000600082015250565b6000614b52601d836144bb565b9150614b5d82614b1c565b602082019050919050565b60006020820190508181036000830152614b8181614b45565b9050919050565b7f56656869636c65206973206e6f7420616e2061756374696f6e2e000000000000600082015250565b6000614bbe601a836144bb565b9150614bc982614b88565b602082019050919050565b60006020820190508181036000830152614bed81614bb1565b9050919050565b7f4e487b7100000000000000000000000000000000000000000000000000000000600052602260045260246000fd5b60006002820490506001821680614c3b57607f821691505b60208210811415614c4f57614c4e614bf4565b5b50919050565b7f4552433732313a20617070726f76656420717565727920666f72206e6f6e657860008201527f697374656e7420746f6b656e0000000000000000000000000000000000000000602082015250565b6000614cb1602c836144bb565b9150614cbc82614c55565b604082019050919050565b60006020820190508181036000830152614ce081614ca4565b9050919050565b7f4552433732313a20617070726f76616c20746f2063757272656e74206f776e6560008201527f7200000000000000000000000000000000000000000000000000000000000000602082015250565b6000614d436021836144bb565b9150614d4e82614ce7565b604082019050919050565b60006020820190508181036000830152614d7281614d36565b9050919050565b7f4552433732313a20617070726f76652063616c6c6572206973206e6f74206f7760008201527f6e6572206e6f7220617070726f76656420666f7220616c6c0000000000000000602082015250565b6000614dd56038836144bb565b9150614de082614d79565b604082019050919050565b60006020820190508181036000830152614e0481614dc8565b9050919050565b7f56656869636c65206973206e6f7420666f722073616c652e0000000000000000600082015250565b6000614e416018836144bb565b9150614e4c82614e0b565b602082019050919050565b60006020820190508181036000830152614e7081614e34565b9050919050565b7f4d6573736167652073656e646572206973206e6f7420746865206f776e65722f60008201527f617574686f72697a656420666f722074686520746f6b656e49642070726f766960208201527f6465642e00000000000000000000000000000000000000000000000000000000604082015250565b6000614ef96044836144bb565b9150614f0482614e77565b606082019050919050565b60006020820190508181036000830152614f2881614eec565b9050919050565b6000604082019050614f4460008301856143c7565b614f5160208301846143c7565b9392505050565b7f4e487b7100000000000000000000000000000000000000000000000000000000600052602160045260246000fd5b600081905092915050565b6000614f9d826144b0565b614fa78185614f87565b9350614fb78185602086016144cc565b80840191505092915050565b6000614fcf8284614f92565b915081905092915050565b7f4475706c69636174652055524927732064657465637465642e00000000000000600082015250565b60006150106019836144bb565b915061501b82614fda565b602082019050919050565b6000602082019050818103600083015261503f81615003565b9050919050565b7f4552433732313a207472616e736665722063616c6c6572206973206e6f74206f60008201527f776e6572206e6f7220617070726f766564000000000000000000000000000000602082015250565b60006150a26031836144bb565b91506150ad82615046565b604082019050919050565b600060208201905081810360008301526150d181615095565b9050919050565b7f56656869636c6520697320616c726561647920616e2061756374696f6e2e0000600082015250565b600061510e601e836144bb565b9150615119826150d8565b602082019050919050565b6000602082019050818103600083015261513d81615101565b9050919050565b7f43616e6e6f742073657420707269636520746f20302e00000000000000000000600082015250565b600061517a6016836144bb565b915061518582615144565b602082019050919050565b600060208201905081810360008301526151a98161516d565b9050919050565b7f455243373231456e756d657261626c653a206f776e657220696e646578206f7560008201527f74206f6620626f756e6473000000000000000000000000000000000000000000602082015250565b600061520c602b836144bb565b9150615217826151b0565b604082019050919050565b6000602082019050818103600083015261523b816151ff565b9050919050565b7f416363657373436f6e74726f6c3a2063616e206f6e6c792072656e6f756e636560008201527f20726f6c657320666f722073656c660000000000000000000000000000000000602082015250565b600061529e602f836144bb565b91506152a982615242565b604082019050919050565b600060208201905081810360008301526152cd81615291565b9050919050565b7f4d6f6e65792073656e7420656974686572206e6f7420656e6f756768206f722060008201527f746f6f206d7563682e0000000000000000000000000000000000000000000000602082015250565b60006153306029836144bb565b915061533b826152d4565b604082019050919050565b6000602082019050818103600083015261535f81615323565b9050919050565b7f56656869636c6520697320616c726561647920666f722073616c652e00000000600082015250565b600061539c601c836144bb565b91506153a782615366565b602082019050919050565b600060208201905081810360008301526153cb8161538f565b9050919050565b7f455243373231456e756d657261626c653a20676c6f62616c20696e646578206f60008201527f7574206f6620626f756e64730000000000000000000000000000000000000000602082015250565b600061542e602c836144bb565b9150615439826153d2565b604082019050919050565b6000602082019050818103600083015261545d81615421565b9050919050565b7f4e487b7100000000000000000000000000000000000000000000000000000000600052603260045260246000fd5b7f4552433732313a206f776e657220717565727920666f72206e6f6e657869737460008201527f656e7420746f6b656e0000000000000000000000000000000000000000000000602082015250565b60006154ef6029836144bb565b91506154fa82615493565b604082019050919050565b6000602082019050818103600083015261551e816154e2565b9050919050565b7f4552433732313a2062616c616e636520717565727920666f7220746865207a6560008201527f726f206164647265737300000000000000000000000000000000000000000000602082015250565b6000615581602a836144bb565b915061558c82615525565b604082019050919050565b600060208201905081810360008301526155b081615574565b9050919050565b7f4552433732313a20617070726f766520746f2063616c6c657200000000000000600082015250565b60006155ed6019836144bb565b91506155f8826155b7565b602082019050919050565b6000602082019050818103600083015261561c816155e0565b9050919050565b7f426964206d75737420626520686967686572207468616e20746865206375727260008201527f656e742070726963652e00000000000000000000000000000000000000000000602082015250565b600061567f602a836144bb565b915061568a82615623565b604082019050919050565b600060208201905081810360008301526156ae81615672565b9050919050565b7f596f752063616e6e6f7420626964206f6e20796f7572206f776e20617563746960008201527f6f6e2e0000000000000000000000000000000000000000000000000000000000602082015250565b60006157116023836144bb565b915061571c826156b5565b604082019050919050565b6000602082019050818103600083015261574081615704565b9050919050565b7f4e487b7100000000000000000000000000000000000000000000000000000000600052601160045260246000fd5b6000615781826143f1565b915061578c836143f1565b9250827fffffffffffffffffffffffffffffffffffffffffffffffffffffffffffffffff038211156157c1576157c0615747565b5b828201905092915050565b7f4552433732313a206f70657261746f7220717565727920666f72206e6f6e657860008201527f697374656e7420746f6b656e0000000000000000000000000000000000000000602082015250565b6000615828602c836144bb565b9150615833826157cc565b604082019050919050565b600060208201905081810360008301526158578161581b565b9050919050565b7f4552433732313a207472616e73666572206f6620746f6b656e2074686174206960008201527f73206e6f74206f776e0000000000000000000000000000000000000000000000602082015250565b60006158ba6029836144bb565b91506158c58261585e565b604082019050919050565b600060208201905081810360008301526158e9816158ad565b9050919050565b7f4552433732313a207472616e7366657220746f20746865207a65726f2061646460008201527f7265737300000000000000000000000000000000000000000000000000000000602082015250565b600061594c6024836144bb565b9150615957826158f0565b604082019050919050565b6000602082019050818103600083015261597b8161593f565b9050919050565b600061598d826143f1565b9150615998836143f1565b9250828210156159ab576159aa615747565b5b828203905092915050565b7f416363657373436f6e74726f6c3a206163636f756e7420000000000000000000600082015250565b60006159ec601783614f87565b91506159f7826159b6565b601782019050919050565b7f206973206d697373696e6720726f6c6520000000000000000000000000000000600082015250565b6000615a38601183614f87565b9150615a4382615a02565b601182019050919050565b6000615a59826159df565b9150615a658285614f92565b9150615a7082615a2b565b9150615a7c8284614f92565b91508190509392505050565b7f4661696c656420746f207472616e736665722076656869636c6520746f20627560008201527f7965720000000000000000000000000000000000000000000000000000000000602082015250565b6000615ae46023836144bb565b9150615aef82615a88565b604082019050919050565b60006020820190508181036000830152615b1381615ad7565b9050919050565b7f4552433732313a207472616e7366657220746f206e6f6e20455243373231526560008201527f63656976657220696d706c656d656e7465720000000000000000000000000000602082015250565b6000615b766032836144bb565b9150615b8182615b1a565b604082019050919050565b60006020820190508181036000830152615ba581615b69565b9050919050565b600081905092915050565b50565b6000615bc7600083615bac565b9150615bd282615bb7565b600082019050919050565b6000615be882615bba565b9150819050919050565b7f4661696c656420746f2073656e64206d6f6e657920746f2062656e656669636960008201527f6172790000000000000000000000000000000000000000000000000000000000602082015250565b6000615c4e6023836144bb565b9150615c5982615bf2565b604082019050919050565b60006020820190508181036000830152615c7d81615c41565b9050919050565b7f4e487b7100000000000000000000000000000000000000000000000000000000600052601260045260246000fd5b6000615cbe826143f1565b9150615cc9836143f1565b925082615cd957615cd8615c84565b5b828204905092915050565b6000615cef826143f1565b9150615cfa836143f1565b9250817fffffffffffffffffffffffffffffffffffffffffffffffffffffffffffffffff0483118215151615615d3357615d32615747565b5b828202905092915050565b7f4552433732313a206d696e7420746f20746865207a65726f2061646472657373600082015250565b6000615d746020836144bb565b9150615d7f82615d3e565b602082019050919050565b60006020820190508181036000830152615da381615d67565b9050919050565b7f4552433732313a20746f6b656e20616c7265616479206d696e74656400000000600082015250565b6000615de0601c836144bb565b9150615deb82615daa565b602082019050919050565b60006020820190508181036000830152615e0f81615dd3565b9050919050565b6000615e21826143f1565b91506000821415615e3557615e34615747565b5b600182039050919050565b7f537472696e67733a20686578206c656e67746820696e73756666696369656e74600082015250565b6000615e766020836144bb565b9150615e8182615e40565b602082019050919050565b60006020820190508181036000830152615ea581615e69565b9050919050565b600081519050919050565b600082825260208201905092915050565b6000615ed382615eac565b615edd8185615eb7565b9350615eed8185602086016144cc565b615ef6816144ff565b840191505092915050565b6000608082019050615f166000830187614486565b615f236020830186614486565b615f3060408301856145d7565b8181036060830152615f428184615ec8565b905095945050505050565b600081519050615f5c81614362565b92915050565b600060208284031215615f7857615f7761432c565b5b6000615f8684828501615f4d565b91505092915050565b7f4e487b7100000000000000000000000000000000000000000000000000000000600052603160045260246000fdfea26469706673582212207e876b1f3633e5750b0ca7df225984e939e4f83aa971ffdeb03e19444f82da9764736f6c63430008090033",
  "immutableReferences": {},
  "source": "// SPDX-License-Identifier: MIT\r\npragma solidity >=0.6.0 <0.9.0;\r\n\r\nimport \"./Vehicle.sol\";\r\n\r\ncontract ExternalGateway is Vehicle {\r\n\r\n    event NewPrice(uint256 indexed tokenId);\r\n    event NewTopBidder(uint256 indexed tokenId);\r\n\r\n    function getIfTokenExists(uint256 tokenId) external view returns (bool) {\r\n        return _exists(tokenId);\r\n    }\r\n\r\n    function tokenURI(uint256 tokenId)\r\n        public\r\n        view\r\n        virtual\r\n        override\r\n        onlyIfExists(tokenId)\r\n        returns (string memory)\r\n    {\r\n        return _tokenURIs[tokenId];\r\n    }\r\n\r\n    function getVehiclePrice(uint256 tokenId)\r\n        external\r\n        view\r\n        onlyIfExists(tokenId)\r\n        onlyIfForSale(tokenId)\r\n        returns (uint256)\r\n    {\r\n        return _getVehiclePrice(tokenId);\r\n    }\r\n\r\n    function getTopBidder(uint256 tokenId)\r\n        external\r\n        view\r\n        onlyIfExists(tokenId)\r\n        onlyIfAuction(tokenId)\r\n        returns (address)\r\n    {\r\n        return _getTopBidder(tokenId);\r\n    }\r\n\r\n    function isAuction(uint256 tokenId)\r\n        external\r\n        view\r\n        onlyIfExists(tokenId)\r\n        returns (bool)\r\n    {\r\n        return _isAuction(tokenId);\r\n    }\r\n\r\n    function isForSale(uint256 tokenId)\r\n        external\r\n        view\r\n        onlyIfExists(tokenId)\r\n        returns (bool)\r\n    {\r\n        return _isForSale(tokenId);\r\n    }\r\n\r\n    function concludeAuction(uint256 tokenId)\r\n        external\r\n        onlyOwnerOf(tokenId)\r\n        onlyIfAuction(tokenId)\r\n    {\r\n        _concludeAuction(tokenId);\r\n        emit SaleStatus(tokenId, false, false);\r\n    }\r\n\r\n    function listAuction(uint256 tokenId, uint256 price)\r\n        external\r\n        onlyIfExists(tokenId)\r\n        onlyOwnerOf(tokenId)\r\n        onlyIfNotForSale(tokenId)\r\n        onlyIfNotAuction(tokenId)\r\n        onlyIfPriceNonNull(price)\r\n    {\r\n        _listAuction(tokenId, price);\r\n        emit SaleStatus(tokenId, true, true);\r\n    }\r\n\r\n    function listForSale(uint256 tokenId, uint256 price)\r\n        external\r\n        onlyIfExists(tokenId)\r\n        onlyOwnerOf(tokenId)\r\n        onlyIfNotForSale(tokenId)\r\n        onlyIfPriceNonNull(price)\r\n    {\r\n        _listForSale(tokenId, price);\r\n        emit SaleStatus(tokenId, true, false);\r\n    }\r\n\r\n    function removeFromSale(uint256 tokenId)\r\n        external\r\n        onlyIfExists(tokenId)\r\n        onlyIfForSale(tokenId)\r\n        onlyOwnerOf(tokenId)\r\n    {\r\n        _removeFromSale(tokenId);\r\n        emit SaleStatus(tokenId, false, false);\r\n    }\r\n\r\n    function setVehiclePrice(uint256 tokenId, uint256 _price)\r\n        external\r\n        onlyOwnerOf(tokenId)\r\n        onlyIfNotAuction(tokenId)\r\n        onlyIfPriceNonNull(_price)\r\n    {\r\n        _setVehiclePrice(tokenId, _price);\r\n        emit NewPrice(tokenId);\r\n    }\r\n\r\n    function buyVehicle(uint256 tokenId)\r\n        external\r\n        payable\r\n        onlyIfExists(tokenId)\r\n        onlyIfForSale(tokenId)\r\n        onlyIfNotAuction(tokenId)\r\n    {\r\n        require(\r\n            msg.value == _getVehiclePrice(tokenId),\r\n            \"Money sent either not enough or too much.\"\r\n        );\r\n\r\n        _classicExchange(ownerOf(tokenId), msg.sender, tokenId, msg.value);\r\n        _removeFromSale(tokenId);\r\n        emit SaleStatus(tokenId, false, false);\r\n    }\r\n\r\n    function bidVehicle(uint256 tokenId)\r\n        external\r\n        payable\r\n        onlyIfExists(tokenId)\r\n        onlyIfAuction(tokenId)\r\n    {\r\n        require(\r\n            msg.value > _getVehiclePrice(tokenId),\r\n            \"Bid must be higher than the current price.\"\r\n        );\r\n        require(\r\n            msg.sender != ownerOf(tokenId),\r\n            \"You cannot bid on your own auction.\"\r\n        );\r\n\r\n        _secureMoneyTransfer(address(this), msg.value);\r\n        _refundCurentTopBidder(tokenId);\r\n        _setVehiclePrice(tokenId, msg.value);\r\n        _setTopBidder(tokenId, msg.sender);\r\n        emit NewPrice(tokenId);\r\n        emit NewTopBidder(tokenId);\r\n    }\r\n\r\n    function createVehicle(string memory uri)\r\n        external\r\n        onlyClass(ROLE_CLASS.MINTER)\r\n        onlyIfNotRegistered(uri)\r\n    {\r\n        mint(uri);\r\n    }\r\n\r\n    function destroyVehicle(uint256 _tokenId) external {\r\n        _removeFromSale(_tokenId);\r\n        burn(_tokenId);\r\n        emit SaleStatus(_tokenId, false, false);\r\n    }\r\n\r\n    //ODOMETER\r\n\r\n\r\n    function getOdometerValue(uint256 tokenId) public view onlyIfExists(tokenId) returns (uint256) {\r\n        return _odometerValue[tokenId];\r\n    }\r\n\r\n\r\n    function increaseOdometer(uint256 tokenId, uint256 value) public onlyClass(ROLE_CLASS.ODOMETER)  {\r\n        require(msg.sender==_odometerAddress[tokenId]);\r\n        _odometerValue[tokenId] = _odometerValue[tokenId] + value;\r\n    }\r\n\r\n    function setOdometerAddress(uint256 tokenId, address odometer) public  {\r\n\r\n        require(hasRole(keccak256(\"AUTHORITY_ROLE_ADMIN\"), msg.sender));\r\n        _odometerAddress[tokenId] = odometer;\r\n    }\r\n\r\n    \r\n\r\n}\r\n",
  "sourcePath": "C:\\sgs020\\contracts\\ExternalGateway.sol",
  "compiler": {
    "name": "solc",
    "version": "0.8.9+commit.e5eed63a.Emscripten.clang"
  },
  "schemaVersion": "3.4.3",
  "updatedAt": "2022-02-21T12:05:17.209Z",
  "networkType": "ethereum",
  "devdoc": {
    "kind": "dev",
    "methods": {
      "approve(address,uint256)": {
        "details": "See {IERC721-approve}."
      },
      "balanceOf(address)": {
        "details": "See {IERC721-balanceOf}."
      },
      "getApproved(uint256)": {
        "details": "See {IERC721-getApproved}."
      },
      "getRoleAdmin(bytes32)": {
        "details": "Returns the admin role that controls `role`. See {grantRole} and {revokeRole}. To change a role's admin, use {_setRoleAdmin}."
      },
      "grantRole(bytes32,address)": {
        "details": "Grants `role` to `account`. If `account` had not been already granted `role`, emits a {RoleGranted} event. Requirements: - the caller must have ``role``'s admin role."
      },
      "hasRole(bytes32,address)": {
        "details": "Returns `true` if `account` has been granted `role`."
      },
      "isApprovedForAll(address,address)": {
        "details": "See {IERC721-isApprovedForAll}."
      },
      "name()": {
        "details": "See {IERC721Metadata-name}."
      },
      "ownerOf(uint256)": {
        "details": "See {IERC721-ownerOf}."
      },
      "renounceRole(bytes32,address)": {
        "details": "Revokes `role` from the calling account. Roles are often managed via {grantRole} and {revokeRole}: this function's purpose is to provide a mechanism for accounts to lose their privileges if they are compromised (such as when a trusted device is misplaced). If the calling account had been granted `role`, emits a {RoleRevoked} event. Requirements: - the caller must be `account`."
      },
      "revokeRole(bytes32,address)": {
        "details": "Revokes `role` from `account`. If `account` had been granted `role`, emits a {RoleRevoked} event. Requirements: - the caller must have ``role``'s admin role."
      },
      "safeTransferFrom(address,address,uint256)": {
        "details": "See {IERC721-safeTransferFrom}."
      },
      "safeTransferFrom(address,address,uint256,bytes)": {
        "details": "See {IERC721-safeTransferFrom}."
      },
      "setApprovalForAll(address,bool)": {
        "details": "See {IERC721-setApprovalForAll}."
      },
      "symbol()": {
        "details": "See {IERC721Metadata-symbol}."
      },
      "tokenByIndex(uint256)": {
        "details": "See {IERC721Enumerable-tokenByIndex}."
      },
      "tokenOfOwnerByIndex(address,uint256)": {
        "details": "See {IERC721Enumerable-tokenOfOwnerByIndex}."
      },
      "tokenURI(uint256)": {
        "details": "See {IERC721Metadata-tokenURI}."
      },
      "totalSupply()": {
        "details": "See {IERC721Enumerable-totalSupply}."
      },
      "transferFrom(address,address,uint256)": {
        "details": "See {IERC721-transferFrom}."
      }
    },
    "version": 1
  },
  "userdoc": {
    "kind": "user",
    "methods": {},
    "version": 1
  }
}