{
  "contractName": "Vehicle",
  "abi": [
    {
      "inputs": [],
      "stateMutability": "nonpayable",
      "type": "constructor"
    },
    {
      "anonymous": false,
      "inputs": [
        {
          "indexed": true,
          "internalType": "address",
          "name": "owner",
          "type": "address"
        },
        {
          "indexed": true,
          "internalType": "address",
          "name": "approved",
          "type": "address"
        },
        {
          "indexed": true,
          "internalType": "uint256",
          "name": "tokenId",
          "type": "uint256"
        }
      ],
      "name": "Approval",
      "type": "event"
    },
    {
      "anonymous": false,
      "inputs": [
        {
          "indexed": true,
          "internalType": "address",
          "name": "owner",
          "type": "address"
        },
        {
          "indexed": true,
          "internalType": "address",
          "name": "operator",
          "type": "address"
        },
        {
          "indexed": false,
          "internalType": "bool",
          "name": "approved",
          "type": "bool"
        }
      ],
      "name": "ApprovalForAll",
      "type": "event"
    },
    {
      "anonymous": false,
      "inputs": [
        {
          "indexed": true,
          "internalType": "uint256",
          "name": "tokenId",
          "type": "uint256"
        },
        {
          "indexed": true,
          "internalType": "address",
          "name": "depositer",
          "type": "address"
        },
        {
          "indexed": false,
          "internalType": "uint256",
          "name": "amount",
          "type": "uint256"
        }
      ],
      "name": "Received",
      "type": "event"
    },
    {
      "anonymous": false,
      "inputs": [
        {
          "indexed": true,
          "internalType": "bytes32",
          "name": "role",
          "type": "bytes32"
        },
        {
          "indexed": true,
          "internalType": "bytes32",
          "name": "previousAdminRole",
          "type": "bytes32"
        },
        {
          "indexed": true,
          "internalType": "bytes32",
          "name": "newAdminRole",
          "type": "bytes32"
        }
      ],
      "name": "RoleAdminChanged",
      "type": "event"
    },
    {
      "anonymous": false,
      "inputs": [
        {
          "indexed": true,
          "internalType": "bytes32",
          "name": "role",
          "type": "bytes32"
        },
        {
          "indexed": true,
          "internalType": "address",
          "name": "account",
          "type": "address"
        },
        {
          "indexed": true,
          "internalType": "address",
          "name": "sender",
          "type": "address"
        }
      ],
      "name": "RoleGranted",
      "type": "event"
    },
    {
      "anonymous": false,
      "inputs": [
        {
          "indexed": true,
          "internalType": "bytes32",
          "name": "role",
          "type": "bytes32"
        },
        {
          "indexed": true,
          "internalType": "address",
          "name": "account",
          "type": "address"
        },
        {
          "indexed": true,
          "internalType": "address",
          "name": "sender",
          "type": "address"
        }
      ],
      "name": "RoleRevoked",
      "type": "event"
    },
    {
      "anonymous": false,
      "inputs": [
        {
          "indexed": true,
          "internalType": "uint256",
          "name": "tokenId",
          "type": "uint256"
        },
        {
          "indexed": false,
          "internalType": "bool",
          "name": "status",
          "type": "bool"
        },
        {
          "indexed": false,
          "internalType": "bool",
          "name": "isAuction",
          "type": "bool"
        }
      ],
      "name": "SaleStatus",
      "type": "event"
    },
    {
      "anonymous": false,
      "inputs": [
        {
          "indexed": true,
          "internalType": "address",
          "name": "from",
          "type": "address"
        },
        {
          "indexed": true,
          "internalType": "address",
          "name": "to",
          "type": "address"
        },
        {
          "indexed": true,
          "internalType": "uint256",
          "name": "tokenId",
          "type": "uint256"
        }
      ],
      "name": "Transfer",
      "type": "event"
    },
    {
      "inputs": [],
      "name": "DEFAULT_ADMIN_ROLE",
      "outputs": [
        {
          "internalType": "bytes32",
          "name": "",
          "type": "bytes32"
        }
      ],
      "stateMutability": "view",
      "type": "function",
      "constant": true
    },
    {
      "inputs": [
        {
          "internalType": "address",
          "name": "to",
          "type": "address"
        },
        {
          "internalType": "uint256",
          "name": "tokenId",
          "type": "uint256"
        }
      ],
      "name": "approve",
      "outputs": [],
      "stateMutability": "nonpayable",
      "type": "function"
    },
    {
      "inputs": [
        {
          "internalType": "address",
          "name": "owner",
          "type": "address"
        }
      ],
      "name": "balanceOf",
      "outputs": [
        {
          "internalType": "uint256",
          "name": "",
          "type": "uint256"
        }
      ],
      "stateMutability": "view",
      "type": "function",
      "constant": true
    },
    {
      "inputs": [
        {
          "internalType": "uint256",
          "name": "tokenId",
          "type": "uint256"
        }
      ],
      "name": "getApproved",
      "outputs": [
        {
          "internalType": "address",
          "name": "",
          "type": "address"
        }
      ],
      "stateMutability": "view",
      "type": "function",
      "constant": true
    },
    {
      "inputs": [
        {
          "internalType": "bytes32",
          "name": "role",
          "type": "bytes32"
        }
      ],
      "name": "getRoleAdmin",
      "outputs": [
        {
          "internalType": "bytes32",
          "name": "",
          "type": "bytes32"
        }
      ],
      "stateMutability": "view",
      "type": "function",
      "constant": true
    },
    {
      "inputs": [
        {
          "internalType": "bytes32",
          "name": "role",
          "type": "bytes32"
        },
        {
          "internalType": "address",
          "name": "account",
          "type": "address"
        }
      ],
      "name": "grantRole",
      "outputs": [],
      "stateMutability": "nonpayable",
      "type": "function"
    },
    {
      "inputs": [
        {
          "internalType": "bytes32",
          "name": "role",
          "type": "bytes32"
        },
        {
          "internalType": "address",
          "name": "account",
          "type": "address"
        }
      ],
      "name": "hasRole",
      "outputs": [
        {
          "internalType": "bool",
          "name": "",
          "type": "bool"
        }
      ],
      "stateMutability": "view",
      "type": "function",
      "constant": true
    },
    {
      "inputs": [
        {
          "internalType": "address",
          "name": "owner",
          "type": "address"
        },
        {
          "internalType": "address",
          "name": "operator",
          "type": "address"
        }
      ],
      "name": "isApprovedForAll",
      "outputs": [
        {
          "internalType": "bool",
          "name": "",
          "type": "bool"
        }
      ],
      "stateMutability": "view",
      "type": "function",
      "constant": true
    },
    {
      "inputs": [],
      "name": "name",
      "outputs": [
        {
          "internalType": "string",
          "name": "",
          "type": "string"
        }
      ],
      "stateMutability": "view",
      "type": "function",
      "constant": true
    },
    {
      "inputs": [
        {
          "internalType": "uint256",
          "name": "tokenId",
          "type": "uint256"
        }
      ],
      "name": "ownerOf",
      "outputs": [
        {
          "internalType": "address",
          "name": "",
          "type": "address"
        }
      ],
      "stateMutability": "view",
      "type": "function",
      "constant": true
    },
    {
      "inputs": [
        {
          "internalType": "bytes32",
          "name": "role",
          "type": "bytes32"
        },
        {
          "internalType": "address",
          "name": "account",
          "type": "address"
        }
      ],
      "name": "renounceRole",
      "outputs": [],
      "stateMutability": "nonpayable",
      "type": "function"
    },
    {
      "inputs": [
        {
          "internalType": "bytes32",
          "name": "role",
          "type": "bytes32"
        },
        {
          "internalType": "address",
          "name": "account",
          "type": "address"
        }
      ],
      "name": "revokeRole",
      "outputs": [],
      "stateMutability": "nonpayable",
      "type": "function"
    },
    {
      "inputs": [
        {
          "internalType": "address",
          "name": "from",
          "type": "address"
        },
        {
          "internalType": "address",
          "name": "to",
          "type": "address"
        },
        {
          "internalType": "uint256",
          "name": "tokenId",
          "type": "uint256"
        }
      ],
      "name": "safeTransferFrom",
      "outputs": [],
      "stateMutability": "nonpayable",
      "type": "function"
    },
    {
      "inputs": [
        {
          "internalType": "address",
          "name": "from",
          "type": "address"
        },
        {
          "internalType": "address",
          "name": "to",
          "type": "address"
        },
        {
          "internalType": "uint256",
          "name": "tokenId",
          "type": "uint256"
        },
        {
          "internalType": "bytes",
          "name": "_data",
          "type": "bytes"
        }
      ],
      "name": "safeTransferFrom",
      "outputs": [],
      "stateMutability": "nonpayable",
      "type": "function"
    },
    {
      "inputs": [
        {
          "internalType": "address",
          "name": "operator",
          "type": "address"
        },
        {
          "internalType": "bool",
          "name": "approved",
          "type": "bool"
        }
      ],
      "name": "setApprovalForAll",
      "outputs": [],
      "stateMutability": "nonpayable",
      "type": "function"
    },
    {
      "inputs": [],
      "name": "symbol",
      "outputs": [
        {
          "internalType": "string",
          "name": "",
          "type": "string"
        }
      ],
      "stateMutability": "view",
      "type": "function",
      "constant": true
    },
    {
      "inputs": [
        {
          "internalType": "uint256",
          "name": "index",
          "type": "uint256"
        }
      ],
      "name": "tokenByIndex",
      "outputs": [
        {
          "internalType": "uint256",
          "name": "",
          "type": "uint256"
        }
      ],
      "stateMutability": "view",
      "type": "function",
      "constant": true
    },
    {
      "inputs": [
        {
          "internalType": "address",
          "name": "owner",
          "type": "address"
        },
        {
          "internalType": "uint256",
          "name": "index",
          "type": "uint256"
        }
      ],
      "name": "tokenOfOwnerByIndex",
      "outputs": [
        {
          "internalType": "uint256",
          "name": "",
          "type": "uint256"
        }
      ],
      "stateMutability": "view",
      "type": "function",
      "constant": true
    },
    {
      "inputs": [
        {
          "internalType": "uint256",
          "name": "tokenId",
          "type": "uint256"
        }
      ],
      "name": "tokenURI",
      "outputs": [
        {
          "internalType": "string",
          "name": "",
          "type": "string"
        }
      ],
      "stateMutability": "view",
      "type": "function",
      "constant": true
    },
    {
      "inputs": [],
      "name": "totalSupply",
      "outputs": [
        {
          "internalType": "uint256",
          "name": "",
          "type": "uint256"
        }
      ],
      "stateMutability": "view",
      "type": "function",
      "constant": true
    },
    {
      "inputs": [
        {
          "internalType": "address",
          "name": "from",
          "type": "address"
        },
        {
          "internalType": "address",
          "name": "to",
          "type": "address"
        },
        {
          "internalType": "uint256",
          "name": "tokenId",
          "type": "uint256"
        }
      ],
      "name": "transferFrom",
      "outputs": [],
      "stateMutability": "nonpayable",
      "type": "function"
    },
    {
      "stateMutability": "payable",
      "type": "receive",
      "payable": true
    },
    {
      "inputs": [
        {
          "internalType": "bytes4",
          "name": "interfaceId",
          "type": "bytes4"
        }
      ],
      "name": "supportsInterface",
      "outputs": [
        {
          "internalType": "bool",
          "name": "",
          "type": "bool"
        }
      ],
      "stateMutability": "view",
      "type": "function",
      "constant": true
    },
    {
      "inputs": [
        {
          "internalType": "uint256",
          "name": "tokenId",
          "type": "uint256"
        }
      ],
      "name": "getOdometer",
      "outputs": [
        {
          "internalType": "uint256",
          "name": "",
          "type": "uint256"
        }
      ],
      "stateMutability": "view",
      "type": "function",
      "constant": true
    },
    {
      "inputs": [
        {
          "internalType": "uint256",
          "name": "tokenId",
          "type": "uint256"
        },
        {
          "internalType": "uint256",
          "name": "value",
          "type": "uint256"
        }
      ],
      "name": "incrementOdometerBy",
      "outputs": [],
      "stateMutability": "nonpayable",
      "type": "function"
    },
    {
      "inputs": [],
      "name": "getContractBalance",
      "outputs": [
        {
          "internalType": "uint256",
          "name": "",
          "type": "uint256"
        }
      ],
      "stateMutability": "view",
      "type": "function",
      "constant": true
    }
  ],
  "bytecode": "0x60806040523480156200001157600080fd5b506040518060400160405280600781526020017f56656869636c65000000000000000000000000000000000000000000000000008152506040518060400160405280600381526020017f56484300000000000000000000000000000000000000000000000000000000008152508160009080519060200190620000969291906200043e565b508060019080519060200190620000af9291906200043e565b505050620000c76000801b336200023f60201b60201c565b620000f97f11c2020b6b4f4e00c2410234e0c72636b4739cf7cda4d8e24ef6b881350e6704336200023f60201b60201c565b6200012b7f9f2df0fed2c77648de5860a4cc508cd0818c85b8b8a1ab4ceeef8d981c8956a6336200023f60201b60201c565b620001607f11c2020b6b4f4e00c2410234e0c72636b4739cf7cda4d8e24ef6b881350e67046000801b6200025560201b60201c565b620001957f6f75c7e45b923a976102cf1173921af9cd14f3a7474f743b14e64b348aa2520d6000801b6200025560201b60201c565b620001e77f9f2df0fed2c77648de5860a4cc508cd0818c85b8b8a1ab4ceeef8d981c8956a67f11c2020b6b4f4e00c2410234e0c72636b4739cf7cda4d8e24ef6b881350e67046200025560201b60201c565b620002397fd565e3fc066df348a5cbc05a8d6323e00552838041cea2d84cc59876ba37735d7f6f75c7e45b923a976102cf1173921af9cd14f3a7474f743b14e64b348aa2520d6200025560201b60201c565b62000553565b620002518282620002b960201b60201c565b5050565b60006200026883620003ab60201b60201c565b905081600a6000858152602001908152602001600020600101819055508181847fbd79b86ffe0ab8e8776151514217cd7cacd52c909f66475c3af44e129f0b00ff60405160405180910390a4505050565b620002cb8282620003cb60201b60201c565b620003a7576001600a600084815260200190815260200160002060000160008373ffffffffffffffffffffffffffffffffffffffff1673ffffffffffffffffffffffffffffffffffffffff16815260200190815260200160002060006101000a81548160ff0219169083151502179055506200034c6200043660201b60201c565b73ffffffffffffffffffffffffffffffffffffffff168173ffffffffffffffffffffffffffffffffffffffff16837f2f8788117e7eff1d82e926ec794901d17c78024a50270940304540a733656f0d60405160405180910390a45b5050565b6000600a6000838152602001908152602001600020600101549050919050565b6000600a600084815260200190815260200160002060000160008373ffffffffffffffffffffffffffffffffffffffff1673ffffffffffffffffffffffffffffffffffffffff16815260200190815260200160002060009054906101000a900460ff16905092915050565b600033905090565b8280546200044c906200051d565b90600052602060002090601f016020900481019282620004705760008555620004bc565b82601f106200048b57805160ff1916838001178555620004bc565b82800160010185558215620004bc579182015b82811115620004bb5782518255916020019190600101906200049e565b5b509050620004cb9190620004cf565b5090565b5b80821115620004ea576000816000905550600101620004d0565b5090565b7f4e487b7100000000000000000000000000000000000000000000000000000000600052602260045260246000fd5b600060028204905060018216806200053657607f821691505b602082108114156200054d576200054c620004ee565b5b50919050565b6138c680620005636000396000f3fe60806040526004361061016a5760003560e01c80636352211e116100d1578063a217fddf1161008a578063c87b56dd11610064578063c87b56dd14610591578063d547741f146105ce578063d84bcb25146105f7578063e985e9c51461062057610171565b8063a217fddf14610514578063a22cb4651461053f578063b88d4fde1461056857610171565b80636352211e146103ca5780636f9fb98a1461040757806370a082311461043257806391d148541461046f57806395d89b41146104ac5780639e3e000f146104d757610171565b8063248a9ca311610123578063248a9ca3146102985780632f2ff15d146102d55780632f745c59146102fe57806336568abe1461033b57806342842e0e146103645780634f6ccce71461038d57610171565b806301ffc9a71461017657806306fdde03146101b3578063081812fc146101de578063095ea7b31461021b57806318160ddd1461024457806323b872dd1461026f57610171565b3661017157005b600080fd5b34801561018257600080fd5b5061019d6004803603810190610198919061246d565b61065d565b6040516101aa91906124b5565b60405180910390f35b3480156101bf57600080fd5b506101c861066f565b6040516101d59190612569565b60405180910390f35b3480156101ea57600080fd5b50610205600480360381019061020091906125c1565b610701565b604051610212919061262f565b60405180910390f35b34801561022757600080fd5b50610242600480360381019061023d9190612676565b610786565b005b34801561025057600080fd5b5061025961089e565b60405161026691906126c5565b60405180910390f35b34801561027b57600080fd5b50610296600480360381019061029191906126e0565b6108ab565b005b3480156102a457600080fd5b506102bf60048036038101906102ba9190612769565b61090b565b6040516102cc91906127a5565b60405180910390f35b3480156102e157600080fd5b506102fc60048036038101906102f791906127c0565b61092b565b005b34801561030a57600080fd5b5061032560048036038101906103209190612676565b610954565b60405161033291906126c5565b60405180910390f35b34801561034757600080fd5b50610362600480360381019061035d91906127c0565b6109f9565b005b34801561037057600080fd5b5061038b600480360381019061038691906126e0565b610a7c565b005b34801561039957600080fd5b506103b460048036038101906103af91906125c1565b610a9c565b6040516103c191906126c5565b60405180910390f35b3480156103d657600080fd5b506103f160048036038101906103ec91906125c1565b610b0d565b6040516103fe919061262f565b60405180910390f35b34801561041357600080fd5b5061041c610bbf565b60405161042991906126c5565b60405180910390f35b34801561043e57600080fd5b5061045960048036038101906104549190612800565b610bc7565b60405161046691906126c5565b60405180910390f35b34801561047b57600080fd5b50610496600480360381019061049191906127c0565b610c7f565b6040516104a391906124b5565b60405180910390f35b3480156104b857600080fd5b506104c1610cea565b6040516104ce9190612569565b60405180910390f35b3480156104e357600080fd5b506104fe60048036038101906104f991906125c1565b610d7c565b60405161050b91906126c5565b60405180910390f35b34801561052057600080fd5b50610529610d99565b60405161053691906127a5565b60405180910390f35b34801561054b57600080fd5b5061056660048036038101906105619190612859565b610da0565b005b34801561057457600080fd5b5061058f600480360381019061058a91906129ce565b610f21565b005b34801561059d57600080fd5b506105b860048036038101906105b391906125c1565b610f83565b6040516105c59190612569565b60405180910390f35b3480156105da57600080fd5b506105f560048036038101906105f091906127c0565b61102a565b005b34801561060357600080fd5b5061061e60048036038101906106199190612a51565b611053565b005b34801561062c57600080fd5b5061064760048036038101906106429190612a91565b61108d565b60405161065491906124b5565b60405180910390f35b600061066882611121565b9050919050565b60606000805461067e90612b00565b80601f01602080910402602001604051908101604052809291908181526020018280546106aa90612b00565b80156106f75780601f106106cc576101008083540402835291602001916106f7565b820191906000526020600020905b8154815290600101906020018083116106da57829003601f168201915b5050505050905090565b600061070c8261119b565b61074b576040517f08c379a000000000000000000000000000000000000000000000000000000000815260040161074290612ba4565b60405180910390fd5b6004600083815260200190815260200160002060009054906101000a900473ffffffffffffffffffffffffffffffffffffffff169050919050565b600061079182610b0d565b90508073ffffffffffffffffffffffffffffffffffffffff168373ffffffffffffffffffffffffffffffffffffffff161415610802576040517f08c379a00000000000000000000000000000000000000000000000000000000081526004016107f990612c36565b60405180910390fd5b8073ffffffffffffffffffffffffffffffffffffffff16610821611207565b73ffffffffffffffffffffffffffffffffffffffff161480610850575061084f8161084a611207565b61108d565b5b61088f576040517f08c379a000000000000000000000000000000000000000000000000000000000815260040161088690612cc8565b60405180910390fd5b610899838361120f565b505050565b6000600880549050905090565b6108bc6108b6611207565b826112c8565b6108fb576040517f08c379a00000000000000000000000000000000000000000000000000000000081526004016108f290612d5a565b60405180910390fd5b6109068383836113a6565b505050565b6000600a6000838152602001908152602001600020600101549050919050565b6109348261090b565b61094581610940611207565b611602565b61094f838361169f565b505050565b600061095f83610bc7565b82106109a0576040517f08c379a000000000000000000000000000000000000000000000000000000000815260040161099790612dec565b60405180910390fd5b600660008473ffffffffffffffffffffffffffffffffffffffff1673ffffffffffffffffffffffffffffffffffffffff168152602001908152602001600020600083815260200190815260200160002054905092915050565b610a01611207565b73ffffffffffffffffffffffffffffffffffffffff168173ffffffffffffffffffffffffffffffffffffffff1614610a6e576040517f08c379a0000000000000000000000000000000000000000000000000000000008152600401610a6590612e7e565b60405180910390fd5b610a788282611780565b5050565b610a9783838360405180602001604052806000815250610f21565b505050565b6000610aa661089e565b8210610ae7576040517f08c379a0000000000000000000000000000000000000000000000000000000008152600401610ade90612f10565b60405180910390fd5b60088281548110610afb57610afa612f30565b5b90600052602060002001549050919050565b6000806002600084815260200190815260200160002060009054906101000a900473ffffffffffffffffffffffffffffffffffffffff169050600073ffffffffffffffffffffffffffffffffffffffff168173ffffffffffffffffffffffffffffffffffffffff161415610bb6576040517f08c379a0000000000000000000000000000000000000000000000000000000008152600401610bad90612fd1565b60405180910390fd5b80915050919050565b600047905090565b60008073ffffffffffffffffffffffffffffffffffffffff168273ffffffffffffffffffffffffffffffffffffffff161415610c38576040517f08c379a0000000000000000000000000000000000000000000000000000000008152600401610c2f90613063565b60405180910390fd5b600360008373ffffffffffffffffffffffffffffffffffffffff1673ffffffffffffffffffffffffffffffffffffffff168152602001908152602001600020549050919050565b6000600a600084815260200190815260200160002060000160008373ffffffffffffffffffffffffffffffffffffffff1673ffffffffffffffffffffffffffffffffffffffff16815260200190815260200160002060009054906101000a900460ff16905092915050565b606060018054610cf990612b00565b80601f0160208091040260200160405190810160405280929190818152602001828054610d2590612b00565b8015610d725780601f10610d4757610100808354040283529160200191610d72565b820191906000526020600020905b815481529060010190602001808311610d5557829003601f168201915b5050505050905090565b6000600d6000838152602001908152602001600020549050919050565b6000801b81565b610da8611207565b73ffffffffffffffffffffffffffffffffffffffff168273ffffffffffffffffffffffffffffffffffffffff161415610e16576040517f08c379a0000000000000000000000000000000000000000000000000000000008152600401610e0d906130cf565b60405180910390fd5b8060056000610e23611207565b73ffffffffffffffffffffffffffffffffffffffff1673ffffffffffffffffffffffffffffffffffffffff16815260200190815260200160002060008473ffffffffffffffffffffffffffffffffffffffff1673ffffffffffffffffffffffffffffffffffffffff16815260200190815260200160002060006101000a81548160ff0219169083151502179055508173ffffffffffffffffffffffffffffffffffffffff16610ed0611207565b73ffffffffffffffffffffffffffffffffffffffff167f17307eab39ab6107e8899845ad3d59bd9653f200f220920489ca2b5937696c3183604051610f1591906124b5565b60405180910390a35050565b610f32610f2c611207565b836112c8565b610f71576040517f08c379a0000000000000000000000000000000000000000000000000000000008152600401610f6890612d5a565b60405180910390fd5b610f7d84848484611862565b50505050565b6060610f8e8261119b565b610fcd576040517f08c379a0000000000000000000000000000000000000000000000000000000008152600401610fc490613161565b60405180910390fd5b6000610fd76118be565b90506000815111610ff75760405180602001604052806000815250611022565b80611001846118d5565b6040516020016110129291906131bd565b6040516020818303038152906040525b915050919050565b6110338261090b565b6110448161103f611207565b611602565b61104e8383611780565b505050565b80600d6000848152602001908152602001600020546110729190613210565b600d6000848152602001908152602001600020819055505050565b6000600560008473ffffffffffffffffffffffffffffffffffffffff1673ffffffffffffffffffffffffffffffffffffffff16815260200190815260200160002060008373ffffffffffffffffffffffffffffffffffffffff1673ffffffffffffffffffffffffffffffffffffffff16815260200190815260200160002060009054906101000a900460ff16905092915050565b60007f7965db0b000000000000000000000000000000000000000000000000000000007bffffffffffffffffffffffffffffffffffffffffffffffffffffffff1916827bffffffffffffffffffffffffffffffffffffffffffffffffffffffff19161480611194575061119382611a36565b5b9050919050565b60008073ffffffffffffffffffffffffffffffffffffffff166002600084815260200190815260200160002060009054906101000a900473ffffffffffffffffffffffffffffffffffffffff1673ffffffffffffffffffffffffffffffffffffffff1614159050919050565b600033905090565b816004600083815260200190815260200160002060006101000a81548173ffffffffffffffffffffffffffffffffffffffff021916908373ffffffffffffffffffffffffffffffffffffffff160217905550808273ffffffffffffffffffffffffffffffffffffffff1661128283610b0d565b73ffffffffffffffffffffffffffffffffffffffff167f8c5be1e5ebec7d5bd14f71427d1e84f3dd0314c0f7b2291e5b200ac8c7c3b92560405160405180910390a45050565b60006112d38261119b565b611312576040517f08c379a0000000000000000000000000000000000000000000000000000000008152600401611309906132d8565b60405180910390fd5b600061131d83610b0d565b90508073ffffffffffffffffffffffffffffffffffffffff168473ffffffffffffffffffffffffffffffffffffffff16148061138c57508373ffffffffffffffffffffffffffffffffffffffff1661137484610701565b73ffffffffffffffffffffffffffffffffffffffff16145b8061139d575061139c818561108d565b5b91505092915050565b8273ffffffffffffffffffffffffffffffffffffffff166113c682610b0d565b73ffffffffffffffffffffffffffffffffffffffff161461141c576040517f08c379a00000000000000000000000000000000000000000000000000000000081526004016114139061336a565b60405180910390fd5b600073ffffffffffffffffffffffffffffffffffffffff168273ffffffffffffffffffffffffffffffffffffffff16141561148c576040517f08c379a0000000000000000000000000000000000000000000000000000000008152600401611483906133fc565b60405180910390fd5b611497838383611ab0565b6114a260008261120f565b6001600360008573ffffffffffffffffffffffffffffffffffffffff1673ffffffffffffffffffffffffffffffffffffffff16815260200190815260200160002060008282546114f2919061341c565b925050819055506001600360008473ffffffffffffffffffffffffffffffffffffffff1673ffffffffffffffffffffffffffffffffffffffff16815260200190815260200160002060008282546115499190613210565b92505081905550816002600083815260200190815260200160002060006101000a81548173ffffffffffffffffffffffffffffffffffffffff021916908373ffffffffffffffffffffffffffffffffffffffff160217905550808273ffffffffffffffffffffffffffffffffffffffff168473ffffffffffffffffffffffffffffffffffffffff167fddf252ad1be2c89b69c2b068fc378daa952ba7f163c4a11628f55a4df523b3ef60405160405180910390a4505050565b61160c8282610c7f565b61169b576116318173ffffffffffffffffffffffffffffffffffffffff166014611bc4565b61163f8360001c6020611bc4565b6040516020016116509291906134e8565b6040516020818303038152906040526040517f08c379a00000000000000000000000000000000000000000000000000000000081526004016116929190612569565b60405180910390fd5b5050565b6116a98282610c7f565b61177c576001600a600084815260200190815260200160002060000160008373ffffffffffffffffffffffffffffffffffffffff1673ffffffffffffffffffffffffffffffffffffffff16815260200190815260200160002060006101000a81548160ff021916908315150217905550611721611207565b73ffffffffffffffffffffffffffffffffffffffff168173ffffffffffffffffffffffffffffffffffffffff16837f2f8788117e7eff1d82e926ec794901d17c78024a50270940304540a733656f0d60405160405180910390a45b5050565b61178a8282610c7f565b1561185e576000600a600084815260200190815260200160002060000160008373ffffffffffffffffffffffffffffffffffffffff1673ffffffffffffffffffffffffffffffffffffffff16815260200190815260200160002060006101000a81548160ff021916908315150217905550611803611207565b73ffffffffffffffffffffffffffffffffffffffff168173ffffffffffffffffffffffffffffffffffffffff16837ff6391f5c32d9c69d2a47ea670b442974b53935d1edc7fd64eb21e047a839171b60405160405180910390a45b5050565b61186d8484846113a6565b61187984848484611e00565b6118b8576040517f08c379a00000000000000000000000000000000000000000000000000000000081526004016118af90613594565b60405180910390fd5b50505050565b606060405180602001604052806000815250905090565b6060600082141561191d576040518060400160405280600181526020017f30000000000000000000000000000000000000000000000000000000000000008152509050611a31565b600082905060005b6000821461194f578080611938906135b4565b915050600a82611948919061362c565b9150611925565b60008167ffffffffffffffff81111561196b5761196a6128a3565b5b6040519080825280601f01601f19166020018201604052801561199d5781602001600182028036833780820191505090505b5090505b60008514611a2a576001826119b6919061341c565b9150600a856119c5919061365d565b60306119d19190613210565b60f81b8183815181106119e7576119e6612f30565b5b60200101907effffffffffffffffffffffffffffffffffffffffffffffffffffffffffffff1916908160001a905350600a85611a23919061362c565b94506119a1565b8093505050505b919050565b60007f780e9d63000000000000000000000000000000000000000000000000000000007bffffffffffffffffffffffffffffffffffffffffffffffffffffffff1916827bffffffffffffffffffffffffffffffffffffffffffffffffffffffff19161480611aa95750611aa882611f97565b5b9050919050565b611abb838383612079565b600073ffffffffffffffffffffffffffffffffffffffff168373ffffffffffffffffffffffffffffffffffffffff161415611afe57611af98161207e565b611b3d565b8173ffffffffffffffffffffffffffffffffffffffff168373ffffffffffffffffffffffffffffffffffffffff1614611b3c57611b3b83826120c7565b5b5b600073ffffffffffffffffffffffffffffffffffffffff168273ffffffffffffffffffffffffffffffffffffffff161415611b8057611b7b81612234565b611bbf565b8273ffffffffffffffffffffffffffffffffffffffff168273ffffffffffffffffffffffffffffffffffffffff1614611bbe57611bbd8282612305565b5b5b505050565b606060006002836002611bd7919061368e565b611be19190613210565b67ffffffffffffffff811115611bfa57611bf96128a3565b5b6040519080825280601f01601f191660200182016040528015611c2c5781602001600182028036833780820191505090505b5090507f300000000000000000000000000000000000000000000000000000000000000081600081518110611c6457611c63612f30565b5b60200101907effffffffffffffffffffffffffffffffffffffffffffffffffffffffffffff1916908160001a9053507f780000000000000000000000000000000000000000000000000000000000000081600181518110611cc857611cc7612f30565b5b60200101907effffffffffffffffffffffffffffffffffffffffffffffffffffffffffffff1916908160001a90535060006001846002611d08919061368e565b611d129190613210565b90505b6001811115611db2577f3031323334353637383961626364656600000000000000000000000000000000600f861660108110611d5457611d53612f30565b5b1a60f81b828281518110611d6b57611d6a612f30565b5b60200101907effffffffffffffffffffffffffffffffffffffffffffffffffffffffffffff1916908160001a905350600485901c945080611dab906136e8565b9050611d15565b5060008414611df6576040517f08c379a0000000000000000000000000000000000000000000000000000000008152600401611ded9061375e565b60405180910390fd5b8091505092915050565b6000611e218473ffffffffffffffffffffffffffffffffffffffff16612384565b15611f8a578373ffffffffffffffffffffffffffffffffffffffff1663150b7a02611e4a611207565b8786866040518563ffffffff1660e01b8152600401611e6c94939291906137d3565b602060405180830381600087803b158015611e8657600080fd5b505af1925050508015611eb757506040513d601f19601f82011682018060405250810190611eb49190613834565b60015b611f3a573d8060008114611ee7576040519150601f19603f3d011682016040523d82523d6000602084013e611eec565b606091505b50600081511415611f32576040517f08c379a0000000000000000000000000000000000000000000000000000000008152600401611f2990613594565b60405180910390fd5b805181602001fd5b63150b7a0260e01b7bffffffffffffffffffffffffffffffffffffffffffffffffffffffff1916817bffffffffffffffffffffffffffffffffffffffffffffffffffffffff191614915050611f8f565b600190505b949350505050565b60007f80ac58cd000000000000000000000000000000000000000000000000000000007bffffffffffffffffffffffffffffffffffffffffffffffffffffffff1916827bffffffffffffffffffffffffffffffffffffffffffffffffffffffff1916148061206257507f5b5e139f000000000000000000000000000000000000000000000000000000007bffffffffffffffffffffffffffffffffffffffffffffffffffffffff1916827bffffffffffffffffffffffffffffffffffffffffffffffffffffffff1916145b80612072575061207182612397565b5b9050919050565b505050565b6008805490506009600083815260200190815260200160002081905550600881908060018154018082558091505060019003906000526020600020016000909190919091505550565b600060016120d484610bc7565b6120de919061341c565b90506000600760008481526020019081526020016000205490508181146121c3576000600660008673ffffffffffffffffffffffffffffffffffffffff1673ffffffffffffffffffffffffffffffffffffffff168152602001908152602001600020600084815260200190815260200160002054905080600660008773ffffffffffffffffffffffffffffffffffffffff1673ffffffffffffffffffffffffffffffffffffffff168152602001908152602001600020600084815260200190815260200160002081905550816007600083815260200190815260200160002081905550505b6007600084815260200190815260200160002060009055600660008573ffffffffffffffffffffffffffffffffffffffff1673ffffffffffffffffffffffffffffffffffffffff16815260200190815260200160002060008381526020019081526020016000206000905550505050565b60006001600880549050612248919061341c565b905060006009600084815260200190815260200160002054905060006008838154811061227857612277612f30565b5b90600052602060002001549050806008838154811061229a57612299612f30565b5b9060005260206000200181905550816009600083815260200190815260200160002081905550600960008581526020019081526020016000206000905560088054806122e9576122e8613861565b5b6001900381819060005260206000200160009055905550505050565b600061231083610bc7565b905081600660008573ffffffffffffffffffffffffffffffffffffffff1673ffffffffffffffffffffffffffffffffffffffff168152602001908152602001600020600083815260200190815260200160002081905550806007600084815260200190815260200160002081905550505050565b600080823b905060008111915050919050565b60007f01ffc9a7000000000000000000000000000000000000000000000000000000007bffffffffffffffffffffffffffffffffffffffffffffffffffffffff1916827bffffffffffffffffffffffffffffffffffffffffffffffffffffffff1916149050919050565b6000604051905090565b600080fd5b600080fd5b60007fffffffff0000000000000000000000000000000000000000000000000000000082169050919050565b61244a81612415565b811461245557600080fd5b50565b60008135905061246781612441565b92915050565b6000602082840312156124835761248261240b565b5b600061249184828501612458565b91505092915050565b60008115159050919050565b6124af8161249a565b82525050565b60006020820190506124ca60008301846124a6565b92915050565b600081519050919050565b600082825260208201905092915050565b60005b8381101561250a5780820151818401526020810190506124ef565b83811115612519576000848401525b50505050565b6000601f19601f8301169050919050565b600061253b826124d0565b61254581856124db565b93506125558185602086016124ec565b61255e8161251f565b840191505092915050565b600060208201905081810360008301526125838184612530565b905092915050565b6000819050919050565b61259e8161258b565b81146125a957600080fd5b50565b6000813590506125bb81612595565b92915050565b6000602082840312156125d7576125d661240b565b5b60006125e5848285016125ac565b91505092915050565b600073ffffffffffffffffffffffffffffffffffffffff82169050919050565b6000612619826125ee565b9050919050565b6126298161260e565b82525050565b60006020820190506126446000830184612620565b92915050565b6126538161260e565b811461265e57600080fd5b50565b6000813590506126708161264a565b92915050565b6000806040838503121561268d5761268c61240b565b5b600061269b85828601612661565b92505060206126ac858286016125ac565b9150509250929050565b6126bf8161258b565b82525050565b60006020820190506126da60008301846126b6565b92915050565b6000806000606084860312156126f9576126f861240b565b5b600061270786828701612661565b935050602061271886828701612661565b9250506040612729868287016125ac565b9150509250925092565b6000819050919050565b61274681612733565b811461275157600080fd5b50565b6000813590506127638161273d565b92915050565b60006020828403121561277f5761277e61240b565b5b600061278d84828501612754565b91505092915050565b61279f81612733565b82525050565b60006020820190506127ba6000830184612796565b92915050565b600080604083850312156127d7576127d661240b565b5b60006127e585828601612754565b92505060206127f685828601612661565b9150509250929050565b6000602082840312156128165761281561240b565b5b600061282484828501612661565b91505092915050565b6128368161249a565b811461284157600080fd5b50565b6000813590506128538161282d565b92915050565b600080604083850312156128705761286f61240b565b5b600061287e85828601612661565b925050602061288f85828601612844565b9150509250929050565b600080fd5b600080fd5b7f4e487b7100000000000000000000000000000000000000000000000000000000600052604160045260246000fd5b6128db8261251f565b810181811067ffffffffffffffff821117156128fa576128f96128a3565b5b80604052505050565b600061290d612401565b905061291982826128d2565b919050565b600067ffffffffffffffff821115612939576129386128a3565b5b6129428261251f565b9050602081019050919050565b82818337600083830152505050565b600061297161296c8461291e565b612903565b90508281526020810184848401111561298d5761298c61289e565b5b61299884828561294f565b509392505050565b600082601f8301126129b5576129b4612899565b5b81356129c584826020860161295e565b91505092915050565b600080600080608085870312156129e8576129e761240b565b5b60006129f687828801612661565b9450506020612a0787828801612661565b9350506040612a18878288016125ac565b925050606085013567ffffffffffffffff811115612a3957612a38612410565b5b612a45878288016129a0565b91505092959194509250565b60008060408385031215612a6857612a6761240b565b5b6000612a76858286016125ac565b9250506020612a87858286016125ac565b9150509250929050565b60008060408385031215612aa857612aa761240b565b5b6000612ab685828601612661565b9250506020612ac785828601612661565b9150509250929050565b7f4e487b7100000000000000000000000000000000000000000000000000000000600052602260045260246000fd5b60006002820490506001821680612b1857607f821691505b60208210811415612b2c57612b2b612ad1565b5b50919050565b7f4552433732313a20617070726f76656420717565727920666f72206e6f6e657860008201527f697374656e7420746f6b656e0000000000000000000000000000000000000000602082015250565b6000612b8e602c836124db565b9150612b9982612b32565b604082019050919050565b60006020820190508181036000830152612bbd81612b81565b9050919050565b7f4552433732313a20617070726f76616c20746f2063757272656e74206f776e6560008201527f7200000000000000000000000000000000000000000000000000000000000000602082015250565b6000612c206021836124db565b9150612c2b82612bc4565b604082019050919050565b60006020820190508181036000830152612c4f81612c13565b9050919050565b7f4552433732313a20617070726f76652063616c6c6572206973206e6f74206f7760008201527f6e6572206e6f7220617070726f76656420666f7220616c6c0000000000000000602082015250565b6000612cb26038836124db565b9150612cbd82612c56565b604082019050919050565b60006020820190508181036000830152612ce181612ca5565b9050919050565b7f4552433732313a207472616e736665722063616c6c6572206973206e6f74206f60008201527f776e6572206e6f7220617070726f766564000000000000000000000000000000602082015250565b6000612d446031836124db565b9150612d4f82612ce8565b604082019050919050565b60006020820190508181036000830152612d7381612d37565b9050919050565b7f455243373231456e756d657261626c653a206f776e657220696e646578206f7560008201527f74206f6620626f756e6473000000000000000000000000000000000000000000602082015250565b6000612dd6602b836124db565b9150612de182612d7a565b604082019050919050565b60006020820190508181036000830152612e0581612dc9565b9050919050565b7f416363657373436f6e74726f6c3a2063616e206f6e6c792072656e6f756e636560008201527f20726f6c657320666f722073656c660000000000000000000000000000000000602082015250565b6000612e68602f836124db565b9150612e7382612e0c565b604082019050919050565b60006020820190508181036000830152612e9781612e5b565b9050919050565b7f455243373231456e756d657261626c653a20676c6f62616c20696e646578206f60008201527f7574206f6620626f756e64730000000000000000000000000000000000000000602082015250565b6000612efa602c836124db565b9150612f0582612e9e565b604082019050919050565b60006020820190508181036000830152612f2981612eed565b9050919050565b7f4e487b7100000000000000000000000000000000000000000000000000000000600052603260045260246000fd5b7f4552433732313a206f776e657220717565727920666f72206e6f6e657869737460008201527f656e7420746f6b656e0000000000000000000000000000000000000000000000602082015250565b6000612fbb6029836124db565b9150612fc682612f5f565b604082019050919050565b60006020820190508181036000830152612fea81612fae565b9050919050565b7f4552433732313a2062616c616e636520717565727920666f7220746865207a6560008201527f726f206164647265737300000000000000000000000000000000000000000000602082015250565b600061304d602a836124db565b915061305882612ff1565b604082019050919050565b6000602082019050818103600083015261307c81613040565b9050919050565b7f4552433732313a20617070726f766520746f2063616c6c657200000000000000600082015250565b60006130b96019836124db565b91506130c482613083565b602082019050919050565b600060208201905081810360008301526130e8816130ac565b9050919050565b7f4552433732314d657461646174613a2055524920717565727920666f72206e6f60008201527f6e6578697374656e7420746f6b656e0000000000000000000000000000000000602082015250565b600061314b602f836124db565b9150613156826130ef565b604082019050919050565b6000602082019050818103600083015261317a8161313e565b9050919050565b600081905092915050565b6000613197826124d0565b6131a18185613181565b93506131b18185602086016124ec565b80840191505092915050565b60006131c9828561318c565b91506131d5828461318c565b91508190509392505050565b7f4e487b7100000000000000000000000000000000000000000000000000000000600052601160045260246000fd5b600061321b8261258b565b91506132268361258b565b9250827fffffffffffffffffffffffffffffffffffffffffffffffffffffffffffffffff0382111561325b5761325a6131e1565b5b828201905092915050565b7f4552433732313a206f70657261746f7220717565727920666f72206e6f6e657860008201527f697374656e7420746f6b656e0000000000000000000000000000000000000000602082015250565b60006132c2602c836124db565b91506132cd82613266565b604082019050919050565b600060208201905081810360008301526132f1816132b5565b9050919050565b7f4552433732313a207472616e73666572206f6620746f6b656e2074686174206960008201527f73206e6f74206f776e0000000000000000000000000000000000000000000000602082015250565b60006133546029836124db565b915061335f826132f8565b604082019050919050565b6000602082019050818103600083015261338381613347565b9050919050565b7f4552433732313a207472616e7366657220746f20746865207a65726f2061646460008201527f7265737300000000000000000000000000000000000000000000000000000000602082015250565b60006133e66024836124db565b91506133f18261338a565b604082019050919050565b60006020820190508181036000830152613415816133d9565b9050919050565b60006134278261258b565b91506134328361258b565b925082821015613445576134446131e1565b5b828203905092915050565b7f416363657373436f6e74726f6c3a206163636f756e7420000000000000000000600082015250565b6000613486601783613181565b915061349182613450565b601782019050919050565b7f206973206d697373696e6720726f6c6520000000000000000000000000000000600082015250565b60006134d2601183613181565b91506134dd8261349c565b601182019050919050565b60006134f382613479565b91506134ff828561318c565b915061350a826134c5565b9150613516828461318c565b91508190509392505050565b7f4552433732313a207472616e7366657220746f206e6f6e20455243373231526560008201527f63656976657220696d706c656d656e7465720000000000000000000000000000602082015250565b600061357e6032836124db565b915061358982613522565b604082019050919050565b600060208201905081810360008301526135ad81613571565b9050919050565b60006135bf8261258b565b91507fffffffffffffffffffffffffffffffffffffffffffffffffffffffffffffffff8214156135f2576135f16131e1565b5b600182019050919050565b7f4e487b7100000000000000000000000000000000000000000000000000000000600052601260045260246000fd5b60006136378261258b565b91506136428361258b565b925082613652576136516135fd565b5b828204905092915050565b60006136688261258b565b91506136738361258b565b925082613683576136826135fd565b5b828206905092915050565b60006136998261258b565b91506136a48361258b565b9250817fffffffffffffffffffffffffffffffffffffffffffffffffffffffffffffffff04831182151516156136dd576136dc6131e1565b5b828202905092915050565b60006136f38261258b565b91506000821415613707576137066131e1565b5b600182039050919050565b7f537472696e67733a20686578206c656e67746820696e73756666696369656e74600082015250565b60006137486020836124db565b915061375382613712565b602082019050919050565b600060208201905081810360008301526137778161373b565b9050919050565b600081519050919050565b600082825260208201905092915050565b60006137a58261377e565b6137af8185613789565b93506137bf8185602086016124ec565b6137c88161251f565b840191505092915050565b60006080820190506137e86000830187612620565b6137f56020830186612620565b61380260408301856126b6565b8181036060830152613814818461379a565b905095945050505050565b60008151905061382e81612441565b92915050565b60006020828403121561384a5761384961240b565b5b60006138588482850161381f565b91505092915050565b7f4e487b7100000000000000000000000000000000000000000000000000000000600052603160045260246000fdfea26469706673582212205c0bf731d6697597ade3438ce0d51cbb6afe9f11958d26b9d17ed02f947b507a64736f6c63430008090033",
  "immutableReferences": {},
  "source": "// SPDX-License-Identifier: MIT\r\npragma solidity >=0.6.0 <0.9.0;\r\n\r\nimport \"@openzeppelin/contracts/token/ERC721/ERC721.sol\";\r\nimport \"@openzeppelin/contracts/token/ERC721/extensions/ERC721Enumerable.sol\";\r\nimport \"@openzeppelin/contracts/utils/Counters.sol\";\r\nimport \"./BoolBitStorage.sol\";\r\nimport \"./RolesAndPermissions.sol\";\r\n\r\ncontract Vehicle is ERC721Enumerable, RolesAndPermissions, BoolBitStorage {\r\n    using Counters for Counters.Counter;\r\n    Counters.Counter _tokenIds;\r\n\r\n    event Received(uint256 indexed tokenId, address indexed depositer, uint256 amount);\r\n    event SaleStatus(uint256 indexed tokenId, bool status, bool isAuction);\r\n\r\n    receive() external payable {\r\n    }\r\n\r\n    struct VehicleInfo {\r\n        address _topBidder; \r\n        uint256 price;\r\n        uint256 odometer;\r\n        uint256 country;\r\n    }\r\n\r\n    mapping(uint256 => VehicleInfo) internal _vehicles;\r\n    mapping(uint256 => uint256) private _odometer;\r\n\r\n    mapping(uint256 => string) internal _tokenURIs;\r\n    mapping(string => bool) private _uriRegistered;\r\n\r\n    mapping(uint256 => uint256) private _forSale;\r\n    mapping(uint256 => uint256) private _auction;\r\n    mapping(uint256 => uint256) private _vehiclePrice;\r\n    mapping(uint256 => address) private _topBidder;\r\n\r\n    function supportsInterface(bytes4 interfaceId)\r\n        public\r\n        view\r\n        override(ERC721Enumerable, AccessControl)\r\n        returns (bool)\r\n    {\r\n        return super.supportsInterface(interfaceId);\r\n    }\r\n\r\n    constructor() ERC721(\"Vehicle\", \"VHC\") {}\r\n\r\n    modifier onlyIfNotRegistered(string memory uri) {\r\n        require(_uriRegistered[uri] == false, \"Duplicate URI's detected.\");\r\n        _;\r\n    }\r\n\r\n    modifier onlyOwnerOf(uint256 tokenId) {\r\n        require(\r\n            ownerOf(tokenId) == msg.sender,\r\n            \"Message sender is not the owner/authorized for the tokenId provided.\"\r\n        );\r\n        _;\r\n    }\r\n\r\n    modifier onlyIfExists(uint256 tokenId) {\r\n        require(_exists(tokenId), \"Token/Vehicle does not exist.\");\r\n        _;\r\n    }\r\n\r\n    modifier onlyIfAuction(uint256 tokenId) {\r\n        require(_isAuction(tokenId), \"Vehicle is not an auction.\");\r\n        _;\r\n    }\r\n\r\n    modifier onlyIfForSale(uint256 tokenId) {\r\n        require(_isForSale(tokenId), \"Vehicle is not for sale.\");\r\n        _;\r\n    }\r\n\r\n    modifier onlyIfNotForSale(uint256 tokenId) {\r\n        require(!_isForSale(tokenId), \"Vehicle is already for sale.\");\r\n        _;\r\n    }\r\n\r\n    modifier onlyIfNotAuction(uint256 tokenId) {\r\n        require(!_isAuction(tokenId), \"Vehicle is already an auction.\");\r\n        _;\r\n    }\r\n\r\n    modifier onlyIfNotTopBidder(uint256 tokenId) {\r\n        require(\r\n            _getTopBidder(tokenId) != msg.sender,\r\n            \"Cannot withdraw bid while being top bidder.\"\r\n        );\r\n        _;\r\n    }\r\n\r\n    modifier onlyIfPriceNonNull(uint256 price) {\r\n        require(price > 0, \"Cannot set price to 0.\");\r\n        _;\r\n    }\r\n    //ODOMETER\r\n\r\n    function getOdometer(uint256 tokenId) public view returns (uint256) {\r\n        return _odometer[tokenId];\r\n    }\r\n\r\n    function incrementOdometerBy(uint256 tokenId, uint256 value) public {\r\n        _odometer[tokenId] = _odometer[tokenId] + value;\r\n    }\r\n\r\n    // MONEY TRANSFERING AND BALANCE\r\n\r\n    function getContractBalance() public view returns (uint256) {\r\n        return address(this).balance;\r\n    }\r\n\r\n    function _secureMoneyTransfer(address beneficiary, uint256 money) internal {\r\n        address payable _beneficiary = payable(beneficiary);\r\n        (bool sent, bytes memory data) = _beneficiary.call{value: money}(\"\");\r\n        require(sent, \"Failed to send money to beneficiary\");\r\n    }\r\n\r\n    function _classicExchange(\r\n        address seller,\r\n        address buyer,\r\n        uint256 vehicle,\r\n        uint256 money\r\n    ) internal {\r\n        _secureMoneyTransfer(seller, money);\r\n        _transfer(seller, buyer, vehicle);\r\n        require(\r\n            ownerOf(vehicle) == buyer,\r\n            \"Failed to transfer vehicle to buyer\"\r\n        );\r\n    }\r\n\r\n    // AUCTIONING\r\n\r\n    function _refundCurentTopBidder(uint256 tokenId) internal {\r\n        address currentTopBidder = _getTopBidder(tokenId);\r\n        uint256 currentTopBid = _getVehiclePrice(tokenId);\r\n        if (currentTopBid != 0 && currentTopBidder != address(0))\r\n            _secureMoneyTransfer(currentTopBidder, currentTopBid);\r\n        \r\n    }\r\n\r\n    function _resetAuction(uint256 tokenId) internal {\r\n        if (_getTopBidder(tokenId) != address(0))\r\n            _setTopBidder(tokenId, address(0));\r\n        if (_getVehiclePrice(tokenId) != 0) _setVehiclePrice(tokenId, 0);\r\n    }\r\n\r\n    function _concludeAuction(uint256 tokenId) internal {\r\n        address topBidder = _getTopBidder(tokenId);\r\n        require(topBidder != address(0));\r\n        _classicExchange(\r\n            msg.sender,\r\n            topBidder,\r\n            tokenId,\r\n            _getVehiclePrice(tokenId)\r\n        );\r\n        _resetAuction(tokenId);\r\n        _removeFromSale(tokenId);\r\n    }\r\n\r\n    function _getTopBidder(uint256 tokenId) internal view returns (address) {\r\n        return _topBidder[tokenId];\r\n    }\r\n\r\n    function _setTopBidder(uint256 tokenId, address _account) internal {\r\n        _topBidder[tokenId] = _account;\r\n    }\r\n\r\n    function _listAuction(uint256 tokenId, uint256 price) internal {\r\n        _listForSale(tokenId, price);\r\n        _setIsAuction(tokenId, true);\r\n    }\r\n\r\n    // BUYING SELLING\r\n\r\n    function _getVehiclePrice(uint256 tokenId) internal view returns (uint256) {\r\n        return _vehiclePrice[tokenId];\r\n    }\r\n\r\n    function _setVehiclePrice(uint256 tokenId, uint256 _price) internal {\r\n        _vehiclePrice[tokenId] = _price;\r\n    }\r\n\r\n    function _listForSale(uint256 tokenId, uint256 price) internal {\r\n        _setIsForSale(tokenId, true);\r\n        _setVehiclePrice(tokenId, price);\r\n    }\r\n\r\n    function _removeFromSale(uint256 tokenId) internal {\r\n        if (_isAuction(tokenId)) {\r\n            _refundCurentTopBidder(tokenId);\r\n            _resetAuction(tokenId);\r\n            _setIsAuction(tokenId, false);\r\n        }\r\n        _setIsForSale(tokenId, false);\r\n    }\r\n\r\n    //BOOL BIT STORAGE\r\n\r\n    function _isForSale(uint256 tokenId) internal view returns (bool) {\r\n        uint256 multiplier;\r\n        uint256 bit;\r\n        (multiplier, bit) = _tokenIdToBoolBit(tokenId);\r\n        return _getBoolean(_forSale[multiplier], bit);\r\n    }\r\n\r\n    function _isAuction(uint256 tokenId) internal view returns (bool) {\r\n        uint256 multiplier;\r\n        uint256 bit;\r\n        (multiplier, bit) = _tokenIdToBoolBit(tokenId);\r\n        return _getBoolean(_auction[multiplier], bit);\r\n    }\r\n\r\n    function _setIsForSale(uint256 tokenId, bool value) internal {\r\n        uint256 multiplier;\r\n        uint256 bit;\r\n        (multiplier, bit) = _tokenIdToBoolBit(tokenId);\r\n        _forSale[multiplier] = _setBoolean(_forSale[multiplier], bit, value);\r\n    }\r\n\r\n    function _setIsAuction(uint256 tokenId, bool value) internal {\r\n        uint256 multiplier;\r\n        uint256 bit;\r\n        (multiplier, bit) = _tokenIdToBoolBit(tokenId);\r\n        _auction[multiplier] = _setBoolean(_auction[multiplier], bit, value);\r\n    }\r\n\r\n    //URI\r\n\r\n    function _setTokenURI(uint256 tokenId, string memory _tokenURI) internal {\r\n        _tokenURIs[tokenId] = _tokenURI;\r\n    }\r\n\r\n    //MINT\r\n\r\n    function getTokenIdsCurrent() internal view returns (uint256) {\r\n        return _tokenIds.current();\r\n    }\r\n\r\n    function mint(string memory uri) internal {\r\n        uint256 _tokenId = _tokenIds.current();\r\n        _mint(msg.sender, _tokenId);\r\n        _setTokenURI(_tokenId, uri);\r\n        _uriRegistered[uri] = true;\r\n        _tokenIds.increment();\r\n    }\r\n\r\n    function burn(uint256 _tokenId) internal {\r\n        _burn(_tokenId);\r\n        _setTokenURI(_tokenId, \"Vehicle Deleted\");\r\n    }\r\n}\r\n",
  "sourcePath": "C:\\sgs020\\contracts\\Vehicle.sol",
  "compiler": {
    "name": "solc",
    "version": "0.8.9+commit.e5eed63a.Emscripten.clang"
  },
  "schemaVersion": "3.4.3",
  "updatedAt": "2022-02-01T12:08:28.019Z",
  "networkType": "ethereum",
  "devdoc": {
    "kind": "dev",
    "methods": {
      "approve(address,uint256)": {
        "details": "See {IERC721-approve}."
      },
      "balanceOf(address)": {
        "details": "See {IERC721-balanceOf}."
      },
      "getApproved(uint256)": {
        "details": "See {IERC721-getApproved}."
      },
      "getRoleAdmin(bytes32)": {
        "details": "Returns the admin role that controls `role`. See {grantRole} and {revokeRole}. To change a role's admin, use {_setRoleAdmin}."
      },
      "grantRole(bytes32,address)": {
        "details": "Grants `role` to `account`. If `account` had not been already granted `role`, emits a {RoleGranted} event. Requirements: - the caller must have ``role``'s admin role."
      },
      "hasRole(bytes32,address)": {
        "details": "Returns `true` if `account` has been granted `role`."
      },
      "isApprovedForAll(address,address)": {
        "details": "See {IERC721-isApprovedForAll}."
      },
      "name()": {
        "details": "See {IERC721Metadata-name}."
      },
      "ownerOf(uint256)": {
        "details": "See {IERC721-ownerOf}."
      },
      "renounceRole(bytes32,address)": {
        "details": "Revokes `role` from the calling account. Roles are often managed via {grantRole} and {revokeRole}: this function's purpose is to provide a mechanism for accounts to lose their privileges if they are compromised (such as when a trusted device is misplaced). If the calling account had been granted `role`, emits a {RoleRevoked} event. Requirements: - the caller must be `account`."
      },
      "revokeRole(bytes32,address)": {
        "details": "Revokes `role` from `account`. If `account` had been granted `role`, emits a {RoleRevoked} event. Requirements: - the caller must have ``role``'s admin role."
      },
      "safeTransferFrom(address,address,uint256)": {
        "details": "See {IERC721-safeTransferFrom}."
      },
      "safeTransferFrom(address,address,uint256,bytes)": {
        "details": "See {IERC721-safeTransferFrom}."
      },
      "setApprovalForAll(address,bool)": {
        "details": "See {IERC721-setApprovalForAll}."
      },
      "symbol()": {
        "details": "See {IERC721Metadata-symbol}."
      },
      "tokenByIndex(uint256)": {
        "details": "See {IERC721Enumerable-tokenByIndex}."
      },
      "tokenOfOwnerByIndex(address,uint256)": {
        "details": "See {IERC721Enumerable-tokenOfOwnerByIndex}."
      },
      "tokenURI(uint256)": {
        "details": "See {IERC721Metadata-tokenURI}."
      },
      "totalSupply()": {
        "details": "See {IERC721Enumerable-totalSupply}."
      },
      "transferFrom(address,address,uint256)": {
        "details": "See {IERC721-transferFrom}."
      }
    },
    "version": 1
  },
  "userdoc": {
    "kind": "user",
    "methods": {},
    "version": 1
  }
}