{
  "contractName": "Vehicle",
  "abi": [
    {
      "inputs": [],
      "stateMutability": "nonpayable",
      "type": "constructor"
    },
    {
      "anonymous": false,
      "inputs": [
        {
          "indexed": true,
          "internalType": "address",
          "name": "owner",
          "type": "address"
        },
        {
          "indexed": true,
          "internalType": "address",
          "name": "approved",
          "type": "address"
        },
        {
          "indexed": true,
          "internalType": "uint256",
          "name": "tokenId",
          "type": "uint256"
        }
      ],
      "name": "Approval",
      "type": "event"
    },
    {
      "anonymous": false,
      "inputs": [
        {
          "indexed": true,
          "internalType": "address",
          "name": "owner",
          "type": "address"
        },
        {
          "indexed": true,
          "internalType": "address",
          "name": "operator",
          "type": "address"
        },
        {
          "indexed": false,
          "internalType": "bool",
          "name": "approved",
          "type": "bool"
        }
      ],
      "name": "ApprovalForAll",
      "type": "event"
    },
    {
      "anonymous": false,
      "inputs": [
        {
          "indexed": true,
          "internalType": "uint256",
          "name": "tokenId",
          "type": "uint256"
        },
        {
          "indexed": true,
          "internalType": "address",
          "name": "depositer",
          "type": "address"
        },
        {
          "indexed": false,
          "internalType": "uint256",
          "name": "amount",
          "type": "uint256"
        }
      ],
      "name": "Received",
      "type": "event"
    },
    {
      "anonymous": false,
      "inputs": [
        {
          "indexed": true,
          "internalType": "bytes32",
          "name": "role",
          "type": "bytes32"
        },
        {
          "indexed": true,
          "internalType": "bytes32",
          "name": "previousAdminRole",
          "type": "bytes32"
        },
        {
          "indexed": true,
          "internalType": "bytes32",
          "name": "newAdminRole",
          "type": "bytes32"
        }
      ],
      "name": "RoleAdminChanged",
      "type": "event"
    },
    {
      "anonymous": false,
      "inputs": [
        {
          "indexed": true,
          "internalType": "bytes32",
          "name": "role",
          "type": "bytes32"
        },
        {
          "indexed": true,
          "internalType": "address",
          "name": "account",
          "type": "address"
        },
        {
          "indexed": true,
          "internalType": "address",
          "name": "sender",
          "type": "address"
        }
      ],
      "name": "RoleGranted",
      "type": "event"
    },
    {
      "anonymous": false,
      "inputs": [
        {
          "indexed": true,
          "internalType": "bytes32",
          "name": "role",
          "type": "bytes32"
        },
        {
          "indexed": true,
          "internalType": "address",
          "name": "account",
          "type": "address"
        },
        {
          "indexed": true,
          "internalType": "address",
          "name": "sender",
          "type": "address"
        }
      ],
      "name": "RoleRevoked",
      "type": "event"
    },
    {
      "anonymous": false,
      "inputs": [
        {
          "indexed": true,
          "internalType": "uint256",
          "name": "tokenId",
          "type": "uint256"
        },
        {
          "indexed": false,
          "internalType": "bool",
          "name": "status",
          "type": "bool"
        },
        {
          "indexed": false,
          "internalType": "bool",
          "name": "isAuction",
          "type": "bool"
        }
      ],
      "name": "SaleStatus",
      "type": "event"
    },
    {
      "anonymous": false,
      "inputs": [
        {
          "indexed": true,
          "internalType": "address",
          "name": "from",
          "type": "address"
        },
        {
          "indexed": true,
          "internalType": "address",
          "name": "to",
          "type": "address"
        },
        {
          "indexed": true,
          "internalType": "uint256",
          "name": "tokenId",
          "type": "uint256"
        }
      ],
      "name": "Transfer",
      "type": "event"
    },
    {
      "inputs": [],
      "name": "DEFAULT_ADMIN_ROLE",
      "outputs": [
        {
          "internalType": "bytes32",
          "name": "",
          "type": "bytes32"
        }
      ],
      "stateMutability": "view",
      "type": "function",
      "constant": true
    },
    {
      "inputs": [
        {
          "internalType": "address",
          "name": "to",
          "type": "address"
        },
        {
          "internalType": "uint256",
          "name": "tokenId",
          "type": "uint256"
        }
      ],
      "name": "approve",
      "outputs": [],
      "stateMutability": "nonpayable",
      "type": "function"
    },
    {
      "inputs": [
        {
          "internalType": "address",
          "name": "owner",
          "type": "address"
        }
      ],
      "name": "balanceOf",
      "outputs": [
        {
          "internalType": "uint256",
          "name": "",
          "type": "uint256"
        }
      ],
      "stateMutability": "view",
      "type": "function",
      "constant": true
    },
    {
      "inputs": [
        {
          "internalType": "uint256",
          "name": "tokenId",
          "type": "uint256"
        }
      ],
      "name": "getApproved",
      "outputs": [
        {
          "internalType": "address",
          "name": "",
          "type": "address"
        }
      ],
      "stateMutability": "view",
      "type": "function",
      "constant": true
    },
    {
      "inputs": [
        {
          "internalType": "bytes32",
          "name": "role",
          "type": "bytes32"
        }
      ],
      "name": "getRoleAdmin",
      "outputs": [
        {
          "internalType": "bytes32",
          "name": "",
          "type": "bytes32"
        }
      ],
      "stateMutability": "view",
      "type": "function",
      "constant": true
    },
    {
      "inputs": [
        {
          "internalType": "bytes32",
          "name": "role",
          "type": "bytes32"
        },
        {
          "internalType": "address",
          "name": "account",
          "type": "address"
        }
      ],
      "name": "grantRole",
      "outputs": [],
      "stateMutability": "nonpayable",
      "type": "function"
    },
    {
      "inputs": [
        {
          "internalType": "bytes32",
          "name": "role",
          "type": "bytes32"
        },
        {
          "internalType": "address",
          "name": "account",
          "type": "address"
        }
      ],
      "name": "hasRole",
      "outputs": [
        {
          "internalType": "bool",
          "name": "",
          "type": "bool"
        }
      ],
      "stateMutability": "view",
      "type": "function",
      "constant": true
    },
    {
      "inputs": [
        {
          "internalType": "address",
          "name": "owner",
          "type": "address"
        },
        {
          "internalType": "address",
          "name": "operator",
          "type": "address"
        }
      ],
      "name": "isApprovedForAll",
      "outputs": [
        {
          "internalType": "bool",
          "name": "",
          "type": "bool"
        }
      ],
      "stateMutability": "view",
      "type": "function",
      "constant": true
    },
    {
      "inputs": [],
      "name": "name",
      "outputs": [
        {
          "internalType": "string",
          "name": "",
          "type": "string"
        }
      ],
      "stateMutability": "view",
      "type": "function",
      "constant": true
    },
    {
      "inputs": [
        {
          "internalType": "uint256",
          "name": "tokenId",
          "type": "uint256"
        }
      ],
      "name": "ownerOf",
      "outputs": [
        {
          "internalType": "address",
          "name": "",
          "type": "address"
        }
      ],
      "stateMutability": "view",
      "type": "function",
      "constant": true
    },
    {
      "inputs": [
        {
          "internalType": "bytes32",
          "name": "role",
          "type": "bytes32"
        },
        {
          "internalType": "address",
          "name": "account",
          "type": "address"
        }
      ],
      "name": "renounceRole",
      "outputs": [],
      "stateMutability": "nonpayable",
      "type": "function"
    },
    {
      "inputs": [
        {
          "internalType": "bytes32",
          "name": "role",
          "type": "bytes32"
        },
        {
          "internalType": "address",
          "name": "account",
          "type": "address"
        }
      ],
      "name": "revokeRole",
      "outputs": [],
      "stateMutability": "nonpayable",
      "type": "function"
    },
    {
      "inputs": [
        {
          "internalType": "address",
          "name": "from",
          "type": "address"
        },
        {
          "internalType": "address",
          "name": "to",
          "type": "address"
        },
        {
          "internalType": "uint256",
          "name": "tokenId",
          "type": "uint256"
        }
      ],
      "name": "safeTransferFrom",
      "outputs": [],
      "stateMutability": "nonpayable",
      "type": "function"
    },
    {
      "inputs": [
        {
          "internalType": "address",
          "name": "from",
          "type": "address"
        },
        {
          "internalType": "address",
          "name": "to",
          "type": "address"
        },
        {
          "internalType": "uint256",
          "name": "tokenId",
          "type": "uint256"
        },
        {
          "internalType": "bytes",
          "name": "_data",
          "type": "bytes"
        }
      ],
      "name": "safeTransferFrom",
      "outputs": [],
      "stateMutability": "nonpayable",
      "type": "function"
    },
    {
      "inputs": [
        {
          "internalType": "address",
          "name": "operator",
          "type": "address"
        },
        {
          "internalType": "bool",
          "name": "approved",
          "type": "bool"
        }
      ],
      "name": "setApprovalForAll",
      "outputs": [],
      "stateMutability": "nonpayable",
      "type": "function"
    },
    {
      "inputs": [],
      "name": "symbol",
      "outputs": [
        {
          "internalType": "string",
          "name": "",
          "type": "string"
        }
      ],
      "stateMutability": "view",
      "type": "function",
      "constant": true
    },
    {
      "inputs": [
        {
          "internalType": "uint256",
          "name": "index",
          "type": "uint256"
        }
      ],
      "name": "tokenByIndex",
      "outputs": [
        {
          "internalType": "uint256",
          "name": "",
          "type": "uint256"
        }
      ],
      "stateMutability": "view",
      "type": "function",
      "constant": true
    },
    {
      "inputs": [
        {
          "internalType": "address",
          "name": "owner",
          "type": "address"
        },
        {
          "internalType": "uint256",
          "name": "index",
          "type": "uint256"
        }
      ],
      "name": "tokenOfOwnerByIndex",
      "outputs": [
        {
          "internalType": "uint256",
          "name": "",
          "type": "uint256"
        }
      ],
      "stateMutability": "view",
      "type": "function",
      "constant": true
    },
    {
      "inputs": [
        {
          "internalType": "uint256",
          "name": "tokenId",
          "type": "uint256"
        }
      ],
      "name": "tokenURI",
      "outputs": [
        {
          "internalType": "string",
          "name": "",
          "type": "string"
        }
      ],
      "stateMutability": "view",
      "type": "function",
      "constant": true
    },
    {
      "inputs": [],
      "name": "totalSupply",
      "outputs": [
        {
          "internalType": "uint256",
          "name": "",
          "type": "uint256"
        }
      ],
      "stateMutability": "view",
      "type": "function",
      "constant": true
    },
    {
      "inputs": [
        {
          "internalType": "address",
          "name": "from",
          "type": "address"
        },
        {
          "internalType": "address",
          "name": "to",
          "type": "address"
        },
        {
          "internalType": "uint256",
          "name": "tokenId",
          "type": "uint256"
        }
      ],
      "name": "transferFrom",
      "outputs": [],
      "stateMutability": "nonpayable",
      "type": "function"
    },
    {
      "stateMutability": "payable",
      "type": "receive",
      "payable": true
    },
    {
      "inputs": [
        {
          "internalType": "bytes4",
          "name": "interfaceId",
          "type": "bytes4"
        }
      ],
      "name": "supportsInterface",
      "outputs": [
        {
          "internalType": "bool",
          "name": "",
          "type": "bool"
        }
      ],
      "stateMutability": "view",
      "type": "function",
      "constant": true
    }
  ],
  "bytecode": "0x60806040523480156200001157600080fd5b506040518060400160405280600781526020017f56656869636c65000000000000000000000000000000000000000000000000008152506040518060400160405280600381526020017f5648430000000000000000000000000000000000000000000000000000000000815250816000908051906020019062000096929190620004c2565b508060019080519060200190620000af929190620004c2565b505050620000c76000801b33620002c360201b60201c565b620000f97f11c2020b6b4f4e00c2410234e0c72636b4739cf7cda4d8e24ef6b881350e670433620002c360201b60201c565b6200012b7f9f2df0fed2c77648de5860a4cc508cd0818c85b8b8a1ab4ceeef8d981c8956a633620002c360201b60201c565b6200015d7f6f75c7e45b923a976102cf1173921af9cd14f3a7474f743b14e64b348aa2520d33620002c360201b60201c565b620001927f11c2020b6b4f4e00c2410234e0c72636b4739cf7cda4d8e24ef6b881350e67046000801b620002d960201b60201c565b620001c77f6f75c7e45b923a976102cf1173921af9cd14f3a7474f743b14e64b348aa2520d6000801b620002d960201b60201c565b620002197f9f2df0fed2c77648de5860a4cc508cd0818c85b8b8a1ab4ceeef8d981c8956a67f11c2020b6b4f4e00c2410234e0c72636b4739cf7cda4d8e24ef6b881350e6704620002d960201b60201c565b6200026b7fd565e3fc066df348a5cbc05a8d6323e00552838041cea2d84cc59876ba37735d7f6f75c7e45b923a976102cf1173921af9cd14f3a7474f743b14e64b348aa2520d620002d960201b60201c565b620002bd7f530aa2e706d666af1b04435a2cdfb362347f53ff7899306c42824dce7c19b0f77f6f75c7e45b923a976102cf1173921af9cd14f3a7474f743b14e64b348aa2520d620002d960201b60201c565b620005d7565b620002d582826200033d60201b60201c565b5050565b6000620002ec836200042f60201b60201c565b905081600a6000858152602001908152602001600020600101819055508181847fbd79b86ffe0ab8e8776151514217cd7cacd52c909f66475c3af44e129f0b00ff60405160405180910390a4505050565b6200034f82826200044f60201b60201c565b6200042b576001600a600084815260200190815260200160002060000160008373ffffffffffffffffffffffffffffffffffffffff1673ffffffffffffffffffffffffffffffffffffffff16815260200190815260200160002060006101000a81548160ff021916908315150217905550620003d0620004ba60201b60201c565b73ffffffffffffffffffffffffffffffffffffffff168173ffffffffffffffffffffffffffffffffffffffff16837f2f8788117e7eff1d82e926ec794901d17c78024a50270940304540a733656f0d60405160405180910390a45b5050565b6000600a6000838152602001908152602001600020600101549050919050565b6000600a600084815260200190815260200160002060000160008373ffffffffffffffffffffffffffffffffffffffff1673ffffffffffffffffffffffffffffffffffffffff16815260200190815260200160002060009054906101000a900460ff16905092915050565b600033905090565b828054620004d090620005a1565b90600052602060002090601f016020900481019282620004f4576000855562000540565b82601f106200050f57805160ff191683800117855562000540565b8280016001018555821562000540579182015b828111156200053f57825182559160200191906001019062000522565b5b5090506200054f919062000553565b5090565b5b808211156200056e57600081600090555060010162000554565b5090565b7f4e487b7100000000000000000000000000000000000000000000000000000000600052602260045260246000fd5b60006002820490506001821680620005ba57607f821691505b60208210811415620005d157620005d062000572565b5b50919050565b61376580620005e76000396000f3fe6080604052600436106101395760003560e01c80634f6ccce7116100ab578063a217fddf1161006f578063a217fddf1461047b578063a22cb465146104a6578063b88d4fde146104cf578063c87b56dd146104f8578063d547741f14610535578063e985e9c51461055e57610140565b80634f6ccce71461035c5780636352211e1461039957806370a08231146103d657806391d148541461041357806395d89b411461045057610140565b806323b872dd116100fd57806323b872dd1461023e578063248a9ca3146102675780632f2ff15d146102a45780632f745c59146102cd57806336568abe1461030a57806342842e0e1461033357610140565b806301ffc9a71461014557806306fdde0314610182578063081812fc146101ad578063095ea7b3146101ea57806318160ddd1461021357610140565b3661014057005b600080fd5b34801561015157600080fd5b5061016c6004803603810190610167919061234c565b61059b565b6040516101799190612394565b60405180910390f35b34801561018e57600080fd5b506101976105ad565b6040516101a49190612448565b60405180910390f35b3480156101b957600080fd5b506101d460048036038101906101cf91906124a0565b61063f565b6040516101e1919061250e565b60405180910390f35b3480156101f657600080fd5b50610211600480360381019061020c9190612555565b6106c4565b005b34801561021f57600080fd5b506102286107dc565b60405161023591906125a4565b60405180910390f35b34801561024a57600080fd5b50610265600480360381019061026091906125bf565b6107e9565b005b34801561027357600080fd5b5061028e60048036038101906102899190612648565b610849565b60405161029b9190612684565b60405180910390f35b3480156102b057600080fd5b506102cb60048036038101906102c6919061269f565b610869565b005b3480156102d957600080fd5b506102f460048036038101906102ef9190612555565b610892565b60405161030191906125a4565b60405180910390f35b34801561031657600080fd5b50610331600480360381019061032c919061269f565b610937565b005b34801561033f57600080fd5b5061035a600480360381019061035591906125bf565b6109ba565b005b34801561036857600080fd5b50610383600480360381019061037e91906124a0565b6109da565b60405161039091906125a4565b60405180910390f35b3480156103a557600080fd5b506103c060048036038101906103bb91906124a0565b610a4b565b6040516103cd919061250e565b60405180910390f35b3480156103e257600080fd5b506103fd60048036038101906103f891906126df565b610afd565b60405161040a91906125a4565b60405180910390f35b34801561041f57600080fd5b5061043a6004803603810190610435919061269f565b610bb5565b6040516104479190612394565b60405180910390f35b34801561045c57600080fd5b50610465610c20565b6040516104729190612448565b60405180910390f35b34801561048757600080fd5b50610490610cb2565b60405161049d9190612684565b60405180910390f35b3480156104b257600080fd5b506104cd60048036038101906104c89190612738565b610cb9565b005b3480156104db57600080fd5b506104f660048036038101906104f191906128ad565b610e3a565b005b34801561050457600080fd5b5061051f600480360381019061051a91906124a0565b610e9c565b60405161052c9190612448565b60405180910390f35b34801561054157600080fd5b5061055c6004803603810190610557919061269f565b610f43565b005b34801561056a57600080fd5b5061058560048036038101906105809190612930565b610f6c565b6040516105929190612394565b60405180910390f35b60006105a682611000565b9050919050565b6060600080546105bc9061299f565b80601f01602080910402602001604051908101604052809291908181526020018280546105e89061299f565b80156106355780601f1061060a57610100808354040283529160200191610635565b820191906000526020600020905b81548152906001019060200180831161061857829003601f168201915b5050505050905090565b600061064a8261107a565b610689576040517f08c379a000000000000000000000000000000000000000000000000000000000815260040161068090612a43565b60405180910390fd5b6004600083815260200190815260200160002060009054906101000a900473ffffffffffffffffffffffffffffffffffffffff169050919050565b60006106cf82610a4b565b90508073ffffffffffffffffffffffffffffffffffffffff168373ffffffffffffffffffffffffffffffffffffffff161415610740576040517f08c379a000000000000000000000000000000000000000000000000000000000815260040161073790612ad5565b60405180910390fd5b8073ffffffffffffffffffffffffffffffffffffffff1661075f6110e6565b73ffffffffffffffffffffffffffffffffffffffff16148061078e575061078d816107886110e6565b610f6c565b5b6107cd576040517f08c379a00000000000000000000000000000000000000000000000000000000081526004016107c490612b67565b60405180910390fd5b6107d783836110ee565b505050565b6000600880549050905090565b6107fa6107f46110e6565b826111a7565b610839576040517f08c379a000000000000000000000000000000000000000000000000000000000815260040161083090612bf9565b60405180910390fd5b610844838383611285565b505050565b6000600a6000838152602001908152602001600020600101549050919050565b61087282610849565b6108838161087e6110e6565b6114e1565b61088d838361157e565b505050565b600061089d83610afd565b82106108de576040517f08c379a00000000000000000000000000000000000000000000000000000000081526004016108d590612c8b565b60405180910390fd5b600660008473ffffffffffffffffffffffffffffffffffffffff1673ffffffffffffffffffffffffffffffffffffffff168152602001908152602001600020600083815260200190815260200160002054905092915050565b61093f6110e6565b73ffffffffffffffffffffffffffffffffffffffff168173ffffffffffffffffffffffffffffffffffffffff16146109ac576040517f08c379a00000000000000000000000000000000000000000000000000000000081526004016109a390612d1d565b60405180910390fd5b6109b6828261165f565b5050565b6109d583838360405180602001604052806000815250610e3a565b505050565b60006109e46107dc565b8210610a25576040517f08c379a0000000000000000000000000000000000000000000000000000000008152600401610a1c90612daf565b60405180910390fd5b60088281548110610a3957610a38612dcf565b5b90600052602060002001549050919050565b6000806002600084815260200190815260200160002060009054906101000a900473ffffffffffffffffffffffffffffffffffffffff169050600073ffffffffffffffffffffffffffffffffffffffff168173ffffffffffffffffffffffffffffffffffffffff161415610af4576040517f08c379a0000000000000000000000000000000000000000000000000000000008152600401610aeb90612e70565b60405180910390fd5b80915050919050565b60008073ffffffffffffffffffffffffffffffffffffffff168273ffffffffffffffffffffffffffffffffffffffff161415610b6e576040517f08c379a0000000000000000000000000000000000000000000000000000000008152600401610b6590612f02565b60405180910390fd5b600360008373ffffffffffffffffffffffffffffffffffffffff1673ffffffffffffffffffffffffffffffffffffffff168152602001908152602001600020549050919050565b6000600a600084815260200190815260200160002060000160008373ffffffffffffffffffffffffffffffffffffffff1673ffffffffffffffffffffffffffffffffffffffff16815260200190815260200160002060009054906101000a900460ff16905092915050565b606060018054610c2f9061299f565b80601f0160208091040260200160405190810160405280929190818152602001828054610c5b9061299f565b8015610ca85780601f10610c7d57610100808354040283529160200191610ca8565b820191906000526020600020905b815481529060010190602001808311610c8b57829003601f168201915b5050505050905090565b6000801b81565b610cc16110e6565b73ffffffffffffffffffffffffffffffffffffffff168273ffffffffffffffffffffffffffffffffffffffff161415610d2f576040517f08c379a0000000000000000000000000000000000000000000000000000000008152600401610d2690612f6e565b60405180910390fd5b8060056000610d3c6110e6565b73ffffffffffffffffffffffffffffffffffffffff1673ffffffffffffffffffffffffffffffffffffffff16815260200190815260200160002060008473ffffffffffffffffffffffffffffffffffffffff1673ffffffffffffffffffffffffffffffffffffffff16815260200190815260200160002060006101000a81548160ff0219169083151502179055508173ffffffffffffffffffffffffffffffffffffffff16610de96110e6565b73ffffffffffffffffffffffffffffffffffffffff167f17307eab39ab6107e8899845ad3d59bd9653f200f220920489ca2b5937696c3183604051610e2e9190612394565b60405180910390a35050565b610e4b610e456110e6565b836111a7565b610e8a576040517f08c379a0000000000000000000000000000000000000000000000000000000008152600401610e8190612bf9565b60405180910390fd5b610e9684848484611741565b50505050565b6060610ea78261107a565b610ee6576040517f08c379a0000000000000000000000000000000000000000000000000000000008152600401610edd90613000565b60405180910390fd5b6000610ef061179d565b90506000815111610f105760405180602001604052806000815250610f3b565b80610f1a846117b4565b604051602001610f2b92919061305c565b6040516020818303038152906040525b915050919050565b610f4c82610849565b610f5d81610f586110e6565b6114e1565b610f67838361165f565b505050565b6000600560008473ffffffffffffffffffffffffffffffffffffffff1673ffffffffffffffffffffffffffffffffffffffff16815260200190815260200160002060008373ffffffffffffffffffffffffffffffffffffffff1673ffffffffffffffffffffffffffffffffffffffff16815260200190815260200160002060009054906101000a900460ff16905092915050565b60007f7965db0b000000000000000000000000000000000000000000000000000000007bffffffffffffffffffffffffffffffffffffffffffffffffffffffff1916827bffffffffffffffffffffffffffffffffffffffffffffffffffffffff19161480611073575061107282611915565b5b9050919050565b60008073ffffffffffffffffffffffffffffffffffffffff166002600084815260200190815260200160002060009054906101000a900473ffffffffffffffffffffffffffffffffffffffff1673ffffffffffffffffffffffffffffffffffffffff1614159050919050565b600033905090565b816004600083815260200190815260200160002060006101000a81548173ffffffffffffffffffffffffffffffffffffffff021916908373ffffffffffffffffffffffffffffffffffffffff160217905550808273ffffffffffffffffffffffffffffffffffffffff1661116183610a4b565b73ffffffffffffffffffffffffffffffffffffffff167f8c5be1e5ebec7d5bd14f71427d1e84f3dd0314c0f7b2291e5b200ac8c7c3b92560405160405180910390a45050565b60006111b28261107a565b6111f1576040517f08c379a00000000000000000000000000000000000000000000000000000000081526004016111e8906130f2565b60405180910390fd5b60006111fc83610a4b565b90508073ffffffffffffffffffffffffffffffffffffffff168473ffffffffffffffffffffffffffffffffffffffff16148061126b57508373ffffffffffffffffffffffffffffffffffffffff166112538461063f565b73ffffffffffffffffffffffffffffffffffffffff16145b8061127c575061127b8185610f6c565b5b91505092915050565b8273ffffffffffffffffffffffffffffffffffffffff166112a582610a4b565b73ffffffffffffffffffffffffffffffffffffffff16146112fb576040517f08c379a00000000000000000000000000000000000000000000000000000000081526004016112f290613184565b60405180910390fd5b600073ffffffffffffffffffffffffffffffffffffffff168273ffffffffffffffffffffffffffffffffffffffff16141561136b576040517f08c379a000000000000000000000000000000000000000000000000000000000815260040161136290613216565b60405180910390fd5b61137683838361198f565b6113816000826110ee565b6001600360008573ffffffffffffffffffffffffffffffffffffffff1673ffffffffffffffffffffffffffffffffffffffff16815260200190815260200160002060008282546113d19190613265565b925050819055506001600360008473ffffffffffffffffffffffffffffffffffffffff1673ffffffffffffffffffffffffffffffffffffffff16815260200190815260200160002060008282546114289190613299565b92505081905550816002600083815260200190815260200160002060006101000a81548173ffffffffffffffffffffffffffffffffffffffff021916908373ffffffffffffffffffffffffffffffffffffffff160217905550808273ffffffffffffffffffffffffffffffffffffffff168473ffffffffffffffffffffffffffffffffffffffff167fddf252ad1be2c89b69c2b068fc378daa952ba7f163c4a11628f55a4df523b3ef60405160405180910390a4505050565b6114eb8282610bb5565b61157a576115108173ffffffffffffffffffffffffffffffffffffffff166014611aa3565b61151e8360001c6020611aa3565b60405160200161152f929190613387565b6040516020818303038152906040526040517f08c379a00000000000000000000000000000000000000000000000000000000081526004016115719190612448565b60405180910390fd5b5050565b6115888282610bb5565b61165b576001600a600084815260200190815260200160002060000160008373ffffffffffffffffffffffffffffffffffffffff1673ffffffffffffffffffffffffffffffffffffffff16815260200190815260200160002060006101000a81548160ff0219169083151502179055506116006110e6565b73ffffffffffffffffffffffffffffffffffffffff168173ffffffffffffffffffffffffffffffffffffffff16837f2f8788117e7eff1d82e926ec794901d17c78024a50270940304540a733656f0d60405160405180910390a45b5050565b6116698282610bb5565b1561173d576000600a600084815260200190815260200160002060000160008373ffffffffffffffffffffffffffffffffffffffff1673ffffffffffffffffffffffffffffffffffffffff16815260200190815260200160002060006101000a81548160ff0219169083151502179055506116e26110e6565b73ffffffffffffffffffffffffffffffffffffffff168173ffffffffffffffffffffffffffffffffffffffff16837ff6391f5c32d9c69d2a47ea670b442974b53935d1edc7fd64eb21e047a839171b60405160405180910390a45b5050565b61174c848484611285565b61175884848484611cdf565b611797576040517f08c379a000000000000000000000000000000000000000000000000000000000815260040161178e90613433565b60405180910390fd5b50505050565b606060405180602001604052806000815250905090565b606060008214156117fc576040518060400160405280600181526020017f30000000000000000000000000000000000000000000000000000000000000008152509050611910565b600082905060005b6000821461182e57808061181790613453565b915050600a8261182791906134cb565b9150611804565b60008167ffffffffffffffff81111561184a57611849612782565b5b6040519080825280601f01601f19166020018201604052801561187c5781602001600182028036833780820191505090505b5090505b60008514611909576001826118959190613265565b9150600a856118a491906134fc565b60306118b09190613299565b60f81b8183815181106118c6576118c5612dcf565b5b60200101907effffffffffffffffffffffffffffffffffffffffffffffffffffffffffffff1916908160001a905350600a8561190291906134cb565b9450611880565b8093505050505b919050565b60007f780e9d63000000000000000000000000000000000000000000000000000000007bffffffffffffffffffffffffffffffffffffffffffffffffffffffff1916827bffffffffffffffffffffffffffffffffffffffffffffffffffffffff19161480611988575061198782611e76565b5b9050919050565b61199a838383611f58565b600073ffffffffffffffffffffffffffffffffffffffff168373ffffffffffffffffffffffffffffffffffffffff1614156119dd576119d881611f5d565b611a1c565b8173ffffffffffffffffffffffffffffffffffffffff168373ffffffffffffffffffffffffffffffffffffffff1614611a1b57611a1a8382611fa6565b5b5b600073ffffffffffffffffffffffffffffffffffffffff168273ffffffffffffffffffffffffffffffffffffffff161415611a5f57611a5a81612113565b611a9e565b8273ffffffffffffffffffffffffffffffffffffffff168273ffffffffffffffffffffffffffffffffffffffff1614611a9d57611a9c82826121e4565b5b5b505050565b606060006002836002611ab6919061352d565b611ac09190613299565b67ffffffffffffffff811115611ad957611ad8612782565b5b6040519080825280601f01601f191660200182016040528015611b0b5781602001600182028036833780820191505090505b5090507f300000000000000000000000000000000000000000000000000000000000000081600081518110611b4357611b42612dcf565b5b60200101907effffffffffffffffffffffffffffffffffffffffffffffffffffffffffffff1916908160001a9053507f780000000000000000000000000000000000000000000000000000000000000081600181518110611ba757611ba6612dcf565b5b60200101907effffffffffffffffffffffffffffffffffffffffffffffffffffffffffffff1916908160001a90535060006001846002611be7919061352d565b611bf19190613299565b90505b6001811115611c91577f3031323334353637383961626364656600000000000000000000000000000000600f861660108110611c3357611c32612dcf565b5b1a60f81b828281518110611c4a57611c49612dcf565b5b60200101907effffffffffffffffffffffffffffffffffffffffffffffffffffffffffffff1916908160001a905350600485901c945080611c8a90613587565b9050611bf4565b5060008414611cd5576040517f08c379a0000000000000000000000000000000000000000000000000000000008152600401611ccc906135fd565b60405180910390fd5b8091505092915050565b6000611d008473ffffffffffffffffffffffffffffffffffffffff16612263565b15611e69578373ffffffffffffffffffffffffffffffffffffffff1663150b7a02611d296110e6565b8786866040518563ffffffff1660e01b8152600401611d4b9493929190613672565b602060405180830381600087803b158015611d6557600080fd5b505af1925050508015611d9657506040513d601f19601f82011682018060405250810190611d9391906136d3565b60015b611e19573d8060008114611dc6576040519150601f19603f3d011682016040523d82523d6000602084013e611dcb565b606091505b50600081511415611e11576040517f08c379a0000000000000000000000000000000000000000000000000000000008152600401611e0890613433565b60405180910390fd5b805181602001fd5b63150b7a0260e01b7bffffffffffffffffffffffffffffffffffffffffffffffffffffffff1916817bffffffffffffffffffffffffffffffffffffffffffffffffffffffff191614915050611e6e565b600190505b949350505050565b60007f80ac58cd000000000000000000000000000000000000000000000000000000007bffffffffffffffffffffffffffffffffffffffffffffffffffffffff1916827bffffffffffffffffffffffffffffffffffffffffffffffffffffffff19161480611f4157507f5b5e139f000000000000000000000000000000000000000000000000000000007bffffffffffffffffffffffffffffffffffffffffffffffffffffffff1916827bffffffffffffffffffffffffffffffffffffffffffffffffffffffff1916145b80611f515750611f5082612276565b5b9050919050565b505050565b6008805490506009600083815260200190815260200160002081905550600881908060018154018082558091505060019003906000526020600020016000909190919091505550565b60006001611fb384610afd565b611fbd9190613265565b90506000600760008481526020019081526020016000205490508181146120a2576000600660008673ffffffffffffffffffffffffffffffffffffffff1673ffffffffffffffffffffffffffffffffffffffff168152602001908152602001600020600084815260200190815260200160002054905080600660008773ffffffffffffffffffffffffffffffffffffffff1673ffffffffffffffffffffffffffffffffffffffff168152602001908152602001600020600084815260200190815260200160002081905550816007600083815260200190815260200160002081905550505b6007600084815260200190815260200160002060009055600660008573ffffffffffffffffffffffffffffffffffffffff1673ffffffffffffffffffffffffffffffffffffffff16815260200190815260200160002060008381526020019081526020016000206000905550505050565b600060016008805490506121279190613265565b905060006009600084815260200190815260200160002054905060006008838154811061215757612156612dcf565b5b90600052602060002001549050806008838154811061217957612178612dcf565b5b9060005260206000200181905550816009600083815260200190815260200160002081905550600960008581526020019081526020016000206000905560088054806121c8576121c7613700565b5b6001900381819060005260206000200160009055905550505050565b60006121ef83610afd565b905081600660008573ffffffffffffffffffffffffffffffffffffffff1673ffffffffffffffffffffffffffffffffffffffff168152602001908152602001600020600083815260200190815260200160002081905550806007600084815260200190815260200160002081905550505050565b600080823b905060008111915050919050565b60007f01ffc9a7000000000000000000000000000000000000000000000000000000007bffffffffffffffffffffffffffffffffffffffffffffffffffffffff1916827bffffffffffffffffffffffffffffffffffffffffffffffffffffffff1916149050919050565b6000604051905090565b600080fd5b600080fd5b60007fffffffff0000000000000000000000000000000000000000000000000000000082169050919050565b612329816122f4565b811461233457600080fd5b50565b60008135905061234681612320565b92915050565b600060208284031215612362576123616122ea565b5b600061237084828501612337565b91505092915050565b60008115159050919050565b61238e81612379565b82525050565b60006020820190506123a96000830184612385565b92915050565b600081519050919050565b600082825260208201905092915050565b60005b838110156123e95780820151818401526020810190506123ce565b838111156123f8576000848401525b50505050565b6000601f19601f8301169050919050565b600061241a826123af565b61242481856123ba565b93506124348185602086016123cb565b61243d816123fe565b840191505092915050565b60006020820190508181036000830152612462818461240f565b905092915050565b6000819050919050565b61247d8161246a565b811461248857600080fd5b50565b60008135905061249a81612474565b92915050565b6000602082840312156124b6576124b56122ea565b5b60006124c48482850161248b565b91505092915050565b600073ffffffffffffffffffffffffffffffffffffffff82169050919050565b60006124f8826124cd565b9050919050565b612508816124ed565b82525050565b600060208201905061252360008301846124ff565b92915050565b612532816124ed565b811461253d57600080fd5b50565b60008135905061254f81612529565b92915050565b6000806040838503121561256c5761256b6122ea565b5b600061257a85828601612540565b925050602061258b8582860161248b565b9150509250929050565b61259e8161246a565b82525050565b60006020820190506125b96000830184612595565b92915050565b6000806000606084860312156125d8576125d76122ea565b5b60006125e686828701612540565b93505060206125f786828701612540565b92505060406126088682870161248b565b9150509250925092565b6000819050919050565b61262581612612565b811461263057600080fd5b50565b6000813590506126428161261c565b92915050565b60006020828403121561265e5761265d6122ea565b5b600061266c84828501612633565b91505092915050565b61267e81612612565b82525050565b60006020820190506126996000830184612675565b92915050565b600080604083850312156126b6576126b56122ea565b5b60006126c485828601612633565b92505060206126d585828601612540565b9150509250929050565b6000602082840312156126f5576126f46122ea565b5b600061270384828501612540565b91505092915050565b61271581612379565b811461272057600080fd5b50565b6000813590506127328161270c565b92915050565b6000806040838503121561274f5761274e6122ea565b5b600061275d85828601612540565b925050602061276e85828601612723565b9150509250929050565b600080fd5b600080fd5b7f4e487b7100000000000000000000000000000000000000000000000000000000600052604160045260246000fd5b6127ba826123fe565b810181811067ffffffffffffffff821117156127d9576127d8612782565b5b80604052505050565b60006127ec6122e0565b90506127f882826127b1565b919050565b600067ffffffffffffffff82111561281857612817612782565b5b612821826123fe565b9050602081019050919050565b82818337600083830152505050565b600061285061284b846127fd565b6127e2565b90508281526020810184848401111561286c5761286b61277d565b5b61287784828561282e565b509392505050565b600082601f83011261289457612893612778565b5b81356128a484826020860161283d565b91505092915050565b600080600080608085870312156128c7576128c66122ea565b5b60006128d587828801612540565b94505060206128e687828801612540565b93505060406128f78782880161248b565b925050606085013567ffffffffffffffff811115612918576129176122ef565b5b6129248782880161287f565b91505092959194509250565b60008060408385031215612947576129466122ea565b5b600061295585828601612540565b925050602061296685828601612540565b9150509250929050565b7f4e487b7100000000000000000000000000000000000000000000000000000000600052602260045260246000fd5b600060028204905060018216806129b757607f821691505b602082108114156129cb576129ca612970565b5b50919050565b7f4552433732313a20617070726f76656420717565727920666f72206e6f6e657860008201527f697374656e7420746f6b656e0000000000000000000000000000000000000000602082015250565b6000612a2d602c836123ba565b9150612a38826129d1565b604082019050919050565b60006020820190508181036000830152612a5c81612a20565b9050919050565b7f4552433732313a20617070726f76616c20746f2063757272656e74206f776e6560008201527f7200000000000000000000000000000000000000000000000000000000000000602082015250565b6000612abf6021836123ba565b9150612aca82612a63565b604082019050919050565b60006020820190508181036000830152612aee81612ab2565b9050919050565b7f4552433732313a20617070726f76652063616c6c6572206973206e6f74206f7760008201527f6e6572206e6f7220617070726f76656420666f7220616c6c0000000000000000602082015250565b6000612b516038836123ba565b9150612b5c82612af5565b604082019050919050565b60006020820190508181036000830152612b8081612b44565b9050919050565b7f4552433732313a207472616e736665722063616c6c6572206973206e6f74206f60008201527f776e6572206e6f7220617070726f766564000000000000000000000000000000602082015250565b6000612be36031836123ba565b9150612bee82612b87565b604082019050919050565b60006020820190508181036000830152612c1281612bd6565b9050919050565b7f455243373231456e756d657261626c653a206f776e657220696e646578206f7560008201527f74206f6620626f756e6473000000000000000000000000000000000000000000602082015250565b6000612c75602b836123ba565b9150612c8082612c19565b604082019050919050565b60006020820190508181036000830152612ca481612c68565b9050919050565b7f416363657373436f6e74726f6c3a2063616e206f6e6c792072656e6f756e636560008201527f20726f6c657320666f722073656c660000000000000000000000000000000000602082015250565b6000612d07602f836123ba565b9150612d1282612cab565b604082019050919050565b60006020820190508181036000830152612d3681612cfa565b9050919050565b7f455243373231456e756d657261626c653a20676c6f62616c20696e646578206f60008201527f7574206f6620626f756e64730000000000000000000000000000000000000000602082015250565b6000612d99602c836123ba565b9150612da482612d3d565b604082019050919050565b60006020820190508181036000830152612dc881612d8c565b9050919050565b7f4e487b7100000000000000000000000000000000000000000000000000000000600052603260045260246000fd5b7f4552433732313a206f776e657220717565727920666f72206e6f6e657869737460008201527f656e7420746f6b656e0000000000000000000000000000000000000000000000602082015250565b6000612e5a6029836123ba565b9150612e6582612dfe565b604082019050919050565b60006020820190508181036000830152612e8981612e4d565b9050919050565b7f4552433732313a2062616c616e636520717565727920666f7220746865207a6560008201527f726f206164647265737300000000000000000000000000000000000000000000602082015250565b6000612eec602a836123ba565b9150612ef782612e90565b604082019050919050565b60006020820190508181036000830152612f1b81612edf565b9050919050565b7f4552433732313a20617070726f766520746f2063616c6c657200000000000000600082015250565b6000612f586019836123ba565b9150612f6382612f22565b602082019050919050565b60006020820190508181036000830152612f8781612f4b565b9050919050565b7f4552433732314d657461646174613a2055524920717565727920666f72206e6f60008201527f6e6578697374656e7420746f6b656e0000000000000000000000000000000000602082015250565b6000612fea602f836123ba565b9150612ff582612f8e565b604082019050919050565b6000602082019050818103600083015261301981612fdd565b9050919050565b600081905092915050565b6000613036826123af565b6130408185613020565b93506130508185602086016123cb565b80840191505092915050565b6000613068828561302b565b9150613074828461302b565b91508190509392505050565b7f4552433732313a206f70657261746f7220717565727920666f72206e6f6e657860008201527f697374656e7420746f6b656e0000000000000000000000000000000000000000602082015250565b60006130dc602c836123ba565b91506130e782613080565b604082019050919050565b6000602082019050818103600083015261310b816130cf565b9050919050565b7f4552433732313a207472616e73666572206f6620746f6b656e2074686174206960008201527f73206e6f74206f776e0000000000000000000000000000000000000000000000602082015250565b600061316e6029836123ba565b915061317982613112565b604082019050919050565b6000602082019050818103600083015261319d81613161565b9050919050565b7f4552433732313a207472616e7366657220746f20746865207a65726f2061646460008201527f7265737300000000000000000000000000000000000000000000000000000000602082015250565b60006132006024836123ba565b915061320b826131a4565b604082019050919050565b6000602082019050818103600083015261322f816131f3565b9050919050565b7f4e487b7100000000000000000000000000000000000000000000000000000000600052601160045260246000fd5b60006132708261246a565b915061327b8361246a565b92508282101561328e5761328d613236565b5b828203905092915050565b60006132a48261246a565b91506132af8361246a565b9250827fffffffffffffffffffffffffffffffffffffffffffffffffffffffffffffffff038211156132e4576132e3613236565b5b828201905092915050565b7f416363657373436f6e74726f6c3a206163636f756e7420000000000000000000600082015250565b6000613325601783613020565b9150613330826132ef565b601782019050919050565b7f206973206d697373696e6720726f6c6520000000000000000000000000000000600082015250565b6000613371601183613020565b915061337c8261333b565b601182019050919050565b600061339282613318565b915061339e828561302b565b91506133a982613364565b91506133b5828461302b565b91508190509392505050565b7f4552433732313a207472616e7366657220746f206e6f6e20455243373231526560008201527f63656976657220696d706c656d656e7465720000000000000000000000000000602082015250565b600061341d6032836123ba565b9150613428826133c1565b604082019050919050565b6000602082019050818103600083015261344c81613410565b9050919050565b600061345e8261246a565b91507fffffffffffffffffffffffffffffffffffffffffffffffffffffffffffffffff82141561349157613490613236565b5b600182019050919050565b7f4e487b7100000000000000000000000000000000000000000000000000000000600052601260045260246000fd5b60006134d68261246a565b91506134e18361246a565b9250826134f1576134f061349c565b5b828204905092915050565b60006135078261246a565b91506135128361246a565b9250826135225761352161349c565b5b828206905092915050565b60006135388261246a565b91506135438361246a565b9250817fffffffffffffffffffffffffffffffffffffffffffffffffffffffffffffffff048311821515161561357c5761357b613236565b5b828202905092915050565b60006135928261246a565b915060008214156135a6576135a5613236565b5b600182039050919050565b7f537472696e67733a20686578206c656e67746820696e73756666696369656e74600082015250565b60006135e76020836123ba565b91506135f2826135b1565b602082019050919050565b60006020820190508181036000830152613616816135da565b9050919050565b600081519050919050565b600082825260208201905092915050565b60006136448261361d565b61364e8185613628565b935061365e8185602086016123cb565b613667816123fe565b840191505092915050565b600060808201905061368760008301876124ff565b61369460208301866124ff565b6136a16040830185612595565b81810360608301526136b38184613639565b905095945050505050565b6000815190506136cd81612320565b92915050565b6000602082840312156136e9576136e86122ea565b5b60006136f7848285016136be565b91505092915050565b7f4e487b7100000000000000000000000000000000000000000000000000000000600052603160045260246000fdfea264697066735822122088266864c9d385146cb527d4a41cbadcf77c3ab176427a9d96a232ee5dc1898b64736f6c63430008090033",
  "immutableReferences": {},
  "source": "// SPDX-License-Identifier: MIT\r\npragma solidity >=0.6.0 <0.9.0;\r\n\r\nimport \"@openzeppelin/contracts/utils/Counters.sol\";\r\nimport \"@openzeppelin/contracts/token/ERC721/extensions/ERC721Enumerable.sol\";\r\nimport \"./BoolBitStorage.sol\";\r\nimport \"./RolesAndPermissions.sol\";\r\n\r\ncontract Vehicle is ERC721Enumerable, RolesAndPermissions, BoolBitStorage {\r\n\r\n    using Counters for Counters.Counter;\r\n    Counters.Counter _tokenIds;\r\n\r\n    event Received(uint256 indexed tokenId, address indexed depositer, uint256 amount);\r\n    event SaleStatus(uint256 indexed tokenId, bool status, bool isAuction);\r\n\r\n    receive() external payable {\r\n    }\r\n\r\n\r\n    mapping(uint256 => address) internal _odometerAddress;\r\n    mapping(uint256 => uint256) internal _odometerValue;\r\n\r\n    mapping(uint256 => string) internal _tokenURIs;\r\n    mapping(string => bool) private _uriRegistered;\r\n\r\n    mapping(uint256 => uint256) private _forSale;\r\n    mapping(uint256 => uint256) private _auction;\r\n    mapping(uint256 => uint256) private _vehiclePrice;\r\n    mapping(uint256 => address) private _topBidder;\r\n\r\n    function supportsInterface(bytes4 interfaceId)\r\n        public\r\n        view\r\n        override(ERC721Enumerable, AccessControl)\r\n        returns (bool)\r\n    {\r\n        return super.supportsInterface(interfaceId);\r\n    }\r\n\r\n    constructor() ERC721(\"Vehicle\", \"VHC\") {}\r\n\r\n    modifier onlyIfNotRegistered(string memory uri) {\r\n        require(_uriRegistered[uri] == false, \"Duplicate URI's detected.\");\r\n        _;\r\n    }\r\n\r\n    modifier onlyOwnerOf(uint256 tokenId) {\r\n        require(\r\n            ownerOf(tokenId) == msg.sender,\r\n            \"Message sender is not the owner/authorized for the tokenId provided.\"\r\n        );\r\n        _;\r\n    }\r\n\r\n    modifier onlyIfExists(uint256 tokenId) {\r\n        require(_exists(tokenId), \"Token/Vehicle does not exist.\");\r\n        _;\r\n    }\r\n\r\n    modifier onlyIfAuction(uint256 tokenId) {\r\n        require(_isAuction(tokenId), \"Vehicle is not an auction.\");\r\n        _;\r\n    }\r\n\r\n    modifier onlyIfForSale(uint256 tokenId) {\r\n        require(_isForSale(tokenId), \"Vehicle is not for sale.\");\r\n        _;\r\n    }\r\n\r\n    modifier onlyIfNotForSale(uint256 tokenId) {\r\n        require(!_isForSale(tokenId), \"Vehicle is already for sale.\");\r\n        _;\r\n    }\r\n\r\n    modifier onlyIfNotAuction(uint256 tokenId) {\r\n        require(!_isAuction(tokenId), \"Vehicle is already an auction.\");\r\n        _;\r\n    }\r\n\r\n    modifier onlyIfNotTopBidder(uint256 tokenId) {\r\n        require(\r\n            _getTopBidder(tokenId) != msg.sender,\r\n            \"Cannot withdraw bid while being top bidder.\"\r\n        );\r\n        _;\r\n    }\r\n\r\n    modifier onlyIfPriceNonNull(uint256 price) {\r\n        require(price > 0, \"Cannot set price to 0.\");\r\n        _;\r\n    }\r\n\r\n    // MONEY TRANSFERING AND BALANCE\r\n\r\n    function _secureMoneyTransfer(address beneficiary, uint256 money) internal {\r\n        address payable _beneficiary = payable(beneficiary);\r\n        (bool sent, bytes memory data) = _beneficiary.call{value: money}(\"\");\r\n        require(sent, \"Failed to send money to beneficiary\");\r\n    }\r\n\r\n    function _classicExchange(\r\n        address seller,\r\n        address buyer,\r\n        uint256 vehicle,\r\n        uint256 money\r\n    ) internal {\r\n        _secureMoneyTransfer(seller, money);\r\n        _transfer(seller, buyer, vehicle);\r\n        require(\r\n            ownerOf(vehicle) == buyer,\r\n            \"Failed to transfer vehicle to buyer\"\r\n        );\r\n    }\r\n\r\n    // AUCTIONING\r\n\r\n    function _refundCurentTopBidder(uint256 tokenId) internal {\r\n        address currentTopBidder = _getTopBidder(tokenId);\r\n        uint256 currentTopBid = _getVehiclePrice(tokenId);\r\n        if (currentTopBid != 0 && currentTopBidder != address(0))\r\n            _secureMoneyTransfer(currentTopBidder, currentTopBid);\r\n        \r\n    }\r\n\r\n    function _resetAuction(uint256 tokenId) internal {\r\n        if (_getTopBidder(tokenId) != address(0))\r\n            _setTopBidder(tokenId, address(0));\r\n        if (_getVehiclePrice(tokenId) != 0) _setVehiclePrice(tokenId, 0);\r\n    }\r\n\r\n    function _concludeAuction(uint256 tokenId) internal {\r\n        address topBidder = _getTopBidder(tokenId);\r\n        require(topBidder != address(0));\r\n        _classicExchange(\r\n            msg.sender,\r\n            topBidder,\r\n            tokenId,\r\n            _getVehiclePrice(tokenId)\r\n        );\r\n        _resetAuction(tokenId);\r\n        _removeFromSale(tokenId);\r\n    }\r\n\r\n    function _getTopBidder(uint256 tokenId) internal view returns (address) {\r\n        return _topBidder[tokenId];\r\n    }\r\n\r\n    function _setTopBidder(uint256 tokenId, address _account) internal {\r\n        _topBidder[tokenId] = _account;\r\n    }\r\n\r\n    function _listAuction(uint256 tokenId, uint256 price) internal {\r\n        _listForSale(tokenId, price);\r\n        _setIsAuction(tokenId, true);\r\n    }\r\n\r\n    // BUYING SELLING\r\n\r\n    function _getVehiclePrice(uint256 tokenId) internal view returns (uint256) {\r\n        return _vehiclePrice[tokenId];\r\n    }\r\n\r\n    function _setVehiclePrice(uint256 tokenId, uint256 _price) internal {\r\n        _vehiclePrice[tokenId] = _price;\r\n    }\r\n\r\n    function _listForSale(uint256 tokenId, uint256 price) internal {\r\n        _setIsForSale(tokenId, true);\r\n        _setVehiclePrice(tokenId, price);\r\n    }\r\n\r\n    function _removeFromSale(uint256 tokenId) internal {\r\n        if (_isAuction(tokenId)) {\r\n            _refundCurentTopBidder(tokenId);\r\n            _resetAuction(tokenId);\r\n            _setIsAuction(tokenId, false);\r\n        }\r\n        _setIsForSale(tokenId, false);\r\n    }\r\n\r\n    //BOOL BIT STORAGE\r\n\r\n    function _isForSale(uint256 tokenId) internal view returns (bool) {\r\n        uint256 multiplier;\r\n        uint256 bit;\r\n        (multiplier, bit) = _tokenIdToBoolBit(tokenId);\r\n        return _getBoolean(_forSale[multiplier], bit);\r\n    }\r\n\r\n    function _isAuction(uint256 tokenId) internal view returns (bool) {\r\n        uint256 multiplier;\r\n        uint256 bit;\r\n        (multiplier, bit) = _tokenIdToBoolBit(tokenId);\r\n        return _getBoolean(_auction[multiplier], bit);\r\n    }\r\n\r\n    function _setIsForSale(uint256 tokenId, bool value) internal {\r\n        uint256 multiplier;\r\n        uint256 bit;\r\n        (multiplier, bit) = _tokenIdToBoolBit(tokenId);\r\n        _forSale[multiplier] = _setBoolean(_forSale[multiplier], bit, value);\r\n    }\r\n\r\n    function _setIsAuction(uint256 tokenId, bool value) internal {\r\n        uint256 multiplier;\r\n        uint256 bit;\r\n        (multiplier, bit) = _tokenIdToBoolBit(tokenId);\r\n        _auction[multiplier] = _setBoolean(_auction[multiplier], bit, value);\r\n    }\r\n\r\n    //URI\r\n\r\n    function _setTokenURI(uint256 tokenId, string memory _tokenURI) internal {\r\n        _tokenURIs[tokenId] = _tokenURI;\r\n    }\r\n\r\n    //MINT\r\n\r\n    function mint(string memory uri) internal {\r\n        uint256 _tokenId = _tokenIds.current();\r\n        _mint(msg.sender, _tokenId);\r\n        _setTokenURI(_tokenId, uri);\r\n        _uriRegistered[uri] = true;\r\n        _tokenIds.increment();\r\n    }\r\n\r\n    function burn(uint256 _tokenId) internal {\r\n        _burn(_tokenId);\r\n        _setTokenURI(_tokenId, \"Vehicle Deleted\");\r\n    }\r\n}\r\n",
  "sourcePath": "C:\\sgs020\\contracts\\Vehicle.sol",
  "compiler": {
    "name": "solc",
    "version": "0.8.9+commit.e5eed63a.Emscripten.clang"
  },
  "schemaVersion": "3.4.3",
  "updatedAt": "2022-02-21T12:05:17.184Z",
  "networkType": "ethereum",
  "devdoc": {
    "kind": "dev",
    "methods": {
      "approve(address,uint256)": {
        "details": "See {IERC721-approve}."
      },
      "balanceOf(address)": {
        "details": "See {IERC721-balanceOf}."
      },
      "getApproved(uint256)": {
        "details": "See {IERC721-getApproved}."
      },
      "getRoleAdmin(bytes32)": {
        "details": "Returns the admin role that controls `role`. See {grantRole} and {revokeRole}. To change a role's admin, use {_setRoleAdmin}."
      },
      "grantRole(bytes32,address)": {
        "details": "Grants `role` to `account`. If `account` had not been already granted `role`, emits a {RoleGranted} event. Requirements: - the caller must have ``role``'s admin role."
      },
      "hasRole(bytes32,address)": {
        "details": "Returns `true` if `account` has been granted `role`."
      },
      "isApprovedForAll(address,address)": {
        "details": "See {IERC721-isApprovedForAll}."
      },
      "name()": {
        "details": "See {IERC721Metadata-name}."
      },
      "ownerOf(uint256)": {
        "details": "See {IERC721-ownerOf}."
      },
      "renounceRole(bytes32,address)": {
        "details": "Revokes `role` from the calling account. Roles are often managed via {grantRole} and {revokeRole}: this function's purpose is to provide a mechanism for accounts to lose their privileges if they are compromised (such as when a trusted device is misplaced). If the calling account had been granted `role`, emits a {RoleRevoked} event. Requirements: - the caller must be `account`."
      },
      "revokeRole(bytes32,address)": {
        "details": "Revokes `role` from `account`. If `account` had been granted `role`, emits a {RoleRevoked} event. Requirements: - the caller must have ``role``'s admin role."
      },
      "safeTransferFrom(address,address,uint256)": {
        "details": "See {IERC721-safeTransferFrom}."
      },
      "safeTransferFrom(address,address,uint256,bytes)": {
        "details": "See {IERC721-safeTransferFrom}."
      },
      "setApprovalForAll(address,bool)": {
        "details": "See {IERC721-setApprovalForAll}."
      },
      "symbol()": {
        "details": "See {IERC721Metadata-symbol}."
      },
      "tokenByIndex(uint256)": {
        "details": "See {IERC721Enumerable-tokenByIndex}."
      },
      "tokenOfOwnerByIndex(address,uint256)": {
        "details": "See {IERC721Enumerable-tokenOfOwnerByIndex}."
      },
      "tokenURI(uint256)": {
        "details": "See {IERC721Metadata-tokenURI}."
      },
      "totalSupply()": {
        "details": "See {IERC721Enumerable-totalSupply}."
      },
      "transferFrom(address,address,uint256)": {
        "details": "See {IERC721-transferFrom}."
      }
    },
    "version": 1
  },
  "userdoc": {
    "kind": "user",
    "methods": {},
    "version": 1
  }
}