{
  "contractName": "Gateway",
  "abi": [
    {
      "inputs": [
        {
          "internalType": "address",
          "name": "addr",
          "type": "address"
        }
      ],
      "stateMutability": "nonpayable",
      "type": "constructor"
    },
    {
      "anonymous": false,
      "inputs": [
        {
          "indexed": true,
          "internalType": "uint256",
          "name": "tokenId",
          "type": "uint256"
        }
      ],
      "name": "NewPrice",
      "type": "event"
    },
    {
      "anonymous": false,
      "inputs": [
        {
          "indexed": true,
          "internalType": "uint256",
          "name": "tokenId",
          "type": "uint256"
        }
      ],
      "name": "NewTopBidder",
      "type": "event"
    },
    {
      "anonymous": false,
      "inputs": [
        {
          "indexed": true,
          "internalType": "uint256",
          "name": "tokenId",
          "type": "uint256"
        },
        {
          "indexed": false,
          "internalType": "bool",
          "name": "status",
          "type": "bool"
        },
        {
          "indexed": false,
          "internalType": "bool",
          "name": "isAuction",
          "type": "bool"
        }
      ],
      "name": "SaleStatus",
      "type": "event"
    },
    {
      "stateMutability": "payable",
      "type": "receive",
      "payable": true
    },
    {
      "inputs": [],
      "name": "balanceOfSC",
      "outputs": [
        {
          "internalType": "uint256",
          "name": "",
          "type": "uint256"
        }
      ],
      "stateMutability": "view",
      "type": "function",
      "constant": true
    },
    {
      "inputs": [
        {
          "internalType": "uint256",
          "name": "tokenId",
          "type": "uint256"
        }
      ],
      "name": "getVehiclePrice",
      "outputs": [
        {
          "internalType": "uint256",
          "name": "",
          "type": "uint256"
        }
      ],
      "stateMutability": "view",
      "type": "function",
      "constant": true
    },
    {
      "inputs": [
        {
          "internalType": "uint256",
          "name": "tokenId",
          "type": "uint256"
        }
      ],
      "name": "getTopBidder",
      "outputs": [
        {
          "internalType": "address",
          "name": "",
          "type": "address"
        }
      ],
      "stateMutability": "view",
      "type": "function",
      "constant": true
    },
    {
      "inputs": [
        {
          "internalType": "uint256",
          "name": "tokenId",
          "type": "uint256"
        }
      ],
      "name": "isAuction",
      "outputs": [
        {
          "internalType": "bool",
          "name": "",
          "type": "bool"
        }
      ],
      "stateMutability": "view",
      "type": "function",
      "constant": true
    },
    {
      "inputs": [
        {
          "internalType": "uint256",
          "name": "tokenId",
          "type": "uint256"
        }
      ],
      "name": "isForSale",
      "outputs": [
        {
          "internalType": "bool",
          "name": "",
          "type": "bool"
        }
      ],
      "stateMutability": "view",
      "type": "function",
      "constant": true
    },
    {
      "inputs": [
        {
          "internalType": "uint256",
          "name": "tokenId",
          "type": "uint256"
        },
        {
          "internalType": "uint256",
          "name": "price",
          "type": "uint256"
        }
      ],
      "name": "listAuction",
      "outputs": [],
      "stateMutability": "nonpayable",
      "type": "function"
    },
    {
      "inputs": [
        {
          "internalType": "uint256",
          "name": "tokenId",
          "type": "uint256"
        },
        {
          "internalType": "uint256",
          "name": "price",
          "type": "uint256"
        }
      ],
      "name": "listInstant",
      "outputs": [],
      "stateMutability": "nonpayable",
      "type": "function"
    },
    {
      "inputs": [
        {
          "internalType": "uint256",
          "name": "tokenId",
          "type": "uint256"
        }
      ],
      "name": "delistAuction",
      "outputs": [],
      "stateMutability": "nonpayable",
      "type": "function"
    },
    {
      "inputs": [
        {
          "internalType": "uint256",
          "name": "tokenId",
          "type": "uint256"
        }
      ],
      "name": "delistInstant",
      "outputs": [],
      "stateMutability": "nonpayable",
      "type": "function"
    },
    {
      "inputs": [
        {
          "internalType": "uint256",
          "name": "tokenId",
          "type": "uint256"
        },
        {
          "internalType": "uint256",
          "name": "_price",
          "type": "uint256"
        }
      ],
      "name": "setVehiclePrice",
      "outputs": [],
      "stateMutability": "nonpayable",
      "type": "function"
    },
    {
      "inputs": [
        {
          "internalType": "uint256",
          "name": "tokenId",
          "type": "uint256"
        }
      ],
      "name": "buy",
      "outputs": [],
      "stateMutability": "payable",
      "type": "function",
      "payable": true
    },
    {
      "inputs": [
        {
          "internalType": "uint256",
          "name": "tokenId",
          "type": "uint256"
        }
      ],
      "name": "bid",
      "outputs": [],
      "stateMutability": "payable",
      "type": "function",
      "payable": true
    },
    {
      "inputs": [
        {
          "internalType": "uint256",
          "name": "tokenId",
          "type": "uint256"
        }
      ],
      "name": "concludeAuction",
      "outputs": [],
      "stateMutability": "nonpayable",
      "type": "function"
    }
  ],
  "bytecode": "0x6080604052655af3107a40006004553480156200001b57600080fd5b506040516200348a3803806200348a8339818101604052810190620000419190620000f3565b80600560006101000a81548173ffffffffffffffffffffffffffffffffffffffff021916908373ffffffffffffffffffffffffffffffffffffffff1602179055505062000125565b600080fd5b600073ffffffffffffffffffffffffffffffffffffffff82169050919050565b6000620000bb826200008e565b9050919050565b620000cd81620000ae565b8114620000d957600080fd5b50565b600081519050620000ed81620000c2565b92915050565b6000602082840312156200010c576200010b62000089565b5b60006200011c84828501620000dc565b91505092915050565b61335580620001356000396000f3fe6080604052600436106100c65760003560e01c80638546d0021161007f578063b876130111610059578063b876130114610288578063d96a094a146102b1578063e19297e0146102cd578063e2abc7cc146102f6576100cd565b80638546d002146101d15780638704f2a31461020e5780638b79aa201461024b576100cd565b806304744d08146100d2578063251781e71461010f57806325605c6a14610138578063454a2ab3146101635780634c5210f61461017f5780635825be9a146101a8576100cd565b366100cd57005b600080fd5b3480156100de57600080fd5b506100f960048036038101906100f49190612a6b565b61031f565b6040516101069190612ad9565b60405180910390f35b34801561011b57600080fd5b5061013660048036038101906101319190612af4565b61047b565b005b34801561014457600080fd5b5061014d610766565b60405161015a9190612b43565b60405180910390f35b61017d60048036038101906101789190612a6b565b61076e565b005b34801561018b57600080fd5b506101a660048036038101906101a19190612af4565b610a55565b005b3480156101b457600080fd5b506101cf60048036038101906101ca9190612a6b565b610d4f565b005b3480156101dd57600080fd5b506101f860048036038101906101f39190612a6b565b610fba565b6040516102059190612b79565b60405180910390f35b34801561021a57600080fd5b5061023560048036038101906102309190612a6b565b611082565b6040516102429190612b79565b60405180910390f35b34801561025757600080fd5b50610272600480360381019061026d9190612a6b565b61114a565b60405161027f9190612b43565b60405180910390f35b34801561029457600080fd5b506102af60048036038101906102aa9190612a6b565b61125c565b005b6102cb60048036038101906102c69190612a6b565b611837565b005b3480156102d957600080fd5b506102f460048036038101906102ef9190612af4565b611d27565b005b34801561030257600080fd5b5061031d60048036038101906103189190612a6b565b611fd7565b005b600081600560009054906101000a900473ffffffffffffffffffffffffffffffffffffffff1673ffffffffffffffffffffffffffffffffffffffff16634f558e79826040518263ffffffff1660e01b815260040161037d9190612b43565b60206040518083038186803b15801561039557600080fd5b505afa1580156103a9573d6000803e3d6000fd5b505050506040513d601f19601f820116820180604052508101906103cd9190612bc0565b6103d657600080fd5b826103e081612283565b61041f576040517f08c379a000000000000000000000000000000000000000000000000000000000815260040161041690612c4a565b60405180910390fd5b83610429816123ba565b610468576040517f08c379a000000000000000000000000000000000000000000000000000000000815260040161045f90612cb6565b60405180910390fd5b610471856124f2565b9350505050919050565b81600560009054906101000a900473ffffffffffffffffffffffffffffffffffffffff1673ffffffffffffffffffffffffffffffffffffffff16634f558e79826040518263ffffffff1660e01b81526004016104d79190612b43565b60206040518083038186803b1580156104ef57600080fd5b505afa158015610503573d6000803e3d6000fd5b505050506040513d601f19601f820116820180604052508101906105279190612bc0565b61053057600080fd5b823373ffffffffffffffffffffffffffffffffffffffff16600560009054906101000a900473ffffffffffffffffffffffffffffffffffffffff1673ffffffffffffffffffffffffffffffffffffffff16636352211e836040518263ffffffff1660e01b81526004016105a39190612b43565b60206040518083038186803b1580156105bb57600080fd5b505afa1580156105cf573d6000803e3d6000fd5b505050506040513d601f19601f820116820180604052508101906105f39190612d02565b73ffffffffffffffffffffffffffffffffffffffff1614610649576040517f08c379a000000000000000000000000000000000000000000000000000000000815260040161064090612d7b565b60405180910390fd5b8361065381612283565b610692576040517f08c379a000000000000000000000000000000000000000000000000000000000815260040161068990612c4a565b60405180910390fd5b8461069c816123ba565b156106dc576040517f08c379a00000000000000000000000000000000000000000000000000000000081526004016106d390612de7565b60405180910390fd5b8466038d7ea4c680008111610726576040517f08c379a000000000000000000000000000000000000000000000000000000000815260040161071d90612e53565b60405180910390fd5b610730878761252f565b867f270b316b51ab2cf3a3bb8ca4d22e76a327d05e762fcaa8bd6afaf8cfde9270b760405160405180910390a250505050505050565b600047905090565b80600560009054906101000a900473ffffffffffffffffffffffffffffffffffffffff1673ffffffffffffffffffffffffffffffffffffffff16634f558e79826040518263ffffffff1660e01b81526004016107ca9190612b43565b60206040518083038186803b1580156107e257600080fd5b505afa1580156107f6573d6000803e3d6000fd5b505050506040513d601f19601f8201168201806040525081019061081a9190612bc0565b61082357600080fd5b8161082d816123ba565b61086c576040517f08c379a000000000000000000000000000000000000000000000000000000000815260040161086390612cb6565b60405180910390fd5b6108758361254b565b34116108b6576040517f08c379a00000000000000000000000000000000000000000000000000000000081526004016108ad90612ebf565b60405180910390fd5b600560009054906101000a900473ffffffffffffffffffffffffffffffffffffffff1673ffffffffffffffffffffffffffffffffffffffff16636352211e846040518263ffffffff1660e01b81526004016109119190612b43565b60206040518083038186803b15801561092957600080fd5b505afa15801561093d573d6000803e3d6000fd5b505050506040513d601f19601f820116820180604052508101906109619190612d02565b73ffffffffffffffffffffffffffffffffffffffff163373ffffffffffffffffffffffffffffffffffffffff1614156109cf576040517f08c379a00000000000000000000000000000000000000000000000000000000081526004016109c690612f2b565b60405180910390fd5b6109d883612568565b6109e230346125d5565b6109ec833461252f565b6109f68333612689565b827f270b316b51ab2cf3a3bb8ca4d22e76a327d05e762fcaa8bd6afaf8cfde9270b760405160405180910390a2827fc95960509dc0aa4c1e2234f4c1313b2a1466421ea6d179fb0714306305b9c1e560405160405180910390a2505050565b81600560009054906101000a900473ffffffffffffffffffffffffffffffffffffffff1673ffffffffffffffffffffffffffffffffffffffff16634f558e79826040518263ffffffff1660e01b8152600401610ab19190612b43565b60206040518083038186803b158015610ac957600080fd5b505afa158015610add573d6000803e3d6000fd5b505050506040513d601f19601f82011682018060405250810190610b019190612bc0565b610b0a57600080fd5b823373ffffffffffffffffffffffffffffffffffffffff16600560009054906101000a900473ffffffffffffffffffffffffffffffffffffffff1673ffffffffffffffffffffffffffffffffffffffff16636352211e836040518263ffffffff1660e01b8152600401610b7d9190612b43565b60206040518083038186803b158015610b9557600080fd5b505afa158015610ba9573d6000803e3d6000fd5b505050506040513d601f19601f82011682018060405250810190610bcd9190612d02565b73ffffffffffffffffffffffffffffffffffffffff1614610c23576040517f08c379a0000000000000000000000000000000000000000000000000000000008152600401610c1a90612d7b565b60405180910390fd5b83610c2d81612283565b15610c6d576040517f08c379a0000000000000000000000000000000000000000000000000000000008152600401610c6490612f97565b60405180910390fd5b84610c77816123ba565b15610cb7576040517f08c379a0000000000000000000000000000000000000000000000000000000008152600401610cae90612de7565b60405180910390fd5b8466038d7ea4c680008111610d01576040517f08c379a0000000000000000000000000000000000000000000000000000000008152600401610cf890612e53565b60405180910390fd5b610d0b87876126df565b867f6a954bd8417a491685feaae6ddad6ca52234ae6e9e02bbdfea52b463c8513d6a600180604051610d3e929190612fb7565b60405180910390a250505050505050565b80600560009054906101000a900473ffffffffffffffffffffffffffffffffffffffff1673ffffffffffffffffffffffffffffffffffffffff16634f558e79826040518263ffffffff1660e01b8152600401610dab9190612b43565b60206040518083038186803b158015610dc357600080fd5b505afa158015610dd7573d6000803e3d6000fd5b505050506040513d601f19601f82011682018060405250810190610dfb9190612bc0565b610e0457600080fd5b813373ffffffffffffffffffffffffffffffffffffffff16600560009054906101000a900473ffffffffffffffffffffffffffffffffffffffff1673ffffffffffffffffffffffffffffffffffffffff16636352211e836040518263ffffffff1660e01b8152600401610e779190612b43565b60206040518083038186803b158015610e8f57600080fd5b505afa158015610ea3573d6000803e3d6000fd5b505050506040513d601f19601f82011682018060405250810190610ec79190612d02565b73ffffffffffffffffffffffffffffffffffffffff1614610f1d576040517f08c379a0000000000000000000000000000000000000000000000000000000008152600401610f1490612d7b565b60405180910390fd5b82610f27816123ba565b610f66576040517f08c379a0000000000000000000000000000000000000000000000000000000008152600401610f5d90612cb6565b60405180910390fd5b610f6f84612568565b610f78846126f8565b837f6a954bd8417a491685feaae6ddad6ca52234ae6e9e02bbdfea52b463c8513d6a60006001604051610fac929190612fb7565b60405180910390a250505050565b600081600560009054906101000a900473ffffffffffffffffffffffffffffffffffffffff1673ffffffffffffffffffffffffffffffffffffffff16634f558e79826040518263ffffffff1660e01b81526004016110189190612b43565b60206040518083038186803b15801561103057600080fd5b505afa158015611044573d6000803e3d6000fd5b505050506040513d601f19601f820116820180604052508101906110689190612bc0565b61107157600080fd5b61107a83612283565b915050919050565b600081600560009054906101000a900473ffffffffffffffffffffffffffffffffffffffff1673ffffffffffffffffffffffffffffffffffffffff16634f558e79826040518263ffffffff1660e01b81526004016110e09190612b43565b60206040518083038186803b1580156110f857600080fd5b505afa15801561110c573d6000803e3d6000fd5b505050506040513d601f19601f820116820180604052508101906111309190612bc0565b61113957600080fd5b611142836123ba565b915050919050565b600081600560009054906101000a900473ffffffffffffffffffffffffffffffffffffffff1673ffffffffffffffffffffffffffffffffffffffff16634f558e79826040518263ffffffff1660e01b81526004016111a89190612b43565b60206040518083038186803b1580156111c057600080fd5b505afa1580156111d4573d6000803e3d6000fd5b505050506040513d601f19601f820116820180604052508101906111f89190612bc0565b61120157600080fd5b8261120b81612283565b61124a576040517f08c379a000000000000000000000000000000000000000000000000000000000815260040161124190612c4a565b60405180910390fd5b6112538461254b565b92505050919050565b80600560009054906101000a900473ffffffffffffffffffffffffffffffffffffffff1673ffffffffffffffffffffffffffffffffffffffff16634f558e79826040518263ffffffff1660e01b81526004016112b89190612b43565b60206040518083038186803b1580156112d057600080fd5b505afa1580156112e4573d6000803e3d6000fd5b505050506040513d601f19601f820116820180604052508101906113089190612bc0565b61131157600080fd5b813373ffffffffffffffffffffffffffffffffffffffff16600560009054906101000a900473ffffffffffffffffffffffffffffffffffffffff1673ffffffffffffffffffffffffffffffffffffffff16636352211e836040518263ffffffff1660e01b81526004016113849190612b43565b60206040518083038186803b15801561139c57600080fd5b505afa1580156113b0573d6000803e3d6000fd5b505050506040513d601f19601f820116820180604052508101906113d49190612d02565b73ffffffffffffffffffffffffffffffffffffffff161461142a576040517f08c379a000000000000000000000000000000000000000000000000000000000815260040161142190612d7b565b60405180910390fd5b82611434816123ba565b611473576040517f08c379a000000000000000000000000000000000000000000000000000000000815260040161146a90612cb6565b60405180910390fd5b600061147e856124f2565b9050600073ffffffffffffffffffffffffffffffffffffffff168173ffffffffffffffffffffffffffffffffffffffff1614156114ba57600080fd5b611583600560009054906101000a900473ffffffffffffffffffffffffffffffffffffffff1673ffffffffffffffffffffffffffffffffffffffff16636352211e876040518263ffffffff1660e01b81526004016115189190612b43565b60206040518083038186803b15801561153057600080fd5b505afa158015611544573d6000803e3d6000fd5b505050506040513d601f19601f820116820180604052508101906115689190612d02565b6004546115748861254b565b61157e919061300f565b6125d5565b600560009054906101000a900473ffffffffffffffffffffffffffffffffffffffff1673ffffffffffffffffffffffffffffffffffffffff166323b872dd600560009054906101000a900473ffffffffffffffffffffffffffffffffffffffff1673ffffffffffffffffffffffffffffffffffffffff16636352211e886040518263ffffffff1660e01b815260040161161c9190612b43565b60206040518083038186803b15801561163457600080fd5b505afa158015611648573d6000803e3d6000fd5b505050506040513d601f19601f8201168201806040525081019061166c9190612d02565b83886040518463ffffffff1660e01b815260040161168c93929190613043565b600060405180830381600087803b1580156116a657600080fd5b505af11580156116ba573d6000803e3d6000fd5b505050508073ffffffffffffffffffffffffffffffffffffffff16600560009054906101000a900473ffffffffffffffffffffffffffffffffffffffff1673ffffffffffffffffffffffffffffffffffffffff16636352211e876040518263ffffffff1660e01b81526004016117309190612b43565b60206040518083038186803b15801561174857600080fd5b505afa15801561175c573d6000803e3d6000fd5b505050506040513d601f19601f820116820180604052508101906117809190612d02565b73ffffffffffffffffffffffffffffffffffffffff16146117d6576040517f08c379a00000000000000000000000000000000000000000000000000000000081526004016117cd906130c6565b60405180910390fd5b6117e1856000612757565b6117ec856000612689565b6117f5856128a3565b847f6a954bd8417a491685feaae6ddad6ca52234ae6e9e02bbdfea52b463c8513d6a600080604051611828929190612fb7565b60405180910390a25050505050565b80600560009054906101000a900473ffffffffffffffffffffffffffffffffffffffff1673ffffffffffffffffffffffffffffffffffffffff16634f558e79826040518263ffffffff1660e01b81526004016118939190612b43565b60206040518083038186803b1580156118ab57600080fd5b505afa1580156118bf573d6000803e3d6000fd5b505050506040513d601f19601f820116820180604052508101906118e39190612bc0565b6118ec57600080fd5b816118f681612283565b611935576040517f08c379a000000000000000000000000000000000000000000000000000000000815260040161192c90612c4a565b60405180910390fd5b8261193f816123ba565b1561197f576040517f08c379a000000000000000000000000000000000000000000000000000000000815260040161197690612de7565b60405180910390fd5b6119888461254b565b34146119c9576040517f08c379a00000000000000000000000000000000000000000000000000000000081526004016119c090613132565b60405180910390fd5b611a8a600560009054906101000a900473ffffffffffffffffffffffffffffffffffffffff1673ffffffffffffffffffffffffffffffffffffffff16636352211e866040518263ffffffff1660e01b8152600401611a279190612b43565b60206040518083038186803b158015611a3f57600080fd5b505afa158015611a53573d6000803e3d6000fd5b505050506040513d601f19601f82011682018060405250810190611a779190612d02565b60045434611a85919061300f565b6125d5565b600560009054906101000a900473ffffffffffffffffffffffffffffffffffffffff1673ffffffffffffffffffffffffffffffffffffffff166323b872dd600560009054906101000a900473ffffffffffffffffffffffffffffffffffffffff1673ffffffffffffffffffffffffffffffffffffffff16636352211e876040518263ffffffff1660e01b8152600401611b239190612b43565b60206040518083038186803b158015611b3b57600080fd5b505afa158015611b4f573d6000803e3d6000fd5b505050506040513d601f19601f82011682018060405250810190611b739190612d02565b33876040518463ffffffff1660e01b8152600401611b9393929190613043565b600060405180830381600087803b158015611bad57600080fd5b505af1158015611bc1573d6000803e3d6000fd5b505050503373ffffffffffffffffffffffffffffffffffffffff16600560009054906101000a900473ffffffffffffffffffffffffffffffffffffffff1673ffffffffffffffffffffffffffffffffffffffff16636352211e866040518263ffffffff1660e01b8152600401611c379190612b43565b60206040518083038186803b158015611c4f57600080fd5b505afa158015611c63573d6000803e3d6000fd5b505050506040513d601f19601f82011682018060405250810190611c879190612d02565b73ffffffffffffffffffffffffffffffffffffffff1614611cdd576040517f08c379a0000000000000000000000000000000000000000000000000000000008152600401611cd4906130c6565b60405180910390fd5b611ce6846128a3565b837f6a954bd8417a491685feaae6ddad6ca52234ae6e9e02bbdfea52b463c8513d6a600080604051611d19929190612fb7565b60405180910390a250505050565b81600560009054906101000a900473ffffffffffffffffffffffffffffffffffffffff1673ffffffffffffffffffffffffffffffffffffffff16634f558e79826040518263ffffffff1660e01b8152600401611d839190612b43565b60206040518083038186803b158015611d9b57600080fd5b505afa158015611daf573d6000803e3d6000fd5b505050506040513d601f19601f82011682018060405250810190611dd39190612bc0565b611ddc57600080fd5b823373ffffffffffffffffffffffffffffffffffffffff16600560009054906101000a900473ffffffffffffffffffffffffffffffffffffffff1673ffffffffffffffffffffffffffffffffffffffff16636352211e836040518263ffffffff1660e01b8152600401611e4f9190612b43565b60206040518083038186803b158015611e6757600080fd5b505afa158015611e7b573d6000803e3d6000fd5b505050506040513d601f19601f82011682018060405250810190611e9f9190612d02565b73ffffffffffffffffffffffffffffffffffffffff1614611ef5576040517f08c379a0000000000000000000000000000000000000000000000000000000008152600401611eec90612d7b565b60405180910390fd5b83611eff81612283565b15611f3f576040517f08c379a0000000000000000000000000000000000000000000000000000000008152600401611f3690612f97565b60405180910390fd5b8366038d7ea4c680008111611f89576040517f08c379a0000000000000000000000000000000000000000000000000000000008152600401611f8090612e53565b60405180910390fd5b611f9386866128cd565b857f6a954bd8417a491685feaae6ddad6ca52234ae6e9e02bbdfea52b463c8513d6a60016000604051611fc7929190612fb7565b60405180910390a2505050505050565b80600560009054906101000a900473ffffffffffffffffffffffffffffffffffffffff1673ffffffffffffffffffffffffffffffffffffffff16634f558e79826040518263ffffffff1660e01b81526004016120339190612b43565b60206040518083038186803b15801561204b57600080fd5b505afa15801561205f573d6000803e3d6000fd5b505050506040513d601f19601f820116820180604052508101906120839190612bc0565b61208c57600080fd5b813373ffffffffffffffffffffffffffffffffffffffff16600560009054906101000a900473ffffffffffffffffffffffffffffffffffffffff1673ffffffffffffffffffffffffffffffffffffffff16636352211e836040518263ffffffff1660e01b81526004016120ff9190612b43565b60206040518083038186803b15801561211757600080fd5b505afa15801561212b573d6000803e3d6000fd5b505050506040513d601f19601f8201168201806040525081019061214f9190612d02565b73ffffffffffffffffffffffffffffffffffffffff16146121a5576040517f08c379a000000000000000000000000000000000000000000000000000000000815260040161219c90612d7b565b60405180910390fd5b826121af81612283565b6121ee576040517f08c379a00000000000000000000000000000000000000000000000000000000081526004016121e590612c4a565b60405180910390fd5b836121f8816123ba565b15612238576040517f08c379a000000000000000000000000000000000000000000000000000000000815260040161222f90612de7565b60405180910390fd5b612241856128a3565b847f6a954bd8417a491685feaae6ddad6ca52234ae6e9e02bbdfea52b463c8513d6a600080604051612274929190612fb7565b60405180910390a25050505050565b600080600073__BoolBitStorage________________________63f7d1c1dd856040518263ffffffff1660e01b81526004016122bf9190613161565b604080518083038186803b1580156122d657600080fd5b505af41580156122ea573d6000803e3d6000fd5b505050506040513d601f19601f8201168201806040525081019061230e9190613191565b809250819350505073__BoolBitStorage________________________633ea5d11e60008085815260200190815260200160002054836040518363ffffffff1660e01b81526004016123619291906131d1565b60206040518083038186803b15801561237957600080fd5b505af415801561238d573d6000803e3d6000fd5b505050506040513d601f19601f820116820180604052508101906123b19190612bc0565b92505050919050565b600080600073__BoolBitStorage________________________63f7d1c1dd856040518263ffffffff1660e01b81526004016123f69190613161565b604080518083038186803b15801561240d57600080fd5b505af4158015612421573d6000803e3d6000fd5b505050506040513d601f19601f820116820180604052508101906124459190613191565b809250819350505073__BoolBitStorage________________________633ea5d11e6001600085815260200190815260200160002054836040518363ffffffff1660e01b81526004016124999291906131d1565b60206040518083038186803b1580156124b157600080fd5b505af41580156124c5573d6000803e3d6000fd5b505050506040513d601f19601f820116820180604052508101906124e99190612bc0565b92505050919050565b60006003600083815260200190815260200160002060009054906101000a900473ffffffffffffffffffffffffffffffffffffffff169050919050565b8060026000848152602001908152602001600020819055505050565b600060026000838152602001908152602001600020549050919050565b6000612573826124f2565b905060006125808361254b565b9050600081141580156125c05750600073ffffffffffffffffffffffffffffffffffffffff168273ffffffffffffffffffffffffffffffffffffffff1614155b156125d0576125cf82826125d5565b5b505050565b6000808373ffffffffffffffffffffffffffffffffffffffff16836040516125fc9061322b565b60006040518083038185875af1925050503d8060008114612639576040519150601f19603f3d011682016040523d82523d6000602084013e61263e565b606091505b509150915081612683576040517f08c379a000000000000000000000000000000000000000000000000000000000815260040161267a9061328c565b60405180910390fd5b50505050565b806003600084815260200190815260200160002060006101000a81548173ffffffffffffffffffffffffffffffffffffffff021916908373ffffffffffffffffffffffffffffffffffffffff1602179055505050565b6126e982826128cd565b6126f4826001612757565b5050565b612703816000612757565b600073ffffffffffffffffffffffffffffffffffffffff16612724826124f2565b73ffffffffffffffffffffffffffffffffffffffff161461274b5761274a816000612689565b5b612754816128a3565b50565b60008073__BoolBitStorage________________________63f7d1c1dd856040518263ffffffff1660e01b81526004016127919190613161565b604080518083038186803b1580156127a857600080fd5b505af41580156127bc573d6000803e3d6000fd5b505050506040513d601f19601f820116820180604052508101906127e09190613191565b809250819350505073__BoolBitStorage________________________6333720693600160008581526020019081526020016000205483866040518463ffffffff1660e01b8152600401612836939291906132bb565b60206040518083038186803b15801561284e57600080fd5b505af4158015612862573d6000803e3d6000fd5b505050506040513d601f19601f8201168201806040525081019061288691906132f2565b600160008481526020019081526020016000208190555050505050565b6128ae8160006128e6565b60006128b98261254b565b146128ca576128c981600061252f565b5b50565b6128d88260016128e6565b6128e2828261252f565b5050565b60008073__BoolBitStorage________________________63f7d1c1dd856040518263ffffffff1660e01b81526004016129209190613161565b604080518083038186803b15801561293757600080fd5b505af415801561294b573d6000803e3d6000fd5b505050506040513d601f19601f8201168201806040525081019061296f9190613191565b809250819350505073__BoolBitStorage________________________63337206936000808581526020019081526020016000205483866040518463ffffffff1660e01b81526004016129c4939291906132bb565b60206040518083038186803b1580156129dc57600080fd5b505af41580156129f0573d6000803e3d6000fd5b505050506040513d601f19601f82011682018060405250810190612a1491906132f2565b6000808481526020019081526020016000208190555050505050565b600080fd5b6000819050919050565b612a4881612a35565b8114612a5357600080fd5b50565b600081359050612a6581612a3f565b92915050565b600060208284031215612a8157612a80612a30565b5b6000612a8f84828501612a56565b91505092915050565b600073ffffffffffffffffffffffffffffffffffffffff82169050919050565b6000612ac382612a98565b9050919050565b612ad381612ab8565b82525050565b6000602082019050612aee6000830184612aca565b92915050565b60008060408385031215612b0b57612b0a612a30565b5b6000612b1985828601612a56565b9250506020612b2a85828601612a56565b9150509250929050565b612b3d81612a35565b82525050565b6000602082019050612b586000830184612b34565b92915050565b60008115159050919050565b612b7381612b5e565b82525050565b6000602082019050612b8e6000830184612b6a565b92915050565b612b9d81612b5e565b8114612ba857600080fd5b50565b600081519050612bba81612b94565b92915050565b600060208284031215612bd657612bd5612a30565b5b6000612be484828501612bab565b91505092915050565b600082825260208201905092915050565b7f4534000000000000000000000000000000000000000000000000000000000000600082015250565b6000612c34600283612bed565b9150612c3f82612bfe565b602082019050919050565b60006020820190508181036000830152612c6381612c27565b9050919050565b7f4536000000000000000000000000000000000000000000000000000000000000600082015250565b6000612ca0600283612bed565b9150612cab82612c6a565b602082019050919050565b60006020820190508181036000830152612ccf81612c93565b9050919050565b612cdf81612ab8565b8114612cea57600080fd5b50565b600081519050612cfc81612cd6565b92915050565b600060208284031215612d1857612d17612a30565b5b6000612d2684828501612ced565b91505092915050565b7f4532000000000000000000000000000000000000000000000000000000000000600082015250565b6000612d65600283612bed565b9150612d7082612d2f565b602082019050919050565b60006020820190508181036000830152612d9481612d58565b9050919050565b7f4537000000000000000000000000000000000000000000000000000000000000600082015250565b6000612dd1600283612bed565b9150612ddc82612d9b565b602082019050919050565b60006020820190508181036000830152612e0081612dc4565b9050919050565b7f4538000000000000000000000000000000000000000000000000000000000000600082015250565b6000612e3d600283612bed565b9150612e4882612e07565b602082019050919050565b60006020820190508181036000830152612e6c81612e30565b9050919050565b7f4531300000000000000000000000000000000000000000000000000000000000600082015250565b6000612ea9600383612bed565b9150612eb482612e73565b602082019050919050565b60006020820190508181036000830152612ed881612e9c565b9050919050565b7f4531310000000000000000000000000000000000000000000000000000000000600082015250565b6000612f15600383612bed565b9150612f2082612edf565b602082019050919050565b60006020820190508181036000830152612f4481612f08565b9050919050565b7f4535000000000000000000000000000000000000000000000000000000000000600082015250565b6000612f81600283612bed565b9150612f8c82612f4b565b602082019050919050565b60006020820190508181036000830152612fb081612f74565b9050919050565b6000604082019050612fcc6000830185612b6a565b612fd96020830184612b6a565b9392505050565b7f4e487b7100000000000000000000000000000000000000000000000000000000600052601160045260246000fd5b600061301a82612a35565b915061302583612a35565b92508282101561303857613037612fe0565b5b828203905092915050565b60006060820190506130586000830186612aca565b6130656020830185612aca565b6130726040830184612b34565b949350505050565b7f4531330000000000000000000000000000000000000000000000000000000000600082015250565b60006130b0600383612bed565b91506130bb8261307a565b602082019050919050565b600060208201905081810360008301526130df816130a3565b9050919050565b7f4539000000000000000000000000000000000000000000000000000000000000600082015250565b600061311c600283612bed565b9150613127826130e6565b602082019050919050565b6000602082019050818103600083015261314b8161310f565b9050919050565b61315b81612a35565b82525050565b60006020820190506131766000830184613152565b92915050565b60008151905061318b81612a3f565b92915050565b600080604083850312156131a8576131a7612a30565b5b60006131b68582860161317c565b92505060206131c78582860161317c565b9150509250929050565b60006040820190506131e66000830185613152565b6131f36020830184613152565b9392505050565b600081905092915050565b50565b60006132156000836131fa565b915061322082613205565b600082019050919050565b600061323682613208565b9150819050919050565b7f4531320000000000000000000000000000000000000000000000000000000000600082015250565b6000613276600383612bed565b915061328182613240565b602082019050919050565b600060208201905081810360008301526132a581613269565b9050919050565b6132b581612b5e565b82525050565b60006060820190506132d06000830186613152565b6132dd6020830185613152565b6132ea60408301846132ac565b949350505050565b60006020828403121561330857613307612a30565b5b60006133168482850161317c565b9150509291505056fea26469706673582212201c918a17cb7d6b5f0911fd162180ac849c943e033f7cfe3a95319e7893f7619b64736f6c63430008090033",
  "immutableReferences": {},
  "source": "// SPDX-License-Identifier: MIT\r\npragma solidity >=0.6.0 <0.9.0;\r\n\r\nimport \"./Marketplace.sol\";\r\nimport \"./Vehicle.sol\";\r\n\r\ncontract Gateway is Marketplace {\r\n    event NewPrice(uint256 indexed tokenId);\r\n    event NewTopBidder(uint256 indexed tokenId);\r\n    event SaleStatus(uint256 indexed tokenId, bool status, bool isAuction);\r\n    uint256 tax = 100000000000000 wei;\r\n    Vehicle vhc;\r\n    \r\n    receive() external payable {}\r\n\r\n    constructor (address addr) {\r\n        vhc = Vehicle(addr);\r\n    }\r\n\r\n    function balanceOfSC () public view returns (uint256) {\r\n        return address(this).balance;\r\n    }\r\n\r\n    //MODIFIERS\r\n\r\n    modifier onlyIfExists(uint256 tokenId) {\r\n        require(vhc.exists(tokenId));\r\n        _;\r\n    }\r\n\r\n    modifier onlyOwnerOf(uint256 tokenId) {\r\n        require(vhc.ownerOf(tokenId) == msg.sender, \"E2\");\r\n        _;\r\n    }\r\n\r\n    modifier onlyIfForSale(uint256 tokenId) {\r\n        require(_isForSale(tokenId), \"E4\");\r\n        _;\r\n    }\r\n\r\n    modifier onlyIfNotForSale(uint256 tokenId) {\r\n        require(!_isForSale(tokenId), \"E5\");\r\n        _;\r\n    }\r\n\r\n    modifier onlyIfAuction(uint256 tokenId) {\r\n        require(_isAuction(tokenId), \"E6\");\r\n        _;\r\n    }\r\n\r\n    modifier onlyIfNotAuction(uint256 tokenId) {\r\n        require(!_isAuction(tokenId), \"E7\");\r\n        _;\r\n    }\r\n\r\n    modifier onlyIfPriceNonNull(uint256 price) {\r\n        require(price > 1000000000000000, \"E8\");\r\n        _;\r\n    }\r\n\r\n    // GETTERS\r\n\r\n    function getVehiclePrice(uint256 tokenId)\r\n        external\r\n        view\r\n        onlyIfExists(tokenId)\r\n        onlyIfForSale(tokenId)\r\n        returns (uint256)\r\n    {\r\n        return _getVehiclePrice(tokenId);\r\n    }\r\n\r\n    function getTopBidder(uint256 tokenId)\r\n        external\r\n        view\r\n        onlyIfExists(tokenId)\r\n        onlyIfForSale(tokenId)\r\n        onlyIfAuction(tokenId)\r\n        returns (address)\r\n    {\r\n        return _getTopBidder(tokenId);\r\n    }\r\n\r\n    function isAuction(uint256 tokenId)\r\n        external\r\n        view\r\n        onlyIfExists(tokenId)\r\n        returns (bool)\r\n    {\r\n        return _isAuction(tokenId);\r\n    }\r\n\r\n    function isForSale(uint256 tokenId)\r\n        external\r\n        view\r\n        onlyIfExists(tokenId)\r\n        returns (bool)\r\n    {\r\n        return _isForSale(tokenId);\r\n    }\r\n\r\n    // LISTING/DELISTING\r\n\r\n    function listAuction(uint256 tokenId, uint256 price)\r\n        external\r\n        onlyIfExists(tokenId)\r\n        onlyOwnerOf(tokenId)\r\n        onlyIfNotForSale(tokenId)\r\n        onlyIfNotAuction(tokenId)\r\n        onlyIfPriceNonNull(price)\r\n    {\r\n        _listAuction(tokenId, price);\r\n        emit SaleStatus(tokenId, true, true);\r\n    }\r\n\r\n    function listInstant(uint256 tokenId, uint256 price)\r\n        external\r\n        onlyIfExists(tokenId)\r\n        onlyOwnerOf(tokenId)\r\n        onlyIfNotForSale(tokenId)\r\n        onlyIfPriceNonNull(price)\r\n    {\r\n        _listInstant(tokenId, price);\r\n        emit SaleStatus(tokenId, true, false);\r\n    }\r\n\r\n    function delistAuction(uint256 tokenId)\r\n        external\r\n        onlyIfExists(tokenId)\r\n        onlyOwnerOf(tokenId)\r\n        onlyIfAuction(tokenId)\r\n    {\r\n        _refundCurentTopBidder(tokenId);\r\n        _delistAuction(tokenId);\r\n        emit SaleStatus(tokenId, false, true);\r\n    }\r\n\r\n    function delistInstant(uint256 tokenId)\r\n        external\r\n        onlyIfExists(tokenId)\r\n        onlyOwnerOf(tokenId)\r\n        onlyIfForSale(tokenId)\r\n        onlyIfNotAuction(tokenId)\r\n    {\r\n        _delistInstant(tokenId);\r\n        emit SaleStatus(tokenId, false, false);\r\n    }\r\n\r\n    // SETTERS\r\n\r\n    function setVehiclePrice(uint256 tokenId, uint256 _price)\r\n        external\r\n        onlyIfExists(tokenId)\r\n        onlyOwnerOf(tokenId)\r\n        onlyIfForSale(tokenId)\r\n        onlyIfNotAuction(tokenId)\r\n        onlyIfPriceNonNull(_price)\r\n    {\r\n        _setVehiclePrice(tokenId, _price);\r\n        emit NewPrice(tokenId);\r\n    }\r\n\r\n    //// MONEY TX\r\n\r\n    function buy(uint256 tokenId)\r\n        external\r\n        payable\r\n        onlyIfExists(tokenId)\r\n        onlyIfForSale(tokenId)\r\n        onlyIfNotAuction(tokenId)\r\n    {\r\n        require(msg.value == _getVehiclePrice(tokenId), \"E9\");\r\n\r\n        _secureMoneyTransfer(vhc.ownerOf(tokenId), msg.value - tax);\r\n\r\n        vhc.transferFrom(vhc.ownerOf(tokenId), msg.sender, tokenId);\r\n        require(vhc.ownerOf(tokenId) == msg.sender, \"E13\");\r\n        _delistInstant(tokenId);\r\n\r\n        emit SaleStatus(tokenId, false, false);\r\n    }\r\n\r\n    function bid(uint256 tokenId)\r\n        external\r\n        payable\r\n        onlyIfExists(tokenId)\r\n        onlyIfAuction(tokenId)\r\n    {\r\n        require(msg.value > _getVehiclePrice(tokenId), \"E10\");\r\n        require(msg.sender != vhc.ownerOf(tokenId), \"E11\");\r\n\r\n        _refundCurentTopBidder(tokenId);\r\n        _secureMoneyTransfer(address(this), msg.value);\r\n\r\n        _setVehiclePrice(tokenId, msg.value);\r\n        _setTopBidder(tokenId, msg.sender);\r\n\r\n        emit NewPrice(tokenId);\r\n        emit NewTopBidder(tokenId);\r\n    }\r\n\r\n    function concludeAuction(uint256 tokenId)\r\n        external\r\n        onlyIfExists(tokenId)\r\n        onlyOwnerOf(tokenId)\r\n        onlyIfAuction(tokenId)\r\n    {\r\n        address topBidder = _getTopBidder(tokenId);\r\n        require(topBidder != address(0));\r\n\r\n        _secureMoneyTransfer(vhc.ownerOf(tokenId), _getVehiclePrice(tokenId) - tax);\r\n\r\n        vhc.transferFrom(vhc.ownerOf(tokenId), topBidder, tokenId);\r\n        require(vhc.ownerOf(tokenId) == topBidder, \"E13\");\r\n\r\n        _setIsAuction(tokenId, false);\r\n        _setTopBidder(tokenId, address(0));\r\n        _delistInstant(tokenId);\r\n\r\n        emit SaleStatus(tokenId, false, false);\r\n    }\r\n\r\n    // MONEY HANDLING\r\n\r\n    function _secureMoneyTransfer(address beneficiary, uint256 money) internal {\r\n        (bool sent, bytes memory data) = payable(beneficiary).call{\r\n            value: money\r\n        }(\"\");\r\n        require(sent, \"E12\");\r\n    }\r\n\r\n    function _refundCurentTopBidder(uint256 tokenId) internal {\r\n        address currentTopBidder = _getTopBidder(tokenId);\r\n        uint256 currentTopBid = _getVehiclePrice(tokenId);\r\n        if (currentTopBid != 0 && currentTopBidder != address(0))\r\n            _secureMoneyTransfer(currentTopBidder, currentTopBid);\r\n    }\r\n}\r\n",
  "sourcePath": "C:\\sgs020\\contracts\\Gateway.sol",
  "compiler": {
    "name": "solc",
    "version": "0.8.9+commit.e5eed63a.Emscripten.clang"
  },
  "schemaVersion": "3.4.3",
  "updatedAt": "2022-02-28T19:26:27.255Z",
  "networkType": "ethereum",
  "devdoc": {
    "kind": "dev",
    "methods": {},
    "version": 1
  },
  "userdoc": {
    "kind": "user",
    "methods": {},
    "version": 1
  }
}