{
  "contractName": "Vehicle",
  "abi": [
    {
      "inputs": [
        {
          "internalType": "address",
          "name": "addr",
          "type": "address"
        }
      ],
      "stateMutability": "nonpayable",
      "type": "constructor"
    },
    {
      "anonymous": false,
      "inputs": [
        {
          "indexed": true,
          "internalType": "address",
          "name": "owner",
          "type": "address"
        },
        {
          "indexed": true,
          "internalType": "address",
          "name": "approved",
          "type": "address"
        },
        {
          "indexed": true,
          "internalType": "uint256",
          "name": "tokenId",
          "type": "uint256"
        }
      ],
      "name": "Approval",
      "type": "event"
    },
    {
      "anonymous": false,
      "inputs": [
        {
          "indexed": true,
          "internalType": "address",
          "name": "owner",
          "type": "address"
        },
        {
          "indexed": true,
          "internalType": "address",
          "name": "operator",
          "type": "address"
        },
        {
          "indexed": false,
          "internalType": "bool",
          "name": "approved",
          "type": "bool"
        }
      ],
      "name": "ApprovalForAll",
      "type": "event"
    },
    {
      "anonymous": false,
      "inputs": [
        {
          "indexed": true,
          "internalType": "address",
          "name": "from",
          "type": "address"
        },
        {
          "indexed": true,
          "internalType": "address",
          "name": "to",
          "type": "address"
        },
        {
          "indexed": true,
          "internalType": "uint256",
          "name": "tokenId",
          "type": "uint256"
        }
      ],
      "name": "Transfer",
      "type": "event"
    },
    {
      "inputs": [
        {
          "internalType": "address",
          "name": "to",
          "type": "address"
        },
        {
          "internalType": "uint256",
          "name": "tokenId",
          "type": "uint256"
        }
      ],
      "name": "approve",
      "outputs": [],
      "stateMutability": "nonpayable",
      "type": "function"
    },
    {
      "inputs": [
        {
          "internalType": "address",
          "name": "owner",
          "type": "address"
        }
      ],
      "name": "balanceOf",
      "outputs": [
        {
          "internalType": "uint256",
          "name": "",
          "type": "uint256"
        }
      ],
      "stateMutability": "view",
      "type": "function",
      "constant": true
    },
    {
      "inputs": [
        {
          "internalType": "uint256",
          "name": "tokenId",
          "type": "uint256"
        }
      ],
      "name": "getApproved",
      "outputs": [
        {
          "internalType": "address",
          "name": "",
          "type": "address"
        }
      ],
      "stateMutability": "view",
      "type": "function",
      "constant": true
    },
    {
      "inputs": [
        {
          "internalType": "address",
          "name": "owner",
          "type": "address"
        },
        {
          "internalType": "address",
          "name": "operator",
          "type": "address"
        }
      ],
      "name": "isApprovedForAll",
      "outputs": [
        {
          "internalType": "bool",
          "name": "",
          "type": "bool"
        }
      ],
      "stateMutability": "view",
      "type": "function",
      "constant": true
    },
    {
      "inputs": [],
      "name": "name",
      "outputs": [
        {
          "internalType": "string",
          "name": "",
          "type": "string"
        }
      ],
      "stateMutability": "view",
      "type": "function",
      "constant": true
    },
    {
      "inputs": [
        {
          "internalType": "uint256",
          "name": "tokenId",
          "type": "uint256"
        }
      ],
      "name": "ownerOf",
      "outputs": [
        {
          "internalType": "address",
          "name": "",
          "type": "address"
        }
      ],
      "stateMutability": "view",
      "type": "function",
      "constant": true
    },
    {
      "inputs": [
        {
          "internalType": "address",
          "name": "from",
          "type": "address"
        },
        {
          "internalType": "address",
          "name": "to",
          "type": "address"
        },
        {
          "internalType": "uint256",
          "name": "tokenId",
          "type": "uint256"
        }
      ],
      "name": "safeTransferFrom",
      "outputs": [],
      "stateMutability": "nonpayable",
      "type": "function"
    },
    {
      "inputs": [
        {
          "internalType": "address",
          "name": "from",
          "type": "address"
        },
        {
          "internalType": "address",
          "name": "to",
          "type": "address"
        },
        {
          "internalType": "uint256",
          "name": "tokenId",
          "type": "uint256"
        },
        {
          "internalType": "bytes",
          "name": "_data",
          "type": "bytes"
        }
      ],
      "name": "safeTransferFrom",
      "outputs": [],
      "stateMutability": "nonpayable",
      "type": "function"
    },
    {
      "inputs": [
        {
          "internalType": "address",
          "name": "operator",
          "type": "address"
        },
        {
          "internalType": "bool",
          "name": "approved",
          "type": "bool"
        }
      ],
      "name": "setApprovalForAll",
      "outputs": [],
      "stateMutability": "nonpayable",
      "type": "function"
    },
    {
      "inputs": [
        {
          "internalType": "bytes4",
          "name": "interfaceId",
          "type": "bytes4"
        }
      ],
      "name": "supportsInterface",
      "outputs": [
        {
          "internalType": "bool",
          "name": "",
          "type": "bool"
        }
      ],
      "stateMutability": "view",
      "type": "function",
      "constant": true
    },
    {
      "inputs": [],
      "name": "symbol",
      "outputs": [
        {
          "internalType": "string",
          "name": "",
          "type": "string"
        }
      ],
      "stateMutability": "view",
      "type": "function",
      "constant": true
    },
    {
      "inputs": [
        {
          "internalType": "uint256",
          "name": "index",
          "type": "uint256"
        }
      ],
      "name": "tokenByIndex",
      "outputs": [
        {
          "internalType": "uint256",
          "name": "",
          "type": "uint256"
        }
      ],
      "stateMutability": "view",
      "type": "function",
      "constant": true
    },
    {
      "inputs": [
        {
          "internalType": "address",
          "name": "owner",
          "type": "address"
        },
        {
          "internalType": "uint256",
          "name": "index",
          "type": "uint256"
        }
      ],
      "name": "tokenOfOwnerByIndex",
      "outputs": [
        {
          "internalType": "uint256",
          "name": "",
          "type": "uint256"
        }
      ],
      "stateMutability": "view",
      "type": "function",
      "constant": true
    },
    {
      "inputs": [],
      "name": "totalSupply",
      "outputs": [
        {
          "internalType": "uint256",
          "name": "",
          "type": "uint256"
        }
      ],
      "stateMutability": "view",
      "type": "function",
      "constant": true
    },
    {
      "inputs": [
        {
          "internalType": "address",
          "name": "from",
          "type": "address"
        },
        {
          "internalType": "address",
          "name": "to",
          "type": "address"
        },
        {
          "internalType": "uint256",
          "name": "tokenId",
          "type": "uint256"
        }
      ],
      "name": "transferFrom",
      "outputs": [],
      "stateMutability": "nonpayable",
      "type": "function"
    },
    {
      "inputs": [
        {
          "internalType": "uint256",
          "name": "tokenId",
          "type": "uint256"
        }
      ],
      "name": "tokenURI",
      "outputs": [
        {
          "internalType": "string",
          "name": "",
          "type": "string"
        }
      ],
      "stateMutability": "view",
      "type": "function",
      "constant": true
    },
    {
      "inputs": [
        {
          "internalType": "uint256",
          "name": "tokenId",
          "type": "uint256"
        }
      ],
      "name": "exists",
      "outputs": [
        {
          "internalType": "bool",
          "name": "",
          "type": "bool"
        }
      ],
      "stateMutability": "view",
      "type": "function",
      "constant": true
    },
    {
      "inputs": [
        {
          "internalType": "uint256",
          "name": "tokenId",
          "type": "uint256"
        },
        {
          "internalType": "string",
          "name": "_tokenURI",
          "type": "string"
        }
      ],
      "name": "setTokenURI",
      "outputs": [],
      "stateMutability": "nonpayable",
      "type": "function"
    },
    {
      "inputs": [
        {
          "internalType": "string",
          "name": "uri",
          "type": "string"
        }
      ],
      "name": "mint",
      "outputs": [],
      "stateMutability": "nonpayable",
      "type": "function"
    },
    {
      "inputs": [
        {
          "internalType": "uint256",
          "name": "_tokenId",
          "type": "uint256"
        }
      ],
      "name": "burn",
      "outputs": [],
      "stateMutability": "nonpayable",
      "type": "function"
    }
  ],
  "bytecode": "0x60806040523480156200001157600080fd5b506040516200375c3803806200375c833981810160405281019062000037919062000239565b6040518060400160405280600781526020017f56656869636c65000000000000000000000000000000000000000000000000008152506040518060400160405280600381526020017f56484300000000000000000000000000000000000000000000000000000000008152508160009080519060200190620000bb9291906200011f565b508060019080519060200190620000d49291906200011f565b50505080600b60006101000a81548173ffffffffffffffffffffffffffffffffffffffff021916908373ffffffffffffffffffffffffffffffffffffffff16021790555050620002d0565b8280546200012d906200029a565b90600052602060002090601f0160209004810192826200015157600085556200019d565b82601f106200016c57805160ff19168380011785556200019d565b828001600101855582156200019d579182015b828111156200019c5782518255916020019190600101906200017f565b5b509050620001ac9190620001b0565b5090565b5b80821115620001cb576000816000905550600101620001b1565b5090565b600080fd5b600073ffffffffffffffffffffffffffffffffffffffff82169050919050565b60006200020182620001d4565b9050919050565b6200021381620001f4565b81146200021f57600080fd5b50565b600081519050620002338162000208565b92915050565b600060208284031215620002525762000251620001cf565b5b6000620002628482850162000222565b91505092915050565b7f4e487b7100000000000000000000000000000000000000000000000000000000600052602260045260246000fd5b60006002820490506001821680620002b357607f821691505b60208210811415620002ca57620002c96200026b565b5b50919050565b61347c80620002e06000396000f3fe608060405234801561001057600080fd5b506004361061012c5760003560e01c80634f558e79116100ad578063a22cb46511610071578063a22cb46514610367578063b88d4fde14610383578063c87b56dd1461039f578063d85d3d27146103cf578063e985e9c5146103eb5761012c565b80634f558e79146102895780634f6ccce7146102b95780636352211e146102e957806370a082311461031957806395d89b41146103495761012c565b806318160ddd116100f457806318160ddd146101e757806323b872dd146102055780632f745c591461022157806342842e0e1461025157806342966c681461026d5761012c565b806301ffc9a71461013157806306fdde0314610161578063081812fc1461017f578063095ea7b3146101af578063162094c4146101cb575b600080fd5b61014b60048036038101906101469190612196565b61041b565b60405161015891906121de565b60405180910390f35b610169610495565b6040516101769190612292565b60405180910390f35b610199600480360381019061019491906122ea565b610527565b6040516101a69190612358565b60405180910390f35b6101c960048036038101906101c4919061239f565b6105ac565b005b6101e560048036038101906101e09190612514565b6106c4565b005b6101ef610827565b6040516101fc919061257f565b60405180910390f35b61021f600480360381019061021a919061259a565b610834565b005b61023b6004803603810190610236919061239f565b610894565b604051610248919061257f565b60405180910390f35b61026b6004803603810190610266919061259a565b610939565b005b610287600480360381019061028291906122ea565b610959565b005b6102a3600480360381019061029e91906122ea565b610a58565b6040516102b091906121de565b60405180910390f35b6102d360048036038101906102ce91906122ea565b610a6a565b6040516102e0919061257f565b60405180910390f35b61030360048036038101906102fe91906122ea565b610adb565b6040516103109190612358565b60405180910390f35b610333600480360381019061032e91906125ed565b610b8d565b604051610340919061257f565b60405180910390f35b610351610c45565b60405161035e9190612292565b60405180910390f35b610381600480360381019061037c9190612646565b610cd7565b005b61039d60048036038101906103989190612727565b610e58565b005b6103b960048036038101906103b491906122ea565b610eba565b6040516103c69190612292565b60405180910390f35b6103e960048036038101906103e491906127aa565b610f5f565b005b610405600480360381019061040091906127f3565b6110ec565b60405161041291906121de565b60405180910390f35b60007f780e9d63000000000000000000000000000000000000000000000000000000007bffffffffffffffffffffffffffffffffffffffffffffffffffffffff1916827bffffffffffffffffffffffffffffffffffffffffffffffffffffffff1916148061048e575061048d82611180565b5b9050919050565b6060600080546104a490612862565b80601f01602080910402602001604051908101604052809291908181526020018280546104d090612862565b801561051d5780601f106104f25761010080835404028352916020019161051d565b820191906000526020600020905b81548152906001019060200180831161050057829003601f168201915b5050505050905090565b600061053282611262565b610571576040517f08c379a000000000000000000000000000000000000000000000000000000000815260040161056890612906565b60405180910390fd5b6004600083815260200190815260200160002060009054906101000a900473ffffffffffffffffffffffffffffffffffffffff169050919050565b60006105b782610adb565b90508073ffffffffffffffffffffffffffffffffffffffff168373ffffffffffffffffffffffffffffffffffffffff161415610628576040517f08c379a000000000000000000000000000000000000000000000000000000000815260040161061f90612998565b60405180910390fd5b8073ffffffffffffffffffffffffffffffffffffffff166106476112ce565b73ffffffffffffffffffffffffffffffffffffffff1614806106765750610675816106706112ce565b6110ec565b5b6106b5576040517f08c379a00000000000000000000000000000000000000000000000000000000081526004016106ac90612a2a565b60405180910390fd5b6106bf83836112d6565b505050565b600b60009054906101000a900473ffffffffffffffffffffffffffffffffffffffff1673ffffffffffffffffffffffffffffffffffffffff166391d14854600b60009054906101000a900473ffffffffffffffffffffffffffffffffffffffff1673ffffffffffffffffffffffffffffffffffffffff16636fd1c4746040518163ffffffff1660e01b815260040160206040518083038186803b15801561076a57600080fd5b505afa15801561077e573d6000803e3d6000fd5b505050506040513d601f19601f820116820180604052508101906107a29190612a80565b336040518363ffffffff1660e01b81526004016107c0929190612abc565b60206040518083038186803b1580156107d857600080fd5b505afa1580156107ec573d6000803e3d6000fd5b505050506040513d601f19601f820116820180604052508101906108109190612afa565b61081957600080fd5b610823828261138f565b5050565b6000600880549050905090565b61084561083f6112ce565b826113bb565b610884576040517f08c379a000000000000000000000000000000000000000000000000000000000815260040161087b90612b99565b60405180910390fd5b61088f838383611499565b505050565b600061089f83610b8d565b82106108e0576040517f08c379a00000000000000000000000000000000000000000000000000000000081526004016108d790612c2b565b60405180910390fd5b600660008473ffffffffffffffffffffffffffffffffffffffff1673ffffffffffffffffffffffffffffffffffffffff168152602001908152602001600020600083815260200190815260200160002054905092915050565b61095483838360405180602001604052806000815250610e58565b505050565b600b60009054906101000a900473ffffffffffffffffffffffffffffffffffffffff1673ffffffffffffffffffffffffffffffffffffffff16632d662a00336040518263ffffffff1660e01b81526004016109b49190612358565b60206040518083038186803b1580156109cc57600080fd5b505afa1580156109e0573d6000803e3d6000fd5b505050506040513d601f19601f82011682018060405250810190610a049190612afa565b610a0d57600080fd5b610a16816116f5565b610a55816040518060400160405280600381526020017f4e2f41000000000000000000000000000000000000000000000000000000000081525061138f565b50565b6000610a6382611262565b9050919050565b6000610a74610827565b8210610ab5576040517f08c379a0000000000000000000000000000000000000000000000000000000008152600401610aac90612cbd565b60405180910390fd5b60088281548110610ac957610ac8612cdd565b5b90600052602060002001549050919050565b6000806002600084815260200190815260200160002060009054906101000a900473ffffffffffffffffffffffffffffffffffffffff169050600073ffffffffffffffffffffffffffffffffffffffff168173ffffffffffffffffffffffffffffffffffffffff161415610b84576040517f08c379a0000000000000000000000000000000000000000000000000000000008152600401610b7b90612d7e565b60405180910390fd5b80915050919050565b60008073ffffffffffffffffffffffffffffffffffffffff168273ffffffffffffffffffffffffffffffffffffffff161415610bfe576040517f08c379a0000000000000000000000000000000000000000000000000000000008152600401610bf590612e10565b60405180910390fd5b600360008373ffffffffffffffffffffffffffffffffffffffff1673ffffffffffffffffffffffffffffffffffffffff168152602001908152602001600020549050919050565b606060018054610c5490612862565b80601f0160208091040260200160405190810160405280929190818152602001828054610c8090612862565b8015610ccd5780601f10610ca257610100808354040283529160200191610ccd565b820191906000526020600020905b815481529060010190602001808311610cb057829003601f168201915b5050505050905090565b610cdf6112ce565b73ffffffffffffffffffffffffffffffffffffffff168273ffffffffffffffffffffffffffffffffffffffff161415610d4d576040517f08c379a0000000000000000000000000000000000000000000000000000000008152600401610d4490612e7c565b60405180910390fd5b8060056000610d5a6112ce565b73ffffffffffffffffffffffffffffffffffffffff1673ffffffffffffffffffffffffffffffffffffffff16815260200190815260200160002060008473ffffffffffffffffffffffffffffffffffffffff1673ffffffffffffffffffffffffffffffffffffffff16815260200190815260200160002060006101000a81548160ff0219169083151502179055508173ffffffffffffffffffffffffffffffffffffffff16610e076112ce565b73ffffffffffffffffffffffffffffffffffffffff167f17307eab39ab6107e8899845ad3d59bd9653f200f220920489ca2b5937696c3183604051610e4c91906121de565b60405180910390a35050565b610e69610e636112ce565b836113bb565b610ea8576040517f08c379a0000000000000000000000000000000000000000000000000000000008152600401610e9f90612b99565b60405180910390fd5b610eb484848484611806565b50505050565b6060600c60008381526020019081526020016000208054610eda90612862565b80601f0160208091040260200160405190810160405280929190818152602001828054610f0690612862565b8015610f535780601f10610f2857610100808354040283529160200191610f53565b820191906000526020600020905b815481529060010190602001808311610f3657829003601f168201915b50505050509050919050565b600b60009054906101000a900473ffffffffffffffffffffffffffffffffffffffff1673ffffffffffffffffffffffffffffffffffffffff1663f77732fb336040518263ffffffff1660e01b8152600401610fba9190612358565b60206040518083038186803b158015610fd257600080fd5b505afa158015610fe6573d6000803e3d6000fd5b505050506040513d601f19601f8201168201806040525081019061100a9190612afa565b61101357600080fd5b60001515600d826040516110279190612ed8565b908152602001604051809103902060009054906101000a900460ff16151514611085576040517f08c379a000000000000000000000000000000000000000000000000000000000815260040161107c90612f3b565b60405180910390fd5b6000611091600a611862565b905061109d3382611870565b6110a7818361138f565b6001600d836040516110b99190612ed8565b908152602001604051809103902060006101000a81548160ff0219169083151502179055506110e8600a611a3e565b5050565b6000600560008473ffffffffffffffffffffffffffffffffffffffff1673ffffffffffffffffffffffffffffffffffffffff16815260200190815260200160002060008373ffffffffffffffffffffffffffffffffffffffff1673ffffffffffffffffffffffffffffffffffffffff16815260200190815260200160002060009054906101000a900460ff16905092915050565b60007f80ac58cd000000000000000000000000000000000000000000000000000000007bffffffffffffffffffffffffffffffffffffffffffffffffffffffff1916827bffffffffffffffffffffffffffffffffffffffffffffffffffffffff1916148061124b57507f5b5e139f000000000000000000000000000000000000000000000000000000007bffffffffffffffffffffffffffffffffffffffffffffffffffffffff1916827bffffffffffffffffffffffffffffffffffffffffffffffffffffffff1916145b8061125b575061125a82611a54565b5b9050919050565b60008073ffffffffffffffffffffffffffffffffffffffff166002600084815260200190815260200160002060009054906101000a900473ffffffffffffffffffffffffffffffffffffffff1673ffffffffffffffffffffffffffffffffffffffff1614159050919050565b600033905090565b816004600083815260200190815260200160002060006101000a81548173ffffffffffffffffffffffffffffffffffffffff021916908373ffffffffffffffffffffffffffffffffffffffff160217905550808273ffffffffffffffffffffffffffffffffffffffff1661134983610adb565b73ffffffffffffffffffffffffffffffffffffffff167f8c5be1e5ebec7d5bd14f71427d1e84f3dd0314c0f7b2291e5b200ac8c7c3b92560405160405180910390a45050565b80600c600084815260200190815260200160002090805190602001906113b6929190612087565b505050565b60006113c682611262565b611405576040517f08c379a00000000000000000000000000000000000000000000000000000000081526004016113fc90612fcd565b60405180910390fd5b600061141083610adb565b90508073ffffffffffffffffffffffffffffffffffffffff168473ffffffffffffffffffffffffffffffffffffffff16148061147f57508373ffffffffffffffffffffffffffffffffffffffff1661146784610527565b73ffffffffffffffffffffffffffffffffffffffff16145b80611490575061148f81856110ec565b5b91505092915050565b8273ffffffffffffffffffffffffffffffffffffffff166114b982610adb565b73ffffffffffffffffffffffffffffffffffffffff161461150f576040517f08c379a00000000000000000000000000000000000000000000000000000000081526004016115069061305f565b60405180910390fd5b600073ffffffffffffffffffffffffffffffffffffffff168273ffffffffffffffffffffffffffffffffffffffff16141561157f576040517f08c379a0000000000000000000000000000000000000000000000000000000008152600401611576906130f1565b60405180910390fd5b61158a838383611abe565b6115956000826112d6565b6001600360008573ffffffffffffffffffffffffffffffffffffffff1673ffffffffffffffffffffffffffffffffffffffff16815260200190815260200160002060008282546115e59190613140565b925050819055506001600360008473ffffffffffffffffffffffffffffffffffffffff1673ffffffffffffffffffffffffffffffffffffffff168152602001908152602001600020600082825461163c9190613174565b92505081905550816002600083815260200190815260200160002060006101000a81548173ffffffffffffffffffffffffffffffffffffffff021916908373ffffffffffffffffffffffffffffffffffffffff160217905550808273ffffffffffffffffffffffffffffffffffffffff168473ffffffffffffffffffffffffffffffffffffffff167fddf252ad1be2c89b69c2b068fc378daa952ba7f163c4a11628f55a4df523b3ef60405160405180910390a4505050565b600061170082610adb565b905061170e81600084611abe565b6117196000836112d6565b6001600360008373ffffffffffffffffffffffffffffffffffffffff1673ffffffffffffffffffffffffffffffffffffffff16815260200190815260200160002060008282546117699190613140565b925050819055506002600083815260200190815260200160002060006101000a81549073ffffffffffffffffffffffffffffffffffffffff021916905581600073ffffffffffffffffffffffffffffffffffffffff168273ffffffffffffffffffffffffffffffffffffffff167fddf252ad1be2c89b69c2b068fc378daa952ba7f163c4a11628f55a4df523b3ef60405160405180910390a45050565b611811848484611499565b61181d84848484611bd2565b61185c576040517f08c379a00000000000000000000000000000000000000000000000000000000081526004016118539061323c565b60405180910390fd5b50505050565b600081600001549050919050565b600073ffffffffffffffffffffffffffffffffffffffff168273ffffffffffffffffffffffffffffffffffffffff1614156118e0576040517f08c379a00000000000000000000000000000000000000000000000000000000081526004016118d7906132a8565b60405180910390fd5b6118e981611262565b15611929576040517f08c379a000000000000000000000000000000000000000000000000000000000815260040161192090613314565b60405180910390fd5b61193560008383611abe565b6001600360008473ffffffffffffffffffffffffffffffffffffffff1673ffffffffffffffffffffffffffffffffffffffff16815260200190815260200160002060008282546119859190613174565b92505081905550816002600083815260200190815260200160002060006101000a81548173ffffffffffffffffffffffffffffffffffffffff021916908373ffffffffffffffffffffffffffffffffffffffff160217905550808273ffffffffffffffffffffffffffffffffffffffff16600073ffffffffffffffffffffffffffffffffffffffff167fddf252ad1be2c89b69c2b068fc378daa952ba7f163c4a11628f55a4df523b3ef60405160405180910390a45050565b6001816000016000828254019250508190555050565b60007f01ffc9a7000000000000000000000000000000000000000000000000000000007bffffffffffffffffffffffffffffffffffffffffffffffffffffffff1916827bffffffffffffffffffffffffffffffffffffffffffffffffffffffff1916149050919050565b611ac9838383611d69565b600073ffffffffffffffffffffffffffffffffffffffff168373ffffffffffffffffffffffffffffffffffffffff161415611b0c57611b0781611d6e565b611b4b565b8173ffffffffffffffffffffffffffffffffffffffff168373ffffffffffffffffffffffffffffffffffffffff1614611b4a57611b498382611db7565b5b5b600073ffffffffffffffffffffffffffffffffffffffff168273ffffffffffffffffffffffffffffffffffffffff161415611b8e57611b8981611f24565b611bcd565b8273ffffffffffffffffffffffffffffffffffffffff168273ffffffffffffffffffffffffffffffffffffffff1614611bcc57611bcb8282611ff5565b5b5b505050565b6000611bf38473ffffffffffffffffffffffffffffffffffffffff16612074565b15611d5c578373ffffffffffffffffffffffffffffffffffffffff1663150b7a02611c1c6112ce565b8786866040518563ffffffff1660e01b8152600401611c3e9493929190613389565b602060405180830381600087803b158015611c5857600080fd5b505af1925050508015611c8957506040513d601f19601f82011682018060405250810190611c8691906133ea565b60015b611d0c573d8060008114611cb9576040519150601f19603f3d011682016040523d82523d6000602084013e611cbe565b606091505b50600081511415611d04576040517f08c379a0000000000000000000000000000000000000000000000000000000008152600401611cfb9061323c565b60405180910390fd5b805181602001fd5b63150b7a0260e01b7bffffffffffffffffffffffffffffffffffffffffffffffffffffffff1916817bffffffffffffffffffffffffffffffffffffffffffffffffffffffff191614915050611d61565b600190505b949350505050565b505050565b6008805490506009600083815260200190815260200160002081905550600881908060018154018082558091505060019003906000526020600020016000909190919091505550565b60006001611dc484610b8d565b611dce9190613140565b9050600060076000848152602001908152602001600020549050818114611eb3576000600660008673ffffffffffffffffffffffffffffffffffffffff1673ffffffffffffffffffffffffffffffffffffffff168152602001908152602001600020600084815260200190815260200160002054905080600660008773ffffffffffffffffffffffffffffffffffffffff1673ffffffffffffffffffffffffffffffffffffffff168152602001908152602001600020600084815260200190815260200160002081905550816007600083815260200190815260200160002081905550505b6007600084815260200190815260200160002060009055600660008573ffffffffffffffffffffffffffffffffffffffff1673ffffffffffffffffffffffffffffffffffffffff16815260200190815260200160002060008381526020019081526020016000206000905550505050565b60006001600880549050611f389190613140565b9050600060096000848152602001908152602001600020549050600060088381548110611f6857611f67612cdd565b5b906000526020600020015490508060088381548110611f8a57611f89612cdd565b5b906000526020600020018190555081600960008381526020019081526020016000208190555060096000858152602001908152602001600020600090556008805480611fd957611fd8613417565b5b6001900381819060005260206000200160009055905550505050565b600061200083610b8d565b905081600660008573ffffffffffffffffffffffffffffffffffffffff1673ffffffffffffffffffffffffffffffffffffffff168152602001908152602001600020600083815260200190815260200160002081905550806007600084815260200190815260200160002081905550505050565b600080823b905060008111915050919050565b82805461209390612862565b90600052602060002090601f0160209004810192826120b557600085556120fc565b82601f106120ce57805160ff19168380011785556120fc565b828001600101855582156120fc579182015b828111156120fb5782518255916020019190600101906120e0565b5b509050612109919061210d565b5090565b5b8082111561212657600081600090555060010161210e565b5090565b6000604051905090565b600080fd5b600080fd5b60007fffffffff0000000000000000000000000000000000000000000000000000000082169050919050565b6121738161213e565b811461217e57600080fd5b50565b6000813590506121908161216a565b92915050565b6000602082840312156121ac576121ab612134565b5b60006121ba84828501612181565b91505092915050565b60008115159050919050565b6121d8816121c3565b82525050565b60006020820190506121f360008301846121cf565b92915050565b600081519050919050565b600082825260208201905092915050565b60005b83811015612233578082015181840152602081019050612218565b83811115612242576000848401525b50505050565b6000601f19601f8301169050919050565b6000612264826121f9565b61226e8185612204565b935061227e818560208601612215565b61228781612248565b840191505092915050565b600060208201905081810360008301526122ac8184612259565b905092915050565b6000819050919050565b6122c7816122b4565b81146122d257600080fd5b50565b6000813590506122e4816122be565b92915050565b600060208284031215612300576122ff612134565b5b600061230e848285016122d5565b91505092915050565b600073ffffffffffffffffffffffffffffffffffffffff82169050919050565b600061234282612317565b9050919050565b61235281612337565b82525050565b600060208201905061236d6000830184612349565b92915050565b61237c81612337565b811461238757600080fd5b50565b60008135905061239981612373565b92915050565b600080604083850312156123b6576123b5612134565b5b60006123c48582860161238a565b92505060206123d5858286016122d5565b9150509250929050565b600080fd5b600080fd5b7f4e487b7100000000000000000000000000000000000000000000000000000000600052604160045260246000fd5b61242182612248565b810181811067ffffffffffffffff821117156124405761243f6123e9565b5b80604052505050565b600061245361212a565b905061245f8282612418565b919050565b600067ffffffffffffffff82111561247f5761247e6123e9565b5b61248882612248565b9050602081019050919050565b82818337600083830152505050565b60006124b76124b284612464565b612449565b9050828152602081018484840111156124d3576124d26123e4565b5b6124de848285612495565b509392505050565b600082601f8301126124fb576124fa6123df565b5b813561250b8482602086016124a4565b91505092915050565b6000806040838503121561252b5761252a612134565b5b6000612539858286016122d5565b925050602083013567ffffffffffffffff81111561255a57612559612139565b5b612566858286016124e6565b9150509250929050565b612579816122b4565b82525050565b60006020820190506125946000830184612570565b92915050565b6000806000606084860312156125b3576125b2612134565b5b60006125c18682870161238a565b93505060206125d28682870161238a565b92505060406125e3868287016122d5565b9150509250925092565b60006020828403121561260357612602612134565b5b60006126118482850161238a565b91505092915050565b612623816121c3565b811461262e57600080fd5b50565b6000813590506126408161261a565b92915050565b6000806040838503121561265d5761265c612134565b5b600061266b8582860161238a565b925050602061267c85828601612631565b9150509250929050565b600067ffffffffffffffff8211156126a1576126a06123e9565b5b6126aa82612248565b9050602081019050919050565b60006126ca6126c584612686565b612449565b9050828152602081018484840111156126e6576126e56123e4565b5b6126f1848285612495565b509392505050565b600082601f83011261270e5761270d6123df565b5b813561271e8482602086016126b7565b91505092915050565b6000806000806080858703121561274157612740612134565b5b600061274f8782880161238a565b94505060206127608782880161238a565b9350506040612771878288016122d5565b925050606085013567ffffffffffffffff81111561279257612791612139565b5b61279e878288016126f9565b91505092959194509250565b6000602082840312156127c0576127bf612134565b5b600082013567ffffffffffffffff8111156127de576127dd612139565b5b6127ea848285016124e6565b91505092915050565b6000806040838503121561280a57612809612134565b5b60006128188582860161238a565b92505060206128298582860161238a565b9150509250929050565b7f4e487b7100000000000000000000000000000000000000000000000000000000600052602260045260246000fd5b6000600282049050600182168061287a57607f821691505b6020821081141561288e5761288d612833565b5b50919050565b7f4552433732313a20617070726f76656420717565727920666f72206e6f6e657860008201527f697374656e7420746f6b656e0000000000000000000000000000000000000000602082015250565b60006128f0602c83612204565b91506128fb82612894565b604082019050919050565b6000602082019050818103600083015261291f816128e3565b9050919050565b7f4552433732313a20617070726f76616c20746f2063757272656e74206f776e6560008201527f7200000000000000000000000000000000000000000000000000000000000000602082015250565b6000612982602183612204565b915061298d82612926565b604082019050919050565b600060208201905081810360008301526129b181612975565b9050919050565b7f4552433732313a20617070726f76652063616c6c6572206973206e6f74206f7760008201527f6e6572206e6f7220617070726f76656420666f7220616c6c0000000000000000602082015250565b6000612a14603883612204565b9150612a1f826129b8565b604082019050919050565b60006020820190508181036000830152612a4381612a07565b9050919050565b6000819050919050565b612a5d81612a4a565b8114612a6857600080fd5b50565b600081519050612a7a81612a54565b92915050565b600060208284031215612a9657612a95612134565b5b6000612aa484828501612a6b565b91505092915050565b612ab681612a4a565b82525050565b6000604082019050612ad16000830185612aad565b612ade6020830184612349565b9392505050565b600081519050612af48161261a565b92915050565b600060208284031215612b1057612b0f612134565b5b6000612b1e84828501612ae5565b91505092915050565b7f4552433732313a207472616e736665722063616c6c6572206973206e6f74206f60008201527f776e6572206e6f7220617070726f766564000000000000000000000000000000602082015250565b6000612b83603183612204565b9150612b8e82612b27565b604082019050919050565b60006020820190508181036000830152612bb281612b76565b9050919050565b7f455243373231456e756d657261626c653a206f776e657220696e646578206f7560008201527f74206f6620626f756e6473000000000000000000000000000000000000000000602082015250565b6000612c15602b83612204565b9150612c2082612bb9565b604082019050919050565b60006020820190508181036000830152612c4481612c08565b9050919050565b7f455243373231456e756d657261626c653a20676c6f62616c20696e646578206f60008201527f7574206f6620626f756e64730000000000000000000000000000000000000000602082015250565b6000612ca7602c83612204565b9150612cb282612c4b565b604082019050919050565b60006020820190508181036000830152612cd681612c9a565b9050919050565b7f4e487b7100000000000000000000000000000000000000000000000000000000600052603260045260246000fd5b7f4552433732313a206f776e657220717565727920666f72206e6f6e657869737460008201527f656e7420746f6b656e0000000000000000000000000000000000000000000000602082015250565b6000612d68602983612204565b9150612d7382612d0c565b604082019050919050565b60006020820190508181036000830152612d9781612d5b565b9050919050565b7f4552433732313a2062616c616e636520717565727920666f7220746865207a6560008201527f726f206164647265737300000000000000000000000000000000000000000000602082015250565b6000612dfa602a83612204565b9150612e0582612d9e565b604082019050919050565b60006020820190508181036000830152612e2981612ded565b9050919050565b7f4552433732313a20617070726f766520746f2063616c6c657200000000000000600082015250565b6000612e66601983612204565b9150612e7182612e30565b602082019050919050565b60006020820190508181036000830152612e9581612e59565b9050919050565b600081905092915050565b6000612eb2826121f9565b612ebc8185612e9c565b9350612ecc818560208601612215565b80840191505092915050565b6000612ee48284612ea7565b915081905092915050565b7f4533000000000000000000000000000000000000000000000000000000000000600082015250565b6000612f25600283612204565b9150612f3082612eef565b602082019050919050565b60006020820190508181036000830152612f5481612f18565b9050919050565b7f4552433732313a206f70657261746f7220717565727920666f72206e6f6e657860008201527f697374656e7420746f6b656e0000000000000000000000000000000000000000602082015250565b6000612fb7602c83612204565b9150612fc282612f5b565b604082019050919050565b60006020820190508181036000830152612fe681612faa565b9050919050565b7f4552433732313a207472616e73666572206f6620746f6b656e2074686174206960008201527f73206e6f74206f776e0000000000000000000000000000000000000000000000602082015250565b6000613049602983612204565b915061305482612fed565b604082019050919050565b600060208201905081810360008301526130788161303c565b9050919050565b7f4552433732313a207472616e7366657220746f20746865207a65726f2061646460008201527f7265737300000000000000000000000000000000000000000000000000000000602082015250565b60006130db602483612204565b91506130e68261307f565b604082019050919050565b6000602082019050818103600083015261310a816130ce565b9050919050565b7f4e487b7100000000000000000000000000000000000000000000000000000000600052601160045260246000fd5b600061314b826122b4565b9150613156836122b4565b92508282101561316957613168613111565b5b828203905092915050565b600061317f826122b4565b915061318a836122b4565b9250827fffffffffffffffffffffffffffffffffffffffffffffffffffffffffffffffff038211156131bf576131be613111565b5b828201905092915050565b7f4552433732313a207472616e7366657220746f206e6f6e20455243373231526560008201527f63656976657220696d706c656d656e7465720000000000000000000000000000602082015250565b6000613226603283612204565b9150613231826131ca565b604082019050919050565b6000602082019050818103600083015261325581613219565b9050919050565b7f4552433732313a206d696e7420746f20746865207a65726f2061646472657373600082015250565b6000613292602083612204565b915061329d8261325c565b602082019050919050565b600060208201905081810360008301526132c181613285565b9050919050565b7f4552433732313a20746f6b656e20616c7265616479206d696e74656400000000600082015250565b60006132fe601c83612204565b9150613309826132c8565b602082019050919050565b6000602082019050818103600083015261332d816132f1565b9050919050565b600081519050919050565b600082825260208201905092915050565b600061335b82613334565b613365818561333f565b9350613375818560208601612215565b61337e81612248565b840191505092915050565b600060808201905061339e6000830187612349565b6133ab6020830186612349565b6133b86040830185612570565b81810360608301526133ca8184613350565b905095945050505050565b6000815190506133e48161216a565b92915050565b600060208284031215613400576133ff612134565b5b600061340e848285016133d5565b91505092915050565b7f4e487b7100000000000000000000000000000000000000000000000000000000600052603160045260246000fdfea26469706673582212205034f98ab36e8de196c6c79d22d05b0451e6a6bc72ffbf773e4cd45eaf9ea1d464736f6c63430008090033",
  "immutableReferences": {},
  "source": "// SPDX-License-Identifier: MIT\r\npragma solidity >=0.6.0 <0.9.0;\r\n\r\nimport \"@openzeppelin/contracts/token/ERC721/extensions/ERC721Enumerable.sol\";\r\nimport \"@openzeppelin/contracts/utils/Counters.sol\";\r\n\r\nimport \"./Roles.sol\";\r\n\r\ncontract Vehicle is ERC721Enumerable {\r\n\r\n    using Counters for Counters.Counter;\r\n    Counters.Counter _tokenIds;\r\n\r\n    Roles roles;\r\n\r\n    mapping(uint256 => string) internal _tokenURIs;\r\n    mapping(string => bool) private _uriRegistered;\r\n\r\n    constructor(address addr) ERC721(\"Vehicle\", \"VHC\") {\r\n        roles = Roles(addr);\r\n    }\r\n  \r\n    function tokenURI(uint256 tokenId)\r\n        public\r\n        view\r\n        virtual\r\n        override\r\n        returns (string memory)\r\n    {\r\n        return _tokenURIs[tokenId];\r\n    }\r\n\r\n    function exists(uint256 tokenId) external view returns (bool) {\r\n        return _exists(tokenId);\r\n    }\r\n\r\n    function setTokenURI(uint256 tokenId, string memory _tokenURI) external {\r\n        require (roles.hasRole(roles.GARAGE_ROLE(), msg.sender));\r\n        _setTokenURI(tokenId, _tokenURI);\r\n    }\r\n\r\n    function _setTokenURI(uint256 tokenId, string memory _tokenURI) internal {\r\n        _tokenURIs[tokenId] = _tokenURI;\r\n    }\r\n\r\n    function mint(string memory uri) external {\r\n        require(\r\n            roles.isMinterClass(msg.sender)\r\n        );\r\n        require(_uriRegistered[uri] == false, \"E3\");\r\n        uint256 _tokenId = _tokenIds.current();\r\n        _mint(msg.sender, _tokenId);\r\n        _setTokenURI(_tokenId, uri);\r\n        _uriRegistered[uri] = true;\r\n        _tokenIds.increment();\r\n    }\r\n\r\n    function burn(uint256 _tokenId) external {\r\n        require(\r\n            roles.isAuthorityClass(msg.sender)\r\n        );\r\n        _burn(_tokenId);\r\n        _setTokenURI(_tokenId, \"N/A\");\r\n    }\r\n}\r\n",
  "sourcePath": "C:\\sgs020\\contracts\\Vehicle.sol",
  "compiler": {
    "name": "solc",
    "version": "0.8.9+commit.e5eed63a.Emscripten.clang"
  },
  "schemaVersion": "3.4.3",
  "updatedAt": "2022-02-28T19:26:27.245Z",
  "networkType": "ethereum",
  "devdoc": {
    "kind": "dev",
    "methods": {
      "approve(address,uint256)": {
        "details": "See {IERC721-approve}."
      },
      "balanceOf(address)": {
        "details": "See {IERC721-balanceOf}."
      },
      "getApproved(uint256)": {
        "details": "See {IERC721-getApproved}."
      },
      "isApprovedForAll(address,address)": {
        "details": "See {IERC721-isApprovedForAll}."
      },
      "name()": {
        "details": "See {IERC721Metadata-name}."
      },
      "ownerOf(uint256)": {
        "details": "See {IERC721-ownerOf}."
      },
      "safeTransferFrom(address,address,uint256)": {
        "details": "See {IERC721-safeTransferFrom}."
      },
      "safeTransferFrom(address,address,uint256,bytes)": {
        "details": "See {IERC721-safeTransferFrom}."
      },
      "setApprovalForAll(address,bool)": {
        "details": "See {IERC721-setApprovalForAll}."
      },
      "supportsInterface(bytes4)": {
        "details": "See {IERC165-supportsInterface}."
      },
      "symbol()": {
        "details": "See {IERC721Metadata-symbol}."
      },
      "tokenByIndex(uint256)": {
        "details": "See {IERC721Enumerable-tokenByIndex}."
      },
      "tokenOfOwnerByIndex(address,uint256)": {
        "details": "See {IERC721Enumerable-tokenOfOwnerByIndex}."
      },
      "tokenURI(uint256)": {
        "details": "See {IERC721Metadata-tokenURI}."
      },
      "totalSupply()": {
        "details": "See {IERC721Enumerable-totalSupply}."
      },
      "transferFrom(address,address,uint256)": {
        "details": "See {IERC721-transferFrom}."
      }
    },
    "version": 1
  },
  "userdoc": {
    "kind": "user",
    "methods": {},
    "version": 1
  }
}